{
	"contracts/ManageVault.sol": {
		"Vault": {
			"abi": [
				{
					"anonymous": false,
					"inputs": [
						{
							"indexed": true,
							"internalType": "uint256",
							"name": "transactionId",
							"type": "uint256"
						}
					],
					"name": "Approved",
					"type": "event"
				},
				{
					"anonymous": false,
					"inputs": [
						{
							"indexed": true,
							"internalType": "uint256",
							"name": "transactionId",
							"type": "uint256"
						}
					],
					"name": "Cancelled",
					"type": "event"
				},
				{
					"anonymous": false,
					"inputs": [
						{
							"indexed": true,
							"internalType": "uint256",
							"name": "transactionId",
							"type": "uint256"
						},
						{
							"indexed": true,
							"internalType": "address",
							"name": "token",
							"type": "address"
						},
						{
							"indexed": true,
							"internalType": "address",
							"name": "from",
							"type": "address"
						},
						{
							"indexed": false,
							"internalType": "uint256",
							"name": "amount",
							"type": "uint256"
						}
					],
					"name": "Deposited",
					"type": "event"
				},
				{
					"anonymous": false,
					"inputs": [
						{
							"indexed": true,
							"internalType": "uint256",
							"name": "transactionId",
							"type": "uint256"
						}
					],
					"name": "Expired",
					"type": "event"
				},
				{
					"anonymous": false,
					"inputs": [
						{
							"indexed": true,
							"internalType": "uint256",
							"name": "transactionId",
							"type": "uint256"
						},
						{
							"indexed": true,
							"internalType": "address",
							"name": "to",
							"type": "address"
						},
						{
							"indexed": false,
							"internalType": "uint256",
							"name": "amount",
							"type": "uint256"
						}
					],
					"name": "FundsTransferred",
					"type": "event"
				},
				{
					"anonymous": false,
					"inputs": [
						{
							"indexed": true,
							"internalType": "uint256",
							"name": "transactionId",
							"type": "uint256"
						}
					],
					"name": "Rejected",
					"type": "event"
				},
				{
					"anonymous": false,
					"inputs": [
						{
							"indexed": true,
							"internalType": "uint256",
							"name": "transactionId",
							"type": "uint256"
						},
						{
							"indexed": true,
							"internalType": "address",
							"name": "buyer",
							"type": "address"
						},
						{
							"indexed": true,
							"internalType": "address",
							"name": "seller",
							"type": "address"
						},
						{
							"indexed": false,
							"internalType": "address",
							"name": "approver",
							"type": "address"
						}
					],
					"name": "RolesAssigned",
					"type": "event"
				},
				{
					"anonymous": false,
					"inputs": [
						{
							"indexed": true,
							"internalType": "uint256",
							"name": "transactionId",
							"type": "uint256"
						},
						{
							"indexed": true,
							"internalType": "address",
							"name": "token",
							"type": "address"
						},
						{
							"indexed": true,
							"internalType": "address",
							"name": "to",
							"type": "address"
						},
						{
							"indexed": false,
							"internalType": "uint256",
							"name": "amount",
							"type": "uint256"
						}
					],
					"name": "TokensTransferred",
					"type": "event"
				},
				{
					"inputs": [],
					"name": "EXPIRY_DURATION",
					"outputs": [
						{
							"internalType": "uint256",
							"name": "",
							"type": "uint256"
						}
					],
					"stateMutability": "view",
					"type": "function"
				},
				{
					"inputs": [
						{
							"internalType": "uint256",
							"name": "transactionId",
							"type": "uint256"
						}
					],
					"name": "approve",
					"outputs": [],
					"stateMutability": "nonpayable",
					"type": "function"
				},
				{
					"inputs": [
						{
							"internalType": "uint256",
							"name": "transactionId",
							"type": "uint256"
						}
					],
					"name": "cancel",
					"outputs": [],
					"stateMutability": "nonpayable",
					"type": "function"
				},
				{
					"inputs": [
						{
							"internalType": "uint256",
							"name": "transactionId",
							"type": "uint256"
						}
					],
					"name": "claimAfterExpiry",
					"outputs": [],
					"stateMutability": "nonpayable",
					"type": "function"
				},
				{
					"inputs": [
						{
							"internalType": "address",
							"name": "_seller",
							"type": "address"
						},
						{
							"internalType": "address",
							"name": "_approver",
							"type": "address"
						}
					],
					"name": "createTransaction",
					"outputs": [
						{
							"internalType": "uint256",
							"name": "",
							"type": "uint256"
						}
					],
					"stateMutability": "nonpayable",
					"type": "function"
				},
				{
					"inputs": [
						{
							"internalType": "uint256",
							"name": "transactionId",
							"type": "uint256"
						},
						{
							"internalType": "contract IERC20",
							"name": "token",
							"type": "address"
						},
						{
							"internalType": "uint256",
							"name": "amount",
							"type": "uint256"
						}
					],
					"name": "depositERC20",
					"outputs": [],
					"stateMutability": "nonpayable",
					"type": "function"
				},
				{
					"inputs": [
						{
							"internalType": "uint256",
							"name": "transactionId",
							"type": "uint256"
						}
					],
					"name": "depositETH",
					"outputs": [],
					"stateMutability": "payable",
					"type": "function"
				},
				{
					"inputs": [
						{
							"internalType": "uint256",
							"name": "transactionId",
							"type": "uint256"
						}
					],
					"name": "reject",
					"outputs": [],
					"stateMutability": "nonpayable",
					"type": "function"
				},
				{
					"inputs": [],
					"name": "transactionCount",
					"outputs": [
						{
							"internalType": "uint256",
							"name": "",
							"type": "uint256"
						}
					],
					"stateMutability": "view",
					"type": "function"
				}
			],
			"devdoc": {
				"kind": "dev",
				"methods": {},
				"version": 1
			},
			"evm": {
				"assembly": "    /* \"contracts/ManageVault.sol\":184:6949  contract Vault is ReentrancyGuard {... */\n  mstore(0x40, 0x80)\n  callvalue\n  dup1\n  iszero\n  tag_1\n  jumpi\n  0x00\n  dup1\n  revert\ntag_1:\n  pop\n    /* \"@openzeppelin/contracts/security/ReentrancyGuard.sol\":1716:1717  1 */\n  0x01\n    /* \"@openzeppelin/contracts/security/ReentrancyGuard.sol\":1821:1828  _status */\n  0x00\n    /* \"@openzeppelin/contracts/security/ReentrancyGuard.sol\":1821:1843  _status = _NOT_ENTERED */\n  dup2\n  swap1\n  sstore\n  pop\n    /* \"contracts/ManageVault.sol\":184:6949  contract Vault is ReentrancyGuard {... */\n  dataSize(sub_0)\n  dup1\n  dataOffset(sub_0)\n  0x00\n  codecopy\n  0x00\n  return\nstop\n\nsub_0: assembly {\n        /* \"contracts/ManageVault.sol\":184:6949  contract Vault is ReentrancyGuard {... */\n      mstore(0x40, 0x80)\n      jumpi(tag_1, lt(calldatasize, 0x04))\n      shr(0xe0, calldataload(0x00))\n      dup1\n      0x662a2c25\n      gt\n      tag_11\n      jumpi\n      dup1\n      0x662a2c25\n      eq\n      tag_6\n      jumpi\n      dup1\n      0xb0facab3\n      eq\n      tag_7\n      jumpi\n      dup1\n      0xb759f954\n      eq\n      tag_8\n      jumpi\n      dup1\n      0xb77bf600\n      eq\n      tag_9\n      jumpi\n      dup1\n      0xb8adaa11\n      eq\n      tag_10\n      jumpi\n      jump(tag_1)\n    tag_11:\n      dup1\n      0x32a5433b\n      eq\n      tag_2\n      jumpi\n      dup1\n      0x3d3eeac9\n      eq\n      tag_3\n      jumpi\n      dup1\n      0x40e58ee5\n      eq\n      tag_4\n      jumpi\n      dup1\n      0x5358fbda\n      eq\n      tag_5\n      jumpi\n    tag_1:\n      0x00\n      dup1\n      revert\n        /* \"contracts/ManageVault.sol\":4756:5194  function claimAfterExpiry(uint256 transactionId) external transactionExists(transactionId) onlyBuyer(transactionId) nonReentrant {... */\n    tag_2:\n      callvalue\n      dup1\n      iszero\n      tag_12\n      jumpi\n      0x00\n      dup1\n      revert\n    tag_12:\n      pop\n      tag_13\n      0x04\n      dup1\n      calldatasize\n      sub\n      dup2\n      add\n      swap1\n      tag_14\n      swap2\n      swap1\n      tag_15\n      jump\t// in\n    tag_14:\n      tag_16\n      jump\t// in\n    tag_13:\n      stop\n        /* \"contracts/ManageVault.sol\":1299:1347  uint256 public constant EXPIRY_DURATION = 1 days */\n    tag_3:\n      callvalue\n      dup1\n      iszero\n      tag_17\n      jumpi\n      0x00\n      dup1\n      revert\n    tag_17:\n      pop\n      tag_18\n      tag_19\n      jump\t// in\n    tag_18:\n      mload(0x40)\n      tag_20\n      swap2\n      swap1\n      tag_21\n      jump\t// in\n    tag_20:\n      mload(0x40)\n      dup1\n      swap2\n      sub\n      swap1\n      return\n        /* \"contracts/ManageVault.sol\":4424:4748  function cancel(uint256 transactionId) external transactionExists(transactionId) onlyBuyer(transactionId) nonReentrant {... */\n    tag_4:\n      callvalue\n      dup1\n      iszero\n      tag_22\n      jumpi\n      0x00\n      dup1\n      revert\n    tag_22:\n      pop\n      tag_23\n      0x04\n      dup1\n      calldatasize\n      sub\n      dup2\n      add\n      swap1\n      tag_24\n      swap2\n      swap1\n      tag_15\n      jump\t// in\n    tag_24:\n      tag_25\n      jump\t// in\n    tag_23:\n      stop\n        /* \"contracts/ManageVault.sol\":2352:2851  function depositETH(uint256 transactionId) external payable transactionExists(transactionId) onlyBuyer(transactionId) nonReentrant {... */\n    tag_5:\n      tag_26\n      0x04\n      dup1\n      calldatasize\n      sub\n      dup2\n      add\n      swap1\n      tag_27\n      swap2\n      swap1\n      tag_15\n      jump\t// in\n    tag_27:\n      tag_28\n      jump\t// in\n    tag_26:\n      stop\n        /* \"contracts/ManageVault.sol\":1848:2344  function createTransaction(address _seller, address _approver) external returns (uint256) {... */\n    tag_6:\n      callvalue\n      dup1\n      iszero\n      tag_29\n      jumpi\n      0x00\n      dup1\n      revert\n    tag_29:\n      pop\n      tag_30\n      0x04\n      dup1\n      calldatasize\n      sub\n      dup2\n      add\n      swap1\n      tag_31\n      swap2\n      swap1\n      tag_32\n      jump\t// in\n    tag_31:\n      tag_33\n      jump\t// in\n    tag_30:\n      mload(0x40)\n      tag_34\n      swap2\n      swap1\n      tag_21\n      jump\t// in\n    tag_34:\n      mload(0x40)\n      dup1\n      swap2\n      sub\n      swap1\n      return\n        /* \"contracts/ManageVault.sol\":2859:3620  function depositERC20(uint256 transactionId, IERC20 token, uint256 amount) external transactionExists(transactionId) onlyBuyer(transactionId) nonReentrant {... */\n    tag_7:\n      callvalue\n      dup1\n      iszero\n      tag_35\n      jumpi\n      0x00\n      dup1\n      revert\n    tag_35:\n      pop\n      tag_36\n      0x04\n      dup1\n      calldatasize\n      sub\n      dup2\n      add\n      swap1\n      tag_37\n      swap2\n      swap1\n      tag_38\n      jump\t// in\n    tag_37:\n      tag_39\n      jump\t// in\n    tag_36:\n      stop\n        /* \"contracts/ManageVault.sol\":3628:4082  function approve(uint256 transactionId) external transactionExists(transactionId) onlyApprover(transactionId) nonReentrant {... */\n    tag_8:\n      callvalue\n      dup1\n      iszero\n      tag_40\n      jumpi\n      0x00\n      dup1\n      revert\n    tag_40:\n      pop\n      tag_41\n      0x04\n      dup1\n      calldatasize\n      sub\n      dup2\n      add\n      swap1\n      tag_42\n      swap2\n      swap1\n      tag_15\n      jump\t// in\n    tag_42:\n      tag_43\n      jump\t// in\n    tag_41:\n      stop\n        /* \"contracts/ManageVault.sol\":597:628  uint256 public transactionCount */\n    tag_9:\n      callvalue\n      dup1\n      iszero\n      tag_44\n      jumpi\n      0x00\n      dup1\n      revert\n    tag_44:\n      pop\n      tag_45\n      tag_46\n      jump\t// in\n    tag_45:\n      mload(0x40)\n      tag_47\n      swap2\n      swap1\n      tag_21\n      jump\t// in\n    tag_47:\n      mload(0x40)\n      dup1\n      swap2\n      sub\n      swap1\n      return\n        /* \"contracts/ManageVault.sol\":4090:4416  function reject(uint256 transactionId) external transactionExists(transactionId) onlyApprover(transactionId) nonReentrant {... */\n    tag_10:\n      callvalue\n      dup1\n      iszero\n      tag_48\n      jumpi\n      0x00\n      dup1\n      revert\n    tag_48:\n      pop\n      tag_49\n      0x04\n      dup1\n      calldatasize\n      sub\n      dup2\n      add\n      swap1\n      tag_50\n      swap2\n      swap1\n      tag_15\n      jump\t// in\n    tag_50:\n      tag_51\n      jump\t// in\n    tag_49:\n      stop\n        /* \"contracts/ManageVault.sol\":4756:5194  function claimAfterExpiry(uint256 transactionId) external transactionExists(transactionId) onlyBuyer(transactionId) nonReentrant {... */\n    tag_16:\n        /* \"contracts/ManageVault.sol\":4832:4845  transactionId */\n      dup1\n        /* \"contracts/ManageVault.sol\":1787:1788  0 */\n      0x00\n        /* \"contracts/ManageVault.sol\":1742:1789  transactions[transactionId].buyer != address(0) */\n      0xffffffffffffffffffffffffffffffffffffffff\n      and\n        /* \"contracts/ManageVault.sol\":1742:1754  transactions */\n      0x01\n        /* \"contracts/ManageVault.sol\":1742:1769  transactions[transactionId] */\n      0x00\n        /* \"contracts/ManageVault.sol\":1755:1768  transactionId */\n      dup4\n        /* \"contracts/ManageVault.sol\":1742:1769  transactions[transactionId] */\n      dup2\n      mstore\n      0x20\n      add\n      swap1\n      dup2\n      mstore\n      0x20\n      add\n      0x00\n      keccak256\n        /* \"contracts/ManageVault.sol\":1742:1775  transactions[transactionId].buyer */\n      0x00\n      add\n      0x00\n      swap1\n      sload\n      swap1\n      0x0100\n      exp\n      swap1\n      div\n      0xffffffffffffffffffffffffffffffffffffffff\n      and\n        /* \"contracts/ManageVault.sol\":1742:1789  transactions[transactionId].buyer != address(0) */\n      0xffffffffffffffffffffffffffffffffffffffff\n      and\n      sub\n        /* \"contracts/ManageVault.sol\":1734:1820  require(transactions[transactionId].buyer != address(0), \"Transaction does not exist\") */\n      tag_53\n      jumpi\n      mload(0x40)\n      0x08c379a000000000000000000000000000000000000000000000000000000000\n      dup2\n      mstore\n      0x04\n      add\n      tag_54\n      swap1\n      tag_55\n      jump\t// in\n    tag_54:\n      mload(0x40)\n      dup1\n      swap2\n      sub\n      swap1\n      revert\n    tag_53:\n        /* \"contracts/ManageVault.sol\":4857:4870  transactionId */\n      dup2\n        /* \"contracts/ManageVault.sol\":1431:1443  transactions */\n      0x01\n        /* \"contracts/ManageVault.sol\":1431:1458  transactions[transactionId] */\n      0x00\n        /* \"contracts/ManageVault.sol\":1444:1457  transactionId */\n      dup3\n        /* \"contracts/ManageVault.sol\":1431:1458  transactions[transactionId] */\n      dup2\n      mstore\n      0x20\n      add\n      swap1\n      dup2\n      mstore\n      0x20\n      add\n      0x00\n      keccak256\n        /* \"contracts/ManageVault.sol\":1431:1464  transactions[transactionId].buyer */\n      0x00\n      add\n      0x00\n      swap1\n      sload\n      swap1\n      0x0100\n      exp\n      swap1\n      div\n      0xffffffffffffffffffffffffffffffffffffffff\n      and\n        /* \"contracts/ManageVault.sol\":1417:1464  msg.sender == transactions[transactionId].buyer */\n      0xffffffffffffffffffffffffffffffffffffffff\n      and\n        /* \"contracts/ManageVault.sol\":1417:1427  msg.sender */\n      caller\n        /* \"contracts/ManageVault.sol\":1417:1464  msg.sender == transactions[transactionId].buyer */\n      0xffffffffffffffffffffffffffffffffffffffff\n      and\n      eq\n        /* \"contracts/ManageVault.sol\":1409:1482  require(msg.sender == transactions[transactionId].buyer, \"Not the buyer\") */\n      tag_57\n      jumpi\n      mload(0x40)\n      0x08c379a000000000000000000000000000000000000000000000000000000000\n      dup2\n      mstore\n      0x04\n      add\n      tag_58\n      swap1\n      tag_59\n      jump\t// in\n    tag_58:\n      mload(0x40)\n      dup1\n      swap2\n      sub\n      swap1\n      revert\n    tag_57:\n        /* \"@openzeppelin/contracts/security/ReentrancyGuard.sol\":2261:2282  _nonReentrantBefore() */\n      tag_61\n        /* \"@openzeppelin/contracts/security/ReentrancyGuard.sol\":2261:2280  _nonReentrantBefore */\n      tag_62\n        /* \"@openzeppelin/contracts/security/ReentrancyGuard.sol\":2261:2282  _nonReentrantBefore() */\n      jump\t// in\n    tag_61:\n        /* \"contracts/ManageVault.sol\":4896:4919  Transaction storage txn */\n      0x00\n        /* \"contracts/ManageVault.sol\":4922:4934  transactions */\n      0x01\n        /* \"contracts/ManageVault.sol\":4922:4949  transactions[transactionId] */\n      0x00\n        /* \"contracts/ManageVault.sol\":4935:4948  transactionId */\n      dup6\n        /* \"contracts/ManageVault.sol\":4922:4949  transactions[transactionId] */\n      dup2\n      mstore\n      0x20\n      add\n      swap1\n      dup2\n      mstore\n      0x20\n      add\n      0x00\n      keccak256\n        /* \"contracts/ManageVault.sol\":4896:4949  Transaction storage txn = transactions[transactionId] */\n      swap1\n      pop\n        /* \"contracts/ManageVault.sol\":4968:4971  txn */\n      dup1\n        /* \"contracts/ManageVault.sol\":4968:4980  txn.isLocked */\n      0x07\n      add\n      0x00\n      swap1\n      sload\n      swap1\n      0x0100\n      exp\n      swap1\n      div\n      0xff\n      and\n        /* \"contracts/ManageVault.sol\":4960:5003  require(txn.isLocked, \"No funds deposited\") */\n      tag_64\n      jumpi\n      mload(0x40)\n      0x08c379a000000000000000000000000000000000000000000000000000000000\n      dup2\n      mstore\n      0x04\n      add\n      tag_65\n      swap1\n      tag_66\n      jump\t// in\n    tag_65:\n      mload(0x40)\n      dup1\n      swap2\n      sub\n      swap1\n      revert\n    tag_64:\n        /* \"contracts/ManageVault.sol\":1341:1347  1 days */\n      0x015180\n        /* \"contracts/ManageVault.sol\":5040:5043  txn */\n      dup2\n        /* \"contracts/ManageVault.sol\":5040:5060  txn.depositTimestamp */\n      0x06\n      add\n      sload\n        /* \"contracts/ManageVault.sol\":5040:5078  txn.depositTimestamp + EXPIRY_DURATION */\n      tag_67\n      swap2\n      swap1\n      tag_68\n      jump\t// in\n    tag_67:\n        /* \"contracts/ManageVault.sol\":5022:5037  block.timestamp */\n      timestamp\n        /* \"contracts/ManageVault.sol\":5022:5078  block.timestamp > txn.depositTimestamp + EXPIRY_DURATION */\n      gt\n        /* \"contracts/ManageVault.sol\":5014:5109  require(block.timestamp > txn.depositTimestamp + EXPIRY_DURATION, \"Approval window still open\") */\n      tag_69\n      jumpi\n      mload(0x40)\n      0x08c379a000000000000000000000000000000000000000000000000000000000\n      dup2\n      mstore\n      0x04\n      add\n      tag_70\n      swap1\n      tag_71\n      jump\t// in\n    tag_70:\n      mload(0x40)\n      dup1\n      swap2\n      sub\n      swap1\n      revert\n    tag_69:\n        /* \"contracts/ManageVault.sol\":5135:5148  transactionId */\n      dup4\n        /* \"contracts/ManageVault.sol\":5127:5149  Expired(transactionId) */\n      0xf80dbaea4785589e52984ca36a31de106adc77759539a5c7d92883bf49692fe9\n      mload(0x40)\n      mload(0x40)\n      dup1\n      swap2\n      sub\n      swap1\n      log2\n        /* \"contracts/ManageVault.sol\":5160:5186  returnFunds(transactionId) */\n      tag_72\n        /* \"contracts/ManageVault.sol\":5172:5185  transactionId */\n      dup5\n        /* \"contracts/ManageVault.sol\":5160:5171  returnFunds */\n      tag_73\n        /* \"contracts/ManageVault.sol\":5160:5186  returnFunds(transactionId) */\n      jump\t// in\n    tag_72:\n        /* \"contracts/ManageVault.sol\":4885:5194  {... */\n      pop\n        /* \"@openzeppelin/contracts/security/ReentrancyGuard.sol\":2303:2323  _nonReentrantAfter() */\n      tag_74\n        /* \"@openzeppelin/contracts/security/ReentrancyGuard.sol\":2303:2321  _nonReentrantAfter */\n      tag_75\n        /* \"@openzeppelin/contracts/security/ReentrancyGuard.sol\":2303:2323  _nonReentrantAfter() */\n      jump\t// in\n    tag_74:\n        /* \"contracts/ManageVault.sol\":1831:1832  _ */\n      pop\n        /* \"contracts/ManageVault.sol\":4756:5194  function claimAfterExpiry(uint256 transactionId) external transactionExists(transactionId) onlyBuyer(transactionId) nonReentrant {... */\n      pop\n      pop\n      jump\t// out\n        /* \"contracts/ManageVault.sol\":1299:1347  uint256 public constant EXPIRY_DURATION = 1 days */\n    tag_19:\n        /* \"contracts/ManageVault.sol\":1341:1347  1 days */\n      0x015180\n        /* \"contracts/ManageVault.sol\":1299:1347  uint256 public constant EXPIRY_DURATION = 1 days */\n      dup2\n      jump\t// out\n        /* \"contracts/ManageVault.sol\":4424:4748  function cancel(uint256 transactionId) external transactionExists(transactionId) onlyBuyer(transactionId) nonReentrant {... */\n    tag_25:\n        /* \"contracts/ManageVault.sol\":4490:4503  transactionId */\n      dup1\n        /* \"contracts/ManageVault.sol\":1787:1788  0 */\n      0x00\n        /* \"contracts/ManageVault.sol\":1742:1789  transactions[transactionId].buyer != address(0) */\n      0xffffffffffffffffffffffffffffffffffffffff\n      and\n        /* \"contracts/ManageVault.sol\":1742:1754  transactions */\n      0x01\n        /* \"contracts/ManageVault.sol\":1742:1769  transactions[transactionId] */\n      0x00\n        /* \"contracts/ManageVault.sol\":1755:1768  transactionId */\n      dup4\n        /* \"contracts/ManageVault.sol\":1742:1769  transactions[transactionId] */\n      dup2\n      mstore\n      0x20\n      add\n      swap1\n      dup2\n      mstore\n      0x20\n      add\n      0x00\n      keccak256\n        /* \"contracts/ManageVault.sol\":1742:1775  transactions[transactionId].buyer */\n      0x00\n      add\n      0x00\n      swap1\n      sload\n      swap1\n      0x0100\n      exp\n      swap1\n      div\n      0xffffffffffffffffffffffffffffffffffffffff\n      and\n        /* \"contracts/ManageVault.sol\":1742:1789  transactions[transactionId].buyer != address(0) */\n      0xffffffffffffffffffffffffffffffffffffffff\n      and\n      sub\n        /* \"contracts/ManageVault.sol\":1734:1820  require(transactions[transactionId].buyer != address(0), \"Transaction does not exist\") */\n      tag_77\n      jumpi\n      mload(0x40)\n      0x08c379a000000000000000000000000000000000000000000000000000000000\n      dup2\n      mstore\n      0x04\n      add\n      tag_78\n      swap1\n      tag_55\n      jump\t// in\n    tag_78:\n      mload(0x40)\n      dup1\n      swap2\n      sub\n      swap1\n      revert\n    tag_77:\n        /* \"contracts/ManageVault.sol\":4515:4528  transactionId */\n      dup2\n        /* \"contracts/ManageVault.sol\":1431:1443  transactions */\n      0x01\n        /* \"contracts/ManageVault.sol\":1431:1458  transactions[transactionId] */\n      0x00\n        /* \"contracts/ManageVault.sol\":1444:1457  transactionId */\n      dup3\n        /* \"contracts/ManageVault.sol\":1431:1458  transactions[transactionId] */\n      dup2\n      mstore\n      0x20\n      add\n      swap1\n      dup2\n      mstore\n      0x20\n      add\n      0x00\n      keccak256\n        /* \"contracts/ManageVault.sol\":1431:1464  transactions[transactionId].buyer */\n      0x00\n      add\n      0x00\n      swap1\n      sload\n      swap1\n      0x0100\n      exp\n      swap1\n      div\n      0xffffffffffffffffffffffffffffffffffffffff\n      and\n        /* \"contracts/ManageVault.sol\":1417:1464  msg.sender == transactions[transactionId].buyer */\n      0xffffffffffffffffffffffffffffffffffffffff\n      and\n        /* \"contracts/ManageVault.sol\":1417:1427  msg.sender */\n      caller\n        /* \"contracts/ManageVault.sol\":1417:1464  msg.sender == transactions[transactionId].buyer */\n      0xffffffffffffffffffffffffffffffffffffffff\n      and\n      eq\n        /* \"contracts/ManageVault.sol\":1409:1482  require(msg.sender == transactions[transactionId].buyer, \"Not the buyer\") */\n      tag_80\n      jumpi\n      mload(0x40)\n      0x08c379a000000000000000000000000000000000000000000000000000000000\n      dup2\n      mstore\n      0x04\n      add\n      tag_81\n      swap1\n      tag_59\n      jump\t// in\n    tag_81:\n      mload(0x40)\n      dup1\n      swap2\n      sub\n      swap1\n      revert\n    tag_80:\n        /* \"@openzeppelin/contracts/security/ReentrancyGuard.sol\":2261:2282  _nonReentrantBefore() */\n      tag_83\n        /* \"@openzeppelin/contracts/security/ReentrancyGuard.sol\":2261:2280  _nonReentrantBefore */\n      tag_62\n        /* \"@openzeppelin/contracts/security/ReentrancyGuard.sol\":2261:2282  _nonReentrantBefore() */\n      jump\t// in\n    tag_83:\n        /* \"contracts/ManageVault.sol\":4554:4577  Transaction storage txn */\n      0x00\n        /* \"contracts/ManageVault.sol\":4580:4592  transactions */\n      0x01\n        /* \"contracts/ManageVault.sol\":4580:4607  transactions[transactionId] */\n      0x00\n        /* \"contracts/ManageVault.sol\":4593:4606  transactionId */\n      dup6\n        /* \"contracts/ManageVault.sol\":4580:4607  transactions[transactionId] */\n      dup2\n      mstore\n      0x20\n      add\n      swap1\n      dup2\n      mstore\n      0x20\n      add\n      0x00\n      keccak256\n        /* \"contracts/ManageVault.sol\":4554:4607  Transaction storage txn = transactions[transactionId] */\n      swap1\n      pop\n        /* \"contracts/ManageVault.sol\":4626:4629  txn */\n      dup1\n        /* \"contracts/ManageVault.sol\":4626:4638  txn.isLocked */\n      0x07\n      add\n      0x00\n      swap1\n      sload\n      swap1\n      0x0100\n      exp\n      swap1\n      div\n      0xff\n      and\n        /* \"contracts/ManageVault.sol\":4618:4661  require(txn.isLocked, \"No funds deposited\") */\n      tag_85\n      jumpi\n      mload(0x40)\n      0x08c379a000000000000000000000000000000000000000000000000000000000\n      dup2\n      mstore\n      0x04\n      add\n      tag_86\n      swap1\n      tag_66\n      jump\t// in\n    tag_86:\n      mload(0x40)\n      dup1\n      swap2\n      sub\n      swap1\n      revert\n    tag_85:\n        /* \"contracts/ManageVault.sol\":4689:4702  transactionId */\n      dup4\n        /* \"contracts/ManageVault.sol\":4679:4703  Cancelled(transactionId) */\n      0xc41d93b8bfbf9fd7cf5bfe271fd649ab6a6fec0ea101c23b82a2a28eca2533a9\n      mload(0x40)\n      mload(0x40)\n      dup1\n      swap2\n      sub\n      swap1\n      log2\n        /* \"contracts/ManageVault.sol\":4714:4740  returnFunds(transactionId) */\n      tag_87\n        /* \"contracts/ManageVault.sol\":4726:4739  transactionId */\n      dup5\n        /* \"contracts/ManageVault.sol\":4714:4725  returnFunds */\n      tag_73\n        /* \"contracts/ManageVault.sol\":4714:4740  returnFunds(transactionId) */\n      jump\t// in\n    tag_87:\n        /* \"contracts/ManageVault.sol\":4543:4748  {... */\n      pop\n        /* \"@openzeppelin/contracts/security/ReentrancyGuard.sol\":2303:2323  _nonReentrantAfter() */\n      tag_88\n        /* \"@openzeppelin/contracts/security/ReentrancyGuard.sol\":2303:2321  _nonReentrantAfter */\n      tag_75\n        /* \"@openzeppelin/contracts/security/ReentrancyGuard.sol\":2303:2323  _nonReentrantAfter() */\n      jump\t// in\n    tag_88:\n        /* \"contracts/ManageVault.sol\":1831:1832  _ */\n      pop\n        /* \"contracts/ManageVault.sol\":4424:4748  function cancel(uint256 transactionId) external transactionExists(transactionId) onlyBuyer(transactionId) nonReentrant {... */\n      pop\n      pop\n      jump\t// out\n        /* \"contracts/ManageVault.sol\":2352:2851  function depositETH(uint256 transactionId) external payable transactionExists(transactionId) onlyBuyer(transactionId) nonReentrant {... */\n    tag_28:\n        /* \"contracts/ManageVault.sol\":2430:2443  transactionId */\n      dup1\n        /* \"contracts/ManageVault.sol\":1787:1788  0 */\n      0x00\n        /* \"contracts/ManageVault.sol\":1742:1789  transactions[transactionId].buyer != address(0) */\n      0xffffffffffffffffffffffffffffffffffffffff\n      and\n        /* \"contracts/ManageVault.sol\":1742:1754  transactions */\n      0x01\n        /* \"contracts/ManageVault.sol\":1742:1769  transactions[transactionId] */\n      0x00\n        /* \"contracts/ManageVault.sol\":1755:1768  transactionId */\n      dup4\n        /* \"contracts/ManageVault.sol\":1742:1769  transactions[transactionId] */\n      dup2\n      mstore\n      0x20\n      add\n      swap1\n      dup2\n      mstore\n      0x20\n      add\n      0x00\n      keccak256\n        /* \"contracts/ManageVault.sol\":1742:1775  transactions[transactionId].buyer */\n      0x00\n      add\n      0x00\n      swap1\n      sload\n      swap1\n      0x0100\n      exp\n      swap1\n      div\n      0xffffffffffffffffffffffffffffffffffffffff\n      and\n        /* \"contracts/ManageVault.sol\":1742:1789  transactions[transactionId].buyer != address(0) */\n      0xffffffffffffffffffffffffffffffffffffffff\n      and\n      sub\n        /* \"contracts/ManageVault.sol\":1734:1820  require(transactions[transactionId].buyer != address(0), \"Transaction does not exist\") */\n      tag_90\n      jumpi\n      mload(0x40)\n      0x08c379a000000000000000000000000000000000000000000000000000000000\n      dup2\n      mstore\n      0x04\n      add\n      tag_91\n      swap1\n      tag_55\n      jump\t// in\n    tag_91:\n      mload(0x40)\n      dup1\n      swap2\n      sub\n      swap1\n      revert\n    tag_90:\n        /* \"contracts/ManageVault.sol\":2455:2468  transactionId */\n      dup2\n        /* \"contracts/ManageVault.sol\":1431:1443  transactions */\n      0x01\n        /* \"contracts/ManageVault.sol\":1431:1458  transactions[transactionId] */\n      0x00\n        /* \"contracts/ManageVault.sol\":1444:1457  transactionId */\n      dup3\n        /* \"contracts/ManageVault.sol\":1431:1458  transactions[transactionId] */\n      dup2\n      mstore\n      0x20\n      add\n      swap1\n      dup2\n      mstore\n      0x20\n      add\n      0x00\n      keccak256\n        /* \"contracts/ManageVault.sol\":1431:1464  transactions[transactionId].buyer */\n      0x00\n      add\n      0x00\n      swap1\n      sload\n      swap1\n      0x0100\n      exp\n      swap1\n      div\n      0xffffffffffffffffffffffffffffffffffffffff\n      and\n        /* \"contracts/ManageVault.sol\":1417:1464  msg.sender == transactions[transactionId].buyer */\n      0xffffffffffffffffffffffffffffffffffffffff\n      and\n        /* \"contracts/ManageVault.sol\":1417:1427  msg.sender */\n      caller\n        /* \"contracts/ManageVault.sol\":1417:1464  msg.sender == transactions[transactionId].buyer */\n      0xffffffffffffffffffffffffffffffffffffffff\n      and\n      eq\n        /* \"contracts/ManageVault.sol\":1409:1482  require(msg.sender == transactions[transactionId].buyer, \"Not the buyer\") */\n      tag_93\n      jumpi\n      mload(0x40)\n      0x08c379a000000000000000000000000000000000000000000000000000000000\n      dup2\n      mstore\n      0x04\n      add\n      tag_94\n      swap1\n      tag_59\n      jump\t// in\n    tag_94:\n      mload(0x40)\n      dup1\n      swap2\n      sub\n      swap1\n      revert\n    tag_93:\n        /* \"@openzeppelin/contracts/security/ReentrancyGuard.sol\":2261:2282  _nonReentrantBefore() */\n      tag_96\n        /* \"@openzeppelin/contracts/security/ReentrancyGuard.sol\":2261:2280  _nonReentrantBefore */\n      tag_62\n        /* \"@openzeppelin/contracts/security/ReentrancyGuard.sol\":2261:2282  _nonReentrantBefore() */\n      jump\t// in\n    tag_96:\n        /* \"contracts/ManageVault.sol\":2494:2517  Transaction storage txn */\n      0x00\n        /* \"contracts/ManageVault.sol\":2520:2532  transactions */\n      0x01\n        /* \"contracts/ManageVault.sol\":2520:2547  transactions[transactionId] */\n      0x00\n        /* \"contracts/ManageVault.sol\":2533:2546  transactionId */\n      dup6\n        /* \"contracts/ManageVault.sol\":2520:2547  transactions[transactionId] */\n      dup2\n      mstore\n      0x20\n      add\n      swap1\n      dup2\n      mstore\n      0x20\n      add\n      0x00\n      keccak256\n        /* \"contracts/ManageVault.sol\":2494:2547  Transaction storage txn = transactions[transactionId] */\n      swap1\n      pop\n        /* \"contracts/ManageVault.sol\":2567:2570  txn */\n      dup1\n        /* \"contracts/ManageVault.sol\":2567:2579  txn.isLocked */\n      0x07\n      add\n      0x00\n      swap1\n      sload\n      swap1\n      0x0100\n      exp\n      swap1\n      div\n      0xff\n      and\n        /* \"contracts/ManageVault.sol\":2566:2579  !txn.isLocked */\n      iszero\n        /* \"contracts/ManageVault.sol\":2558:2599  require(!txn.isLocked, \"Vault is locked\") */\n      tag_98\n      jumpi\n      mload(0x40)\n      0x08c379a000000000000000000000000000000000000000000000000000000000\n      dup2\n      mstore\n      0x04\n      add\n      tag_99\n      swap1\n      tag_100\n      jump\t// in\n    tag_99:\n      mload(0x40)\n      dup1\n      swap2\n      sub\n      swap1\n      revert\n    tag_98:\n        /* \"contracts/ManageVault.sol\":2630:2631  0 */\n      0x00\n        /* \"contracts/ManageVault.sol\":2618:2627  msg.value */\n      callvalue\n        /* \"contracts/ManageVault.sol\":2618:2631  msg.value > 0 */\n      gt\n        /* \"contracts/ManageVault.sol\":2610:2647  require(msg.value > 0, \"No ETH sent\") */\n      tag_101\n      jumpi\n      mload(0x40)\n      0x08c379a000000000000000000000000000000000000000000000000000000000\n      dup2\n      mstore\n      0x04\n      add\n      tag_102\n      swap1\n      tag_103\n      jump\t// in\n    tag_102:\n      mload(0x40)\n      dup1\n      swap2\n      sub\n      swap1\n      revert\n    tag_101:\n        /* \"contracts/ManageVault.sol\":2678:2687  msg.value */\n      callvalue\n        /* \"contracts/ManageVault.sol\":2660:2663  txn */\n      dup2\n        /* \"contracts/ManageVault.sol\":2660:2674  txn.ethBalance */\n      0x03\n      add\n      0x00\n        /* \"contracts/ManageVault.sol\":2660:2687  txn.ethBalance += msg.value */\n      dup3\n      dup3\n      sload\n      tag_104\n      swap2\n      swap1\n      tag_68\n      jump\t// in\n    tag_104:\n      swap3\n      pop\n      pop\n      dup2\n      swap1\n      sstore\n      pop\n        /* \"contracts/ManageVault.sol\":2713:2717  true */\n      0x01\n        /* \"contracts/ManageVault.sol\":2698:2701  txn */\n      dup2\n        /* \"contracts/ManageVault.sol\":2698:2710  txn.isLocked */\n      0x07\n      add\n      0x00\n        /* \"contracts/ManageVault.sol\":2698:2717  txn.isLocked = true */\n      0x0100\n      exp\n      dup2\n      sload\n      dup2\n      0xff\n      mul\n      not\n      and\n      swap1\n      dup4\n      iszero\n      iszero\n      mul\n      or\n      swap1\n      sstore\n      pop\n        /* \"contracts/ManageVault.sol\":2751:2766  block.timestamp */\n      timestamp\n        /* \"contracts/ManageVault.sol\":2728:2731  txn */\n      dup2\n        /* \"contracts/ManageVault.sol\":2728:2748  txn.depositTimestamp */\n      0x06\n      add\n        /* \"contracts/ManageVault.sol\":2728:2766  txn.depositTimestamp = block.timestamp */\n      dup2\n      swap1\n      sstore\n      pop\n        /* \"contracts/ManageVault.sol\":2821:2831  msg.sender */\n      caller\n        /* \"contracts/ManageVault.sol\":2784:2843  Deposited(transactionId, address(0), msg.sender, msg.value) */\n      0xffffffffffffffffffffffffffffffffffffffff\n      and\n        /* \"contracts/ManageVault.sol\":2817:2818  0 */\n      0x00\n        /* \"contracts/ManageVault.sol\":2784:2843  Deposited(transactionId, address(0), msg.sender, msg.value) */\n      0xffffffffffffffffffffffffffffffffffffffff\n      and\n        /* \"contracts/ManageVault.sol\":2794:2807  transactionId */\n      dup6\n        /* \"contracts/ManageVault.sol\":2784:2843  Deposited(transactionId, address(0), msg.sender, msg.value) */\n      0x984a71c9d95fd4794aeba33ae72edfec22053fde75488d63abef9dc69ee795af\n        /* \"contracts/ManageVault.sol\":2833:2842  msg.value */\n      callvalue\n        /* \"contracts/ManageVault.sol\":2784:2843  Deposited(transactionId, address(0), msg.sender, msg.value) */\n      mload(0x40)\n      tag_105\n      swap2\n      swap1\n      tag_21\n      jump\t// in\n    tag_105:\n      mload(0x40)\n      dup1\n      swap2\n      sub\n      swap1\n      log4\n        /* \"contracts/ManageVault.sol\":2483:2851  {... */\n      pop\n        /* \"@openzeppelin/contracts/security/ReentrancyGuard.sol\":2303:2323  _nonReentrantAfter() */\n      tag_106\n        /* \"@openzeppelin/contracts/security/ReentrancyGuard.sol\":2303:2321  _nonReentrantAfter */\n      tag_75\n        /* \"@openzeppelin/contracts/security/ReentrancyGuard.sol\":2303:2323  _nonReentrantAfter() */\n      jump\t// in\n    tag_106:\n        /* \"contracts/ManageVault.sol\":1831:1832  _ */\n      pop\n        /* \"contracts/ManageVault.sol\":2352:2851  function depositETH(uint256 transactionId) external payable transactionExists(transactionId) onlyBuyer(transactionId) nonReentrant {... */\n      pop\n      pop\n      jump\t// out\n        /* \"contracts/ManageVault.sol\":1848:2344  function createTransaction(address _seller, address _approver) external returns (uint256) {... */\n    tag_33:\n        /* \"contracts/ManageVault.sol\":1929:1936  uint256 */\n      0x00\n        /* \"contracts/ManageVault.sol\":1949:1970  uint256 transactionId */\n      dup1\n        /* \"contracts/ManageVault.sol\":1975:1991  transactionCount */\n      0x02\n      0x00\n        /* \"contracts/ManageVault.sol\":1973:1991  ++transactionCount */\n      dup2\n      sload\n      tag_108\n      swap1\n      tag_109\n      jump\t// in\n    tag_108:\n      swap2\n      swap1\n      pop\n      dup2\n      swap1\n      sstore\n        /* \"contracts/ManageVault.sol\":1949:1991  uint256 transactionId = ++transactionCount */\n      swap1\n      pop\n        /* \"contracts/ManageVault.sol\":2004:2027  Transaction storage txn */\n      0x00\n        /* \"contracts/ManageVault.sol\":2030:2042  transactions */\n      0x01\n        /* \"contracts/ManageVault.sol\":2030:2057  transactions[transactionId] */\n      0x00\n        /* \"contracts/ManageVault.sol\":2043:2056  transactionId */\n      dup4\n        /* \"contracts/ManageVault.sol\":2030:2057  transactions[transactionId] */\n      dup2\n      mstore\n      0x20\n      add\n      swap1\n      dup2\n      mstore\n      0x20\n      add\n      0x00\n      keccak256\n        /* \"contracts/ManageVault.sol\":2004:2057  Transaction storage txn = transactions[transactionId] */\n      swap1\n      pop\n        /* \"contracts/ManageVault.sol\":2080:2090  msg.sender */\n      caller\n        /* \"contracts/ManageVault.sol\":2068:2071  txn */\n      dup2\n        /* \"contracts/ManageVault.sol\":2068:2077  txn.buyer */\n      0x00\n      add\n      0x00\n        /* \"contracts/ManageVault.sol\":2068:2090  txn.buyer = msg.sender */\n      0x0100\n      exp\n      dup2\n      sload\n      dup2\n      0xffffffffffffffffffffffffffffffffffffffff\n      mul\n      not\n      and\n      swap1\n      dup4\n      0xffffffffffffffffffffffffffffffffffffffff\n      and\n      mul\n      or\n      swap1\n      sstore\n      pop\n        /* \"contracts/ManageVault.sol\":2114:2121  _seller */\n      dup5\n        /* \"contracts/ManageVault.sol\":2101:2104  txn */\n      dup2\n        /* \"contracts/ManageVault.sol\":2101:2111  txn.seller */\n      0x01\n      add\n      0x00\n        /* \"contracts/ManageVault.sol\":2101:2121  txn.seller = _seller */\n      0x0100\n      exp\n      dup2\n      sload\n      dup2\n      0xffffffffffffffffffffffffffffffffffffffff\n      mul\n      not\n      and\n      swap1\n      dup4\n      0xffffffffffffffffffffffffffffffffffffffff\n      and\n      mul\n      or\n      swap1\n      sstore\n      pop\n        /* \"contracts/ManageVault.sol\":2147:2156  _approver */\n      dup4\n        /* \"contracts/ManageVault.sol\":2132:2135  txn */\n      dup2\n        /* \"contracts/ManageVault.sol\":2132:2144  txn.approver */\n      0x02\n      add\n      0x00\n        /* \"contracts/ManageVault.sol\":2132:2156  txn.approver = _approver */\n      0x0100\n      exp\n      dup2\n      sload\n      dup2\n      0xffffffffffffffffffffffffffffffffffffffff\n      mul\n      not\n      and\n      swap1\n      dup4\n      0xffffffffffffffffffffffffffffffffffffffff\n      and\n      mul\n      or\n      swap1\n      sstore\n      pop\n        /* \"contracts/ManageVault.sol\":2182:2187  false */\n      0x00\n        /* \"contracts/ManageVault.sol\":2167:2170  txn */\n      dup2\n        /* \"contracts/ManageVault.sol\":2167:2179  txn.isLocked */\n      0x07\n      add\n      0x00\n        /* \"contracts/ManageVault.sol\":2167:2187  txn.isLocked = false */\n      0x0100\n      exp\n      dup2\n      sload\n      dup2\n      0xff\n      mul\n      not\n      and\n      swap1\n      dup4\n      iszero\n      iszero\n      mul\n      or\n      swap1\n      sstore\n      pop\n        /* \"contracts/ManageVault.sol\":2215:2220  false */\n      0x00\n        /* \"contracts/ManageVault.sol\":2198:2201  txn */\n      dup2\n        /* \"contracts/ManageVault.sol\":2198:2212  txn.isApproved */\n      0x07\n      add\n      0x01\n        /* \"contracts/ManageVault.sol\":2198:2220  txn.isApproved = false */\n      0x0100\n      exp\n      dup2\n      sload\n      dup2\n      0xff\n      mul\n      not\n      and\n      swap1\n      dup4\n      iszero\n      iszero\n      mul\n      or\n      swap1\n      sstore\n      pop\n        /* \"contracts/ManageVault.sol\":2278:2281  txn */\n      dup1\n        /* \"contracts/ManageVault.sol\":2278:2288  txn.seller */\n      0x01\n      add\n      0x00\n      swap1\n      sload\n      swap1\n      0x0100\n      exp\n      swap1\n      div\n      0xffffffffffffffffffffffffffffffffffffffff\n      and\n        /* \"contracts/ManageVault.sol\":2238:2303  RolesAssigned(transactionId, txn.buyer, txn.seller, txn.approver) */\n      0xffffffffffffffffffffffffffffffffffffffff\n      and\n        /* \"contracts/ManageVault.sol\":2267:2270  txn */\n      dup2\n        /* \"contracts/ManageVault.sol\":2267:2276  txn.buyer */\n      0x00\n      add\n      0x00\n      swap1\n      sload\n      swap1\n      0x0100\n      exp\n      swap1\n      div\n      0xffffffffffffffffffffffffffffffffffffffff\n      and\n        /* \"contracts/ManageVault.sol\":2238:2303  RolesAssigned(transactionId, txn.buyer, txn.seller, txn.approver) */\n      0xffffffffffffffffffffffffffffffffffffffff\n      and\n        /* \"contracts/ManageVault.sol\":2252:2265  transactionId */\n      dup4\n        /* \"contracts/ManageVault.sol\":2238:2303  RolesAssigned(transactionId, txn.buyer, txn.seller, txn.approver) */\n      0xabba4be8eea413728099f1b5261999cdb2e6b574ffa3e646e145b1fc03e9d01b\n        /* \"contracts/ManageVault.sol\":2290:2293  txn */\n      dup5\n        /* \"contracts/ManageVault.sol\":2290:2302  txn.approver */\n      0x02\n      add\n      0x00\n      swap1\n      sload\n      swap1\n      0x0100\n      exp\n      swap1\n      div\n      0xffffffffffffffffffffffffffffffffffffffff\n      and\n        /* \"contracts/ManageVault.sol\":2238:2303  RolesAssigned(transactionId, txn.buyer, txn.seller, txn.approver) */\n      mload(0x40)\n      tag_110\n      swap2\n      swap1\n      tag_111\n      jump\t// in\n    tag_110:\n      mload(0x40)\n      dup1\n      swap2\n      sub\n      swap1\n      log4\n        /* \"contracts/ManageVault.sol\":2323:2336  transactionId */\n      dup2\n        /* \"contracts/ManageVault.sol\":2316:2336  return transactionId */\n      swap3\n      pop\n      pop\n      pop\n        /* \"contracts/ManageVault.sol\":1848:2344  function createTransaction(address _seller, address _approver) external returns (uint256) {... */\n      swap3\n      swap2\n      pop\n      pop\n      jump\t// out\n        /* \"contracts/ManageVault.sol\":2859:3620  function depositERC20(uint256 transactionId, IERC20 token, uint256 amount) external transactionExists(transactionId) onlyBuyer(transactionId) nonReentrant {... */\n    tag_39:\n        /* \"contracts/ManageVault.sol\":2961:2974  transactionId */\n      dup3\n        /* \"contracts/ManageVault.sol\":1787:1788  0 */\n      0x00\n        /* \"contracts/ManageVault.sol\":1742:1789  transactions[transactionId].buyer != address(0) */\n      0xffffffffffffffffffffffffffffffffffffffff\n      and\n        /* \"contracts/ManageVault.sol\":1742:1754  transactions */\n      0x01\n        /* \"contracts/ManageVault.sol\":1742:1769  transactions[transactionId] */\n      0x00\n        /* \"contracts/ManageVault.sol\":1755:1768  transactionId */\n      dup4\n        /* \"contracts/ManageVault.sol\":1742:1769  transactions[transactionId] */\n      dup2\n      mstore\n      0x20\n      add\n      swap1\n      dup2\n      mstore\n      0x20\n      add\n      0x00\n      keccak256\n        /* \"contracts/ManageVault.sol\":1742:1775  transactions[transactionId].buyer */\n      0x00\n      add\n      0x00\n      swap1\n      sload\n      swap1\n      0x0100\n      exp\n      swap1\n      div\n      0xffffffffffffffffffffffffffffffffffffffff\n      and\n        /* \"contracts/ManageVault.sol\":1742:1789  transactions[transactionId].buyer != address(0) */\n      0xffffffffffffffffffffffffffffffffffffffff\n      and\n      sub\n        /* \"contracts/ManageVault.sol\":1734:1820  require(transactions[transactionId].buyer != address(0), \"Transaction does not exist\") */\n      tag_113\n      jumpi\n      mload(0x40)\n      0x08c379a000000000000000000000000000000000000000000000000000000000\n      dup2\n      mstore\n      0x04\n      add\n      tag_114\n      swap1\n      tag_55\n      jump\t// in\n    tag_114:\n      mload(0x40)\n      dup1\n      swap2\n      sub\n      swap1\n      revert\n    tag_113:\n        /* \"contracts/ManageVault.sol\":2986:2999  transactionId */\n      dup4\n        /* \"contracts/ManageVault.sol\":1431:1443  transactions */\n      0x01\n        /* \"contracts/ManageVault.sol\":1431:1458  transactions[transactionId] */\n      0x00\n        /* \"contracts/ManageVault.sol\":1444:1457  transactionId */\n      dup3\n        /* \"contracts/ManageVault.sol\":1431:1458  transactions[transactionId] */\n      dup2\n      mstore\n      0x20\n      add\n      swap1\n      dup2\n      mstore\n      0x20\n      add\n      0x00\n      keccak256\n        /* \"contracts/ManageVault.sol\":1431:1464  transactions[transactionId].buyer */\n      0x00\n      add\n      0x00\n      swap1\n      sload\n      swap1\n      0x0100\n      exp\n      swap1\n      div\n      0xffffffffffffffffffffffffffffffffffffffff\n      and\n        /* \"contracts/ManageVault.sol\":1417:1464  msg.sender == transactions[transactionId].buyer */\n      0xffffffffffffffffffffffffffffffffffffffff\n      and\n        /* \"contracts/ManageVault.sol\":1417:1427  msg.sender */\n      caller\n        /* \"contracts/ManageVault.sol\":1417:1464  msg.sender == transactions[transactionId].buyer */\n      0xffffffffffffffffffffffffffffffffffffffff\n      and\n      eq\n        /* \"contracts/ManageVault.sol\":1409:1482  require(msg.sender == transactions[transactionId].buyer, \"Not the buyer\") */\n      tag_116\n      jumpi\n      mload(0x40)\n      0x08c379a000000000000000000000000000000000000000000000000000000000\n      dup2\n      mstore\n      0x04\n      add\n      tag_117\n      swap1\n      tag_59\n      jump\t// in\n    tag_117:\n      mload(0x40)\n      dup1\n      swap2\n      sub\n      swap1\n      revert\n    tag_116:\n        /* \"@openzeppelin/contracts/security/ReentrancyGuard.sol\":2261:2282  _nonReentrantBefore() */\n      tag_119\n        /* \"@openzeppelin/contracts/security/ReentrancyGuard.sol\":2261:2280  _nonReentrantBefore */\n      tag_62\n        /* \"@openzeppelin/contracts/security/ReentrancyGuard.sol\":2261:2282  _nonReentrantBefore() */\n      jump\t// in\n    tag_119:\n        /* \"contracts/ManageVault.sol\":3025:3048  Transaction storage txn */\n      0x00\n        /* \"contracts/ManageVault.sol\":3051:3063  transactions */\n      0x01\n        /* \"contracts/ManageVault.sol\":3051:3078  transactions[transactionId] */\n      0x00\n        /* \"contracts/ManageVault.sol\":3064:3077  transactionId */\n      dup8\n        /* \"contracts/ManageVault.sol\":3051:3078  transactions[transactionId] */\n      dup2\n      mstore\n      0x20\n      add\n      swap1\n      dup2\n      mstore\n      0x20\n      add\n      0x00\n      keccak256\n        /* \"contracts/ManageVault.sol\":3025:3078  Transaction storage txn = transactions[transactionId] */\n      swap1\n      pop\n        /* \"contracts/ManageVault.sol\":3098:3101  txn */\n      dup1\n        /* \"contracts/ManageVault.sol\":3098:3110  txn.isLocked */\n      0x07\n      add\n      0x00\n      swap1\n      sload\n      swap1\n      0x0100\n      exp\n      swap1\n      div\n      0xff\n      and\n        /* \"contracts/ManageVault.sol\":3097:3110  !txn.isLocked */\n      iszero\n        /* \"contracts/ManageVault.sol\":3089:3130  require(!txn.isLocked, \"Vault is locked\") */\n      tag_121\n      jumpi\n      mload(0x40)\n      0x08c379a000000000000000000000000000000000000000000000000000000000\n      dup2\n      mstore\n      0x04\n      add\n      tag_122\n      swap1\n      tag_100\n      jump\t// in\n    tag_122:\n      mload(0x40)\n      dup1\n      swap2\n      sub\n      swap1\n      revert\n    tag_121:\n        /* \"contracts/ManageVault.sol\":3158:3159  0 */\n      0x00\n        /* \"contracts/ManageVault.sol\":3149:3155  amount */\n      dup5\n        /* \"contracts/ManageVault.sol\":3149:3159  amount > 0 */\n      gt\n        /* \"contracts/ManageVault.sol\":3141:3178  require(amount > 0, \"No tokens sent\") */\n      tag_123\n      jumpi\n      mload(0x40)\n      0x08c379a000000000000000000000000000000000000000000000000000000000\n      dup2\n      mstore\n      0x04\n      add\n      tag_124\n      swap1\n      tag_125\n      jump\t// in\n    tag_124:\n      mload(0x40)\n      dup1\n      swap2\n      sub\n      swap1\n      revert\n    tag_123:\n        /* \"contracts/ManageVault.sol\":3199:3204  token */\n      dup5\n        /* \"contracts/ManageVault.sol\":3199:3217  token.transferFrom */\n      0xffffffffffffffffffffffffffffffffffffffff\n      and\n      0x23b872dd\n        /* \"contracts/ManageVault.sol\":3218:3228  msg.sender */\n      caller\n        /* \"contracts/ManageVault.sol\":3238:3242  this */\n      address\n        /* \"contracts/ManageVault.sol\":3245:3251  amount */\n      dup8\n        /* \"contracts/ManageVault.sol\":3199:3252  token.transferFrom(msg.sender, address(this), amount) */\n      mload(0x40)\n      dup5\n      0xffffffff\n      and\n      0xe0\n      shl\n      dup2\n      mstore\n      0x04\n      add\n      tag_126\n      swap4\n      swap3\n      swap2\n      swap1\n      tag_127\n      jump\t// in\n    tag_126:\n      0x20\n      mload(0x40)\n      dup1\n      dup4\n      sub\n      dup2\n      0x00\n      dup8\n      gas\n      call\n      iszero\n      dup1\n      iszero\n      tag_129\n      jumpi\n      returndatasize\n      0x00\n      dup1\n      returndatacopy\n      revert(0x00, returndatasize)\n    tag_129:\n      pop\n      pop\n      pop\n      pop\n      mload(0x40)\n      returndatasize\n      not(0x1f)\n      0x1f\n      dup3\n      add\n      and\n      dup3\n      add\n      dup1\n      0x40\n      mstore\n      pop\n      dup2\n      add\n      swap1\n      tag_130\n      swap2\n      swap1\n      tag_131\n      jump\t// in\n    tag_130:\n        /* \"contracts/ManageVault.sol\":3191:3278  require(token.transferFrom(msg.sender, address(this), amount), \"Token transfer failed\") */\n      tag_132\n      jumpi\n      mload(0x40)\n      0x08c379a000000000000000000000000000000000000000000000000000000000\n      dup2\n      mstore\n      0x04\n      add\n      tag_133\n      swap1\n      tag_134\n      jump\t// in\n    tag_133:\n      mload(0x40)\n      dup1\n      swap2\n      sub\n      swap1\n      revert\n    tag_132:\n        /* \"contracts/ManageVault.sol\":3332:3333  0 */\n      0x00\n        /* \"contracts/ManageVault.sol\":3295:3298  txn */\n      dup2\n        /* \"contracts/ManageVault.sol\":3295:3312  txn.erc20Balances */\n      0x04\n      add\n        /* \"contracts/ManageVault.sol\":3295:3328  txn.erc20Balances[address(token)] */\n      0x00\n        /* \"contracts/ManageVault.sol\":3321:3326  token */\n      dup8\n        /* \"contracts/ManageVault.sol\":3295:3328  txn.erc20Balances[address(token)] */\n      0xffffffffffffffffffffffffffffffffffffffff\n      and\n      0xffffffffffffffffffffffffffffffffffffffff\n      and\n      dup2\n      mstore\n      0x20\n      add\n      swap1\n      dup2\n      mstore\n      0x20\n      add\n      0x00\n      keccak256\n      sload\n        /* \"contracts/ManageVault.sol\":3295:3333  txn.erc20Balances[address(token)] == 0 */\n      sub\n        /* \"contracts/ManageVault.sol\":3291:3402  if (txn.erc20Balances[address(token)] == 0) {... */\n      tag_135\n      jumpi\n        /* \"contracts/ManageVault.sol\":3350:3353  txn */\n      dup1\n        /* \"contracts/ManageVault.sol\":3350:3369  txn.depositedTokens */\n      0x05\n      add\n        /* \"contracts/ManageVault.sol\":3383:3388  token */\n      dup6\n        /* \"contracts/ManageVault.sol\":3350:3390  txn.depositedTokens.push(address(token)) */\n      swap1\n      dup1\n      0x01\n      dup2\n      sload\n      add\n      dup1\n      dup3\n      sstore\n      dup1\n      swap2\n      pop\n      pop\n      0x01\n      swap1\n      sub\n      swap1\n      0x00\n      mstore\n      keccak256(0x00, 0x20)\n      add\n      0x00\n      swap1\n      swap2\n      swap1\n      swap2\n      swap1\n      swap2\n      0x0100\n      exp\n      dup2\n      sload\n      dup2\n      0xffffffffffffffffffffffffffffffffffffffff\n      mul\n      not\n      and\n      swap1\n      dup4\n      0xffffffffffffffffffffffffffffffffffffffff\n      and\n      mul\n      or\n      swap1\n      sstore\n      pop\n        /* \"contracts/ManageVault.sol\":3291:3402  if (txn.erc20Balances[address(token)] == 0) {... */\n    tag_135:\n        /* \"contracts/ManageVault.sol\":3449:3455  amount */\n      dup4\n        /* \"contracts/ManageVault.sol\":3412:3415  txn */\n      dup2\n        /* \"contracts/ManageVault.sol\":3412:3429  txn.erc20Balances */\n      0x04\n      add\n        /* \"contracts/ManageVault.sol\":3412:3445  txn.erc20Balances[address(token)] */\n      0x00\n        /* \"contracts/ManageVault.sol\":3438:3443  token */\n      dup8\n        /* \"contracts/ManageVault.sol\":3412:3445  txn.erc20Balances[address(token)] */\n      0xffffffffffffffffffffffffffffffffffffffff\n      and\n      0xffffffffffffffffffffffffffffffffffffffff\n      and\n      dup2\n      mstore\n      0x20\n      add\n      swap1\n      dup2\n      mstore\n      0x20\n      add\n      0x00\n      keccak256\n      0x00\n        /* \"contracts/ManageVault.sol\":3412:3455  txn.erc20Balances[address(token)] += amount */\n      dup3\n      dup3\n      sload\n      tag_137\n      swap2\n      swap1\n      tag_68\n      jump\t// in\n    tag_137:\n      swap3\n      pop\n      pop\n      dup2\n      swap1\n      sstore\n      pop\n        /* \"contracts/ManageVault.sol\":3481:3485  true */\n      0x01\n        /* \"contracts/ManageVault.sol\":3466:3469  txn */\n      dup2\n        /* \"contracts/ManageVault.sol\":3466:3478  txn.isLocked */\n      0x07\n      add\n      0x00\n        /* \"contracts/ManageVault.sol\":3466:3485  txn.isLocked = true */\n      0x0100\n      exp\n      dup2\n      sload\n      dup2\n      0xff\n      mul\n      not\n      and\n      swap1\n      dup4\n      iszero\n      iszero\n      mul\n      or\n      swap1\n      sstore\n      pop\n        /* \"contracts/ManageVault.sol\":3519:3534  block.timestamp */\n      timestamp\n        /* \"contracts/ManageVault.sol\":3496:3499  txn */\n      dup2\n        /* \"contracts/ManageVault.sol\":3496:3516  txn.depositTimestamp */\n      0x06\n      add\n        /* \"contracts/ManageVault.sol\":3496:3534  txn.depositTimestamp = block.timestamp */\n      dup2\n      swap1\n      sstore\n      pop\n        /* \"contracts/ManageVault.sol\":3593:3603  msg.sender */\n      caller\n        /* \"contracts/ManageVault.sol\":3552:3612  Deposited(transactionId, address(token), msg.sender, amount) */\n      0xffffffffffffffffffffffffffffffffffffffff\n      and\n        /* \"contracts/ManageVault.sol\":3585:3590  token */\n      dup6\n        /* \"contracts/ManageVault.sol\":3552:3612  Deposited(transactionId, address(token), msg.sender, amount) */\n      0xffffffffffffffffffffffffffffffffffffffff\n      and\n        /* \"contracts/ManageVault.sol\":3562:3575  transactionId */\n      dup8\n        /* \"contracts/ManageVault.sol\":3552:3612  Deposited(transactionId, address(token), msg.sender, amount) */\n      0x984a71c9d95fd4794aeba33ae72edfec22053fde75488d63abef9dc69ee795af\n        /* \"contracts/ManageVault.sol\":3605:3611  amount */\n      dup8\n        /* \"contracts/ManageVault.sol\":3552:3612  Deposited(transactionId, address(token), msg.sender, amount) */\n      mload(0x40)\n      tag_138\n      swap2\n      swap1\n      tag_21\n      jump\t// in\n    tag_138:\n      mload(0x40)\n      dup1\n      swap2\n      sub\n      swap1\n      log4\n        /* \"contracts/ManageVault.sol\":3014:3620  {... */\n      pop\n        /* \"@openzeppelin/contracts/security/ReentrancyGuard.sol\":2303:2323  _nonReentrantAfter() */\n      tag_139\n        /* \"@openzeppelin/contracts/security/ReentrancyGuard.sol\":2303:2321  _nonReentrantAfter */\n      tag_75\n        /* \"@openzeppelin/contracts/security/ReentrancyGuard.sol\":2303:2323  _nonReentrantAfter() */\n      jump\t// in\n    tag_139:\n        /* \"contracts/ManageVault.sol\":1831:1832  _ */\n      pop\n        /* \"contracts/ManageVault.sol\":2859:3620  function depositERC20(uint256 transactionId, IERC20 token, uint256 amount) external transactionExists(transactionId) onlyBuyer(transactionId) nonReentrant {... */\n      pop\n      pop\n      pop\n      pop\n      jump\t// out\n        /* \"contracts/ManageVault.sol\":3628:4082  function approve(uint256 transactionId) external transactionExists(transactionId) onlyApprover(transactionId) nonReentrant {... */\n    tag_43:\n        /* \"contracts/ManageVault.sol\":3695:3708  transactionId */\n      dup1\n        /* \"contracts/ManageVault.sol\":1787:1788  0 */\n      0x00\n        /* \"contracts/ManageVault.sol\":1742:1789  transactions[transactionId].buyer != address(0) */\n      0xffffffffffffffffffffffffffffffffffffffff\n      and\n        /* \"contracts/ManageVault.sol\":1742:1754  transactions */\n      0x01\n        /* \"contracts/ManageVault.sol\":1742:1769  transactions[transactionId] */\n      0x00\n        /* \"contracts/ManageVault.sol\":1755:1768  transactionId */\n      dup4\n        /* \"contracts/ManageVault.sol\":1742:1769  transactions[transactionId] */\n      dup2\n      mstore\n      0x20\n      add\n      swap1\n      dup2\n      mstore\n      0x20\n      add\n      0x00\n      keccak256\n        /* \"contracts/ManageVault.sol\":1742:1775  transactions[transactionId].buyer */\n      0x00\n      add\n      0x00\n      swap1\n      sload\n      swap1\n      0x0100\n      exp\n      swap1\n      div\n      0xffffffffffffffffffffffffffffffffffffffff\n      and\n        /* \"contracts/ManageVault.sol\":1742:1789  transactions[transactionId].buyer != address(0) */\n      0xffffffffffffffffffffffffffffffffffffffff\n      and\n      sub\n        /* \"contracts/ManageVault.sol\":1734:1820  require(transactions[transactionId].buyer != address(0), \"Transaction does not exist\") */\n      tag_141\n      jumpi\n      mload(0x40)\n      0x08c379a000000000000000000000000000000000000000000000000000000000\n      dup2\n      mstore\n      0x04\n      add\n      tag_142\n      swap1\n      tag_55\n      jump\t// in\n    tag_142:\n      mload(0x40)\n      dup1\n      swap2\n      sub\n      swap1\n      revert\n    tag_141:\n        /* \"contracts/ManageVault.sol\":3723:3736  transactionId */\n      dup2\n        /* \"contracts/ManageVault.sol\":1588:1600  transactions */\n      0x01\n        /* \"contracts/ManageVault.sol\":1588:1615  transactions[transactionId] */\n      0x00\n        /* \"contracts/ManageVault.sol\":1601:1614  transactionId */\n      dup3\n        /* \"contracts/ManageVault.sol\":1588:1615  transactions[transactionId] */\n      dup2\n      mstore\n      0x20\n      add\n      swap1\n      dup2\n      mstore\n      0x20\n      add\n      0x00\n      keccak256\n        /* \"contracts/ManageVault.sol\":1588:1624  transactions[transactionId].approver */\n      0x02\n      add\n      0x00\n      swap1\n      sload\n      swap1\n      0x0100\n      exp\n      swap1\n      div\n      0xffffffffffffffffffffffffffffffffffffffff\n      and\n        /* \"contracts/ManageVault.sol\":1574:1624  msg.sender == transactions[transactionId].approver */\n      0xffffffffffffffffffffffffffffffffffffffff\n      and\n        /* \"contracts/ManageVault.sol\":1574:1584  msg.sender */\n      caller\n        /* \"contracts/ManageVault.sol\":1574:1624  msg.sender == transactions[transactionId].approver */\n      0xffffffffffffffffffffffffffffffffffffffff\n      and\n      eq\n        /* \"contracts/ManageVault.sol\":1566:1645  require(msg.sender == transactions[transactionId].approver, \"Not the approver\") */\n      tag_144\n      jumpi\n      mload(0x40)\n      0x08c379a000000000000000000000000000000000000000000000000000000000\n      dup2\n      mstore\n      0x04\n      add\n      tag_145\n      swap1\n      tag_146\n      jump\t// in\n    tag_145:\n      mload(0x40)\n      dup1\n      swap2\n      sub\n      swap1\n      revert\n    tag_144:\n        /* \"@openzeppelin/contracts/security/ReentrancyGuard.sol\":2261:2282  _nonReentrantBefore() */\n      tag_148\n        /* \"@openzeppelin/contracts/security/ReentrancyGuard.sol\":2261:2280  _nonReentrantBefore */\n      tag_62\n        /* \"@openzeppelin/contracts/security/ReentrancyGuard.sol\":2261:2282  _nonReentrantBefore() */\n      jump\t// in\n    tag_148:\n        /* \"contracts/ManageVault.sol\":3762:3785  Transaction storage txn */\n      0x00\n        /* \"contracts/ManageVault.sol\":3788:3800  transactions */\n      0x01\n        /* \"contracts/ManageVault.sol\":3788:3815  transactions[transactionId] */\n      0x00\n        /* \"contracts/ManageVault.sol\":3801:3814  transactionId */\n      dup6\n        /* \"contracts/ManageVault.sol\":3788:3815  transactions[transactionId] */\n      dup2\n      mstore\n      0x20\n      add\n      swap1\n      dup2\n      mstore\n      0x20\n      add\n      0x00\n      keccak256\n        /* \"contracts/ManageVault.sol\":3762:3815  Transaction storage txn = transactions[transactionId] */\n      swap1\n      pop\n        /* \"contracts/ManageVault.sol\":3834:3837  txn */\n      dup1\n        /* \"contracts/ManageVault.sol\":3834:3846  txn.isLocked */\n      0x07\n      add\n      0x00\n      swap1\n      sload\n      swap1\n      0x0100\n      exp\n      swap1\n      div\n      0xff\n      and\n        /* \"contracts/ManageVault.sol\":3826:3869  require(txn.isLocked, \"No funds deposited\") */\n      tag_150\n      jumpi\n      mload(0x40)\n      0x08c379a000000000000000000000000000000000000000000000000000000000\n      dup2\n      mstore\n      0x04\n      add\n      tag_151\n      swap1\n      tag_66\n      jump\t// in\n    tag_151:\n      mload(0x40)\n      dup1\n      swap2\n      sub\n      swap1\n      revert\n    tag_150:\n        /* \"contracts/ManageVault.sol\":1341:1347  1 days */\n      0x015180\n        /* \"contracts/ManageVault.sol\":3907:3910  txn */\n      dup2\n        /* \"contracts/ManageVault.sol\":3907:3927  txn.depositTimestamp */\n      0x06\n      add\n      sload\n        /* \"contracts/ManageVault.sol\":3907:3945  txn.depositTimestamp + EXPIRY_DURATION */\n      tag_152\n      swap2\n      swap1\n      tag_68\n      jump\t// in\n    tag_152:\n        /* \"contracts/ManageVault.sol\":3888:3903  block.timestamp */\n      timestamp\n        /* \"contracts/ManageVault.sol\":3888:3945  block.timestamp <= txn.depositTimestamp + EXPIRY_DURATION */\n      gt\n      iszero\n        /* \"contracts/ManageVault.sol\":3880:3962  require(block.timestamp <= txn.depositTimestamp + EXPIRY_DURATION, \"Deal expired\") */\n      tag_153\n      jumpi\n      mload(0x40)\n      0x08c379a000000000000000000000000000000000000000000000000000000000\n      dup2\n      mstore\n      0x04\n      add\n      tag_154\n      swap1\n      tag_155\n      jump\t// in\n    tag_154:\n      mload(0x40)\n      dup1\n      swap2\n      sub\n      swap1\n      revert\n    tag_153:\n        /* \"contracts/ManageVault.sol\":3992:3996  true */\n      0x01\n        /* \"contracts/ManageVault.sol\":3975:3978  txn */\n      dup2\n        /* \"contracts/ManageVault.sol\":3975:3989  txn.isApproved */\n      0x07\n      add\n      0x01\n        /* \"contracts/ManageVault.sol\":3975:3996  txn.isApproved = true */\n      0x0100\n      exp\n      dup2\n      sload\n      dup2\n      0xff\n      mul\n      not\n      and\n      swap1\n      dup4\n      iszero\n      iszero\n      mul\n      or\n      swap1\n      sstore\n      pop\n        /* \"contracts/ManageVault.sol\":4021:4034  transactionId */\n      dup4\n        /* \"contracts/ManageVault.sol\":4012:4035  Approved(transactionId) */\n      0x3ad93af63cb7967b23e4fb500b7d7d28b07516325dcf341f88bebf959d82c1cb\n      mload(0x40)\n      mload(0x40)\n      dup1\n      swap2\n      sub\n      swap1\n      log2\n        /* \"contracts/ManageVault.sol\":4046:4074  transferFunds(transactionId) */\n      tag_156\n        /* \"contracts/ManageVault.sol\":4060:4073  transactionId */\n      dup5\n        /* \"contracts/ManageVault.sol\":4046:4059  transferFunds */\n      tag_157\n        /* \"contracts/ManageVault.sol\":4046:4074  transferFunds(transactionId) */\n      jump\t// in\n    tag_156:\n        /* \"contracts/ManageVault.sol\":3751:4082  {... */\n      pop\n        /* \"@openzeppelin/contracts/security/ReentrancyGuard.sol\":2303:2323  _nonReentrantAfter() */\n      tag_158\n        /* \"@openzeppelin/contracts/security/ReentrancyGuard.sol\":2303:2321  _nonReentrantAfter */\n      tag_75\n        /* \"@openzeppelin/contracts/security/ReentrancyGuard.sol\":2303:2323  _nonReentrantAfter() */\n      jump\t// in\n    tag_158:\n        /* \"contracts/ManageVault.sol\":1831:1832  _ */\n      pop\n        /* \"contracts/ManageVault.sol\":3628:4082  function approve(uint256 transactionId) external transactionExists(transactionId) onlyApprover(transactionId) nonReentrant {... */\n      pop\n      pop\n      jump\t// out\n        /* \"contracts/ManageVault.sol\":597:628  uint256 public transactionCount */\n    tag_46:\n      sload(0x02)\n      dup2\n      jump\t// out\n        /* \"contracts/ManageVault.sol\":4090:4416  function reject(uint256 transactionId) external transactionExists(transactionId) onlyApprover(transactionId) nonReentrant {... */\n    tag_51:\n        /* \"contracts/ManageVault.sol\":4156:4169  transactionId */\n      dup1\n        /* \"contracts/ManageVault.sol\":1787:1788  0 */\n      0x00\n        /* \"contracts/ManageVault.sol\":1742:1789  transactions[transactionId].buyer != address(0) */\n      0xffffffffffffffffffffffffffffffffffffffff\n      and\n        /* \"contracts/ManageVault.sol\":1742:1754  transactions */\n      0x01\n        /* \"contracts/ManageVault.sol\":1742:1769  transactions[transactionId] */\n      0x00\n        /* \"contracts/ManageVault.sol\":1755:1768  transactionId */\n      dup4\n        /* \"contracts/ManageVault.sol\":1742:1769  transactions[transactionId] */\n      dup2\n      mstore\n      0x20\n      add\n      swap1\n      dup2\n      mstore\n      0x20\n      add\n      0x00\n      keccak256\n        /* \"contracts/ManageVault.sol\":1742:1775  transactions[transactionId].buyer */\n      0x00\n      add\n      0x00\n      swap1\n      sload\n      swap1\n      0x0100\n      exp\n      swap1\n      div\n      0xffffffffffffffffffffffffffffffffffffffff\n      and\n        /* \"contracts/ManageVault.sol\":1742:1789  transactions[transactionId].buyer != address(0) */\n      0xffffffffffffffffffffffffffffffffffffffff\n      and\n      sub\n        /* \"contracts/ManageVault.sol\":1734:1820  require(transactions[transactionId].buyer != address(0), \"Transaction does not exist\") */\n      tag_160\n      jumpi\n      mload(0x40)\n      0x08c379a000000000000000000000000000000000000000000000000000000000\n      dup2\n      mstore\n      0x04\n      add\n      tag_161\n      swap1\n      tag_55\n      jump\t// in\n    tag_161:\n      mload(0x40)\n      dup1\n      swap2\n      sub\n      swap1\n      revert\n    tag_160:\n        /* \"contracts/ManageVault.sol\":4184:4197  transactionId */\n      dup2\n        /* \"contracts/ManageVault.sol\":1588:1600  transactions */\n      0x01\n        /* \"contracts/ManageVault.sol\":1588:1615  transactions[transactionId] */\n      0x00\n        /* \"contracts/ManageVault.sol\":1601:1614  transactionId */\n      dup3\n        /* \"contracts/ManageVault.sol\":1588:1615  transactions[transactionId] */\n      dup2\n      mstore\n      0x20\n      add\n      swap1\n      dup2\n      mstore\n      0x20\n      add\n      0x00\n      keccak256\n        /* \"contracts/ManageVault.sol\":1588:1624  transactions[transactionId].approver */\n      0x02\n      add\n      0x00\n      swap1\n      sload\n      swap1\n      0x0100\n      exp\n      swap1\n      div\n      0xffffffffffffffffffffffffffffffffffffffff\n      and\n        /* \"contracts/ManageVault.sol\":1574:1624  msg.sender == transactions[transactionId].approver */\n      0xffffffffffffffffffffffffffffffffffffffff\n      and\n        /* \"contracts/ManageVault.sol\":1574:1584  msg.sender */\n      caller\n        /* \"contracts/ManageVault.sol\":1574:1624  msg.sender == transactions[transactionId].approver */\n      0xffffffffffffffffffffffffffffffffffffffff\n      and\n      eq\n        /* \"contracts/ManageVault.sol\":1566:1645  require(msg.sender == transactions[transactionId].approver, \"Not the approver\") */\n      tag_163\n      jumpi\n      mload(0x40)\n      0x08c379a000000000000000000000000000000000000000000000000000000000\n      dup2\n      mstore\n      0x04\n      add\n      tag_164\n      swap1\n      tag_146\n      jump\t// in\n    tag_164:\n      mload(0x40)\n      dup1\n      swap2\n      sub\n      swap1\n      revert\n    tag_163:\n        /* \"@openzeppelin/contracts/security/ReentrancyGuard.sol\":2261:2282  _nonReentrantBefore() */\n      tag_166\n        /* \"@openzeppelin/contracts/security/ReentrancyGuard.sol\":2261:2280  _nonReentrantBefore */\n      tag_62\n        /* \"@openzeppelin/contracts/security/ReentrancyGuard.sol\":2261:2282  _nonReentrantBefore() */\n      jump\t// in\n    tag_166:\n        /* \"contracts/ManageVault.sol\":4223:4246  Transaction storage txn */\n      0x00\n        /* \"contracts/ManageVault.sol\":4249:4261  transactions */\n      0x01\n        /* \"contracts/ManageVault.sol\":4249:4276  transactions[transactionId] */\n      0x00\n        /* \"contracts/ManageVault.sol\":4262:4275  transactionId */\n      dup6\n        /* \"contracts/ManageVault.sol\":4249:4276  transactions[transactionId] */\n      dup2\n      mstore\n      0x20\n      add\n      swap1\n      dup2\n      mstore\n      0x20\n      add\n      0x00\n      keccak256\n        /* \"contracts/ManageVault.sol\":4223:4276  Transaction storage txn = transactions[transactionId] */\n      swap1\n      pop\n        /* \"contracts/ManageVault.sol\":4295:4298  txn */\n      dup1\n        /* \"contracts/ManageVault.sol\":4295:4307  txn.isLocked */\n      0x07\n      add\n      0x00\n      swap1\n      sload\n      swap1\n      0x0100\n      exp\n      swap1\n      div\n      0xff\n      and\n        /* \"contracts/ManageVault.sol\":4287:4330  require(txn.isLocked, \"No funds deposited\") */\n      tag_168\n      jumpi\n      mload(0x40)\n      0x08c379a000000000000000000000000000000000000000000000000000000000\n      dup2\n      mstore\n      0x04\n      add\n      tag_169\n      swap1\n      tag_66\n      jump\t// in\n    tag_169:\n      mload(0x40)\n      dup1\n      swap2\n      sub\n      swap1\n      revert\n    tag_168:\n        /* \"contracts/ManageVault.sol\":4357:4370  transactionId */\n      dup4\n        /* \"contracts/ManageVault.sol\":4348:4371  Rejected(transactionId) */\n      0x94064f919a02d0565c6790e0615fb4ba6cf1be1dd679f0161be914613a1b9bb5\n      mload(0x40)\n      mload(0x40)\n      dup1\n      swap2\n      sub\n      swap1\n      log2\n        /* \"contracts/ManageVault.sol\":4382:4408  returnFunds(transactionId) */\n      tag_170\n        /* \"contracts/ManageVault.sol\":4394:4407  transactionId */\n      dup5\n        /* \"contracts/ManageVault.sol\":4382:4393  returnFunds */\n      tag_73\n        /* \"contracts/ManageVault.sol\":4382:4408  returnFunds(transactionId) */\n      jump\t// in\n    tag_170:\n        /* \"contracts/ManageVault.sol\":4212:4416  {... */\n      pop\n        /* \"@openzeppelin/contracts/security/ReentrancyGuard.sol\":2303:2323  _nonReentrantAfter() */\n      tag_171\n        /* \"@openzeppelin/contracts/security/ReentrancyGuard.sol\":2303:2321  _nonReentrantAfter */\n      tag_75\n        /* \"@openzeppelin/contracts/security/ReentrancyGuard.sol\":2303:2323  _nonReentrantAfter() */\n      jump\t// in\n    tag_171:\n        /* \"contracts/ManageVault.sol\":1831:1832  _ */\n      pop\n        /* \"contracts/ManageVault.sol\":4090:4416  function reject(uint256 transactionId) external transactionExists(transactionId) onlyApprover(transactionId) nonReentrant {... */\n      pop\n      pop\n      jump\t// out\n        /* \"@openzeppelin/contracts/security/ReentrancyGuard.sol\":2336:2623  function _nonReentrantBefore() private {... */\n    tag_62:\n        /* \"@openzeppelin/contracts/security/ReentrancyGuard.sol\":1759:1760  2 */\n      0x02\n        /* \"@openzeppelin/contracts/security/ReentrancyGuard.sol\":2468:2475  _status */\n      sload(0x00)\n        /* \"@openzeppelin/contracts/security/ReentrancyGuard.sol\":2468:2487  _status != _ENTERED */\n      sub\n        /* \"@openzeppelin/contracts/security/ReentrancyGuard.sol\":2460:2523  require(_status != _ENTERED, \"ReentrancyGuard: reentrant call\") */\n      tag_173\n      jumpi\n      mload(0x40)\n      0x08c379a000000000000000000000000000000000000000000000000000000000\n      dup2\n      mstore\n      0x04\n      add\n      tag_174\n      swap1\n      tag_175\n      jump\t// in\n    tag_174:\n      mload(0x40)\n      dup1\n      swap2\n      sub\n      swap1\n      revert\n    tag_173:\n        /* \"@openzeppelin/contracts/security/ReentrancyGuard.sol\":1759:1760  2 */\n      0x02\n        /* \"@openzeppelin/contracts/security/ReentrancyGuard.sol\":2598:2605  _status */\n      0x00\n        /* \"@openzeppelin/contracts/security/ReentrancyGuard.sol\":2598:2616  _status = _ENTERED */\n      dup2\n      swap1\n      sstore\n      pop\n        /* \"@openzeppelin/contracts/security/ReentrancyGuard.sol\":2336:2623  function _nonReentrantBefore() private {... */\n      jump\t// out\n        /* \"contracts/ManageVault.sol\":6081:6946  function returnFunds(uint256 transactionId) internal {... */\n    tag_73:\n        /* \"contracts/ManageVault.sol\":6145:6168  Transaction storage txn */\n      0x00\n        /* \"contracts/ManageVault.sol\":6171:6183  transactions */\n      0x01\n        /* \"contracts/ManageVault.sol\":6171:6198  transactions[transactionId] */\n      0x00\n        /* \"contracts/ManageVault.sol\":6184:6197  transactionId */\n      dup4\n        /* \"contracts/ManageVault.sol\":6171:6198  transactions[transactionId] */\n      dup2\n      mstore\n      0x20\n      add\n      swap1\n      dup2\n      mstore\n      0x20\n      add\n      0x00\n      keccak256\n        /* \"contracts/ManageVault.sol\":6145:6198  Transaction storage txn = transactions[transactionId] */\n      swap1\n      pop\n        /* \"contracts/ManageVault.sol\":6232:6233  0 */\n      0x00\n        /* \"contracts/ManageVault.sol\":6215:6218  txn */\n      dup2\n        /* \"contracts/ManageVault.sol\":6215:6229  txn.ethBalance */\n      0x03\n      add\n      sload\n        /* \"contracts/ManageVault.sol\":6215:6233  txn.ethBalance > 0 */\n      gt\n        /* \"contracts/ManageVault.sol\":6211:6446  if (txn.ethBalance > 0) {... */\n      iszero\n      tag_177\n      jumpi\n        /* \"contracts/ManageVault.sol\":6250:6264  uint256 amount */\n      0x00\n        /* \"contracts/ManageVault.sol\":6267:6270  txn */\n      dup2\n        /* \"contracts/ManageVault.sol\":6267:6281  txn.ethBalance */\n      0x03\n      add\n      sload\n        /* \"contracts/ManageVault.sol\":6250:6281  uint256 amount = txn.ethBalance */\n      swap1\n      pop\n        /* \"contracts/ManageVault.sol\":6313:6314  0 */\n      0x00\n        /* \"contracts/ManageVault.sol\":6296:6299  txn */\n      dup3\n        /* \"contracts/ManageVault.sol\":6296:6310  txn.ethBalance */\n      0x03\n      add\n        /* \"contracts/ManageVault.sol\":6296:6314  txn.ethBalance = 0 */\n      dup2\n      swap1\n      sstore\n      pop\n        /* \"contracts/ManageVault.sol\":6337:6340  txn */\n      dup2\n        /* \"contracts/ManageVault.sol\":6337:6346  txn.buyer */\n      0x00\n      add\n      0x00\n      swap1\n      sload\n      swap1\n      0x0100\n      exp\n      swap1\n      div\n      0xffffffffffffffffffffffffffffffffffffffff\n      and\n        /* \"contracts/ManageVault.sol\":6329:6356  payable(txn.buyer).transfer */\n      0xffffffffffffffffffffffffffffffffffffffff\n      and\n        /* \"contracts/ManageVault.sol\":6329:6364  payable(txn.buyer).transfer(amount) */\n      0x08fc\n        /* \"contracts/ManageVault.sol\":6357:6363  amount */\n      dup3\n        /* \"contracts/ManageVault.sol\":6329:6364  payable(txn.buyer).transfer(amount) */\n      swap1\n      dup2\n      iszero\n      mul\n      swap1\n      mload(0x40)\n      0x00\n      mload(0x40)\n      dup1\n      dup4\n      sub\n      dup2\n      dup6\n      dup9\n      dup9\n      call\n      swap4\n      pop\n      pop\n      pop\n      pop\n      iszero\n      dup1\n      iszero\n      tag_179\n      jumpi\n      returndatasize\n      0x00\n      dup1\n      returndatacopy\n      revert(0x00, returndatasize)\n    tag_179:\n      pop\n        /* \"contracts/ManageVault.sol\":6416:6419  txn */\n      dup2\n        /* \"contracts/ManageVault.sol\":6416:6425  txn.buyer */\n      0x00\n      add\n      0x00\n      swap1\n      sload\n      swap1\n      0x0100\n      exp\n      swap1\n      div\n      0xffffffffffffffffffffffffffffffffffffffff\n      and\n        /* \"contracts/ManageVault.sol\":6384:6434  FundsTransferred(transactionId, txn.buyer, amount) */\n      0xffffffffffffffffffffffffffffffffffffffff\n      and\n        /* \"contracts/ManageVault.sol\":6401:6414  transactionId */\n      dup4\n        /* \"contracts/ManageVault.sol\":6384:6434  FundsTransferred(transactionId, txn.buyer, amount) */\n      0xe90ae330e5aefc2a73ddff0dd88bcaf8f4a0629d6553a2a85b22cac3d5f4a19e\n        /* \"contracts/ManageVault.sol\":6427:6433  amount */\n      dup4\n        /* \"contracts/ManageVault.sol\":6384:6434  FundsTransferred(transactionId, txn.buyer, amount) */\n      mload(0x40)\n      tag_180\n      swap2\n      swap1\n      tag_21\n      jump\t// in\n    tag_180:\n      mload(0x40)\n      dup1\n      swap2\n      sub\n      swap1\n      log3\n        /* \"contracts/ManageVault.sol\":6235:6446  {... */\n      pop\n        /* \"contracts/ManageVault.sol\":6211:6446  if (txn.ethBalance > 0) {... */\n    tag_177:\n        /* \"contracts/ManageVault.sol\":6463:6472  uint256 i */\n      0x00\n        /* \"contracts/ManageVault.sol\":6458:6906  for (uint256 i = 0; i < txn.depositedTokens.length; i++) {... */\n    tag_181:\n        /* \"contracts/ManageVault.sol\":6482:6485  txn */\n      dup2\n        /* \"contracts/ManageVault.sol\":6482:6501  txn.depositedTokens */\n      0x05\n      add\n        /* \"contracts/ManageVault.sol\":6482:6508  txn.depositedTokens.length */\n      dup1\n      sload\n      swap1\n      pop\n        /* \"contracts/ManageVault.sol\":6478:6479  i */\n      dup2\n        /* \"contracts/ManageVault.sol\":6478:6508  i < txn.depositedTokens.length */\n      lt\n        /* \"contracts/ManageVault.sol\":6458:6906  for (uint256 i = 0; i < txn.depositedTokens.length; i++) {... */\n      iszero\n      tag_182\n      jumpi\n        /* \"contracts/ManageVault.sol\":6530:6550  address tokenAddress */\n      0x00\n        /* \"contracts/ManageVault.sol\":6553:6556  txn */\n      dup3\n        /* \"contracts/ManageVault.sol\":6553:6572  txn.depositedTokens */\n      0x05\n      add\n        /* \"contracts/ManageVault.sol\":6573:6574  i */\n      dup3\n        /* \"contracts/ManageVault.sol\":6553:6575  txn.depositedTokens[i] */\n      dup2\n      sload\n      dup2\n      lt\n      tag_184\n      jumpi\n      tag_185\n      tag_186\n      jump\t// in\n    tag_185:\n    tag_184:\n      swap1\n      0x00\n      mstore\n      keccak256(0x00, 0x20)\n      add\n      0x00\n      swap1\n      sload\n      swap1\n      0x0100\n      exp\n      swap1\n      div\n      0xffffffffffffffffffffffffffffffffffffffff\n      and\n        /* \"contracts/ManageVault.sol\":6530:6575  address tokenAddress = txn.depositedTokens[i] */\n      swap1\n      pop\n        /* \"contracts/ManageVault.sol\":6590:6604  uint256 amount */\n      0x00\n        /* \"contracts/ManageVault.sol\":6607:6610  txn */\n      dup4\n        /* \"contracts/ManageVault.sol\":6607:6624  txn.erc20Balances */\n      0x04\n      add\n        /* \"contracts/ManageVault.sol\":6607:6638  txn.erc20Balances[tokenAddress] */\n      0x00\n        /* \"contracts/ManageVault.sol\":6625:6637  tokenAddress */\n      dup4\n        /* \"contracts/ManageVault.sol\":6607:6638  txn.erc20Balances[tokenAddress] */\n      0xffffffffffffffffffffffffffffffffffffffff\n      and\n      0xffffffffffffffffffffffffffffffffffffffff\n      and\n      dup2\n      mstore\n      0x20\n      add\n      swap1\n      dup2\n      mstore\n      0x20\n      add\n      0x00\n      keccak256\n      sload\n        /* \"contracts/ManageVault.sol\":6590:6638  uint256 amount = txn.erc20Balances[tokenAddress] */\n      swap1\n      pop\n        /* \"contracts/ManageVault.sol\":6666:6667  0 */\n      0x00\n        /* \"contracts/ManageVault.sol\":6657:6663  amount */\n      dup2\n        /* \"contracts/ManageVault.sol\":6657:6667  amount > 0 */\n      gt\n        /* \"contracts/ManageVault.sol\":6653:6895  if (amount > 0) {... */\n      iszero\n      tag_188\n      jumpi\n        /* \"contracts/ManageVault.sol\":6722:6723  0 */\n      0x00\n        /* \"contracts/ManageVault.sol\":6688:6691  txn */\n      dup5\n        /* \"contracts/ManageVault.sol\":6688:6705  txn.erc20Balances */\n      0x04\n      add\n        /* \"contracts/ManageVault.sol\":6688:6719  txn.erc20Balances[tokenAddress] */\n      0x00\n        /* \"contracts/ManageVault.sol\":6706:6718  tokenAddress */\n      dup5\n        /* \"contracts/ManageVault.sol\":6688:6719  txn.erc20Balances[tokenAddress] */\n      0xffffffffffffffffffffffffffffffffffffffff\n      and\n      0xffffffffffffffffffffffffffffffffffffffff\n      and\n      dup2\n      mstore\n      0x20\n      add\n      swap1\n      dup2\n      mstore\n      0x20\n      add\n      0x00\n      keccak256\n        /* \"contracts/ManageVault.sol\":6688:6723  txn.erc20Balances[tokenAddress] = 0 */\n      dup2\n      swap1\n      sstore\n      pop\n        /* \"contracts/ManageVault.sol\":6749:6761  tokenAddress */\n      dup2\n        /* \"contracts/ManageVault.sol\":6742:6771  IERC20(tokenAddress).transfer */\n      0xffffffffffffffffffffffffffffffffffffffff\n      and\n      0xa9059cbb\n        /* \"contracts/ManageVault.sol\":6772:6775  txn */\n      dup6\n        /* \"contracts/ManageVault.sol\":6772:6781  txn.buyer */\n      0x00\n      add\n      0x00\n      swap1\n      sload\n      swap1\n      0x0100\n      exp\n      swap1\n      div\n      0xffffffffffffffffffffffffffffffffffffffff\n      and\n        /* \"contracts/ManageVault.sol\":6783:6789  amount */\n      dup4\n        /* \"contracts/ManageVault.sol\":6742:6790  IERC20(tokenAddress).transfer(txn.buyer, amount) */\n      mload(0x40)\n      dup4\n      0xffffffff\n      and\n      0xe0\n      shl\n      dup2\n      mstore\n      0x04\n      add\n      tag_189\n      swap3\n      swap2\n      swap1\n      tag_190\n      jump\t// in\n    tag_189:\n      0x20\n      mload(0x40)\n      dup1\n      dup4\n      sub\n      dup2\n      0x00\n      dup8\n      gas\n      call\n      iszero\n      dup1\n      iszero\n      tag_192\n      jumpi\n      returndatasize\n      0x00\n      dup1\n      returndatacopy\n      revert(0x00, returndatasize)\n    tag_192:\n      pop\n      pop\n      pop\n      pop\n      mload(0x40)\n      returndatasize\n      not(0x1f)\n      0x1f\n      dup3\n      add\n      and\n      dup3\n      add\n      dup1\n      0x40\n      mstore\n      pop\n      dup2\n      add\n      swap1\n      tag_193\n      swap2\n      swap1\n      tag_131\n      jump\t// in\n    tag_193:\n      pop\n        /* \"contracts/ManageVault.sol\":6861:6864  txn */\n      dup4\n        /* \"contracts/ManageVault.sol\":6861:6870  txn.buyer */\n      0x00\n      add\n      0x00\n      swap1\n      sload\n      swap1\n      0x0100\n      exp\n      swap1\n      div\n      0xffffffffffffffffffffffffffffffffffffffff\n      and\n        /* \"contracts/ManageVault.sol\":6814:6879  TokensTransferred(transactionId, tokenAddress, txn.buyer, amount) */\n      0xffffffffffffffffffffffffffffffffffffffff\n      and\n        /* \"contracts/ManageVault.sol\":6847:6859  tokenAddress */\n      dup3\n        /* \"contracts/ManageVault.sol\":6814:6879  TokensTransferred(transactionId, tokenAddress, txn.buyer, amount) */\n      0xffffffffffffffffffffffffffffffffffffffff\n      and\n        /* \"contracts/ManageVault.sol\":6832:6845  transactionId */\n      dup7\n        /* \"contracts/ManageVault.sol\":6814:6879  TokensTransferred(transactionId, tokenAddress, txn.buyer, amount) */\n      0x69d21b294c0b932db9bb0dc81144c65ac23a4c078f00589443bb03baa63e3c96\n        /* \"contracts/ManageVault.sol\":6872:6878  amount */\n      dup5\n        /* \"contracts/ManageVault.sol\":6814:6879  TokensTransferred(transactionId, tokenAddress, txn.buyer, amount) */\n      mload(0x40)\n      tag_194\n      swap2\n      swap1\n      tag_21\n      jump\t// in\n    tag_194:\n      mload(0x40)\n      dup1\n      swap2\n      sub\n      swap1\n      log4\n        /* \"contracts/ManageVault.sol\":6653:6895  if (amount > 0) {... */\n    tag_188:\n        /* \"contracts/ManageVault.sol\":6515:6906  {... */\n      pop\n      pop\n        /* \"contracts/ManageVault.sol\":6510:6513  i++ */\n      dup1\n      dup1\n      0x01\n      add\n      swap2\n      pop\n      pop\n        /* \"contracts/ManageVault.sol\":6458:6906  for (uint256 i = 0; i < txn.depositedTokens.length; i++) {... */\n      jump(tag_181)\n    tag_182:\n      pop\n        /* \"contracts/ManageVault.sol\":6933:6938  false */\n      0x00\n        /* \"contracts/ManageVault.sol\":6918:6921  txn */\n      dup2\n        /* \"contracts/ManageVault.sol\":6918:6930  txn.isLocked */\n      0x07\n      add\n      0x00\n        /* \"contracts/ManageVault.sol\":6918:6938  txn.isLocked = false */\n      0x0100\n      exp\n      dup2\n      sload\n      dup2\n      0xff\n      mul\n      not\n      and\n      swap1\n      dup4\n      iszero\n      iszero\n      mul\n      or\n      swap1\n      sstore\n      pop\n        /* \"contracts/ManageVault.sol\":6134:6946  {... */\n      pop\n        /* \"contracts/ManageVault.sol\":6081:6946  function returnFunds(uint256 transactionId) internal {... */\n      pop\n      jump\t// out\n        /* \"@openzeppelin/contracts/security/ReentrancyGuard.sol\":2629:2838  function _nonReentrantAfter() private {... */\n    tag_75:\n        /* \"@openzeppelin/contracts/security/ReentrancyGuard.sol\":1716:1717  1 */\n      0x01\n        /* \"@openzeppelin/contracts/security/ReentrancyGuard.sol\":2809:2816  _status */\n      0x00\n        /* \"@openzeppelin/contracts/security/ReentrancyGuard.sol\":2809:2831  _status = _NOT_ENTERED */\n      dup2\n      swap1\n      sstore\n      pop\n        /* \"@openzeppelin/contracts/security/ReentrancyGuard.sol\":2629:2838  function _nonReentrantAfter() private {... */\n      jump\t// out\n        /* \"contracts/ManageVault.sol\":5202:6073  function transferFunds(uint256 transactionId) internal {... */\n    tag_157:\n        /* \"contracts/ManageVault.sol\":5268:5291  Transaction storage txn */\n      0x00\n        /* \"contracts/ManageVault.sol\":5294:5306  transactions */\n      0x01\n        /* \"contracts/ManageVault.sol\":5294:5321  transactions[transactionId] */\n      0x00\n        /* \"contracts/ManageVault.sol\":5307:5320  transactionId */\n      dup4\n        /* \"contracts/ManageVault.sol\":5294:5321  transactions[transactionId] */\n      dup2\n      mstore\n      0x20\n      add\n      swap1\n      dup2\n      mstore\n      0x20\n      add\n      0x00\n      keccak256\n        /* \"contracts/ManageVault.sol\":5268:5321  Transaction storage txn = transactions[transactionId] */\n      swap1\n      pop\n        /* \"contracts/ManageVault.sol\":5355:5356  0 */\n      0x00\n        /* \"contracts/ManageVault.sol\":5338:5341  txn */\n      dup2\n        /* \"contracts/ManageVault.sol\":5338:5352  txn.ethBalance */\n      0x03\n      add\n      sload\n        /* \"contracts/ManageVault.sol\":5338:5356  txn.ethBalance > 0 */\n      gt\n        /* \"contracts/ManageVault.sol\":5334:5571  if (txn.ethBalance > 0) {... */\n      iszero\n      tag_197\n      jumpi\n        /* \"contracts/ManageVault.sol\":5373:5387  uint256 amount */\n      0x00\n        /* \"contracts/ManageVault.sol\":5390:5393  txn */\n      dup2\n        /* \"contracts/ManageVault.sol\":5390:5404  txn.ethBalance */\n      0x03\n      add\n      sload\n        /* \"contracts/ManageVault.sol\":5373:5404  uint256 amount = txn.ethBalance */\n      swap1\n      pop\n        /* \"contracts/ManageVault.sol\":5436:5437  0 */\n      0x00\n        /* \"contracts/ManageVault.sol\":5419:5422  txn */\n      dup3\n        /* \"contracts/ManageVault.sol\":5419:5433  txn.ethBalance */\n      0x03\n      add\n        /* \"contracts/ManageVault.sol\":5419:5437  txn.ethBalance = 0 */\n      dup2\n      swap1\n      sstore\n      pop\n        /* \"contracts/ManageVault.sol\":5460:5463  txn */\n      dup2\n        /* \"contracts/ManageVault.sol\":5460:5470  txn.seller */\n      0x01\n      add\n      0x00\n      swap1\n      sload\n      swap1\n      0x0100\n      exp\n      swap1\n      div\n      0xffffffffffffffffffffffffffffffffffffffff\n      and\n        /* \"contracts/ManageVault.sol\":5452:5480  payable(txn.seller).transfer */\n      0xffffffffffffffffffffffffffffffffffffffff\n      and\n        /* \"contracts/ManageVault.sol\":5452:5488  payable(txn.seller).transfer(amount) */\n      0x08fc\n        /* \"contracts/ManageVault.sol\":5481:5487  amount */\n      dup3\n        /* \"contracts/ManageVault.sol\":5452:5488  payable(txn.seller).transfer(amount) */\n      swap1\n      dup2\n      iszero\n      mul\n      swap1\n      mload(0x40)\n      0x00\n      mload(0x40)\n      dup1\n      dup4\n      sub\n      dup2\n      dup6\n      dup9\n      dup9\n      call\n      swap4\n      pop\n      pop\n      pop\n      pop\n      iszero\n      dup1\n      iszero\n      tag_199\n      jumpi\n      returndatasize\n      0x00\n      dup1\n      returndatacopy\n      revert(0x00, returndatasize)\n    tag_199:\n      pop\n        /* \"contracts/ManageVault.sol\":5540:5543  txn */\n      dup2\n        /* \"contracts/ManageVault.sol\":5540:5550  txn.seller */\n      0x01\n      add\n      0x00\n      swap1\n      sload\n      swap1\n      0x0100\n      exp\n      swap1\n      div\n      0xffffffffffffffffffffffffffffffffffffffff\n      and\n        /* \"contracts/ManageVault.sol\":5508:5559  FundsTransferred(transactionId, txn.seller, amount) */\n      0xffffffffffffffffffffffffffffffffffffffff\n      and\n        /* \"contracts/ManageVault.sol\":5525:5538  transactionId */\n      dup4\n        /* \"contracts/ManageVault.sol\":5508:5559  FundsTransferred(transactionId, txn.seller, amount) */\n      0xe90ae330e5aefc2a73ddff0dd88bcaf8f4a0629d6553a2a85b22cac3d5f4a19e\n        /* \"contracts/ManageVault.sol\":5552:5558  amount */\n      dup4\n        /* \"contracts/ManageVault.sol\":5508:5559  FundsTransferred(transactionId, txn.seller, amount) */\n      mload(0x40)\n      tag_200\n      swap2\n      swap1\n      tag_21\n      jump\t// in\n    tag_200:\n      mload(0x40)\n      dup1\n      swap2\n      sub\n      swap1\n      log3\n        /* \"contracts/ManageVault.sol\":5358:5571  {... */\n      pop\n        /* \"contracts/ManageVault.sol\":5334:5571  if (txn.ethBalance > 0) {... */\n    tag_197:\n        /* \"contracts/ManageVault.sol\":5588:5597  uint256 i */\n      0x00\n        /* \"contracts/ManageVault.sol\":5583:6033  for (uint256 i = 0; i < txn.depositedTokens.length; i++) {... */\n    tag_201:\n        /* \"contracts/ManageVault.sol\":5607:5610  txn */\n      dup2\n        /* \"contracts/ManageVault.sol\":5607:5626  txn.depositedTokens */\n      0x05\n      add\n        /* \"contracts/ManageVault.sol\":5607:5633  txn.depositedTokens.length */\n      dup1\n      sload\n      swap1\n      pop\n        /* \"contracts/ManageVault.sol\":5603:5604  i */\n      dup2\n        /* \"contracts/ManageVault.sol\":5603:5633  i < txn.depositedTokens.length */\n      lt\n        /* \"contracts/ManageVault.sol\":5583:6033  for (uint256 i = 0; i < txn.depositedTokens.length; i++) {... */\n      iszero\n      tag_202\n      jumpi\n        /* \"contracts/ManageVault.sol\":5655:5675  address tokenAddress */\n      0x00\n        /* \"contracts/ManageVault.sol\":5678:5681  txn */\n      dup3\n        /* \"contracts/ManageVault.sol\":5678:5697  txn.depositedTokens */\n      0x05\n      add\n        /* \"contracts/ManageVault.sol\":5698:5699  i */\n      dup3\n        /* \"contracts/ManageVault.sol\":5678:5700  txn.depositedTokens[i] */\n      dup2\n      sload\n      dup2\n      lt\n      tag_204\n      jumpi\n      tag_205\n      tag_186\n      jump\t// in\n    tag_205:\n    tag_204:\n      swap1\n      0x00\n      mstore\n      keccak256(0x00, 0x20)\n      add\n      0x00\n      swap1\n      sload\n      swap1\n      0x0100\n      exp\n      swap1\n      div\n      0xffffffffffffffffffffffffffffffffffffffff\n      and\n        /* \"contracts/ManageVault.sol\":5655:5700  address tokenAddress = txn.depositedTokens[i] */\n      swap1\n      pop\n        /* \"contracts/ManageVault.sol\":5715:5729  uint256 amount */\n      0x00\n        /* \"contracts/ManageVault.sol\":5732:5735  txn */\n      dup4\n        /* \"contracts/ManageVault.sol\":5732:5749  txn.erc20Balances */\n      0x04\n      add\n        /* \"contracts/ManageVault.sol\":5732:5763  txn.erc20Balances[tokenAddress] */\n      0x00\n        /* \"contracts/ManageVault.sol\":5750:5762  tokenAddress */\n      dup4\n        /* \"contracts/ManageVault.sol\":5732:5763  txn.erc20Balances[tokenAddress] */\n      0xffffffffffffffffffffffffffffffffffffffff\n      and\n      0xffffffffffffffffffffffffffffffffffffffff\n      and\n      dup2\n      mstore\n      0x20\n      add\n      swap1\n      dup2\n      mstore\n      0x20\n      add\n      0x00\n      keccak256\n      sload\n        /* \"contracts/ManageVault.sol\":5715:5763  uint256 amount = txn.erc20Balances[tokenAddress] */\n      swap1\n      pop\n        /* \"contracts/ManageVault.sol\":5791:5792  0 */\n      0x00\n        /* \"contracts/ManageVault.sol\":5782:5788  amount */\n      dup2\n        /* \"contracts/ManageVault.sol\":5782:5792  amount > 0 */\n      gt\n        /* \"contracts/ManageVault.sol\":5778:6022  if (amount > 0) {... */\n      iszero\n      tag_207\n      jumpi\n        /* \"contracts/ManageVault.sol\":5847:5848  0 */\n      0x00\n        /* \"contracts/ManageVault.sol\":5813:5816  txn */\n      dup5\n        /* \"contracts/ManageVault.sol\":5813:5830  txn.erc20Balances */\n      0x04\n      add\n        /* \"contracts/ManageVault.sol\":5813:5844  txn.erc20Balances[tokenAddress] */\n      0x00\n        /* \"contracts/ManageVault.sol\":5831:5843  tokenAddress */\n      dup5\n        /* \"contracts/ManageVault.sol\":5813:5844  txn.erc20Balances[tokenAddress] */\n      0xffffffffffffffffffffffffffffffffffffffff\n      and\n      0xffffffffffffffffffffffffffffffffffffffff\n      and\n      dup2\n      mstore\n      0x20\n      add\n      swap1\n      dup2\n      mstore\n      0x20\n      add\n      0x00\n      keccak256\n        /* \"contracts/ManageVault.sol\":5813:5848  txn.erc20Balances[tokenAddress] = 0 */\n      dup2\n      swap1\n      sstore\n      pop\n        /* \"contracts/ManageVault.sol\":5874:5886  tokenAddress */\n      dup2\n        /* \"contracts/ManageVault.sol\":5867:5896  IERC20(tokenAddress).transfer */\n      0xffffffffffffffffffffffffffffffffffffffff\n      and\n      0xa9059cbb\n        /* \"contracts/ManageVault.sol\":5897:5900  txn */\n      dup6\n        /* \"contracts/ManageVault.sol\":5897:5907  txn.seller */\n      0x01\n      add\n      0x00\n      swap1\n      sload\n      swap1\n      0x0100\n      exp\n      swap1\n      div\n      0xffffffffffffffffffffffffffffffffffffffff\n      and\n        /* \"contracts/ManageVault.sol\":5909:5915  amount */\n      dup4\n        /* \"contracts/ManageVault.sol\":5867:5916  IERC20(tokenAddress).transfer(txn.seller, amount) */\n      mload(0x40)\n      dup4\n      0xffffffff\n      and\n      0xe0\n      shl\n      dup2\n      mstore\n      0x04\n      add\n      tag_208\n      swap3\n      swap2\n      swap1\n      tag_190\n      jump\t// in\n    tag_208:\n      0x20\n      mload(0x40)\n      dup1\n      dup4\n      sub\n      dup2\n      0x00\n      dup8\n      gas\n      call\n      iszero\n      dup1\n      iszero\n      tag_210\n      jumpi\n      returndatasize\n      0x00\n      dup1\n      returndatacopy\n      revert(0x00, returndatasize)\n    tag_210:\n      pop\n      pop\n      pop\n      pop\n      mload(0x40)\n      returndatasize\n      not(0x1f)\n      0x1f\n      dup3\n      add\n      and\n      dup3\n      add\n      dup1\n      0x40\n      mstore\n      pop\n      dup2\n      add\n      swap1\n      tag_211\n      swap2\n      swap1\n      tag_131\n      jump\t// in\n    tag_211:\n      pop\n        /* \"contracts/ManageVault.sol\":5987:5990  txn */\n      dup4\n        /* \"contracts/ManageVault.sol\":5987:5997  txn.seller */\n      0x01\n      add\n      0x00\n      swap1\n      sload\n      swap1\n      0x0100\n      exp\n      swap1\n      div\n      0xffffffffffffffffffffffffffffffffffffffff\n      and\n        /* \"contracts/ManageVault.sol\":5940:6006  TokensTransferred(transactionId, tokenAddress, txn.seller, amount) */\n      0xffffffffffffffffffffffffffffffffffffffff\n      and\n        /* \"contracts/ManageVault.sol\":5973:5985  tokenAddress */\n      dup3\n        /* \"contracts/ManageVault.sol\":5940:6006  TokensTransferred(transactionId, tokenAddress, txn.seller, amount) */\n      0xffffffffffffffffffffffffffffffffffffffff\n      and\n        /* \"contracts/ManageVault.sol\":5958:5971  transactionId */\n      dup7\n        /* \"contracts/ManageVault.sol\":5940:6006  TokensTransferred(transactionId, tokenAddress, txn.seller, amount) */\n      0x69d21b294c0b932db9bb0dc81144c65ac23a4c078f00589443bb03baa63e3c96\n        /* \"contracts/ManageVault.sol\":5999:6005  amount */\n      dup5\n        /* \"contracts/ManageVault.sol\":5940:6006  TokensTransferred(transactionId, tokenAddress, txn.seller, amount) */\n      mload(0x40)\n      tag_212\n      swap2\n      swap1\n      tag_21\n      jump\t// in\n    tag_212:\n      mload(0x40)\n      dup1\n      swap2\n      sub\n      swap1\n      log4\n        /* \"contracts/ManageVault.sol\":5778:6022  if (amount > 0) {... */\n    tag_207:\n        /* \"contracts/ManageVault.sol\":5640:6033  {... */\n      pop\n      pop\n        /* \"contracts/ManageVault.sol\":5635:5638  i++ */\n      dup1\n      dup1\n      0x01\n      add\n      swap2\n      pop\n      pop\n        /* \"contracts/ManageVault.sol\":5583:6033  for (uint256 i = 0; i < txn.depositedTokens.length; i++) {... */\n      jump(tag_201)\n    tag_202:\n      pop\n        /* \"contracts/ManageVault.sol\":6060:6065  false */\n      0x00\n        /* \"contracts/ManageVault.sol\":6045:6048  txn */\n      dup2\n        /* \"contracts/ManageVault.sol\":6045:6057  txn.isLocked */\n      0x07\n      add\n      0x00\n        /* \"contracts/ManageVault.sol\":6045:6065  txn.isLocked = false */\n      0x0100\n      exp\n      dup2\n      sload\n      dup2\n      0xff\n      mul\n      not\n      and\n      swap1\n      dup4\n      iszero\n      iszero\n      mul\n      or\n      swap1\n      sstore\n      pop\n        /* \"contracts/ManageVault.sol\":5257:6073  {... */\n      pop\n        /* \"contracts/ManageVault.sol\":5202:6073  function transferFunds(uint256 transactionId) internal {... */\n      pop\n      jump\t// out\n        /* \"#utility.yul\":88:205   */\n    tag_214:\n        /* \"#utility.yul\":197:198   */\n      0x00\n        /* \"#utility.yul\":194:195   */\n      dup1\n        /* \"#utility.yul\":187:199   */\n      revert\n        /* \"#utility.yul\":334:411   */\n    tag_216:\n        /* \"#utility.yul\":371:378   */\n      0x00\n        /* \"#utility.yul\":400:405   */\n      dup2\n        /* \"#utility.yul\":389:405   */\n      swap1\n      pop\n        /* \"#utility.yul\":334:411   */\n      swap2\n      swap1\n      pop\n      jump\t// out\n        /* \"#utility.yul\":417:539   */\n    tag_217:\n        /* \"#utility.yul\":490:514   */\n      tag_261\n        /* \"#utility.yul\":508:513   */\n      dup2\n        /* \"#utility.yul\":490:514   */\n      tag_216\n      jump\t// in\n    tag_261:\n        /* \"#utility.yul\":483:488   */\n      dup2\n        /* \"#utility.yul\":480:515   */\n      eq\n        /* \"#utility.yul\":470:533   */\n      tag_262\n      jumpi\n        /* \"#utility.yul\":529:530   */\n      0x00\n        /* \"#utility.yul\":526:527   */\n      dup1\n        /* \"#utility.yul\":519:531   */\n      revert\n        /* \"#utility.yul\":470:533   */\n    tag_262:\n        /* \"#utility.yul\":417:539   */\n      pop\n      jump\t// out\n        /* \"#utility.yul\":545:684   */\n    tag_218:\n        /* \"#utility.yul\":591:596   */\n      0x00\n        /* \"#utility.yul\":629:635   */\n      dup2\n        /* \"#utility.yul\":616:636   */\n      calldataload\n        /* \"#utility.yul\":607:636   */\n      swap1\n      pop\n        /* \"#utility.yul\":645:678   */\n      tag_264\n        /* \"#utility.yul\":672:677   */\n      dup2\n        /* \"#utility.yul\":645:678   */\n      tag_217\n      jump\t// in\n    tag_264:\n        /* \"#utility.yul\":545:684   */\n      swap3\n      swap2\n      pop\n      pop\n      jump\t// out\n        /* \"#utility.yul\":690:1019   */\n    tag_15:\n        /* \"#utility.yul\":749:755   */\n      0x00\n        /* \"#utility.yul\":798:800   */\n      0x20\n        /* \"#utility.yul\":786:795   */\n      dup3\n        /* \"#utility.yul\":777:784   */\n      dup5\n        /* \"#utility.yul\":773:796   */\n      sub\n        /* \"#utility.yul\":769:801   */\n      slt\n        /* \"#utility.yul\":766:885   */\n      iszero\n      tag_266\n      jumpi\n        /* \"#utility.yul\":804:883   */\n      tag_267\n      tag_214\n      jump\t// in\n    tag_267:\n        /* \"#utility.yul\":766:885   */\n    tag_266:\n        /* \"#utility.yul\":924:925   */\n      0x00\n        /* \"#utility.yul\":949:1002   */\n      tag_268\n        /* \"#utility.yul\":994:1001   */\n      dup5\n        /* \"#utility.yul\":985:991   */\n      dup3\n        /* \"#utility.yul\":974:983   */\n      dup6\n        /* \"#utility.yul\":970:992   */\n      add\n        /* \"#utility.yul\":949:1002   */\n      tag_218\n      jump\t// in\n    tag_268:\n        /* \"#utility.yul\":939:1002   */\n      swap2\n      pop\n        /* \"#utility.yul\":895:1012   */\n      pop\n        /* \"#utility.yul\":690:1019   */\n      swap3\n      swap2\n      pop\n      pop\n      jump\t// out\n        /* \"#utility.yul\":1025:1143   */\n    tag_219:\n        /* \"#utility.yul\":1112:1136   */\n      tag_270\n        /* \"#utility.yul\":1130:1135   */\n      dup2\n        /* \"#utility.yul\":1112:1136   */\n      tag_216\n      jump\t// in\n    tag_270:\n        /* \"#utility.yul\":1107:1110   */\n      dup3\n        /* \"#utility.yul\":1100:1137   */\n      mstore\n        /* \"#utility.yul\":1025:1143   */\n      pop\n      pop\n      jump\t// out\n        /* \"#utility.yul\":1149:1371   */\n    tag_21:\n        /* \"#utility.yul\":1242:1246   */\n      0x00\n        /* \"#utility.yul\":1280:1282   */\n      0x20\n        /* \"#utility.yul\":1269:1278   */\n      dup3\n        /* \"#utility.yul\":1265:1283   */\n      add\n        /* \"#utility.yul\":1257:1283   */\n      swap1\n      pop\n        /* \"#utility.yul\":1293:1364   */\n      tag_272\n        /* \"#utility.yul\":1361:1362   */\n      0x00\n        /* \"#utility.yul\":1350:1359   */\n      dup4\n        /* \"#utility.yul\":1346:1363   */\n      add\n        /* \"#utility.yul\":1337:1343   */\n      dup5\n        /* \"#utility.yul\":1293:1364   */\n      tag_219\n      jump\t// in\n    tag_272:\n        /* \"#utility.yul\":1149:1371   */\n      swap3\n      swap2\n      pop\n      pop\n      jump\t// out\n        /* \"#utility.yul\":1377:1503   */\n    tag_220:\n        /* \"#utility.yul\":1414:1421   */\n      0x00\n        /* \"#utility.yul\":1454:1496   */\n      0xffffffffffffffffffffffffffffffffffffffff\n        /* \"#utility.yul\":1447:1452   */\n      dup3\n        /* \"#utility.yul\":1443:1497   */\n      and\n        /* \"#utility.yul\":1432:1497   */\n      swap1\n      pop\n        /* \"#utility.yul\":1377:1503   */\n      swap2\n      swap1\n      pop\n      jump\t// out\n        /* \"#utility.yul\":1509:1605   */\n    tag_221:\n        /* \"#utility.yul\":1546:1553   */\n      0x00\n        /* \"#utility.yul\":1575:1599   */\n      tag_275\n        /* \"#utility.yul\":1593:1598   */\n      dup3\n        /* \"#utility.yul\":1575:1599   */\n      tag_220\n      jump\t// in\n    tag_275:\n        /* \"#utility.yul\":1564:1599   */\n      swap1\n      pop\n        /* \"#utility.yul\":1509:1605   */\n      swap2\n      swap1\n      pop\n      jump\t// out\n        /* \"#utility.yul\":1611:1733   */\n    tag_222:\n        /* \"#utility.yul\":1684:1708   */\n      tag_277\n        /* \"#utility.yul\":1702:1707   */\n      dup2\n        /* \"#utility.yul\":1684:1708   */\n      tag_221\n      jump\t// in\n    tag_277:\n        /* \"#utility.yul\":1677:1682   */\n      dup2\n        /* \"#utility.yul\":1674:1709   */\n      eq\n        /* \"#utility.yul\":1664:1727   */\n      tag_278\n      jumpi\n        /* \"#utility.yul\":1723:1724   */\n      0x00\n        /* \"#utility.yul\":1720:1721   */\n      dup1\n        /* \"#utility.yul\":1713:1725   */\n      revert\n        /* \"#utility.yul\":1664:1727   */\n    tag_278:\n        /* \"#utility.yul\":1611:1733   */\n      pop\n      jump\t// out\n        /* \"#utility.yul\":1739:1878   */\n    tag_223:\n        /* \"#utility.yul\":1785:1790   */\n      0x00\n        /* \"#utility.yul\":1823:1829   */\n      dup2\n        /* \"#utility.yul\":1810:1830   */\n      calldataload\n        /* \"#utility.yul\":1801:1830   */\n      swap1\n      pop\n        /* \"#utility.yul\":1839:1872   */\n      tag_280\n        /* \"#utility.yul\":1866:1871   */\n      dup2\n        /* \"#utility.yul\":1839:1872   */\n      tag_222\n      jump\t// in\n    tag_280:\n        /* \"#utility.yul\":1739:1878   */\n      swap3\n      swap2\n      pop\n      pop\n      jump\t// out\n        /* \"#utility.yul\":1884:2358   */\n    tag_32:\n        /* \"#utility.yul\":1952:1958   */\n      0x00\n        /* \"#utility.yul\":1960:1966   */\n      dup1\n        /* \"#utility.yul\":2009:2011   */\n      0x40\n        /* \"#utility.yul\":1997:2006   */\n      dup4\n        /* \"#utility.yul\":1988:1995   */\n      dup6\n        /* \"#utility.yul\":1984:2007   */\n      sub\n        /* \"#utility.yul\":1980:2012   */\n      slt\n        /* \"#utility.yul\":1977:2096   */\n      iszero\n      tag_282\n      jumpi\n        /* \"#utility.yul\":2015:2094   */\n      tag_283\n      tag_214\n      jump\t// in\n    tag_283:\n        /* \"#utility.yul\":1977:2096   */\n    tag_282:\n        /* \"#utility.yul\":2135:2136   */\n      0x00\n        /* \"#utility.yul\":2160:2213   */\n      tag_284\n        /* \"#utility.yul\":2205:2212   */\n      dup6\n        /* \"#utility.yul\":2196:2202   */\n      dup3\n        /* \"#utility.yul\":2185:2194   */\n      dup7\n        /* \"#utility.yul\":2181:2203   */\n      add\n        /* \"#utility.yul\":2160:2213   */\n      tag_223\n      jump\t// in\n    tag_284:\n        /* \"#utility.yul\":2150:2213   */\n      swap3\n      pop\n        /* \"#utility.yul\":2106:2223   */\n      pop\n        /* \"#utility.yul\":2262:2264   */\n      0x20\n        /* \"#utility.yul\":2288:2341   */\n      tag_285\n        /* \"#utility.yul\":2333:2340   */\n      dup6\n        /* \"#utility.yul\":2324:2330   */\n      dup3\n        /* \"#utility.yul\":2313:2322   */\n      dup7\n        /* \"#utility.yul\":2309:2331   */\n      add\n        /* \"#utility.yul\":2288:2341   */\n      tag_223\n      jump\t// in\n    tag_285:\n        /* \"#utility.yul\":2278:2341   */\n      swap2\n      pop\n        /* \"#utility.yul\":2233:2351   */\n      pop\n        /* \"#utility.yul\":1884:2358   */\n      swap3\n      pop\n      swap3\n      swap1\n      pop\n      jump\t// out\n        /* \"#utility.yul\":2364:2474   */\n    tag_224:\n        /* \"#utility.yul\":2415:2422   */\n      0x00\n        /* \"#utility.yul\":2444:2468   */\n      tag_287\n        /* \"#utility.yul\":2462:2467   */\n      dup3\n        /* \"#utility.yul\":2444:2468   */\n      tag_221\n      jump\t// in\n    tag_287:\n        /* \"#utility.yul\":2433:2468   */\n      swap1\n      pop\n        /* \"#utility.yul\":2364:2474   */\n      swap2\n      swap1\n      pop\n      jump\t// out\n        /* \"#utility.yul\":2480:2630   */\n    tag_225:\n        /* \"#utility.yul\":2567:2605   */\n      tag_289\n        /* \"#utility.yul\":2599:2604   */\n      dup2\n        /* \"#utility.yul\":2567:2605   */\n      tag_224\n      jump\t// in\n    tag_289:\n        /* \"#utility.yul\":2560:2565   */\n      dup2\n        /* \"#utility.yul\":2557:2606   */\n      eq\n        /* \"#utility.yul\":2547:2624   */\n      tag_290\n      jumpi\n        /* \"#utility.yul\":2620:2621   */\n      0x00\n        /* \"#utility.yul\":2617:2618   */\n      dup1\n        /* \"#utility.yul\":2610:2622   */\n      revert\n        /* \"#utility.yul\":2547:2624   */\n    tag_290:\n        /* \"#utility.yul\":2480:2630   */\n      pop\n      jump\t// out\n        /* \"#utility.yul\":2636:2803   */\n    tag_226:\n        /* \"#utility.yul\":2696:2701   */\n      0x00\n        /* \"#utility.yul\":2734:2740   */\n      dup2\n        /* \"#utility.yul\":2721:2741   */\n      calldataload\n        /* \"#utility.yul\":2712:2741   */\n      swap1\n      pop\n        /* \"#utility.yul\":2750:2797   */\n      tag_292\n        /* \"#utility.yul\":2791:2796   */\n      dup2\n        /* \"#utility.yul\":2750:2797   */\n      tag_225\n      jump\t// in\n    tag_292:\n        /* \"#utility.yul\":2636:2803   */\n      swap3\n      swap2\n      pop\n      pop\n      jump\t// out\n        /* \"#utility.yul\":2809:3456   */\n    tag_38:\n        /* \"#utility.yul\":2900:2906   */\n      0x00\n        /* \"#utility.yul\":2908:2914   */\n      dup1\n        /* \"#utility.yul\":2916:2922   */\n      0x00\n        /* \"#utility.yul\":2965:2967   */\n      0x60\n        /* \"#utility.yul\":2953:2962   */\n      dup5\n        /* \"#utility.yul\":2944:2951   */\n      dup7\n        /* \"#utility.yul\":2940:2963   */\n      sub\n        /* \"#utility.yul\":2936:2968   */\n      slt\n        /* \"#utility.yul\":2933:3052   */\n      iszero\n      tag_294\n      jumpi\n        /* \"#utility.yul\":2971:3050   */\n      tag_295\n      tag_214\n      jump\t// in\n    tag_295:\n        /* \"#utility.yul\":2933:3052   */\n    tag_294:\n        /* \"#utility.yul\":3091:3092   */\n      0x00\n        /* \"#utility.yul\":3116:3169   */\n      tag_296\n        /* \"#utility.yul\":3161:3168   */\n      dup7\n        /* \"#utility.yul\":3152:3158   */\n      dup3\n        /* \"#utility.yul\":3141:3150   */\n      dup8\n        /* \"#utility.yul\":3137:3159   */\n      add\n        /* \"#utility.yul\":3116:3169   */\n      tag_218\n      jump\t// in\n    tag_296:\n        /* \"#utility.yul\":3106:3169   */\n      swap4\n      pop\n        /* \"#utility.yul\":3062:3179   */\n      pop\n        /* \"#utility.yul\":3218:3220   */\n      0x20\n        /* \"#utility.yul\":3244:3311   */\n      tag_297\n        /* \"#utility.yul\":3303:3310   */\n      dup7\n        /* \"#utility.yul\":3294:3300   */\n      dup3\n        /* \"#utility.yul\":3283:3292   */\n      dup8\n        /* \"#utility.yul\":3279:3301   */\n      add\n        /* \"#utility.yul\":3244:3311   */\n      tag_226\n      jump\t// in\n    tag_297:\n        /* \"#utility.yul\":3234:3311   */\n      swap3\n      pop\n        /* \"#utility.yul\":3189:3321   */\n      pop\n        /* \"#utility.yul\":3360:3362   */\n      0x40\n        /* \"#utility.yul\":3386:3439   */\n      tag_298\n        /* \"#utility.yul\":3431:3438   */\n      dup7\n        /* \"#utility.yul\":3422:3428   */\n      dup3\n        /* \"#utility.yul\":3411:3420   */\n      dup8\n        /* \"#utility.yul\":3407:3429   */\n      add\n        /* \"#utility.yul\":3386:3439   */\n      tag_218\n      jump\t// in\n    tag_298:\n        /* \"#utility.yul\":3376:3439   */\n      swap2\n      pop\n        /* \"#utility.yul\":3331:3449   */\n      pop\n        /* \"#utility.yul\":2809:3456   */\n      swap3\n      pop\n      swap3\n      pop\n      swap3\n      jump\t// out\n        /* \"#utility.yul\":3462:3631   */\n    tag_227:\n        /* \"#utility.yul\":3546:3557   */\n      0x00\n        /* \"#utility.yul\":3580:3586   */\n      dup3\n        /* \"#utility.yul\":3575:3578   */\n      dup3\n        /* \"#utility.yul\":3568:3587   */\n      mstore\n        /* \"#utility.yul\":3620:3624   */\n      0x20\n        /* \"#utility.yul\":3615:3618   */\n      dup3\n        /* \"#utility.yul\":3611:3625   */\n      add\n        /* \"#utility.yul\":3596:3625   */\n      swap1\n      pop\n        /* \"#utility.yul\":3462:3631   */\n      swap3\n      swap2\n      pop\n      pop\n      jump\t// out\n        /* \"#utility.yul\":3637:3813   */\n    tag_228:\n        /* \"#utility.yul\":3777:3805   */\n      0x5472616e73616374696f6e20646f6573206e6f74206578697374000000000000\n        /* \"#utility.yul\":3773:3774   */\n      0x00\n        /* \"#utility.yul\":3765:3771   */\n      dup3\n        /* \"#utility.yul\":3761:3775   */\n      add\n        /* \"#utility.yul\":3754:3806   */\n      mstore\n        /* \"#utility.yul\":3637:3813   */\n      pop\n      jump\t// out\n        /* \"#utility.yul\":3819:4185   */\n    tag_229:\n        /* \"#utility.yul\":3961:3964   */\n      0x00\n        /* \"#utility.yul\":3982:4049   */\n      tag_302\n        /* \"#utility.yul\":4046:4048   */\n      0x1a\n        /* \"#utility.yul\":4041:4044   */\n      dup4\n        /* \"#utility.yul\":3982:4049   */\n      tag_227\n      jump\t// in\n    tag_302:\n        /* \"#utility.yul\":3975:4049   */\n      swap2\n      pop\n        /* \"#utility.yul\":4058:4151   */\n      tag_303\n        /* \"#utility.yul\":4147:4150   */\n      dup3\n        /* \"#utility.yul\":4058:4151   */\n      tag_228\n      jump\t// in\n    tag_303:\n        /* \"#utility.yul\":4176:4178   */\n      0x20\n        /* \"#utility.yul\":4171:4174   */\n      dup3\n        /* \"#utility.yul\":4167:4179   */\n      add\n        /* \"#utility.yul\":4160:4179   */\n      swap1\n      pop\n        /* \"#utility.yul\":3819:4185   */\n      swap2\n      swap1\n      pop\n      jump\t// out\n        /* \"#utility.yul\":4191:4610   */\n    tag_55:\n        /* \"#utility.yul\":4357:4361   */\n      0x00\n        /* \"#utility.yul\":4395:4397   */\n      0x20\n        /* \"#utility.yul\":4384:4393   */\n      dup3\n        /* \"#utility.yul\":4380:4398   */\n      add\n        /* \"#utility.yul\":4372:4398   */\n      swap1\n      pop\n        /* \"#utility.yul\":4444:4453   */\n      dup2\n        /* \"#utility.yul\":4438:4442   */\n      dup2\n        /* \"#utility.yul\":4434:4454   */\n      sub\n        /* \"#utility.yul\":4430:4431   */\n      0x00\n        /* \"#utility.yul\":4419:4428   */\n      dup4\n        /* \"#utility.yul\":4415:4432   */\n      add\n        /* \"#utility.yul\":4408:4455   */\n      mstore\n        /* \"#utility.yul\":4472:4603   */\n      tag_305\n        /* \"#utility.yul\":4598:4602   */\n      dup2\n        /* \"#utility.yul\":4472:4603   */\n      tag_229\n      jump\t// in\n    tag_305:\n        /* \"#utility.yul\":4464:4603   */\n      swap1\n      pop\n        /* \"#utility.yul\":4191:4610   */\n      swap2\n      swap1\n      pop\n      jump\t// out\n        /* \"#utility.yul\":4616:4779   */\n    tag_230:\n        /* \"#utility.yul\":4756:4771   */\n      0x4e6f742074686520627579657200000000000000000000000000000000000000\n        /* \"#utility.yul\":4752:4753   */\n      0x00\n        /* \"#utility.yul\":4744:4750   */\n      dup3\n        /* \"#utility.yul\":4740:4754   */\n      add\n        /* \"#utility.yul\":4733:4772   */\n      mstore\n        /* \"#utility.yul\":4616:4779   */\n      pop\n      jump\t// out\n        /* \"#utility.yul\":4785:5151   */\n    tag_231:\n        /* \"#utility.yul\":4927:4930   */\n      0x00\n        /* \"#utility.yul\":4948:5015   */\n      tag_308\n        /* \"#utility.yul\":5012:5014   */\n      0x0d\n        /* \"#utility.yul\":5007:5010   */\n      dup4\n        /* \"#utility.yul\":4948:5015   */\n      tag_227\n      jump\t// in\n    tag_308:\n        /* \"#utility.yul\":4941:5015   */\n      swap2\n      pop\n        /* \"#utility.yul\":5024:5117   */\n      tag_309\n        /* \"#utility.yul\":5113:5116   */\n      dup3\n        /* \"#utility.yul\":5024:5117   */\n      tag_230\n      jump\t// in\n    tag_309:\n        /* \"#utility.yul\":5142:5144   */\n      0x20\n        /* \"#utility.yul\":5137:5140   */\n      dup3\n        /* \"#utility.yul\":5133:5145   */\n      add\n        /* \"#utility.yul\":5126:5145   */\n      swap1\n      pop\n        /* \"#utility.yul\":4785:5151   */\n      swap2\n      swap1\n      pop\n      jump\t// out\n        /* \"#utility.yul\":5157:5576   */\n    tag_59:\n        /* \"#utility.yul\":5323:5327   */\n      0x00\n        /* \"#utility.yul\":5361:5363   */\n      0x20\n        /* \"#utility.yul\":5350:5359   */\n      dup3\n        /* \"#utility.yul\":5346:5364   */\n      add\n        /* \"#utility.yul\":5338:5364   */\n      swap1\n      pop\n        /* \"#utility.yul\":5410:5419   */\n      dup2\n        /* \"#utility.yul\":5404:5408   */\n      dup2\n        /* \"#utility.yul\":5400:5420   */\n      sub\n        /* \"#utility.yul\":5396:5397   */\n      0x00\n        /* \"#utility.yul\":5385:5394   */\n      dup4\n        /* \"#utility.yul\":5381:5398   */\n      add\n        /* \"#utility.yul\":5374:5421   */\n      mstore\n        /* \"#utility.yul\":5438:5569   */\n      tag_311\n        /* \"#utility.yul\":5564:5568   */\n      dup2\n        /* \"#utility.yul\":5438:5569   */\n      tag_231\n      jump\t// in\n    tag_311:\n        /* \"#utility.yul\":5430:5569   */\n      swap1\n      pop\n        /* \"#utility.yul\":5157:5576   */\n      swap2\n      swap1\n      pop\n      jump\t// out\n        /* \"#utility.yul\":5582:5750   */\n    tag_232:\n        /* \"#utility.yul\":5722:5742   */\n      0x4e6f2066756e6473206465706f73697465640000000000000000000000000000\n        /* \"#utility.yul\":5718:5719   */\n      0x00\n        /* \"#utility.yul\":5710:5716   */\n      dup3\n        /* \"#utility.yul\":5706:5720   */\n      add\n        /* \"#utility.yul\":5699:5743   */\n      mstore\n        /* \"#utility.yul\":5582:5750   */\n      pop\n      jump\t// out\n        /* \"#utility.yul\":5756:6122   */\n    tag_233:\n        /* \"#utility.yul\":5898:5901   */\n      0x00\n        /* \"#utility.yul\":5919:5986   */\n      tag_314\n        /* \"#utility.yul\":5983:5985   */\n      0x12\n        /* \"#utility.yul\":5978:5981   */\n      dup4\n        /* \"#utility.yul\":5919:5986   */\n      tag_227\n      jump\t// in\n    tag_314:\n        /* \"#utility.yul\":5912:5986   */\n      swap2\n      pop\n        /* \"#utility.yul\":5995:6088   */\n      tag_315\n        /* \"#utility.yul\":6084:6087   */\n      dup3\n        /* \"#utility.yul\":5995:6088   */\n      tag_232\n      jump\t// in\n    tag_315:\n        /* \"#utility.yul\":6113:6115   */\n      0x20\n        /* \"#utility.yul\":6108:6111   */\n      dup3\n        /* \"#utility.yul\":6104:6116   */\n      add\n        /* \"#utility.yul\":6097:6116   */\n      swap1\n      pop\n        /* \"#utility.yul\":5756:6122   */\n      swap2\n      swap1\n      pop\n      jump\t// out\n        /* \"#utility.yul\":6128:6547   */\n    tag_66:\n        /* \"#utility.yul\":6294:6298   */\n      0x00\n        /* \"#utility.yul\":6332:6334   */\n      0x20\n        /* \"#utility.yul\":6321:6330   */\n      dup3\n        /* \"#utility.yul\":6317:6335   */\n      add\n        /* \"#utility.yul\":6309:6335   */\n      swap1\n      pop\n        /* \"#utility.yul\":6381:6390   */\n      dup2\n        /* \"#utility.yul\":6375:6379   */\n      dup2\n        /* \"#utility.yul\":6371:6391   */\n      sub\n        /* \"#utility.yul\":6367:6368   */\n      0x00\n        /* \"#utility.yul\":6356:6365   */\n      dup4\n        /* \"#utility.yul\":6352:6369   */\n      add\n        /* \"#utility.yul\":6345:6392   */\n      mstore\n        /* \"#utility.yul\":6409:6540   */\n      tag_317\n        /* \"#utility.yul\":6535:6539   */\n      dup2\n        /* \"#utility.yul\":6409:6540   */\n      tag_233\n      jump\t// in\n    tag_317:\n        /* \"#utility.yul\":6401:6540   */\n      swap1\n      pop\n        /* \"#utility.yul\":6128:6547   */\n      swap2\n      swap1\n      pop\n      jump\t// out\n        /* \"#utility.yul\":6553:6733   */\n    tag_234:\n        /* \"#utility.yul\":6601:6678   */\n      0x4e487b7100000000000000000000000000000000000000000000000000000000\n        /* \"#utility.yul\":6598:6599   */\n      0x00\n        /* \"#utility.yul\":6591:6679   */\n      mstore\n        /* \"#utility.yul\":6698:6702   */\n      0x11\n        /* \"#utility.yul\":6695:6696   */\n      0x04\n        /* \"#utility.yul\":6688:6703   */\n      mstore\n        /* \"#utility.yul\":6722:6726   */\n      0x24\n        /* \"#utility.yul\":6719:6720   */\n      0x00\n        /* \"#utility.yul\":6712:6727   */\n      revert\n        /* \"#utility.yul\":6739:6930   */\n    tag_68:\n        /* \"#utility.yul\":6779:6782   */\n      0x00\n        /* \"#utility.yul\":6798:6818   */\n      tag_320\n        /* \"#utility.yul\":6816:6817   */\n      dup3\n        /* \"#utility.yul\":6798:6818   */\n      tag_216\n      jump\t// in\n    tag_320:\n        /* \"#utility.yul\":6793:6818   */\n      swap2\n      pop\n        /* \"#utility.yul\":6832:6852   */\n      tag_321\n        /* \"#utility.yul\":6850:6851   */\n      dup4\n        /* \"#utility.yul\":6832:6852   */\n      tag_216\n      jump\t// in\n    tag_321:\n        /* \"#utility.yul\":6827:6852   */\n      swap3\n      pop\n        /* \"#utility.yul\":6875:6876   */\n      dup3\n        /* \"#utility.yul\":6872:6873   */\n      dup3\n        /* \"#utility.yul\":6868:6877   */\n      add\n        /* \"#utility.yul\":6861:6877   */\n      swap1\n      pop\n        /* \"#utility.yul\":6896:6899   */\n      dup1\n        /* \"#utility.yul\":6893:6894   */\n      dup3\n        /* \"#utility.yul\":6890:6900   */\n      gt\n        /* \"#utility.yul\":6887:6923   */\n      iszero\n      tag_322\n      jumpi\n        /* \"#utility.yul\":6903:6921   */\n      tag_323\n      tag_234\n      jump\t// in\n    tag_323:\n        /* \"#utility.yul\":6887:6923   */\n    tag_322:\n        /* \"#utility.yul\":6739:6930   */\n      swap3\n      swap2\n      pop\n      pop\n      jump\t// out\n        /* \"#utility.yul\":6936:7112   */\n    tag_235:\n        /* \"#utility.yul\":7076:7104   */\n      0x417070726f76616c2077696e646f77207374696c6c206f70656e000000000000\n        /* \"#utility.yul\":7072:7073   */\n      0x00\n        /* \"#utility.yul\":7064:7070   */\n      dup3\n        /* \"#utility.yul\":7060:7074   */\n      add\n        /* \"#utility.yul\":7053:7105   */\n      mstore\n        /* \"#utility.yul\":6936:7112   */\n      pop\n      jump\t// out\n        /* \"#utility.yul\":7118:7484   */\n    tag_236:\n        /* \"#utility.yul\":7260:7263   */\n      0x00\n        /* \"#utility.yul\":7281:7348   */\n      tag_326\n        /* \"#utility.yul\":7345:7347   */\n      0x1a\n        /* \"#utility.yul\":7340:7343   */\n      dup4\n        /* \"#utility.yul\":7281:7348   */\n      tag_227\n      jump\t// in\n    tag_326:\n        /* \"#utility.yul\":7274:7348   */\n      swap2\n      pop\n        /* \"#utility.yul\":7357:7450   */\n      tag_327\n        /* \"#utility.yul\":7446:7449   */\n      dup3\n        /* \"#utility.yul\":7357:7450   */\n      tag_235\n      jump\t// in\n    tag_327:\n        /* \"#utility.yul\":7475:7477   */\n      0x20\n        /* \"#utility.yul\":7470:7473   */\n      dup3\n        /* \"#utility.yul\":7466:7478   */\n      add\n        /* \"#utility.yul\":7459:7478   */\n      swap1\n      pop\n        /* \"#utility.yul\":7118:7484   */\n      swap2\n      swap1\n      pop\n      jump\t// out\n        /* \"#utility.yul\":7490:7909   */\n    tag_71:\n        /* \"#utility.yul\":7656:7660   */\n      0x00\n        /* \"#utility.yul\":7694:7696   */\n      0x20\n        /* \"#utility.yul\":7683:7692   */\n      dup3\n        /* \"#utility.yul\":7679:7697   */\n      add\n        /* \"#utility.yul\":7671:7697   */\n      swap1\n      pop\n        /* \"#utility.yul\":7743:7752   */\n      dup2\n        /* \"#utility.yul\":7737:7741   */\n      dup2\n        /* \"#utility.yul\":7733:7753   */\n      sub\n        /* \"#utility.yul\":7729:7730   */\n      0x00\n        /* \"#utility.yul\":7718:7727   */\n      dup4\n        /* \"#utility.yul\":7714:7731   */\n      add\n        /* \"#utility.yul\":7707:7754   */\n      mstore\n        /* \"#utility.yul\":7771:7902   */\n      tag_329\n        /* \"#utility.yul\":7897:7901   */\n      dup2\n        /* \"#utility.yul\":7771:7902   */\n      tag_236\n      jump\t// in\n    tag_329:\n        /* \"#utility.yul\":7763:7902   */\n      swap1\n      pop\n        /* \"#utility.yul\":7490:7909   */\n      swap2\n      swap1\n      pop\n      jump\t// out\n        /* \"#utility.yul\":7915:8080   */\n    tag_237:\n        /* \"#utility.yul\":8055:8072   */\n      0x5661756c74206973206c6f636b65640000000000000000000000000000000000\n        /* \"#utility.yul\":8051:8052   */\n      0x00\n        /* \"#utility.yul\":8043:8049   */\n      dup3\n        /* \"#utility.yul\":8039:8053   */\n      add\n        /* \"#utility.yul\":8032:8073   */\n      mstore\n        /* \"#utility.yul\":7915:8080   */\n      pop\n      jump\t// out\n        /* \"#utility.yul\":8086:8452   */\n    tag_238:\n        /* \"#utility.yul\":8228:8231   */\n      0x00\n        /* \"#utility.yul\":8249:8316   */\n      tag_332\n        /* \"#utility.yul\":8313:8315   */\n      0x0f\n        /* \"#utility.yul\":8308:8311   */\n      dup4\n        /* \"#utility.yul\":8249:8316   */\n      tag_227\n      jump\t// in\n    tag_332:\n        /* \"#utility.yul\":8242:8316   */\n      swap2\n      pop\n        /* \"#utility.yul\":8325:8418   */\n      tag_333\n        /* \"#utility.yul\":8414:8417   */\n      dup3\n        /* \"#utility.yul\":8325:8418   */\n      tag_237\n      jump\t// in\n    tag_333:\n        /* \"#utility.yul\":8443:8445   */\n      0x20\n        /* \"#utility.yul\":8438:8441   */\n      dup3\n        /* \"#utility.yul\":8434:8446   */\n      add\n        /* \"#utility.yul\":8427:8446   */\n      swap1\n      pop\n        /* \"#utility.yul\":8086:8452   */\n      swap2\n      swap1\n      pop\n      jump\t// out\n        /* \"#utility.yul\":8458:8877   */\n    tag_100:\n        /* \"#utility.yul\":8624:8628   */\n      0x00\n        /* \"#utility.yul\":8662:8664   */\n      0x20\n        /* \"#utility.yul\":8651:8660   */\n      dup3\n        /* \"#utility.yul\":8647:8665   */\n      add\n        /* \"#utility.yul\":8639:8665   */\n      swap1\n      pop\n        /* \"#utility.yul\":8711:8720   */\n      dup2\n        /* \"#utility.yul\":8705:8709   */\n      dup2\n        /* \"#utility.yul\":8701:8721   */\n      sub\n        /* \"#utility.yul\":8697:8698   */\n      0x00\n        /* \"#utility.yul\":8686:8695   */\n      dup4\n        /* \"#utility.yul\":8682:8699   */\n      add\n        /* \"#utility.yul\":8675:8722   */\n      mstore\n        /* \"#utility.yul\":8739:8870   */\n      tag_335\n        /* \"#utility.yul\":8865:8869   */\n      dup2\n        /* \"#utility.yul\":8739:8870   */\n      tag_238\n      jump\t// in\n    tag_335:\n        /* \"#utility.yul\":8731:8870   */\n      swap1\n      pop\n        /* \"#utility.yul\":8458:8877   */\n      swap2\n      swap1\n      pop\n      jump\t// out\n        /* \"#utility.yul\":8883:9044   */\n    tag_239:\n        /* \"#utility.yul\":9023:9036   */\n      0x4e6f204554482073656e74000000000000000000000000000000000000000000\n        /* \"#utility.yul\":9019:9020   */\n      0x00\n        /* \"#utility.yul\":9011:9017   */\n      dup3\n        /* \"#utility.yul\":9007:9021   */\n      add\n        /* \"#utility.yul\":9000:9037   */\n      mstore\n        /* \"#utility.yul\":8883:9044   */\n      pop\n      jump\t// out\n        /* \"#utility.yul\":9050:9416   */\n    tag_240:\n        /* \"#utility.yul\":9192:9195   */\n      0x00\n        /* \"#utility.yul\":9213:9280   */\n      tag_338\n        /* \"#utility.yul\":9277:9279   */\n      0x0b\n        /* \"#utility.yul\":9272:9275   */\n      dup4\n        /* \"#utility.yul\":9213:9280   */\n      tag_227\n      jump\t// in\n    tag_338:\n        /* \"#utility.yul\":9206:9280   */\n      swap2\n      pop\n        /* \"#utility.yul\":9289:9382   */\n      tag_339\n        /* \"#utility.yul\":9378:9381   */\n      dup3\n        /* \"#utility.yul\":9289:9382   */\n      tag_239\n      jump\t// in\n    tag_339:\n        /* \"#utility.yul\":9407:9409   */\n      0x20\n        /* \"#utility.yul\":9402:9405   */\n      dup3\n        /* \"#utility.yul\":9398:9410   */\n      add\n        /* \"#utility.yul\":9391:9410   */\n      swap1\n      pop\n        /* \"#utility.yul\":9050:9416   */\n      swap2\n      swap1\n      pop\n      jump\t// out\n        /* \"#utility.yul\":9422:9841   */\n    tag_103:\n        /* \"#utility.yul\":9588:9592   */\n      0x00\n        /* \"#utility.yul\":9626:9628   */\n      0x20\n        /* \"#utility.yul\":9615:9624   */\n      dup3\n        /* \"#utility.yul\":9611:9629   */\n      add\n        /* \"#utility.yul\":9603:9629   */\n      swap1\n      pop\n        /* \"#utility.yul\":9675:9684   */\n      dup2\n        /* \"#utility.yul\":9669:9673   */\n      dup2\n        /* \"#utility.yul\":9665:9685   */\n      sub\n        /* \"#utility.yul\":9661:9662   */\n      0x00\n        /* \"#utility.yul\":9650:9659   */\n      dup4\n        /* \"#utility.yul\":9646:9663   */\n      add\n        /* \"#utility.yul\":9639:9686   */\n      mstore\n        /* \"#utility.yul\":9703:9834   */\n      tag_341\n        /* \"#utility.yul\":9829:9833   */\n      dup2\n        /* \"#utility.yul\":9703:9834   */\n      tag_240\n      jump\t// in\n    tag_341:\n        /* \"#utility.yul\":9695:9834   */\n      swap1\n      pop\n        /* \"#utility.yul\":9422:9841   */\n      swap2\n      swap1\n      pop\n      jump\t// out\n        /* \"#utility.yul\":9847:10080   */\n    tag_109:\n        /* \"#utility.yul\":9886:9889   */\n      0x00\n        /* \"#utility.yul\":9909:9933   */\n      tag_343\n        /* \"#utility.yul\":9927:9932   */\n      dup3\n        /* \"#utility.yul\":9909:9933   */\n      tag_216\n      jump\t// in\n    tag_343:\n        /* \"#utility.yul\":9900:9933   */\n      swap2\n      pop\n        /* \"#utility.yul\":9955:10021   */\n      0xffffffffffffffffffffffffffffffffffffffffffffffffffffffffffffffff\n        /* \"#utility.yul\":9948:9953   */\n      dup3\n        /* \"#utility.yul\":9945:10022   */\n      sub\n        /* \"#utility.yul\":9942:10045   */\n      tag_344\n      jumpi\n        /* \"#utility.yul\":10025:10043   */\n      tag_345\n      tag_234\n      jump\t// in\n    tag_345:\n        /* \"#utility.yul\":9942:10045   */\n    tag_344:\n        /* \"#utility.yul\":10072:10073   */\n      0x01\n        /* \"#utility.yul\":10065:10070   */\n      dup3\n        /* \"#utility.yul\":10061:10074   */\n      add\n        /* \"#utility.yul\":10054:10074   */\n      swap1\n      pop\n        /* \"#utility.yul\":9847:10080   */\n      swap2\n      swap1\n      pop\n      jump\t// out\n        /* \"#utility.yul\":10086:10204   */\n    tag_241:\n        /* \"#utility.yul\":10173:10197   */\n      tag_347\n        /* \"#utility.yul\":10191:10196   */\n      dup2\n        /* \"#utility.yul\":10173:10197   */\n      tag_221\n      jump\t// in\n    tag_347:\n        /* \"#utility.yul\":10168:10171   */\n      dup3\n        /* \"#utility.yul\":10161:10198   */\n      mstore\n        /* \"#utility.yul\":10086:10204   */\n      pop\n      pop\n      jump\t// out\n        /* \"#utility.yul\":10210:10432   */\n    tag_111:\n        /* \"#utility.yul\":10303:10307   */\n      0x00\n        /* \"#utility.yul\":10341:10343   */\n      0x20\n        /* \"#utility.yul\":10330:10339   */\n      dup3\n        /* \"#utility.yul\":10326:10344   */\n      add\n        /* \"#utility.yul\":10318:10344   */\n      swap1\n      pop\n        /* \"#utility.yul\":10354:10425   */\n      tag_349\n        /* \"#utility.yul\":10422:10423   */\n      0x00\n        /* \"#utility.yul\":10411:10420   */\n      dup4\n        /* \"#utility.yul\":10407:10424   */\n      add\n        /* \"#utility.yul\":10398:10404   */\n      dup5\n        /* \"#utility.yul\":10354:10425   */\n      tag_241\n      jump\t// in\n    tag_349:\n        /* \"#utility.yul\":10210:10432   */\n      swap3\n      swap2\n      pop\n      pop\n      jump\t// out\n        /* \"#utility.yul\":10438:10602   */\n    tag_242:\n        /* \"#utility.yul\":10578:10594   */\n      0x4e6f20746f6b656e732073656e74000000000000000000000000000000000000\n        /* \"#utility.yul\":10574:10575   */\n      0x00\n        /* \"#utility.yul\":10566:10572   */\n      dup3\n        /* \"#utility.yul\":10562:10576   */\n      add\n        /* \"#utility.yul\":10555:10595   */\n      mstore\n        /* \"#utility.yul\":10438:10602   */\n      pop\n      jump\t// out\n        /* \"#utility.yul\":10608:10974   */\n    tag_243:\n        /* \"#utility.yul\":10750:10753   */\n      0x00\n        /* \"#utility.yul\":10771:10838   */\n      tag_352\n        /* \"#utility.yul\":10835:10837   */\n      0x0e\n        /* \"#utility.yul\":10830:10833   */\n      dup4\n        /* \"#utility.yul\":10771:10838   */\n      tag_227\n      jump\t// in\n    tag_352:\n        /* \"#utility.yul\":10764:10838   */\n      swap2\n      pop\n        /* \"#utility.yul\":10847:10940   */\n      tag_353\n        /* \"#utility.yul\":10936:10939   */\n      dup3\n        /* \"#utility.yul\":10847:10940   */\n      tag_242\n      jump\t// in\n    tag_353:\n        /* \"#utility.yul\":10965:10967   */\n      0x20\n        /* \"#utility.yul\":10960:10963   */\n      dup3\n        /* \"#utility.yul\":10956:10968   */\n      add\n        /* \"#utility.yul\":10949:10968   */\n      swap1\n      pop\n        /* \"#utility.yul\":10608:10974   */\n      swap2\n      swap1\n      pop\n      jump\t// out\n        /* \"#utility.yul\":10980:11399   */\n    tag_125:\n        /* \"#utility.yul\":11146:11150   */\n      0x00\n        /* \"#utility.yul\":11184:11186   */\n      0x20\n        /* \"#utility.yul\":11173:11182   */\n      dup3\n        /* \"#utility.yul\":11169:11187   */\n      add\n        /* \"#utility.yul\":11161:11187   */\n      swap1\n      pop\n        /* \"#utility.yul\":11233:11242   */\n      dup2\n        /* \"#utility.yul\":11227:11231   */\n      dup2\n        /* \"#utility.yul\":11223:11243   */\n      sub\n        /* \"#utility.yul\":11219:11220   */\n      0x00\n        /* \"#utility.yul\":11208:11217   */\n      dup4\n        /* \"#utility.yul\":11204:11221   */\n      add\n        /* \"#utility.yul\":11197:11244   */\n      mstore\n        /* \"#utility.yul\":11261:11392   */\n      tag_355\n        /* \"#utility.yul\":11387:11391   */\n      dup2\n        /* \"#utility.yul\":11261:11392   */\n      tag_243\n      jump\t// in\n    tag_355:\n        /* \"#utility.yul\":11253:11392   */\n      swap1\n      pop\n        /* \"#utility.yul\":10980:11399   */\n      swap2\n      swap1\n      pop\n      jump\t// out\n        /* \"#utility.yul\":11405:11847   */\n    tag_127:\n        /* \"#utility.yul\":11554:11558   */\n      0x00\n        /* \"#utility.yul\":11592:11594   */\n      0x60\n        /* \"#utility.yul\":11581:11590   */\n      dup3\n        /* \"#utility.yul\":11577:11595   */\n      add\n        /* \"#utility.yul\":11569:11595   */\n      swap1\n      pop\n        /* \"#utility.yul\":11605:11676   */\n      tag_357\n        /* \"#utility.yul\":11673:11674   */\n      0x00\n        /* \"#utility.yul\":11662:11671   */\n      dup4\n        /* \"#utility.yul\":11658:11675   */\n      add\n        /* \"#utility.yul\":11649:11655   */\n      dup7\n        /* \"#utility.yul\":11605:11676   */\n      tag_241\n      jump\t// in\n    tag_357:\n        /* \"#utility.yul\":11686:11758   */\n      tag_358\n        /* \"#utility.yul\":11754:11756   */\n      0x20\n        /* \"#utility.yul\":11743:11752   */\n      dup4\n        /* \"#utility.yul\":11739:11757   */\n      add\n        /* \"#utility.yul\":11730:11736   */\n      dup6\n        /* \"#utility.yul\":11686:11758   */\n      tag_241\n      jump\t// in\n    tag_358:\n        /* \"#utility.yul\":11768:11840   */\n      tag_359\n        /* \"#utility.yul\":11836:11838   */\n      0x40\n        /* \"#utility.yul\":11825:11834   */\n      dup4\n        /* \"#utility.yul\":11821:11839   */\n      add\n        /* \"#utility.yul\":11812:11818   */\n      dup5\n        /* \"#utility.yul\":11768:11840   */\n      tag_219\n      jump\t// in\n    tag_359:\n        /* \"#utility.yul\":11405:11847   */\n      swap5\n      swap4\n      pop\n      pop\n      pop\n      pop\n      jump\t// out\n        /* \"#utility.yul\":11853:11943   */\n    tag_244:\n        /* \"#utility.yul\":11887:11894   */\n      0x00\n        /* \"#utility.yul\":11930:11935   */\n      dup2\n        /* \"#utility.yul\":11923:11936   */\n      iszero\n        /* \"#utility.yul\":11916:11937   */\n      iszero\n        /* \"#utility.yul\":11905:11937   */\n      swap1\n      pop\n        /* \"#utility.yul\":11853:11943   */\n      swap2\n      swap1\n      pop\n      jump\t// out\n        /* \"#utility.yul\":11949:12065   */\n    tag_245:\n        /* \"#utility.yul\":12019:12040   */\n      tag_362\n        /* \"#utility.yul\":12034:12039   */\n      dup2\n        /* \"#utility.yul\":12019:12040   */\n      tag_244\n      jump\t// in\n    tag_362:\n        /* \"#utility.yul\":12012:12017   */\n      dup2\n        /* \"#utility.yul\":12009:12041   */\n      eq\n        /* \"#utility.yul\":11999:12059   */\n      tag_363\n      jumpi\n        /* \"#utility.yul\":12055:12056   */\n      0x00\n        /* \"#utility.yul\":12052:12053   */\n      dup1\n        /* \"#utility.yul\":12045:12057   */\n      revert\n        /* \"#utility.yul\":11999:12059   */\n    tag_363:\n        /* \"#utility.yul\":11949:12065   */\n      pop\n      jump\t// out\n        /* \"#utility.yul\":12071:12208   */\n    tag_246:\n        /* \"#utility.yul\":12125:12130   */\n      0x00\n        /* \"#utility.yul\":12156:12162   */\n      dup2\n        /* \"#utility.yul\":12150:12163   */\n      mload\n        /* \"#utility.yul\":12141:12163   */\n      swap1\n      pop\n        /* \"#utility.yul\":12172:12202   */\n      tag_365\n        /* \"#utility.yul\":12196:12201   */\n      dup2\n        /* \"#utility.yul\":12172:12202   */\n      tag_245\n      jump\t// in\n    tag_365:\n        /* \"#utility.yul\":12071:12208   */\n      swap3\n      swap2\n      pop\n      pop\n      jump\t// out\n        /* \"#utility.yul\":12214:12559   */\n    tag_131:\n        /* \"#utility.yul\":12281:12287   */\n      0x00\n        /* \"#utility.yul\":12330:12332   */\n      0x20\n        /* \"#utility.yul\":12318:12327   */\n      dup3\n        /* \"#utility.yul\":12309:12316   */\n      dup5\n        /* \"#utility.yul\":12305:12328   */\n      sub\n        /* \"#utility.yul\":12301:12333   */\n      slt\n        /* \"#utility.yul\":12298:12417   */\n      iszero\n      tag_367\n      jumpi\n        /* \"#utility.yul\":12336:12415   */\n      tag_368\n      tag_214\n      jump\t// in\n    tag_368:\n        /* \"#utility.yul\":12298:12417   */\n    tag_367:\n        /* \"#utility.yul\":12456:12457   */\n      0x00\n        /* \"#utility.yul\":12481:12542   */\n      tag_369\n        /* \"#utility.yul\":12534:12541   */\n      dup5\n        /* \"#utility.yul\":12525:12531   */\n      dup3\n        /* \"#utility.yul\":12514:12523   */\n      dup6\n        /* \"#utility.yul\":12510:12532   */\n      add\n        /* \"#utility.yul\":12481:12542   */\n      tag_246\n      jump\t// in\n    tag_369:\n        /* \"#utility.yul\":12471:12542   */\n      swap2\n      pop\n        /* \"#utility.yul\":12427:12552   */\n      pop\n        /* \"#utility.yul\":12214:12559   */\n      swap3\n      swap2\n      pop\n      pop\n      jump\t// out\n        /* \"#utility.yul\":12565:12736   */\n    tag_247:\n        /* \"#utility.yul\":12705:12728   */\n      0x546f6b656e207472616e73666572206661696c65640000000000000000000000\n        /* \"#utility.yul\":12701:12702   */\n      0x00\n        /* \"#utility.yul\":12693:12699   */\n      dup3\n        /* \"#utility.yul\":12689:12703   */\n      add\n        /* \"#utility.yul\":12682:12729   */\n      mstore\n        /* \"#utility.yul\":12565:12736   */\n      pop\n      jump\t// out\n        /* \"#utility.yul\":12742:13108   */\n    tag_248:\n        /* \"#utility.yul\":12884:12887   */\n      0x00\n        /* \"#utility.yul\":12905:12972   */\n      tag_372\n        /* \"#utility.yul\":12969:12971   */\n      0x15\n        /* \"#utility.yul\":12964:12967   */\n      dup4\n        /* \"#utility.yul\":12905:12972   */\n      tag_227\n      jump\t// in\n    tag_372:\n        /* \"#utility.yul\":12898:12972   */\n      swap2\n      pop\n        /* \"#utility.yul\":12981:13074   */\n      tag_373\n        /* \"#utility.yul\":13070:13073   */\n      dup3\n        /* \"#utility.yul\":12981:13074   */\n      tag_247\n      jump\t// in\n    tag_373:\n        /* \"#utility.yul\":13099:13101   */\n      0x20\n        /* \"#utility.yul\":13094:13097   */\n      dup3\n        /* \"#utility.yul\":13090:13102   */\n      add\n        /* \"#utility.yul\":13083:13102   */\n      swap1\n      pop\n        /* \"#utility.yul\":12742:13108   */\n      swap2\n      swap1\n      pop\n      jump\t// out\n        /* \"#utility.yul\":13114:13533   */\n    tag_134:\n        /* \"#utility.yul\":13280:13284   */\n      0x00\n        /* \"#utility.yul\":13318:13320   */\n      0x20\n        /* \"#utility.yul\":13307:13316   */\n      dup3\n        /* \"#utility.yul\":13303:13321   */\n      add\n        /* \"#utility.yul\":13295:13321   */\n      swap1\n      pop\n        /* \"#utility.yul\":13367:13376   */\n      dup2\n        /* \"#utility.yul\":13361:13365   */\n      dup2\n        /* \"#utility.yul\":13357:13377   */\n      sub\n        /* \"#utility.yul\":13353:13354   */\n      0x00\n        /* \"#utility.yul\":13342:13351   */\n      dup4\n        /* \"#utility.yul\":13338:13355   */\n      add\n        /* \"#utility.yul\":13331:13378   */\n      mstore\n        /* \"#utility.yul\":13395:13526   */\n      tag_375\n        /* \"#utility.yul\":13521:13525   */\n      dup2\n        /* \"#utility.yul\":13395:13526   */\n      tag_248\n      jump\t// in\n    tag_375:\n        /* \"#utility.yul\":13387:13526   */\n      swap1\n      pop\n        /* \"#utility.yul\":13114:13533   */\n      swap2\n      swap1\n      pop\n      jump\t// out\n        /* \"#utility.yul\":13539:13705   */\n    tag_249:\n        /* \"#utility.yul\":13679:13697   */\n      0x4e6f742074686520617070726f76657200000000000000000000000000000000\n        /* \"#utility.yul\":13675:13676   */\n      0x00\n        /* \"#utility.yul\":13667:13673   */\n      dup3\n        /* \"#utility.yul\":13663:13677   */\n      add\n        /* \"#utility.yul\":13656:13698   */\n      mstore\n        /* \"#utility.yul\":13539:13705   */\n      pop\n      jump\t// out\n        /* \"#utility.yul\":13711:14077   */\n    tag_250:\n        /* \"#utility.yul\":13853:13856   */\n      0x00\n        /* \"#utility.yul\":13874:13941   */\n      tag_378\n        /* \"#utility.yul\":13938:13940   */\n      0x10\n        /* \"#utility.yul\":13933:13936   */\n      dup4\n        /* \"#utility.yul\":13874:13941   */\n      tag_227\n      jump\t// in\n    tag_378:\n        /* \"#utility.yul\":13867:13941   */\n      swap2\n      pop\n        /* \"#utility.yul\":13950:14043   */\n      tag_379\n        /* \"#utility.yul\":14039:14042   */\n      dup3\n        /* \"#utility.yul\":13950:14043   */\n      tag_249\n      jump\t// in\n    tag_379:\n        /* \"#utility.yul\":14068:14070   */\n      0x20\n        /* \"#utility.yul\":14063:14066   */\n      dup3\n        /* \"#utility.yul\":14059:14071   */\n      add\n        /* \"#utility.yul\":14052:14071   */\n      swap1\n      pop\n        /* \"#utility.yul\":13711:14077   */\n      swap2\n      swap1\n      pop\n      jump\t// out\n        /* \"#utility.yul\":14083:14502   */\n    tag_146:\n        /* \"#utility.yul\":14249:14253   */\n      0x00\n        /* \"#utility.yul\":14287:14289   */\n      0x20\n        /* \"#utility.yul\":14276:14285   */\n      dup3\n        /* \"#utility.yul\":14272:14290   */\n      add\n        /* \"#utility.yul\":14264:14290   */\n      swap1\n      pop\n        /* \"#utility.yul\":14336:14345   */\n      dup2\n        /* \"#utility.yul\":14330:14334   */\n      dup2\n        /* \"#utility.yul\":14326:14346   */\n      sub\n        /* \"#utility.yul\":14322:14323   */\n      0x00\n        /* \"#utility.yul\":14311:14320   */\n      dup4\n        /* \"#utility.yul\":14307:14324   */\n      add\n        /* \"#utility.yul\":14300:14347   */\n      mstore\n        /* \"#utility.yul\":14364:14495   */\n      tag_381\n        /* \"#utility.yul\":14490:14494   */\n      dup2\n        /* \"#utility.yul\":14364:14495   */\n      tag_250\n      jump\t// in\n    tag_381:\n        /* \"#utility.yul\":14356:14495   */\n      swap1\n      pop\n        /* \"#utility.yul\":14083:14502   */\n      swap2\n      swap1\n      pop\n      jump\t// out\n        /* \"#utility.yul\":14508:14670   */\n    tag_251:\n        /* \"#utility.yul\":14648:14662   */\n      0x4465616c20657870697265640000000000000000000000000000000000000000\n        /* \"#utility.yul\":14644:14645   */\n      0x00\n        /* \"#utility.yul\":14636:14642   */\n      dup3\n        /* \"#utility.yul\":14632:14646   */\n      add\n        /* \"#utility.yul\":14625:14663   */\n      mstore\n        /* \"#utility.yul\":14508:14670   */\n      pop\n      jump\t// out\n        /* \"#utility.yul\":14676:15042   */\n    tag_252:\n        /* \"#utility.yul\":14818:14821   */\n      0x00\n        /* \"#utility.yul\":14839:14906   */\n      tag_384\n        /* \"#utility.yul\":14903:14905   */\n      0x0c\n        /* \"#utility.yul\":14898:14901   */\n      dup4\n        /* \"#utility.yul\":14839:14906   */\n      tag_227\n      jump\t// in\n    tag_384:\n        /* \"#utility.yul\":14832:14906   */\n      swap2\n      pop\n        /* \"#utility.yul\":14915:15008   */\n      tag_385\n        /* \"#utility.yul\":15004:15007   */\n      dup3\n        /* \"#utility.yul\":14915:15008   */\n      tag_251\n      jump\t// in\n    tag_385:\n        /* \"#utility.yul\":15033:15035   */\n      0x20\n        /* \"#utility.yul\":15028:15031   */\n      dup3\n        /* \"#utility.yul\":15024:15036   */\n      add\n        /* \"#utility.yul\":15017:15036   */\n      swap1\n      pop\n        /* \"#utility.yul\":14676:15042   */\n      swap2\n      swap1\n      pop\n      jump\t// out\n        /* \"#utility.yul\":15048:15467   */\n    tag_155:\n        /* \"#utility.yul\":15214:15218   */\n      0x00\n        /* \"#utility.yul\":15252:15254   */\n      0x20\n        /* \"#utility.yul\":15241:15250   */\n      dup3\n        /* \"#utility.yul\":15237:15255   */\n      add\n        /* \"#utility.yul\":15229:15255   */\n      swap1\n      pop\n        /* \"#utility.yul\":15301:15310   */\n      dup2\n        /* \"#utility.yul\":15295:15299   */\n      dup2\n        /* \"#utility.yul\":15291:15311   */\n      sub\n        /* \"#utility.yul\":15287:15288   */\n      0x00\n        /* \"#utility.yul\":15276:15285   */\n      dup4\n        /* \"#utility.yul\":15272:15289   */\n      add\n        /* \"#utility.yul\":15265:15312   */\n      mstore\n        /* \"#utility.yul\":15329:15460   */\n      tag_387\n        /* \"#utility.yul\":15455:15459   */\n      dup2\n        /* \"#utility.yul\":15329:15460   */\n      tag_252\n      jump\t// in\n    tag_387:\n        /* \"#utility.yul\":15321:15460   */\n      swap1\n      pop\n        /* \"#utility.yul\":15048:15467   */\n      swap2\n      swap1\n      pop\n      jump\t// out\n        /* \"#utility.yul\":15473:15654   */\n    tag_253:\n        /* \"#utility.yul\":15613:15646   */\n      0x5265656e7472616e637947756172643a207265656e7472616e742063616c6c00\n        /* \"#utility.yul\":15609:15610   */\n      0x00\n        /* \"#utility.yul\":15601:15607   */\n      dup3\n        /* \"#utility.yul\":15597:15611   */\n      add\n        /* \"#utility.yul\":15590:15647   */\n      mstore\n        /* \"#utility.yul\":15473:15654   */\n      pop\n      jump\t// out\n        /* \"#utility.yul\":15660:16026   */\n    tag_254:\n        /* \"#utility.yul\":15802:15805   */\n      0x00\n        /* \"#utility.yul\":15823:15890   */\n      tag_390\n        /* \"#utility.yul\":15887:15889   */\n      0x1f\n        /* \"#utility.yul\":15882:15885   */\n      dup4\n        /* \"#utility.yul\":15823:15890   */\n      tag_227\n      jump\t// in\n    tag_390:\n        /* \"#utility.yul\":15816:15890   */\n      swap2\n      pop\n        /* \"#utility.yul\":15899:15992   */\n      tag_391\n        /* \"#utility.yul\":15988:15991   */\n      dup3\n        /* \"#utility.yul\":15899:15992   */\n      tag_253\n      jump\t// in\n    tag_391:\n        /* \"#utility.yul\":16017:16019   */\n      0x20\n        /* \"#utility.yul\":16012:16015   */\n      dup3\n        /* \"#utility.yul\":16008:16020   */\n      add\n        /* \"#utility.yul\":16001:16020   */\n      swap1\n      pop\n        /* \"#utility.yul\":15660:16026   */\n      swap2\n      swap1\n      pop\n      jump\t// out\n        /* \"#utility.yul\":16032:16451   */\n    tag_175:\n        /* \"#utility.yul\":16198:16202   */\n      0x00\n        /* \"#utility.yul\":16236:16238   */\n      0x20\n        /* \"#utility.yul\":16225:16234   */\n      dup3\n        /* \"#utility.yul\":16221:16239   */\n      add\n        /* \"#utility.yul\":16213:16239   */\n      swap1\n      pop\n        /* \"#utility.yul\":16285:16294   */\n      dup2\n        /* \"#utility.yul\":16279:16283   */\n      dup2\n        /* \"#utility.yul\":16275:16295   */\n      sub\n        /* \"#utility.yul\":16271:16272   */\n      0x00\n        /* \"#utility.yul\":16260:16269   */\n      dup4\n        /* \"#utility.yul\":16256:16273   */\n      add\n        /* \"#utility.yul\":16249:16296   */\n      mstore\n        /* \"#utility.yul\":16313:16444   */\n      tag_393\n        /* \"#utility.yul\":16439:16443   */\n      dup2\n        /* \"#utility.yul\":16313:16444   */\n      tag_254\n      jump\t// in\n    tag_393:\n        /* \"#utility.yul\":16305:16444   */\n      swap1\n      pop\n        /* \"#utility.yul\":16032:16451   */\n      swap2\n      swap1\n      pop\n      jump\t// out\n        /* \"#utility.yul\":16457:16637   */\n    tag_186:\n        /* \"#utility.yul\":16505:16582   */\n      0x4e487b7100000000000000000000000000000000000000000000000000000000\n        /* \"#utility.yul\":16502:16503   */\n      0x00\n        /* \"#utility.yul\":16495:16583   */\n      mstore\n        /* \"#utility.yul\":16602:16606   */\n      0x32\n        /* \"#utility.yul\":16599:16600   */\n      0x04\n        /* \"#utility.yul\":16592:16607   */\n      mstore\n        /* \"#utility.yul\":16626:16630   */\n      0x24\n        /* \"#utility.yul\":16623:16624   */\n      0x00\n        /* \"#utility.yul\":16616:16631   */\n      revert\n        /* \"#utility.yul\":16643:16975   */\n    tag_190:\n        /* \"#utility.yul\":16764:16768   */\n      0x00\n        /* \"#utility.yul\":16802:16804   */\n      0x40\n        /* \"#utility.yul\":16791:16800   */\n      dup3\n        /* \"#utility.yul\":16787:16805   */\n      add\n        /* \"#utility.yul\":16779:16805   */\n      swap1\n      pop\n        /* \"#utility.yul\":16815:16886   */\n      tag_396\n        /* \"#utility.yul\":16883:16884   */\n      0x00\n        /* \"#utility.yul\":16872:16881   */\n      dup4\n        /* \"#utility.yul\":16868:16885   */\n      add\n        /* \"#utility.yul\":16859:16865   */\n      dup6\n        /* \"#utility.yul\":16815:16886   */\n      tag_241\n      jump\t// in\n    tag_396:\n        /* \"#utility.yul\":16896:16968   */\n      tag_397\n        /* \"#utility.yul\":16964:16966   */\n      0x20\n        /* \"#utility.yul\":16953:16962   */\n      dup4\n        /* \"#utility.yul\":16949:16967   */\n      add\n        /* \"#utility.yul\":16940:16946   */\n      dup5\n        /* \"#utility.yul\":16896:16968   */\n      tag_219\n      jump\t// in\n    tag_397:\n        /* \"#utility.yul\":16643:16975   */\n      swap4\n      swap3\n      pop\n      pop\n      pop\n      jump\t// out\n\n    auxdata: 0xa2646970667358221220d023157b6afb112791d701dc18f735501a861f3c9d50826984126ab24303631364736f6c634300081a0033\n}\n",
				"bytecode": {
					"linkReferences": {},
					"object": "6080604052348015600e575f80fd5b5060015f81905550612284806100235f395ff3fe608060405260043610610085575f3560e01c8063662a2c2511610058578063662a2c251461011f578063b0facab31461015b578063b759f95414610183578063b77bf600146101ab578063b8adaa11146101d557610085565b806332a5433b146100895780633d3eeac9146100b157806340e58ee5146100db5780635358fbda14610103575b5f80fd5b348015610094575f80fd5b506100af60048036038101906100aa9190611a98565b6101fd565b005b3480156100bc575f80fd5b506100c5610443565b6040516100d29190611ad2565b60405180910390f35b3480156100e6575f80fd5b5061010160048036038101906100fc9190611a98565b61044a565b005b61011d60048036038101906101189190611a98565b61063c565b005b34801561012a575f80fd5b5061014560048036038101906101409190611b45565b6108e0565b6040516101529190611ad2565b60405180910390f35b348015610166575f80fd5b50610181600480360381019061017c9190611bbe565b610ae1565b005b34801561018e575f80fd5b506101a960048036038101906101a49190611a98565b610f27565b005b3480156101b6575f80fd5b506101bf61118c565b6040516101cc9190611ad2565b60405180910390f35b3480156101e0575f80fd5b506101fb60048036038101906101f69190611a98565b611192565b005b805f73ffffffffffffffffffffffffffffffffffffffff1660015f8381526020019081526020015f205f015f9054906101000a900473ffffffffffffffffffffffffffffffffffffffff1673ffffffffffffffffffffffffffffffffffffffff160361029e576040517f08c379a000000000000000000000000000000000000000000000000000000000815260040161029590611c68565b60405180910390fd5b8160015f8281526020019081526020015f205f015f9054906101000a900473ffffffffffffffffffffffffffffffffffffffff1673ffffffffffffffffffffffffffffffffffffffff163373ffffffffffffffffffffffffffffffffffffffff161461033f576040517f08c379a000000000000000000000000000000000000000000000000000000000815260040161033690611cd0565b60405180910390fd5b610347611385565b5f60015f8581526020019081526020015f209050806007015f9054906101000a900460ff166103ab576040517f08c379a00000000000000000000000000000000000000000000000000000000081526004016103a290611d38565b60405180910390fd5b6201518081600601546103be9190611d83565b42116103ff576040517f08c379a00000000000000000000000000000000000000000000000000000000081526004016103f690611e00565b60405180910390fd5b837ff80dbaea4785589e52984ca36a31de106adc77759539a5c7d92883bf49692fe960405160405180910390a2610435846113d2565b5061043e611713565b505050565b6201518081565b805f73ffffffffffffffffffffffffffffffffffffffff1660015f8381526020019081526020015f205f015f9054906101000a900473ffffffffffffffffffffffffffffffffffffffff1673ffffffffffffffffffffffffffffffffffffffff16036104eb576040517f08c379a00000000000000000000000000000000000000000000000000000000081526004016104e290611c68565b60405180910390fd5b8160015f8281526020019081526020015f205f015f9054906101000a900473ffffffffffffffffffffffffffffffffffffffff1673ffffffffffffffffffffffffffffffffffffffff163373ffffffffffffffffffffffffffffffffffffffff161461058c576040517f08c379a000000000000000000000000000000000000000000000000000000000815260040161058390611cd0565b60405180910390fd5b610594611385565b5f60015f8581526020019081526020015f209050806007015f9054906101000a900460ff166105f8576040517f08c379a00000000000000000000000000000000000000000000000000000000081526004016105ef90611d38565b60405180910390fd5b837fc41d93b8bfbf9fd7cf5bfe271fd649ab6a6fec0ea101c23b82a2a28eca2533a960405160405180910390a261062e846113d2565b50610637611713565b505050565b805f73ffffffffffffffffffffffffffffffffffffffff1660015f8381526020019081526020015f205f015f9054906101000a900473ffffffffffffffffffffffffffffffffffffffff1673ffffffffffffffffffffffffffffffffffffffff16036106dd576040517f08c379a00000000000000000000000000000000000000000000000000000000081526004016106d490611c68565b60405180910390fd5b8160015f8281526020019081526020015f205f015f9054906101000a900473ffffffffffffffffffffffffffffffffffffffff1673ffffffffffffffffffffffffffffffffffffffff163373ffffffffffffffffffffffffffffffffffffffff161461077e576040517f08c379a000000000000000000000000000000000000000000000000000000000815260040161077590611cd0565b60405180910390fd5b610786611385565b5f60015f8581526020019081526020015f209050806007015f9054906101000a900460ff16156107eb576040517f08c379a00000000000000000000000000000000000000000000000000000000081526004016107e290611e68565b60405180910390fd5b5f341161082d576040517f08c379a000000000000000000000000000000000000000000000000000000000815260040161082490611ed0565b60405180910390fd5b34816003015f8282546108409190611d83565b925050819055506001816007015f6101000a81548160ff0219169083151502179055504281600601819055503373ffffffffffffffffffffffffffffffffffffffff165f73ffffffffffffffffffffffffffffffffffffffff16857f984a71c9d95fd4794aeba33ae72edfec22053fde75488d63abef9dc69ee795af346040516108ca9190611ad2565b60405180910390a4506108db611713565b505050565b5f8060025f81546108f090611eee565b91905081905590505f60015f8381526020019081526020015f20905033815f015f6101000a81548173ffffffffffffffffffffffffffffffffffffffff021916908373ffffffffffffffffffffffffffffffffffffffff16021790555084816001015f6101000a81548173ffffffffffffffffffffffffffffffffffffffff021916908373ffffffffffffffffffffffffffffffffffffffff16021790555083816002015f6101000a81548173ffffffffffffffffffffffffffffffffffffffff021916908373ffffffffffffffffffffffffffffffffffffffff1602179055505f816007015f6101000a81548160ff0219169083151502179055505f8160070160016101000a81548160ff021916908315150217905550806001015f9054906101000a900473ffffffffffffffffffffffffffffffffffffffff1673ffffffffffffffffffffffffffffffffffffffff16815f015f9054906101000a900473ffffffffffffffffffffffffffffffffffffffff1673ffffffffffffffffffffffffffffffffffffffff16837fabba4be8eea413728099f1b5261999cdb2e6b574ffa3e646e145b1fc03e9d01b846002015f9054906101000a900473ffffffffffffffffffffffffffffffffffffffff16604051610ace9190611f44565b60405180910390a4819250505092915050565b825f73ffffffffffffffffffffffffffffffffffffffff1660015f8381526020019081526020015f205f015f9054906101000a900473ffffffffffffffffffffffffffffffffffffffff1673ffffffffffffffffffffffffffffffffffffffff1603610b82576040517f08c379a0000000000000000000000000000000000000000000000000000000008152600401610b7990611c68565b60405180910390fd5b8360015f8281526020019081526020015f205f015f9054906101000a900473ffffffffffffffffffffffffffffffffffffffff1673ffffffffffffffffffffffffffffffffffffffff163373ffffffffffffffffffffffffffffffffffffffff1614610c23576040517f08c379a0000000000000000000000000000000000000000000000000000000008152600401610c1a90611cd0565b60405180910390fd5b610c2b611385565b5f60015f8781526020019081526020015f209050806007015f9054906101000a900460ff1615610c90576040517f08c379a0000000000000000000000000000000000000000000000000000000008152600401610c8790611e68565b60405180910390fd5b5f8411610cd2576040517f08c379a0000000000000000000000000000000000000000000000000000000008152600401610cc990611fa7565b60405180910390fd5b8473ffffffffffffffffffffffffffffffffffffffff166323b872dd3330876040518463ffffffff1660e01b8152600401610d0f93929190611fc5565b6020604051808303815f875af1158015610d2b573d5f803e3d5ffd5b505050506040513d601f19601f82011682018060405250810190610d4f919061202f565b610d8e576040517f08c379a0000000000000000000000000000000000000000000000000000000008152600401610d85906120a4565b60405180910390fd5b5f816004015f8773ffffffffffffffffffffffffffffffffffffffff1673ffffffffffffffffffffffffffffffffffffffff1681526020019081526020015f205403610e37578060050185908060018154018082558091505060019003905f5260205f20015f9091909190916101000a81548173ffffffffffffffffffffffffffffffffffffffff021916908373ffffffffffffffffffffffffffffffffffffffff1602179055505b83816004015f8773ffffffffffffffffffffffffffffffffffffffff1673ffffffffffffffffffffffffffffffffffffffff1681526020019081526020015f205f828254610e859190611d83565b925050819055506001816007015f6101000a81548160ff0219169083151502179055504281600601819055503373ffffffffffffffffffffffffffffffffffffffff168573ffffffffffffffffffffffffffffffffffffffff16877f984a71c9d95fd4794aeba33ae72edfec22053fde75488d63abef9dc69ee795af87604051610f0f9190611ad2565b60405180910390a450610f20611713565b5050505050565b805f73ffffffffffffffffffffffffffffffffffffffff1660015f8381526020019081526020015f205f015f9054906101000a900473ffffffffffffffffffffffffffffffffffffffff1673ffffffffffffffffffffffffffffffffffffffff1603610fc8576040517f08c379a0000000000000000000000000000000000000000000000000000000008152600401610fbf90611c68565b60405180910390fd5b8160015f8281526020019081526020015f206002015f9054906101000a900473ffffffffffffffffffffffffffffffffffffffff1673ffffffffffffffffffffffffffffffffffffffff163373ffffffffffffffffffffffffffffffffffffffff161461106a576040517f08c379a00000000000000000000000000000000000000000000000000000000081526004016110619061210c565b60405180910390fd5b611072611385565b5f60015f8581526020019081526020015f209050806007015f9054906101000a900460ff166110d6576040517f08c379a00000000000000000000000000000000000000000000000000000000081526004016110cd90611d38565b60405180910390fd5b6201518081600601546110e99190611d83565b42111561112b576040517f08c379a000000000000000000000000000000000000000000000000000000000815260040161112290612174565b60405180910390fd5b60018160070160016101000a81548160ff021916908315150217905550837f3ad93af63cb7967b23e4fb500b7d7d28b07516325dcf341f88bebf959d82c1cb60405160405180910390a261117e8461171c565b50611187611713565b505050565b60025481565b805f73ffffffffffffffffffffffffffffffffffffffff1660015f8381526020019081526020015f205f015f9054906101000a900473ffffffffffffffffffffffffffffffffffffffff1673ffffffffffffffffffffffffffffffffffffffff1603611233576040517f08c379a000000000000000000000000000000000000000000000000000000000815260040161122a90611c68565b60405180910390fd5b8160015f8281526020019081526020015f206002015f9054906101000a900473ffffffffffffffffffffffffffffffffffffffff1673ffffffffffffffffffffffffffffffffffffffff163373ffffffffffffffffffffffffffffffffffffffff16146112d5576040517f08c379a00000000000000000000000000000000000000000000000000000000081526004016112cc9061210c565b60405180910390fd5b6112dd611385565b5f60015f8581526020019081526020015f209050806007015f9054906101000a900460ff16611341576040517f08c379a000000000000000000000000000000000000000000000000000000000815260040161133890611d38565b60405180910390fd5b837f94064f919a02d0565c6790e0615fb4ba6cf1be1dd679f0161be914613a1b9bb560405160405180910390a2611377846113d2565b50611380611713565b505050565b60025f54036113c9576040517f08c379a00000000000000000000000000000000000000000000000000000000081526004016113c0906121dc565b60405180910390fd5b60025f81905550565b5f60015f8381526020019081526020015f2090505f816003015411156114dc575f816003015490505f8260030181905550815f015f9054906101000a900473ffffffffffffffffffffffffffffffffffffffff1673ffffffffffffffffffffffffffffffffffffffff166108fc8290811502906040515f60405180830381858888f19350505050158015611468573d5f803e3d5ffd5b50815f015f9054906101000a900473ffffffffffffffffffffffffffffffffffffffff1673ffffffffffffffffffffffffffffffffffffffff16837fe90ae330e5aefc2a73ddff0dd88bcaf8f4a0629d6553a2a85b22cac3d5f4a19e836040516114d29190611ad2565b60405180910390a3505b5f5b81600501805490508110156116f3575f826005018281548110611504576115036121fa565b5b905f5260205f20015f9054906101000a900473ffffffffffffffffffffffffffffffffffffffff1690505f836004015f8373ffffffffffffffffffffffffffffffffffffffff1673ffffffffffffffffffffffffffffffffffffffff1681526020019081526020015f205490505f8111156116e4575f846004015f8473ffffffffffffffffffffffffffffffffffffffff1673ffffffffffffffffffffffffffffffffffffffff1681526020019081526020015f20819055508173ffffffffffffffffffffffffffffffffffffffff1663a9059cbb855f015f9054906101000a900473ffffffffffffffffffffffffffffffffffffffff16836040518363ffffffff1660e01b815260040161161a929190612227565b6020604051808303815f875af1158015611636573d5f803e3d5ffd5b505050506040513d601f19601f8201168201806040525081019061165a919061202f565b50835f015f9054906101000a900473ffffffffffffffffffffffffffffffffffffffff1673ffffffffffffffffffffffffffffffffffffffff168273ffffffffffffffffffffffffffffffffffffffff16867f69d21b294c0b932db9bb0dc81144c65ac23a4c078f00589443bb03baa63e3c96846040516116db9190611ad2565b60405180910390a45b505080806001019150506114de565b505f816007015f6101000a81548160ff0219169083151502179055505050565b60015f81905550565b5f60015f8381526020019081526020015f2090505f81600301541115611828575f816003015490505f8260030181905550816001015f9054906101000a900473ffffffffffffffffffffffffffffffffffffffff1673ffffffffffffffffffffffffffffffffffffffff166108fc8290811502906040515f60405180830381858888f193505050501580156117b3573d5f803e3d5ffd5b50816001015f9054906101000a900473ffffffffffffffffffffffffffffffffffffffff1673ffffffffffffffffffffffffffffffffffffffff16837fe90ae330e5aefc2a73ddff0dd88bcaf8f4a0629d6553a2a85b22cac3d5f4a19e8360405161181e9190611ad2565b60405180910390a3505b5f5b8160050180549050811015611a41575f8260050182815481106118505761184f6121fa565b5b905f5260205f20015f9054906101000a900473ffffffffffffffffffffffffffffffffffffffff1690505f836004015f8373ffffffffffffffffffffffffffffffffffffffff1673ffffffffffffffffffffffffffffffffffffffff1681526020019081526020015f205490505f811115611a32575f846004015f8473ffffffffffffffffffffffffffffffffffffffff1673ffffffffffffffffffffffffffffffffffffffff1681526020019081526020015f20819055508173ffffffffffffffffffffffffffffffffffffffff1663a9059cbb856001015f9054906101000a900473ffffffffffffffffffffffffffffffffffffffff16836040518363ffffffff1660e01b8152600401611967929190612227565b6020604051808303815f875af1158015611983573d5f803e3d5ffd5b505050506040513d601f19601f820116820180604052508101906119a7919061202f565b50836001015f9054906101000a900473ffffffffffffffffffffffffffffffffffffffff1673ffffffffffffffffffffffffffffffffffffffff168273ffffffffffffffffffffffffffffffffffffffff16867f69d21b294c0b932db9bb0dc81144c65ac23a4c078f00589443bb03baa63e3c9684604051611a299190611ad2565b60405180910390a45b5050808060010191505061182a565b505f816007015f6101000a81548160ff0219169083151502179055505050565b5f80fd5b5f819050919050565b611a7781611a65565b8114611a81575f80fd5b50565b5f81359050611a9281611a6e565b92915050565b5f60208284031215611aad57611aac611a61565b5b5f611aba84828501611a84565b91505092915050565b611acc81611a65565b82525050565b5f602082019050611ae55f830184611ac3565b92915050565b5f73ffffffffffffffffffffffffffffffffffffffff82169050919050565b5f611b1482611aeb565b9050919050565b611b2481611b0a565b8114611b2e575f80fd5b50565b5f81359050611b3f81611b1b565b92915050565b5f8060408385031215611b5b57611b5a611a61565b5b5f611b6885828601611b31565b9250506020611b7985828601611b31565b9150509250929050565b5f611b8d82611b0a565b9050919050565b611b9d81611b83565b8114611ba7575f80fd5b50565b5f81359050611bb881611b94565b92915050565b5f805f60608486031215611bd557611bd4611a61565b5b5f611be286828701611a84565b9350506020611bf386828701611baa565b9250506040611c0486828701611a84565b9150509250925092565b5f82825260208201905092915050565b7f5472616e73616374696f6e20646f6573206e6f742065786973740000000000005f82015250565b5f611c52601a83611c0e565b9150611c5d82611c1e565b602082019050919050565b5f6020820190508181035f830152611c7f81611c46565b9050919050565b7f4e6f7420746865206275796572000000000000000000000000000000000000005f82015250565b5f611cba600d83611c0e565b9150611cc582611c86565b602082019050919050565b5f6020820190508181035f830152611ce781611cae565b9050919050565b7f4e6f2066756e6473206465706f736974656400000000000000000000000000005f82015250565b5f611d22601283611c0e565b9150611d2d82611cee565b602082019050919050565b5f6020820190508181035f830152611d4f81611d16565b9050919050565b7f4e487b71000000000000000000000000000000000000000000000000000000005f52601160045260245ffd5b5f611d8d82611a65565b9150611d9883611a65565b9250828201905080821115611db057611daf611d56565b5b92915050565b7f417070726f76616c2077696e646f77207374696c6c206f70656e0000000000005f82015250565b5f611dea601a83611c0e565b9150611df582611db6565b602082019050919050565b5f6020820190508181035f830152611e1781611dde565b9050919050565b7f5661756c74206973206c6f636b656400000000000000000000000000000000005f82015250565b5f611e52600f83611c0e565b9150611e5d82611e1e565b602082019050919050565b5f6020820190508181035f830152611e7f81611e46565b9050919050565b7f4e6f204554482073656e740000000000000000000000000000000000000000005f82015250565b5f611eba600b83611c0e565b9150611ec582611e86565b602082019050919050565b5f6020820190508181035f830152611ee781611eae565b9050919050565b5f611ef882611a65565b91507fffffffffffffffffffffffffffffffffffffffffffffffffffffffffffffffff8203611f2a57611f29611d56565b5b600182019050919050565b611f3e81611b0a565b82525050565b5f602082019050611f575f830184611f35565b92915050565b7f4e6f20746f6b656e732073656e740000000000000000000000000000000000005f82015250565b5f611f91600e83611c0e565b9150611f9c82611f5d565b602082019050919050565b5f6020820190508181035f830152611fbe81611f85565b9050919050565b5f606082019050611fd85f830186611f35565b611fe56020830185611f35565b611ff26040830184611ac3565b949350505050565b5f8115159050919050565b61200e81611ffa565b8114612018575f80fd5b50565b5f8151905061202981612005565b92915050565b5f6020828403121561204457612043611a61565b5b5f6120518482850161201b565b91505092915050565b7f546f6b656e207472616e73666572206661696c656400000000000000000000005f82015250565b5f61208e601583611c0e565b91506120998261205a565b602082019050919050565b5f6020820190508181035f8301526120bb81612082565b9050919050565b7f4e6f742074686520617070726f766572000000000000000000000000000000005f82015250565b5f6120f6601083611c0e565b9150612101826120c2565b602082019050919050565b5f6020820190508181035f830152612123816120ea565b9050919050565b7f4465616c206578706972656400000000000000000000000000000000000000005f82015250565b5f61215e600c83611c0e565b91506121698261212a565b602082019050919050565b5f6020820190508181035f83015261218b81612152565b9050919050565b7f5265656e7472616e637947756172643a207265656e7472616e742063616c6c005f82015250565b5f6121c6601f83611c0e565b91506121d182612192565b602082019050919050565b5f6020820190508181035f8301526121f3816121ba565b9050919050565b7f4e487b71000000000000000000000000000000000000000000000000000000005f52603260045260245ffd5b5f60408201905061223a5f830185611f35565b6122476020830184611ac3565b939250505056fea2646970667358221220d023157b6afb112791d701dc18f735501a861f3c9d50826984126ab24303631364736f6c634300081a0033",
					"opcodes": "PUSH1 0x80 PUSH1 0x40 MSTORE CALLVALUE DUP1 ISZERO PUSH1 0xE JUMPI PUSH0 DUP1 REVERT JUMPDEST POP PUSH1 0x1 PUSH0 DUP2 SWAP1 SSTORE POP PUSH2 0x2284 DUP1 PUSH2 0x23 PUSH0 CODECOPY PUSH0 RETURN INVALID PUSH1 0x80 PUSH1 0x40 MSTORE PUSH1 0x4 CALLDATASIZE LT PUSH2 0x85 JUMPI PUSH0 CALLDATALOAD PUSH1 0xE0 SHR DUP1 PUSH4 0x662A2C25 GT PUSH2 0x58 JUMPI DUP1 PUSH4 0x662A2C25 EQ PUSH2 0x11F JUMPI DUP1 PUSH4 0xB0FACAB3 EQ PUSH2 0x15B JUMPI DUP1 PUSH4 0xB759F954 EQ PUSH2 0x183 JUMPI DUP1 PUSH4 0xB77BF600 EQ PUSH2 0x1AB JUMPI DUP1 PUSH4 0xB8ADAA11 EQ PUSH2 0x1D5 JUMPI PUSH2 0x85 JUMP JUMPDEST DUP1 PUSH4 0x32A5433B EQ PUSH2 0x89 JUMPI DUP1 PUSH4 0x3D3EEAC9 EQ PUSH2 0xB1 JUMPI DUP1 PUSH4 0x40E58EE5 EQ PUSH2 0xDB JUMPI DUP1 PUSH4 0x5358FBDA EQ PUSH2 0x103 JUMPI JUMPDEST PUSH0 DUP1 REVERT JUMPDEST CALLVALUE DUP1 ISZERO PUSH2 0x94 JUMPI PUSH0 DUP1 REVERT JUMPDEST POP PUSH2 0xAF PUSH1 0x4 DUP1 CALLDATASIZE SUB DUP2 ADD SWAP1 PUSH2 0xAA SWAP2 SWAP1 PUSH2 0x1A98 JUMP JUMPDEST PUSH2 0x1FD JUMP JUMPDEST STOP JUMPDEST CALLVALUE DUP1 ISZERO PUSH2 0xBC JUMPI PUSH0 DUP1 REVERT JUMPDEST POP PUSH2 0xC5 PUSH2 0x443 JUMP JUMPDEST PUSH1 0x40 MLOAD PUSH2 0xD2 SWAP2 SWAP1 PUSH2 0x1AD2 JUMP JUMPDEST PUSH1 0x40 MLOAD DUP1 SWAP2 SUB SWAP1 RETURN JUMPDEST CALLVALUE DUP1 ISZERO PUSH2 0xE6 JUMPI PUSH0 DUP1 REVERT JUMPDEST POP PUSH2 0x101 PUSH1 0x4 DUP1 CALLDATASIZE SUB DUP2 ADD SWAP1 PUSH2 0xFC SWAP2 SWAP1 PUSH2 0x1A98 JUMP JUMPDEST PUSH2 0x44A JUMP JUMPDEST STOP JUMPDEST PUSH2 0x11D PUSH1 0x4 DUP1 CALLDATASIZE SUB DUP2 ADD SWAP1 PUSH2 0x118 SWAP2 SWAP1 PUSH2 0x1A98 JUMP JUMPDEST PUSH2 0x63C JUMP JUMPDEST STOP JUMPDEST CALLVALUE DUP1 ISZERO PUSH2 0x12A JUMPI PUSH0 DUP1 REVERT JUMPDEST POP PUSH2 0x145 PUSH1 0x4 DUP1 CALLDATASIZE SUB DUP2 ADD SWAP1 PUSH2 0x140 SWAP2 SWAP1 PUSH2 0x1B45 JUMP JUMPDEST PUSH2 0x8E0 JUMP JUMPDEST PUSH1 0x40 MLOAD PUSH2 0x152 SWAP2 SWAP1 PUSH2 0x1AD2 JUMP JUMPDEST PUSH1 0x40 MLOAD DUP1 SWAP2 SUB SWAP1 RETURN JUMPDEST CALLVALUE DUP1 ISZERO PUSH2 0x166 JUMPI PUSH0 DUP1 REVERT JUMPDEST POP PUSH2 0x181 PUSH1 0x4 DUP1 CALLDATASIZE SUB DUP2 ADD SWAP1 PUSH2 0x17C SWAP2 SWAP1 PUSH2 0x1BBE JUMP JUMPDEST PUSH2 0xAE1 JUMP JUMPDEST STOP JUMPDEST CALLVALUE DUP1 ISZERO PUSH2 0x18E JUMPI PUSH0 DUP1 REVERT JUMPDEST POP PUSH2 0x1A9 PUSH1 0x4 DUP1 CALLDATASIZE SUB DUP2 ADD SWAP1 PUSH2 0x1A4 SWAP2 SWAP1 PUSH2 0x1A98 JUMP JUMPDEST PUSH2 0xF27 JUMP JUMPDEST STOP JUMPDEST CALLVALUE DUP1 ISZERO PUSH2 0x1B6 JUMPI PUSH0 DUP1 REVERT JUMPDEST POP PUSH2 0x1BF PUSH2 0x118C JUMP JUMPDEST PUSH1 0x40 MLOAD PUSH2 0x1CC SWAP2 SWAP1 PUSH2 0x1AD2 JUMP JUMPDEST PUSH1 0x40 MLOAD DUP1 SWAP2 SUB SWAP1 RETURN JUMPDEST CALLVALUE DUP1 ISZERO PUSH2 0x1E0 JUMPI PUSH0 DUP1 REVERT JUMPDEST POP PUSH2 0x1FB PUSH1 0x4 DUP1 CALLDATASIZE SUB DUP2 ADD SWAP1 PUSH2 0x1F6 SWAP2 SWAP1 PUSH2 0x1A98 JUMP JUMPDEST PUSH2 0x1192 JUMP JUMPDEST STOP JUMPDEST DUP1 PUSH0 PUSH20 0xFFFFFFFFFFFFFFFFFFFFFFFFFFFFFFFFFFFFFFFF AND PUSH1 0x1 PUSH0 DUP4 DUP2 MSTORE PUSH1 0x20 ADD SWAP1 DUP2 MSTORE PUSH1 0x20 ADD PUSH0 KECCAK256 PUSH0 ADD PUSH0 SWAP1 SLOAD SWAP1 PUSH2 0x100 EXP SWAP1 DIV PUSH20 0xFFFFFFFFFFFFFFFFFFFFFFFFFFFFFFFFFFFFFFFF AND PUSH20 0xFFFFFFFFFFFFFFFFFFFFFFFFFFFFFFFFFFFFFFFF AND SUB PUSH2 0x29E JUMPI PUSH1 0x40 MLOAD PUSH32 0x8C379A000000000000000000000000000000000000000000000000000000000 DUP2 MSTORE PUSH1 0x4 ADD PUSH2 0x295 SWAP1 PUSH2 0x1C68 JUMP JUMPDEST PUSH1 0x40 MLOAD DUP1 SWAP2 SUB SWAP1 REVERT JUMPDEST DUP2 PUSH1 0x1 PUSH0 DUP3 DUP2 MSTORE PUSH1 0x20 ADD SWAP1 DUP2 MSTORE PUSH1 0x20 ADD PUSH0 KECCAK256 PUSH0 ADD PUSH0 SWAP1 SLOAD SWAP1 PUSH2 0x100 EXP SWAP1 DIV PUSH20 0xFFFFFFFFFFFFFFFFFFFFFFFFFFFFFFFFFFFFFFFF AND PUSH20 0xFFFFFFFFFFFFFFFFFFFFFFFFFFFFFFFFFFFFFFFF AND CALLER PUSH20 0xFFFFFFFFFFFFFFFFFFFFFFFFFFFFFFFFFFFFFFFF AND EQ PUSH2 0x33F JUMPI PUSH1 0x40 MLOAD PUSH32 0x8C379A000000000000000000000000000000000000000000000000000000000 DUP2 MSTORE PUSH1 0x4 ADD PUSH2 0x336 SWAP1 PUSH2 0x1CD0 JUMP JUMPDEST PUSH1 0x40 MLOAD DUP1 SWAP2 SUB SWAP1 REVERT JUMPDEST PUSH2 0x347 PUSH2 0x1385 JUMP JUMPDEST PUSH0 PUSH1 0x1 PUSH0 DUP6 DUP2 MSTORE PUSH1 0x20 ADD SWAP1 DUP2 MSTORE PUSH1 0x20 ADD PUSH0 KECCAK256 SWAP1 POP DUP1 PUSH1 0x7 ADD PUSH0 SWAP1 SLOAD SWAP1 PUSH2 0x100 EXP SWAP1 DIV PUSH1 0xFF AND PUSH2 0x3AB JUMPI PUSH1 0x40 MLOAD PUSH32 0x8C379A000000000000000000000000000000000000000000000000000000000 DUP2 MSTORE PUSH1 0x4 ADD PUSH2 0x3A2 SWAP1 PUSH2 0x1D38 JUMP JUMPDEST PUSH1 0x40 MLOAD DUP1 SWAP2 SUB SWAP1 REVERT JUMPDEST PUSH3 0x15180 DUP2 PUSH1 0x6 ADD SLOAD PUSH2 0x3BE SWAP2 SWAP1 PUSH2 0x1D83 JUMP JUMPDEST TIMESTAMP GT PUSH2 0x3FF JUMPI PUSH1 0x40 MLOAD PUSH32 0x8C379A000000000000000000000000000000000000000000000000000000000 DUP2 MSTORE PUSH1 0x4 ADD PUSH2 0x3F6 SWAP1 PUSH2 0x1E00 JUMP JUMPDEST PUSH1 0x40 MLOAD DUP1 SWAP2 SUB SWAP1 REVERT JUMPDEST DUP4 PUSH32 0xF80DBAEA4785589E52984CA36A31DE106ADC77759539A5C7D92883BF49692FE9 PUSH1 0x40 MLOAD PUSH1 0x40 MLOAD DUP1 SWAP2 SUB SWAP1 LOG2 PUSH2 0x435 DUP5 PUSH2 0x13D2 JUMP JUMPDEST POP PUSH2 0x43E PUSH2 0x1713 JUMP JUMPDEST POP POP POP JUMP JUMPDEST PUSH3 0x15180 DUP2 JUMP JUMPDEST DUP1 PUSH0 PUSH20 0xFFFFFFFFFFFFFFFFFFFFFFFFFFFFFFFFFFFFFFFF AND PUSH1 0x1 PUSH0 DUP4 DUP2 MSTORE PUSH1 0x20 ADD SWAP1 DUP2 MSTORE PUSH1 0x20 ADD PUSH0 KECCAK256 PUSH0 ADD PUSH0 SWAP1 SLOAD SWAP1 PUSH2 0x100 EXP SWAP1 DIV PUSH20 0xFFFFFFFFFFFFFFFFFFFFFFFFFFFFFFFFFFFFFFFF AND PUSH20 0xFFFFFFFFFFFFFFFFFFFFFFFFFFFFFFFFFFFFFFFF AND SUB PUSH2 0x4EB JUMPI PUSH1 0x40 MLOAD PUSH32 0x8C379A000000000000000000000000000000000000000000000000000000000 DUP2 MSTORE PUSH1 0x4 ADD PUSH2 0x4E2 SWAP1 PUSH2 0x1C68 JUMP JUMPDEST PUSH1 0x40 MLOAD DUP1 SWAP2 SUB SWAP1 REVERT JUMPDEST DUP2 PUSH1 0x1 PUSH0 DUP3 DUP2 MSTORE PUSH1 0x20 ADD SWAP1 DUP2 MSTORE PUSH1 0x20 ADD PUSH0 KECCAK256 PUSH0 ADD PUSH0 SWAP1 SLOAD SWAP1 PUSH2 0x100 EXP SWAP1 DIV PUSH20 0xFFFFFFFFFFFFFFFFFFFFFFFFFFFFFFFFFFFFFFFF AND PUSH20 0xFFFFFFFFFFFFFFFFFFFFFFFFFFFFFFFFFFFFFFFF AND CALLER PUSH20 0xFFFFFFFFFFFFFFFFFFFFFFFFFFFFFFFFFFFFFFFF AND EQ PUSH2 0x58C JUMPI PUSH1 0x40 MLOAD PUSH32 0x8C379A000000000000000000000000000000000000000000000000000000000 DUP2 MSTORE PUSH1 0x4 ADD PUSH2 0x583 SWAP1 PUSH2 0x1CD0 JUMP JUMPDEST PUSH1 0x40 MLOAD DUP1 SWAP2 SUB SWAP1 REVERT JUMPDEST PUSH2 0x594 PUSH2 0x1385 JUMP JUMPDEST PUSH0 PUSH1 0x1 PUSH0 DUP6 DUP2 MSTORE PUSH1 0x20 ADD SWAP1 DUP2 MSTORE PUSH1 0x20 ADD PUSH0 KECCAK256 SWAP1 POP DUP1 PUSH1 0x7 ADD PUSH0 SWAP1 SLOAD SWAP1 PUSH2 0x100 EXP SWAP1 DIV PUSH1 0xFF AND PUSH2 0x5F8 JUMPI PUSH1 0x40 MLOAD PUSH32 0x8C379A000000000000000000000000000000000000000000000000000000000 DUP2 MSTORE PUSH1 0x4 ADD PUSH2 0x5EF SWAP1 PUSH2 0x1D38 JUMP JUMPDEST PUSH1 0x40 MLOAD DUP1 SWAP2 SUB SWAP1 REVERT JUMPDEST DUP4 PUSH32 0xC41D93B8BFBF9FD7CF5BFE271FD649AB6A6FEC0EA101C23B82A2A28ECA2533A9 PUSH1 0x40 MLOAD PUSH1 0x40 MLOAD DUP1 SWAP2 SUB SWAP1 LOG2 PUSH2 0x62E DUP5 PUSH2 0x13D2 JUMP JUMPDEST POP PUSH2 0x637 PUSH2 0x1713 JUMP JUMPDEST POP POP POP JUMP JUMPDEST DUP1 PUSH0 PUSH20 0xFFFFFFFFFFFFFFFFFFFFFFFFFFFFFFFFFFFFFFFF AND PUSH1 0x1 PUSH0 DUP4 DUP2 MSTORE PUSH1 0x20 ADD SWAP1 DUP2 MSTORE PUSH1 0x20 ADD PUSH0 KECCAK256 PUSH0 ADD PUSH0 SWAP1 SLOAD SWAP1 PUSH2 0x100 EXP SWAP1 DIV PUSH20 0xFFFFFFFFFFFFFFFFFFFFFFFFFFFFFFFFFFFFFFFF AND PUSH20 0xFFFFFFFFFFFFFFFFFFFFFFFFFFFFFFFFFFFFFFFF AND SUB PUSH2 0x6DD JUMPI PUSH1 0x40 MLOAD PUSH32 0x8C379A000000000000000000000000000000000000000000000000000000000 DUP2 MSTORE PUSH1 0x4 ADD PUSH2 0x6D4 SWAP1 PUSH2 0x1C68 JUMP JUMPDEST PUSH1 0x40 MLOAD DUP1 SWAP2 SUB SWAP1 REVERT JUMPDEST DUP2 PUSH1 0x1 PUSH0 DUP3 DUP2 MSTORE PUSH1 0x20 ADD SWAP1 DUP2 MSTORE PUSH1 0x20 ADD PUSH0 KECCAK256 PUSH0 ADD PUSH0 SWAP1 SLOAD SWAP1 PUSH2 0x100 EXP SWAP1 DIV PUSH20 0xFFFFFFFFFFFFFFFFFFFFFFFFFFFFFFFFFFFFFFFF AND PUSH20 0xFFFFFFFFFFFFFFFFFFFFFFFFFFFFFFFFFFFFFFFF AND CALLER PUSH20 0xFFFFFFFFFFFFFFFFFFFFFFFFFFFFFFFFFFFFFFFF AND EQ PUSH2 0x77E JUMPI PUSH1 0x40 MLOAD PUSH32 0x8C379A000000000000000000000000000000000000000000000000000000000 DUP2 MSTORE PUSH1 0x4 ADD PUSH2 0x775 SWAP1 PUSH2 0x1CD0 JUMP JUMPDEST PUSH1 0x40 MLOAD DUP1 SWAP2 SUB SWAP1 REVERT JUMPDEST PUSH2 0x786 PUSH2 0x1385 JUMP JUMPDEST PUSH0 PUSH1 0x1 PUSH0 DUP6 DUP2 MSTORE PUSH1 0x20 ADD SWAP1 DUP2 MSTORE PUSH1 0x20 ADD PUSH0 KECCAK256 SWAP1 POP DUP1 PUSH1 0x7 ADD PUSH0 SWAP1 SLOAD SWAP1 PUSH2 0x100 EXP SWAP1 DIV PUSH1 0xFF AND ISZERO PUSH2 0x7EB JUMPI PUSH1 0x40 MLOAD PUSH32 0x8C379A000000000000000000000000000000000000000000000000000000000 DUP2 MSTORE PUSH1 0x4 ADD PUSH2 0x7E2 SWAP1 PUSH2 0x1E68 JUMP JUMPDEST PUSH1 0x40 MLOAD DUP1 SWAP2 SUB SWAP1 REVERT JUMPDEST PUSH0 CALLVALUE GT PUSH2 0x82D JUMPI PUSH1 0x40 MLOAD PUSH32 0x8C379A000000000000000000000000000000000000000000000000000000000 DUP2 MSTORE PUSH1 0x4 ADD PUSH2 0x824 SWAP1 PUSH2 0x1ED0 JUMP JUMPDEST PUSH1 0x40 MLOAD DUP1 SWAP2 SUB SWAP1 REVERT JUMPDEST CALLVALUE DUP2 PUSH1 0x3 ADD PUSH0 DUP3 DUP3 SLOAD PUSH2 0x840 SWAP2 SWAP1 PUSH2 0x1D83 JUMP JUMPDEST SWAP3 POP POP DUP2 SWAP1 SSTORE POP PUSH1 0x1 DUP2 PUSH1 0x7 ADD PUSH0 PUSH2 0x100 EXP DUP2 SLOAD DUP2 PUSH1 0xFF MUL NOT AND SWAP1 DUP4 ISZERO ISZERO MUL OR SWAP1 SSTORE POP TIMESTAMP DUP2 PUSH1 0x6 ADD DUP2 SWAP1 SSTORE POP CALLER PUSH20 0xFFFFFFFFFFFFFFFFFFFFFFFFFFFFFFFFFFFFFFFF AND PUSH0 PUSH20 0xFFFFFFFFFFFFFFFFFFFFFFFFFFFFFFFFFFFFFFFF AND DUP6 PUSH32 0x984A71C9D95FD4794AEBA33AE72EDFEC22053FDE75488D63ABEF9DC69EE795AF CALLVALUE PUSH1 0x40 MLOAD PUSH2 0x8CA SWAP2 SWAP1 PUSH2 0x1AD2 JUMP JUMPDEST PUSH1 0x40 MLOAD DUP1 SWAP2 SUB SWAP1 LOG4 POP PUSH2 0x8DB PUSH2 0x1713 JUMP JUMPDEST POP POP POP JUMP JUMPDEST PUSH0 DUP1 PUSH1 0x2 PUSH0 DUP2 SLOAD PUSH2 0x8F0 SWAP1 PUSH2 0x1EEE JUMP JUMPDEST SWAP2 SWAP1 POP DUP2 SWAP1 SSTORE SWAP1 POP PUSH0 PUSH1 0x1 PUSH0 DUP4 DUP2 MSTORE PUSH1 0x20 ADD SWAP1 DUP2 MSTORE PUSH1 0x20 ADD PUSH0 KECCAK256 SWAP1 POP CALLER DUP2 PUSH0 ADD PUSH0 PUSH2 0x100 EXP DUP2 SLOAD DUP2 PUSH20 0xFFFFFFFFFFFFFFFFFFFFFFFFFFFFFFFFFFFFFFFF MUL NOT AND SWAP1 DUP4 PUSH20 0xFFFFFFFFFFFFFFFFFFFFFFFFFFFFFFFFFFFFFFFF AND MUL OR SWAP1 SSTORE POP DUP5 DUP2 PUSH1 0x1 ADD PUSH0 PUSH2 0x100 EXP DUP2 SLOAD DUP2 PUSH20 0xFFFFFFFFFFFFFFFFFFFFFFFFFFFFFFFFFFFFFFFF MUL NOT AND SWAP1 DUP4 PUSH20 0xFFFFFFFFFFFFFFFFFFFFFFFFFFFFFFFFFFFFFFFF AND MUL OR SWAP1 SSTORE POP DUP4 DUP2 PUSH1 0x2 ADD PUSH0 PUSH2 0x100 EXP DUP2 SLOAD DUP2 PUSH20 0xFFFFFFFFFFFFFFFFFFFFFFFFFFFFFFFFFFFFFFFF MUL NOT AND SWAP1 DUP4 PUSH20 0xFFFFFFFFFFFFFFFFFFFFFFFFFFFFFFFFFFFFFFFF AND MUL OR SWAP1 SSTORE POP PUSH0 DUP2 PUSH1 0x7 ADD PUSH0 PUSH2 0x100 EXP DUP2 SLOAD DUP2 PUSH1 0xFF MUL NOT AND SWAP1 DUP4 ISZERO ISZERO MUL OR SWAP1 SSTORE POP PUSH0 DUP2 PUSH1 0x7 ADD PUSH1 0x1 PUSH2 0x100 EXP DUP2 SLOAD DUP2 PUSH1 0xFF MUL NOT AND SWAP1 DUP4 ISZERO ISZERO MUL OR SWAP1 SSTORE POP DUP1 PUSH1 0x1 ADD PUSH0 SWAP1 SLOAD SWAP1 PUSH2 0x100 EXP SWAP1 DIV PUSH20 0xFFFFFFFFFFFFFFFFFFFFFFFFFFFFFFFFFFFFFFFF AND PUSH20 0xFFFFFFFFFFFFFFFFFFFFFFFFFFFFFFFFFFFFFFFF AND DUP2 PUSH0 ADD PUSH0 SWAP1 SLOAD SWAP1 PUSH2 0x100 EXP SWAP1 DIV PUSH20 0xFFFFFFFFFFFFFFFFFFFFFFFFFFFFFFFFFFFFFFFF AND PUSH20 0xFFFFFFFFFFFFFFFFFFFFFFFFFFFFFFFFFFFFFFFF AND DUP4 PUSH32 0xABBA4BE8EEA413728099F1B5261999CDB2E6B574FFA3E646E145B1FC03E9D01B DUP5 PUSH1 0x2 ADD PUSH0 SWAP1 SLOAD SWAP1 PUSH2 0x100 EXP SWAP1 DIV PUSH20 0xFFFFFFFFFFFFFFFFFFFFFFFFFFFFFFFFFFFFFFFF AND PUSH1 0x40 MLOAD PUSH2 0xACE SWAP2 SWAP1 PUSH2 0x1F44 JUMP JUMPDEST PUSH1 0x40 MLOAD DUP1 SWAP2 SUB SWAP1 LOG4 DUP2 SWAP3 POP POP POP SWAP3 SWAP2 POP POP JUMP JUMPDEST DUP3 PUSH0 PUSH20 0xFFFFFFFFFFFFFFFFFFFFFFFFFFFFFFFFFFFFFFFF AND PUSH1 0x1 PUSH0 DUP4 DUP2 MSTORE PUSH1 0x20 ADD SWAP1 DUP2 MSTORE PUSH1 0x20 ADD PUSH0 KECCAK256 PUSH0 ADD PUSH0 SWAP1 SLOAD SWAP1 PUSH2 0x100 EXP SWAP1 DIV PUSH20 0xFFFFFFFFFFFFFFFFFFFFFFFFFFFFFFFFFFFFFFFF AND PUSH20 0xFFFFFFFFFFFFFFFFFFFFFFFFFFFFFFFFFFFFFFFF AND SUB PUSH2 0xB82 JUMPI PUSH1 0x40 MLOAD PUSH32 0x8C379A000000000000000000000000000000000000000000000000000000000 DUP2 MSTORE PUSH1 0x4 ADD PUSH2 0xB79 SWAP1 PUSH2 0x1C68 JUMP JUMPDEST PUSH1 0x40 MLOAD DUP1 SWAP2 SUB SWAP1 REVERT JUMPDEST DUP4 PUSH1 0x1 PUSH0 DUP3 DUP2 MSTORE PUSH1 0x20 ADD SWAP1 DUP2 MSTORE PUSH1 0x20 ADD PUSH0 KECCAK256 PUSH0 ADD PUSH0 SWAP1 SLOAD SWAP1 PUSH2 0x100 EXP SWAP1 DIV PUSH20 0xFFFFFFFFFFFFFFFFFFFFFFFFFFFFFFFFFFFFFFFF AND PUSH20 0xFFFFFFFFFFFFFFFFFFFFFFFFFFFFFFFFFFFFFFFF AND CALLER PUSH20 0xFFFFFFFFFFFFFFFFFFFFFFFFFFFFFFFFFFFFFFFF AND EQ PUSH2 0xC23 JUMPI PUSH1 0x40 MLOAD PUSH32 0x8C379A000000000000000000000000000000000000000000000000000000000 DUP2 MSTORE PUSH1 0x4 ADD PUSH2 0xC1A SWAP1 PUSH2 0x1CD0 JUMP JUMPDEST PUSH1 0x40 MLOAD DUP1 SWAP2 SUB SWAP1 REVERT JUMPDEST PUSH2 0xC2B PUSH2 0x1385 JUMP JUMPDEST PUSH0 PUSH1 0x1 PUSH0 DUP8 DUP2 MSTORE PUSH1 0x20 ADD SWAP1 DUP2 MSTORE PUSH1 0x20 ADD PUSH0 KECCAK256 SWAP1 POP DUP1 PUSH1 0x7 ADD PUSH0 SWAP1 SLOAD SWAP1 PUSH2 0x100 EXP SWAP1 DIV PUSH1 0xFF AND ISZERO PUSH2 0xC90 JUMPI PUSH1 0x40 MLOAD PUSH32 0x8C379A000000000000000000000000000000000000000000000000000000000 DUP2 MSTORE PUSH1 0x4 ADD PUSH2 0xC87 SWAP1 PUSH2 0x1E68 JUMP JUMPDEST PUSH1 0x40 MLOAD DUP1 SWAP2 SUB SWAP1 REVERT JUMPDEST PUSH0 DUP5 GT PUSH2 0xCD2 JUMPI PUSH1 0x40 MLOAD PUSH32 0x8C379A000000000000000000000000000000000000000000000000000000000 DUP2 MSTORE PUSH1 0x4 ADD PUSH2 0xCC9 SWAP1 PUSH2 0x1FA7 JUMP JUMPDEST PUSH1 0x40 MLOAD DUP1 SWAP2 SUB SWAP1 REVERT JUMPDEST DUP5 PUSH20 0xFFFFFFFFFFFFFFFFFFFFFFFFFFFFFFFFFFFFFFFF AND PUSH4 0x23B872DD CALLER ADDRESS DUP8 PUSH1 0x40 MLOAD DUP5 PUSH4 0xFFFFFFFF AND PUSH1 0xE0 SHL DUP2 MSTORE PUSH1 0x4 ADD PUSH2 0xD0F SWAP4 SWAP3 SWAP2 SWAP1 PUSH2 0x1FC5 JUMP JUMPDEST PUSH1 0x20 PUSH1 0x40 MLOAD DUP1 DUP4 SUB DUP2 PUSH0 DUP8 GAS CALL ISZERO DUP1 ISZERO PUSH2 0xD2B JUMPI RETURNDATASIZE PUSH0 DUP1 RETURNDATACOPY RETURNDATASIZE PUSH0 REVERT JUMPDEST POP POP POP POP PUSH1 0x40 MLOAD RETURNDATASIZE PUSH1 0x1F NOT PUSH1 0x1F DUP3 ADD AND DUP3 ADD DUP1 PUSH1 0x40 MSTORE POP DUP2 ADD SWAP1 PUSH2 0xD4F SWAP2 SWAP1 PUSH2 0x202F JUMP JUMPDEST PUSH2 0xD8E JUMPI PUSH1 0x40 MLOAD PUSH32 0x8C379A000000000000000000000000000000000000000000000000000000000 DUP2 MSTORE PUSH1 0x4 ADD PUSH2 0xD85 SWAP1 PUSH2 0x20A4 JUMP JUMPDEST PUSH1 0x40 MLOAD DUP1 SWAP2 SUB SWAP1 REVERT JUMPDEST PUSH0 DUP2 PUSH1 0x4 ADD PUSH0 DUP8 PUSH20 0xFFFFFFFFFFFFFFFFFFFFFFFFFFFFFFFFFFFFFFFF AND PUSH20 0xFFFFFFFFFFFFFFFFFFFFFFFFFFFFFFFFFFFFFFFF AND DUP2 MSTORE PUSH1 0x20 ADD SWAP1 DUP2 MSTORE PUSH1 0x20 ADD PUSH0 KECCAK256 SLOAD SUB PUSH2 0xE37 JUMPI DUP1 PUSH1 0x5 ADD DUP6 SWAP1 DUP1 PUSH1 0x1 DUP2 SLOAD ADD DUP1 DUP3 SSTORE DUP1 SWAP2 POP POP PUSH1 0x1 SWAP1 SUB SWAP1 PUSH0 MSTORE PUSH1 0x20 PUSH0 KECCAK256 ADD PUSH0 SWAP1 SWAP2 SWAP1 SWAP2 SWAP1 SWAP2 PUSH2 0x100 EXP DUP2 SLOAD DUP2 PUSH20 0xFFFFFFFFFFFFFFFFFFFFFFFFFFFFFFFFFFFFFFFF MUL NOT AND SWAP1 DUP4 PUSH20 0xFFFFFFFFFFFFFFFFFFFFFFFFFFFFFFFFFFFFFFFF AND MUL OR SWAP1 SSTORE POP JUMPDEST DUP4 DUP2 PUSH1 0x4 ADD PUSH0 DUP8 PUSH20 0xFFFFFFFFFFFFFFFFFFFFFFFFFFFFFFFFFFFFFFFF AND PUSH20 0xFFFFFFFFFFFFFFFFFFFFFFFFFFFFFFFFFFFFFFFF AND DUP2 MSTORE PUSH1 0x20 ADD SWAP1 DUP2 MSTORE PUSH1 0x20 ADD PUSH0 KECCAK256 PUSH0 DUP3 DUP3 SLOAD PUSH2 0xE85 SWAP2 SWAP1 PUSH2 0x1D83 JUMP JUMPDEST SWAP3 POP POP DUP2 SWAP1 SSTORE POP PUSH1 0x1 DUP2 PUSH1 0x7 ADD PUSH0 PUSH2 0x100 EXP DUP2 SLOAD DUP2 PUSH1 0xFF MUL NOT AND SWAP1 DUP4 ISZERO ISZERO MUL OR SWAP1 SSTORE POP TIMESTAMP DUP2 PUSH1 0x6 ADD DUP2 SWAP1 SSTORE POP CALLER PUSH20 0xFFFFFFFFFFFFFFFFFFFFFFFFFFFFFFFFFFFFFFFF AND DUP6 PUSH20 0xFFFFFFFFFFFFFFFFFFFFFFFFFFFFFFFFFFFFFFFF AND DUP8 PUSH32 0x984A71C9D95FD4794AEBA33AE72EDFEC22053FDE75488D63ABEF9DC69EE795AF DUP8 PUSH1 0x40 MLOAD PUSH2 0xF0F SWAP2 SWAP1 PUSH2 0x1AD2 JUMP JUMPDEST PUSH1 0x40 MLOAD DUP1 SWAP2 SUB SWAP1 LOG4 POP PUSH2 0xF20 PUSH2 0x1713 JUMP JUMPDEST POP POP POP POP POP JUMP JUMPDEST DUP1 PUSH0 PUSH20 0xFFFFFFFFFFFFFFFFFFFFFFFFFFFFFFFFFFFFFFFF AND PUSH1 0x1 PUSH0 DUP4 DUP2 MSTORE PUSH1 0x20 ADD SWAP1 DUP2 MSTORE PUSH1 0x20 ADD PUSH0 KECCAK256 PUSH0 ADD PUSH0 SWAP1 SLOAD SWAP1 PUSH2 0x100 EXP SWAP1 DIV PUSH20 0xFFFFFFFFFFFFFFFFFFFFFFFFFFFFFFFFFFFFFFFF AND PUSH20 0xFFFFFFFFFFFFFFFFFFFFFFFFFFFFFFFFFFFFFFFF AND SUB PUSH2 0xFC8 JUMPI PUSH1 0x40 MLOAD PUSH32 0x8C379A000000000000000000000000000000000000000000000000000000000 DUP2 MSTORE PUSH1 0x4 ADD PUSH2 0xFBF SWAP1 PUSH2 0x1C68 JUMP JUMPDEST PUSH1 0x40 MLOAD DUP1 SWAP2 SUB SWAP1 REVERT JUMPDEST DUP2 PUSH1 0x1 PUSH0 DUP3 DUP2 MSTORE PUSH1 0x20 ADD SWAP1 DUP2 MSTORE PUSH1 0x20 ADD PUSH0 KECCAK256 PUSH1 0x2 ADD PUSH0 SWAP1 SLOAD SWAP1 PUSH2 0x100 EXP SWAP1 DIV PUSH20 0xFFFFFFFFFFFFFFFFFFFFFFFFFFFFFFFFFFFFFFFF AND PUSH20 0xFFFFFFFFFFFFFFFFFFFFFFFFFFFFFFFFFFFFFFFF AND CALLER PUSH20 0xFFFFFFFFFFFFFFFFFFFFFFFFFFFFFFFFFFFFFFFF AND EQ PUSH2 0x106A JUMPI PUSH1 0x40 MLOAD PUSH32 0x8C379A000000000000000000000000000000000000000000000000000000000 DUP2 MSTORE PUSH1 0x4 ADD PUSH2 0x1061 SWAP1 PUSH2 0x210C JUMP JUMPDEST PUSH1 0x40 MLOAD DUP1 SWAP2 SUB SWAP1 REVERT JUMPDEST PUSH2 0x1072 PUSH2 0x1385 JUMP JUMPDEST PUSH0 PUSH1 0x1 PUSH0 DUP6 DUP2 MSTORE PUSH1 0x20 ADD SWAP1 DUP2 MSTORE PUSH1 0x20 ADD PUSH0 KECCAK256 SWAP1 POP DUP1 PUSH1 0x7 ADD PUSH0 SWAP1 SLOAD SWAP1 PUSH2 0x100 EXP SWAP1 DIV PUSH1 0xFF AND PUSH2 0x10D6 JUMPI PUSH1 0x40 MLOAD PUSH32 0x8C379A000000000000000000000000000000000000000000000000000000000 DUP2 MSTORE PUSH1 0x4 ADD PUSH2 0x10CD SWAP1 PUSH2 0x1D38 JUMP JUMPDEST PUSH1 0x40 MLOAD DUP1 SWAP2 SUB SWAP1 REVERT JUMPDEST PUSH3 0x15180 DUP2 PUSH1 0x6 ADD SLOAD PUSH2 0x10E9 SWAP2 SWAP1 PUSH2 0x1D83 JUMP JUMPDEST TIMESTAMP GT ISZERO PUSH2 0x112B JUMPI PUSH1 0x40 MLOAD PUSH32 0x8C379A000000000000000000000000000000000000000000000000000000000 DUP2 MSTORE PUSH1 0x4 ADD PUSH2 0x1122 SWAP1 PUSH2 0x2174 JUMP JUMPDEST PUSH1 0x40 MLOAD DUP1 SWAP2 SUB SWAP1 REVERT JUMPDEST PUSH1 0x1 DUP2 PUSH1 0x7 ADD PUSH1 0x1 PUSH2 0x100 EXP DUP2 SLOAD DUP2 PUSH1 0xFF MUL NOT AND SWAP1 DUP4 ISZERO ISZERO MUL OR SWAP1 SSTORE POP DUP4 PUSH32 0x3AD93AF63CB7967B23E4FB500B7D7D28B07516325DCF341F88BEBF959D82C1CB PUSH1 0x40 MLOAD PUSH1 0x40 MLOAD DUP1 SWAP2 SUB SWAP1 LOG2 PUSH2 0x117E DUP5 PUSH2 0x171C JUMP JUMPDEST POP PUSH2 0x1187 PUSH2 0x1713 JUMP JUMPDEST POP POP POP JUMP JUMPDEST PUSH1 0x2 SLOAD DUP2 JUMP JUMPDEST DUP1 PUSH0 PUSH20 0xFFFFFFFFFFFFFFFFFFFFFFFFFFFFFFFFFFFFFFFF AND PUSH1 0x1 PUSH0 DUP4 DUP2 MSTORE PUSH1 0x20 ADD SWAP1 DUP2 MSTORE PUSH1 0x20 ADD PUSH0 KECCAK256 PUSH0 ADD PUSH0 SWAP1 SLOAD SWAP1 PUSH2 0x100 EXP SWAP1 DIV PUSH20 0xFFFFFFFFFFFFFFFFFFFFFFFFFFFFFFFFFFFFFFFF AND PUSH20 0xFFFFFFFFFFFFFFFFFFFFFFFFFFFFFFFFFFFFFFFF AND SUB PUSH2 0x1233 JUMPI PUSH1 0x40 MLOAD PUSH32 0x8C379A000000000000000000000000000000000000000000000000000000000 DUP2 MSTORE PUSH1 0x4 ADD PUSH2 0x122A SWAP1 PUSH2 0x1C68 JUMP JUMPDEST PUSH1 0x40 MLOAD DUP1 SWAP2 SUB SWAP1 REVERT JUMPDEST DUP2 PUSH1 0x1 PUSH0 DUP3 DUP2 MSTORE PUSH1 0x20 ADD SWAP1 DUP2 MSTORE PUSH1 0x20 ADD PUSH0 KECCAK256 PUSH1 0x2 ADD PUSH0 SWAP1 SLOAD SWAP1 PUSH2 0x100 EXP SWAP1 DIV PUSH20 0xFFFFFFFFFFFFFFFFFFFFFFFFFFFFFFFFFFFFFFFF AND PUSH20 0xFFFFFFFFFFFFFFFFFFFFFFFFFFFFFFFFFFFFFFFF AND CALLER PUSH20 0xFFFFFFFFFFFFFFFFFFFFFFFFFFFFFFFFFFFFFFFF AND EQ PUSH2 0x12D5 JUMPI PUSH1 0x40 MLOAD PUSH32 0x8C379A000000000000000000000000000000000000000000000000000000000 DUP2 MSTORE PUSH1 0x4 ADD PUSH2 0x12CC SWAP1 PUSH2 0x210C JUMP JUMPDEST PUSH1 0x40 MLOAD DUP1 SWAP2 SUB SWAP1 REVERT JUMPDEST PUSH2 0x12DD PUSH2 0x1385 JUMP JUMPDEST PUSH0 PUSH1 0x1 PUSH0 DUP6 DUP2 MSTORE PUSH1 0x20 ADD SWAP1 DUP2 MSTORE PUSH1 0x20 ADD PUSH0 KECCAK256 SWAP1 POP DUP1 PUSH1 0x7 ADD PUSH0 SWAP1 SLOAD SWAP1 PUSH2 0x100 EXP SWAP1 DIV PUSH1 0xFF AND PUSH2 0x1341 JUMPI PUSH1 0x40 MLOAD PUSH32 0x8C379A000000000000000000000000000000000000000000000000000000000 DUP2 MSTORE PUSH1 0x4 ADD PUSH2 0x1338 SWAP1 PUSH2 0x1D38 JUMP JUMPDEST PUSH1 0x40 MLOAD DUP1 SWAP2 SUB SWAP1 REVERT JUMPDEST DUP4 PUSH32 0x94064F919A02D0565C6790E0615FB4BA6CF1BE1DD679F0161BE914613A1B9BB5 PUSH1 0x40 MLOAD PUSH1 0x40 MLOAD DUP1 SWAP2 SUB SWAP1 LOG2 PUSH2 0x1377 DUP5 PUSH2 0x13D2 JUMP JUMPDEST POP PUSH2 0x1380 PUSH2 0x1713 JUMP JUMPDEST POP POP POP JUMP JUMPDEST PUSH1 0x2 PUSH0 SLOAD SUB PUSH2 0x13C9 JUMPI PUSH1 0x40 MLOAD PUSH32 0x8C379A000000000000000000000000000000000000000000000000000000000 DUP2 MSTORE PUSH1 0x4 ADD PUSH2 0x13C0 SWAP1 PUSH2 0x21DC JUMP JUMPDEST PUSH1 0x40 MLOAD DUP1 SWAP2 SUB SWAP1 REVERT JUMPDEST PUSH1 0x2 PUSH0 DUP2 SWAP1 SSTORE POP JUMP JUMPDEST PUSH0 PUSH1 0x1 PUSH0 DUP4 DUP2 MSTORE PUSH1 0x20 ADD SWAP1 DUP2 MSTORE PUSH1 0x20 ADD PUSH0 KECCAK256 SWAP1 POP PUSH0 DUP2 PUSH1 0x3 ADD SLOAD GT ISZERO PUSH2 0x14DC JUMPI PUSH0 DUP2 PUSH1 0x3 ADD SLOAD SWAP1 POP PUSH0 DUP3 PUSH1 0x3 ADD DUP2 SWAP1 SSTORE POP DUP2 PUSH0 ADD PUSH0 SWAP1 SLOAD SWAP1 PUSH2 0x100 EXP SWAP1 DIV PUSH20 0xFFFFFFFFFFFFFFFFFFFFFFFFFFFFFFFFFFFFFFFF AND PUSH20 0xFFFFFFFFFFFFFFFFFFFFFFFFFFFFFFFFFFFFFFFF AND PUSH2 0x8FC DUP3 SWAP1 DUP2 ISZERO MUL SWAP1 PUSH1 0x40 MLOAD PUSH0 PUSH1 0x40 MLOAD DUP1 DUP4 SUB DUP2 DUP6 DUP9 DUP9 CALL SWAP4 POP POP POP POP ISZERO DUP1 ISZERO PUSH2 0x1468 JUMPI RETURNDATASIZE PUSH0 DUP1 RETURNDATACOPY RETURNDATASIZE PUSH0 REVERT JUMPDEST POP DUP2 PUSH0 ADD PUSH0 SWAP1 SLOAD SWAP1 PUSH2 0x100 EXP SWAP1 DIV PUSH20 0xFFFFFFFFFFFFFFFFFFFFFFFFFFFFFFFFFFFFFFFF AND PUSH20 0xFFFFFFFFFFFFFFFFFFFFFFFFFFFFFFFFFFFFFFFF AND DUP4 PUSH32 0xE90AE330E5AEFC2A73DDFF0DD88BCAF8F4A0629D6553A2A85B22CAC3D5F4A19E DUP4 PUSH1 0x40 MLOAD PUSH2 0x14D2 SWAP2 SWAP1 PUSH2 0x1AD2 JUMP JUMPDEST PUSH1 0x40 MLOAD DUP1 SWAP2 SUB SWAP1 LOG3 POP JUMPDEST PUSH0 JUMPDEST DUP2 PUSH1 0x5 ADD DUP1 SLOAD SWAP1 POP DUP2 LT ISZERO PUSH2 0x16F3 JUMPI PUSH0 DUP3 PUSH1 0x5 ADD DUP3 DUP2 SLOAD DUP2 LT PUSH2 0x1504 JUMPI PUSH2 0x1503 PUSH2 0x21FA JUMP JUMPDEST JUMPDEST SWAP1 PUSH0 MSTORE PUSH1 0x20 PUSH0 KECCAK256 ADD PUSH0 SWAP1 SLOAD SWAP1 PUSH2 0x100 EXP SWAP1 DIV PUSH20 0xFFFFFFFFFFFFFFFFFFFFFFFFFFFFFFFFFFFFFFFF AND SWAP1 POP PUSH0 DUP4 PUSH1 0x4 ADD PUSH0 DUP4 PUSH20 0xFFFFFFFFFFFFFFFFFFFFFFFFFFFFFFFFFFFFFFFF AND PUSH20 0xFFFFFFFFFFFFFFFFFFFFFFFFFFFFFFFFFFFFFFFF AND DUP2 MSTORE PUSH1 0x20 ADD SWAP1 DUP2 MSTORE PUSH1 0x20 ADD PUSH0 KECCAK256 SLOAD SWAP1 POP PUSH0 DUP2 GT ISZERO PUSH2 0x16E4 JUMPI PUSH0 DUP5 PUSH1 0x4 ADD PUSH0 DUP5 PUSH20 0xFFFFFFFFFFFFFFFFFFFFFFFFFFFFFFFFFFFFFFFF AND PUSH20 0xFFFFFFFFFFFFFFFFFFFFFFFFFFFFFFFFFFFFFFFF AND DUP2 MSTORE PUSH1 0x20 ADD SWAP1 DUP2 MSTORE PUSH1 0x20 ADD PUSH0 KECCAK256 DUP2 SWAP1 SSTORE POP DUP2 PUSH20 0xFFFFFFFFFFFFFFFFFFFFFFFFFFFFFFFFFFFFFFFF AND PUSH4 0xA9059CBB DUP6 PUSH0 ADD PUSH0 SWAP1 SLOAD SWAP1 PUSH2 0x100 EXP SWAP1 DIV PUSH20 0xFFFFFFFFFFFFFFFFFFFFFFFFFFFFFFFFFFFFFFFF AND DUP4 PUSH1 0x40 MLOAD DUP4 PUSH4 0xFFFFFFFF AND PUSH1 0xE0 SHL DUP2 MSTORE PUSH1 0x4 ADD PUSH2 0x161A SWAP3 SWAP2 SWAP1 PUSH2 0x2227 JUMP JUMPDEST PUSH1 0x20 PUSH1 0x40 MLOAD DUP1 DUP4 SUB DUP2 PUSH0 DUP8 GAS CALL ISZERO DUP1 ISZERO PUSH2 0x1636 JUMPI RETURNDATASIZE PUSH0 DUP1 RETURNDATACOPY RETURNDATASIZE PUSH0 REVERT JUMPDEST POP POP POP POP PUSH1 0x40 MLOAD RETURNDATASIZE PUSH1 0x1F NOT PUSH1 0x1F DUP3 ADD AND DUP3 ADD DUP1 PUSH1 0x40 MSTORE POP DUP2 ADD SWAP1 PUSH2 0x165A SWAP2 SWAP1 PUSH2 0x202F JUMP JUMPDEST POP DUP4 PUSH0 ADD PUSH0 SWAP1 SLOAD SWAP1 PUSH2 0x100 EXP SWAP1 DIV PUSH20 0xFFFFFFFFFFFFFFFFFFFFFFFFFFFFFFFFFFFFFFFF AND PUSH20 0xFFFFFFFFFFFFFFFFFFFFFFFFFFFFFFFFFFFFFFFF AND DUP3 PUSH20 0xFFFFFFFFFFFFFFFFFFFFFFFFFFFFFFFFFFFFFFFF AND DUP7 PUSH32 0x69D21B294C0B932DB9BB0DC81144C65AC23A4C078F00589443BB03BAA63E3C96 DUP5 PUSH1 0x40 MLOAD PUSH2 0x16DB SWAP2 SWAP1 PUSH2 0x1AD2 JUMP JUMPDEST PUSH1 0x40 MLOAD DUP1 SWAP2 SUB SWAP1 LOG4 JUMPDEST POP POP DUP1 DUP1 PUSH1 0x1 ADD SWAP2 POP POP PUSH2 0x14DE JUMP JUMPDEST POP PUSH0 DUP2 PUSH1 0x7 ADD PUSH0 PUSH2 0x100 EXP DUP2 SLOAD DUP2 PUSH1 0xFF MUL NOT AND SWAP1 DUP4 ISZERO ISZERO MUL OR SWAP1 SSTORE POP POP POP JUMP JUMPDEST PUSH1 0x1 PUSH0 DUP2 SWAP1 SSTORE POP JUMP JUMPDEST PUSH0 PUSH1 0x1 PUSH0 DUP4 DUP2 MSTORE PUSH1 0x20 ADD SWAP1 DUP2 MSTORE PUSH1 0x20 ADD PUSH0 KECCAK256 SWAP1 POP PUSH0 DUP2 PUSH1 0x3 ADD SLOAD GT ISZERO PUSH2 0x1828 JUMPI PUSH0 DUP2 PUSH1 0x3 ADD SLOAD SWAP1 POP PUSH0 DUP3 PUSH1 0x3 ADD DUP2 SWAP1 SSTORE POP DUP2 PUSH1 0x1 ADD PUSH0 SWAP1 SLOAD SWAP1 PUSH2 0x100 EXP SWAP1 DIV PUSH20 0xFFFFFFFFFFFFFFFFFFFFFFFFFFFFFFFFFFFFFFFF AND PUSH20 0xFFFFFFFFFFFFFFFFFFFFFFFFFFFFFFFFFFFFFFFF AND PUSH2 0x8FC DUP3 SWAP1 DUP2 ISZERO MUL SWAP1 PUSH1 0x40 MLOAD PUSH0 PUSH1 0x40 MLOAD DUP1 DUP4 SUB DUP2 DUP6 DUP9 DUP9 CALL SWAP4 POP POP POP POP ISZERO DUP1 ISZERO PUSH2 0x17B3 JUMPI RETURNDATASIZE PUSH0 DUP1 RETURNDATACOPY RETURNDATASIZE PUSH0 REVERT JUMPDEST POP DUP2 PUSH1 0x1 ADD PUSH0 SWAP1 SLOAD SWAP1 PUSH2 0x100 EXP SWAP1 DIV PUSH20 0xFFFFFFFFFFFFFFFFFFFFFFFFFFFFFFFFFFFFFFFF AND PUSH20 0xFFFFFFFFFFFFFFFFFFFFFFFFFFFFFFFFFFFFFFFF AND DUP4 PUSH32 0xE90AE330E5AEFC2A73DDFF0DD88BCAF8F4A0629D6553A2A85B22CAC3D5F4A19E DUP4 PUSH1 0x40 MLOAD PUSH2 0x181E SWAP2 SWAP1 PUSH2 0x1AD2 JUMP JUMPDEST PUSH1 0x40 MLOAD DUP1 SWAP2 SUB SWAP1 LOG3 POP JUMPDEST PUSH0 JUMPDEST DUP2 PUSH1 0x5 ADD DUP1 SLOAD SWAP1 POP DUP2 LT ISZERO PUSH2 0x1A41 JUMPI PUSH0 DUP3 PUSH1 0x5 ADD DUP3 DUP2 SLOAD DUP2 LT PUSH2 0x1850 JUMPI PUSH2 0x184F PUSH2 0x21FA JUMP JUMPDEST JUMPDEST SWAP1 PUSH0 MSTORE PUSH1 0x20 PUSH0 KECCAK256 ADD PUSH0 SWAP1 SLOAD SWAP1 PUSH2 0x100 EXP SWAP1 DIV PUSH20 0xFFFFFFFFFFFFFFFFFFFFFFFFFFFFFFFFFFFFFFFF AND SWAP1 POP PUSH0 DUP4 PUSH1 0x4 ADD PUSH0 DUP4 PUSH20 0xFFFFFFFFFFFFFFFFFFFFFFFFFFFFFFFFFFFFFFFF AND PUSH20 0xFFFFFFFFFFFFFFFFFFFFFFFFFFFFFFFFFFFFFFFF AND DUP2 MSTORE PUSH1 0x20 ADD SWAP1 DUP2 MSTORE PUSH1 0x20 ADD PUSH0 KECCAK256 SLOAD SWAP1 POP PUSH0 DUP2 GT ISZERO PUSH2 0x1A32 JUMPI PUSH0 DUP5 PUSH1 0x4 ADD PUSH0 DUP5 PUSH20 0xFFFFFFFFFFFFFFFFFFFFFFFFFFFFFFFFFFFFFFFF AND PUSH20 0xFFFFFFFFFFFFFFFFFFFFFFFFFFFFFFFFFFFFFFFF AND DUP2 MSTORE PUSH1 0x20 ADD SWAP1 DUP2 MSTORE PUSH1 0x20 ADD PUSH0 KECCAK256 DUP2 SWAP1 SSTORE POP DUP2 PUSH20 0xFFFFFFFFFFFFFFFFFFFFFFFFFFFFFFFFFFFFFFFF AND PUSH4 0xA9059CBB DUP6 PUSH1 0x1 ADD PUSH0 SWAP1 SLOAD SWAP1 PUSH2 0x100 EXP SWAP1 DIV PUSH20 0xFFFFFFFFFFFFFFFFFFFFFFFFFFFFFFFFFFFFFFFF AND DUP4 PUSH1 0x40 MLOAD DUP4 PUSH4 0xFFFFFFFF AND PUSH1 0xE0 SHL DUP2 MSTORE PUSH1 0x4 ADD PUSH2 0x1967 SWAP3 SWAP2 SWAP1 PUSH2 0x2227 JUMP JUMPDEST PUSH1 0x20 PUSH1 0x40 MLOAD DUP1 DUP4 SUB DUP2 PUSH0 DUP8 GAS CALL ISZERO DUP1 ISZERO PUSH2 0x1983 JUMPI RETURNDATASIZE PUSH0 DUP1 RETURNDATACOPY RETURNDATASIZE PUSH0 REVERT JUMPDEST POP POP POP POP PUSH1 0x40 MLOAD RETURNDATASIZE PUSH1 0x1F NOT PUSH1 0x1F DUP3 ADD AND DUP3 ADD DUP1 PUSH1 0x40 MSTORE POP DUP2 ADD SWAP1 PUSH2 0x19A7 SWAP2 SWAP1 PUSH2 0x202F JUMP JUMPDEST POP DUP4 PUSH1 0x1 ADD PUSH0 SWAP1 SLOAD SWAP1 PUSH2 0x100 EXP SWAP1 DIV PUSH20 0xFFFFFFFFFFFFFFFFFFFFFFFFFFFFFFFFFFFFFFFF AND PUSH20 0xFFFFFFFFFFFFFFFFFFFFFFFFFFFFFFFFFFFFFFFF AND DUP3 PUSH20 0xFFFFFFFFFFFFFFFFFFFFFFFFFFFFFFFFFFFFFFFF AND DUP7 PUSH32 0x69D21B294C0B932DB9BB0DC81144C65AC23A4C078F00589443BB03BAA63E3C96 DUP5 PUSH1 0x40 MLOAD PUSH2 0x1A29 SWAP2 SWAP1 PUSH2 0x1AD2 JUMP JUMPDEST PUSH1 0x40 MLOAD DUP1 SWAP2 SUB SWAP1 LOG4 JUMPDEST POP POP DUP1 DUP1 PUSH1 0x1 ADD SWAP2 POP POP PUSH2 0x182A JUMP JUMPDEST POP PUSH0 DUP2 PUSH1 0x7 ADD PUSH0 PUSH2 0x100 EXP DUP2 SLOAD DUP2 PUSH1 0xFF MUL NOT AND SWAP1 DUP4 ISZERO ISZERO MUL OR SWAP1 SSTORE POP POP POP JUMP JUMPDEST PUSH0 DUP1 REVERT JUMPDEST PUSH0 DUP2 SWAP1 POP SWAP2 SWAP1 POP JUMP JUMPDEST PUSH2 0x1A77 DUP2 PUSH2 0x1A65 JUMP JUMPDEST DUP2 EQ PUSH2 0x1A81 JUMPI PUSH0 DUP1 REVERT JUMPDEST POP JUMP JUMPDEST PUSH0 DUP2 CALLDATALOAD SWAP1 POP PUSH2 0x1A92 DUP2 PUSH2 0x1A6E JUMP JUMPDEST SWAP3 SWAP2 POP POP JUMP JUMPDEST PUSH0 PUSH1 0x20 DUP3 DUP5 SUB SLT ISZERO PUSH2 0x1AAD JUMPI PUSH2 0x1AAC PUSH2 0x1A61 JUMP JUMPDEST JUMPDEST PUSH0 PUSH2 0x1ABA DUP5 DUP3 DUP6 ADD PUSH2 0x1A84 JUMP JUMPDEST SWAP2 POP POP SWAP3 SWAP2 POP POP JUMP JUMPDEST PUSH2 0x1ACC DUP2 PUSH2 0x1A65 JUMP JUMPDEST DUP3 MSTORE POP POP JUMP JUMPDEST PUSH0 PUSH1 0x20 DUP3 ADD SWAP1 POP PUSH2 0x1AE5 PUSH0 DUP4 ADD DUP5 PUSH2 0x1AC3 JUMP JUMPDEST SWAP3 SWAP2 POP POP JUMP JUMPDEST PUSH0 PUSH20 0xFFFFFFFFFFFFFFFFFFFFFFFFFFFFFFFFFFFFFFFF DUP3 AND SWAP1 POP SWAP2 SWAP1 POP JUMP JUMPDEST PUSH0 PUSH2 0x1B14 DUP3 PUSH2 0x1AEB JUMP JUMPDEST SWAP1 POP SWAP2 SWAP1 POP JUMP JUMPDEST PUSH2 0x1B24 DUP2 PUSH2 0x1B0A JUMP JUMPDEST DUP2 EQ PUSH2 0x1B2E JUMPI PUSH0 DUP1 REVERT JUMPDEST POP JUMP JUMPDEST PUSH0 DUP2 CALLDATALOAD SWAP1 POP PUSH2 0x1B3F DUP2 PUSH2 0x1B1B JUMP JUMPDEST SWAP3 SWAP2 POP POP JUMP JUMPDEST PUSH0 DUP1 PUSH1 0x40 DUP4 DUP6 SUB SLT ISZERO PUSH2 0x1B5B JUMPI PUSH2 0x1B5A PUSH2 0x1A61 JUMP JUMPDEST JUMPDEST PUSH0 PUSH2 0x1B68 DUP6 DUP3 DUP7 ADD PUSH2 0x1B31 JUMP JUMPDEST SWAP3 POP POP PUSH1 0x20 PUSH2 0x1B79 DUP6 DUP3 DUP7 ADD PUSH2 0x1B31 JUMP JUMPDEST SWAP2 POP POP SWAP3 POP SWAP3 SWAP1 POP JUMP JUMPDEST PUSH0 PUSH2 0x1B8D DUP3 PUSH2 0x1B0A JUMP JUMPDEST SWAP1 POP SWAP2 SWAP1 POP JUMP JUMPDEST PUSH2 0x1B9D DUP2 PUSH2 0x1B83 JUMP JUMPDEST DUP2 EQ PUSH2 0x1BA7 JUMPI PUSH0 DUP1 REVERT JUMPDEST POP JUMP JUMPDEST PUSH0 DUP2 CALLDATALOAD SWAP1 POP PUSH2 0x1BB8 DUP2 PUSH2 0x1B94 JUMP JUMPDEST SWAP3 SWAP2 POP POP JUMP JUMPDEST PUSH0 DUP1 PUSH0 PUSH1 0x60 DUP5 DUP7 SUB SLT ISZERO PUSH2 0x1BD5 JUMPI PUSH2 0x1BD4 PUSH2 0x1A61 JUMP JUMPDEST JUMPDEST PUSH0 PUSH2 0x1BE2 DUP7 DUP3 DUP8 ADD PUSH2 0x1A84 JUMP JUMPDEST SWAP4 POP POP PUSH1 0x20 PUSH2 0x1BF3 DUP7 DUP3 DUP8 ADD PUSH2 0x1BAA JUMP JUMPDEST SWAP3 POP POP PUSH1 0x40 PUSH2 0x1C04 DUP7 DUP3 DUP8 ADD PUSH2 0x1A84 JUMP JUMPDEST SWAP2 POP POP SWAP3 POP SWAP3 POP SWAP3 JUMP JUMPDEST PUSH0 DUP3 DUP3 MSTORE PUSH1 0x20 DUP3 ADD SWAP1 POP SWAP3 SWAP2 POP POP JUMP JUMPDEST PUSH32 0x5472616E73616374696F6E20646F6573206E6F74206578697374000000000000 PUSH0 DUP3 ADD MSTORE POP JUMP JUMPDEST PUSH0 PUSH2 0x1C52 PUSH1 0x1A DUP4 PUSH2 0x1C0E JUMP JUMPDEST SWAP2 POP PUSH2 0x1C5D DUP3 PUSH2 0x1C1E JUMP JUMPDEST PUSH1 0x20 DUP3 ADD SWAP1 POP SWAP2 SWAP1 POP JUMP JUMPDEST PUSH0 PUSH1 0x20 DUP3 ADD SWAP1 POP DUP2 DUP2 SUB PUSH0 DUP4 ADD MSTORE PUSH2 0x1C7F DUP2 PUSH2 0x1C46 JUMP JUMPDEST SWAP1 POP SWAP2 SWAP1 POP JUMP JUMPDEST PUSH32 0x4E6F742074686520627579657200000000000000000000000000000000000000 PUSH0 DUP3 ADD MSTORE POP JUMP JUMPDEST PUSH0 PUSH2 0x1CBA PUSH1 0xD DUP4 PUSH2 0x1C0E JUMP JUMPDEST SWAP2 POP PUSH2 0x1CC5 DUP3 PUSH2 0x1C86 JUMP JUMPDEST PUSH1 0x20 DUP3 ADD SWAP1 POP SWAP2 SWAP1 POP JUMP JUMPDEST PUSH0 PUSH1 0x20 DUP3 ADD SWAP1 POP DUP2 DUP2 SUB PUSH0 DUP4 ADD MSTORE PUSH2 0x1CE7 DUP2 PUSH2 0x1CAE JUMP JUMPDEST SWAP1 POP SWAP2 SWAP1 POP JUMP JUMPDEST PUSH32 0x4E6F2066756E6473206465706F73697465640000000000000000000000000000 PUSH0 DUP3 ADD MSTORE POP JUMP JUMPDEST PUSH0 PUSH2 0x1D22 PUSH1 0x12 DUP4 PUSH2 0x1C0E JUMP JUMPDEST SWAP2 POP PUSH2 0x1D2D DUP3 PUSH2 0x1CEE JUMP JUMPDEST PUSH1 0x20 DUP3 ADD SWAP1 POP SWAP2 SWAP1 POP JUMP JUMPDEST PUSH0 PUSH1 0x20 DUP3 ADD SWAP1 POP DUP2 DUP2 SUB PUSH0 DUP4 ADD MSTORE PUSH2 0x1D4F DUP2 PUSH2 0x1D16 JUMP JUMPDEST SWAP1 POP SWAP2 SWAP1 POP JUMP JUMPDEST PUSH32 0x4E487B7100000000000000000000000000000000000000000000000000000000 PUSH0 MSTORE PUSH1 0x11 PUSH1 0x4 MSTORE PUSH1 0x24 PUSH0 REVERT JUMPDEST PUSH0 PUSH2 0x1D8D DUP3 PUSH2 0x1A65 JUMP JUMPDEST SWAP2 POP PUSH2 0x1D98 DUP4 PUSH2 0x1A65 JUMP JUMPDEST SWAP3 POP DUP3 DUP3 ADD SWAP1 POP DUP1 DUP3 GT ISZERO PUSH2 0x1DB0 JUMPI PUSH2 0x1DAF PUSH2 0x1D56 JUMP JUMPDEST JUMPDEST SWAP3 SWAP2 POP POP JUMP JUMPDEST PUSH32 0x417070726F76616C2077696E646F77207374696C6C206F70656E000000000000 PUSH0 DUP3 ADD MSTORE POP JUMP JUMPDEST PUSH0 PUSH2 0x1DEA PUSH1 0x1A DUP4 PUSH2 0x1C0E JUMP JUMPDEST SWAP2 POP PUSH2 0x1DF5 DUP3 PUSH2 0x1DB6 JUMP JUMPDEST PUSH1 0x20 DUP3 ADD SWAP1 POP SWAP2 SWAP1 POP JUMP JUMPDEST PUSH0 PUSH1 0x20 DUP3 ADD SWAP1 POP DUP2 DUP2 SUB PUSH0 DUP4 ADD MSTORE PUSH2 0x1E17 DUP2 PUSH2 0x1DDE JUMP JUMPDEST SWAP1 POP SWAP2 SWAP1 POP JUMP JUMPDEST PUSH32 0x5661756C74206973206C6F636B65640000000000000000000000000000000000 PUSH0 DUP3 ADD MSTORE POP JUMP JUMPDEST PUSH0 PUSH2 0x1E52 PUSH1 0xF DUP4 PUSH2 0x1C0E JUMP JUMPDEST SWAP2 POP PUSH2 0x1E5D DUP3 PUSH2 0x1E1E JUMP JUMPDEST PUSH1 0x20 DUP3 ADD SWAP1 POP SWAP2 SWAP1 POP JUMP JUMPDEST PUSH0 PUSH1 0x20 DUP3 ADD SWAP1 POP DUP2 DUP2 SUB PUSH0 DUP4 ADD MSTORE PUSH2 0x1E7F DUP2 PUSH2 0x1E46 JUMP JUMPDEST SWAP1 POP SWAP2 SWAP1 POP JUMP JUMPDEST PUSH32 0x4E6F204554482073656E74000000000000000000000000000000000000000000 PUSH0 DUP3 ADD MSTORE POP JUMP JUMPDEST PUSH0 PUSH2 0x1EBA PUSH1 0xB DUP4 PUSH2 0x1C0E JUMP JUMPDEST SWAP2 POP PUSH2 0x1EC5 DUP3 PUSH2 0x1E86 JUMP JUMPDEST PUSH1 0x20 DUP3 ADD SWAP1 POP SWAP2 SWAP1 POP JUMP JUMPDEST PUSH0 PUSH1 0x20 DUP3 ADD SWAP1 POP DUP2 DUP2 SUB PUSH0 DUP4 ADD MSTORE PUSH2 0x1EE7 DUP2 PUSH2 0x1EAE JUMP JUMPDEST SWAP1 POP SWAP2 SWAP1 POP JUMP JUMPDEST PUSH0 PUSH2 0x1EF8 DUP3 PUSH2 0x1A65 JUMP JUMPDEST SWAP2 POP PUSH32 0xFFFFFFFFFFFFFFFFFFFFFFFFFFFFFFFFFFFFFFFFFFFFFFFFFFFFFFFFFFFFFFFF DUP3 SUB PUSH2 0x1F2A JUMPI PUSH2 0x1F29 PUSH2 0x1D56 JUMP JUMPDEST JUMPDEST PUSH1 0x1 DUP3 ADD SWAP1 POP SWAP2 SWAP1 POP JUMP JUMPDEST PUSH2 0x1F3E DUP2 PUSH2 0x1B0A JUMP JUMPDEST DUP3 MSTORE POP POP JUMP JUMPDEST PUSH0 PUSH1 0x20 DUP3 ADD SWAP1 POP PUSH2 0x1F57 PUSH0 DUP4 ADD DUP5 PUSH2 0x1F35 JUMP JUMPDEST SWAP3 SWAP2 POP POP JUMP JUMPDEST PUSH32 0x4E6F20746F6B656E732073656E74000000000000000000000000000000000000 PUSH0 DUP3 ADD MSTORE POP JUMP JUMPDEST PUSH0 PUSH2 0x1F91 PUSH1 0xE DUP4 PUSH2 0x1C0E JUMP JUMPDEST SWAP2 POP PUSH2 0x1F9C DUP3 PUSH2 0x1F5D JUMP JUMPDEST PUSH1 0x20 DUP3 ADD SWAP1 POP SWAP2 SWAP1 POP JUMP JUMPDEST PUSH0 PUSH1 0x20 DUP3 ADD SWAP1 POP DUP2 DUP2 SUB PUSH0 DUP4 ADD MSTORE PUSH2 0x1FBE DUP2 PUSH2 0x1F85 JUMP JUMPDEST SWAP1 POP SWAP2 SWAP1 POP JUMP JUMPDEST PUSH0 PUSH1 0x60 DUP3 ADD SWAP1 POP PUSH2 0x1FD8 PUSH0 DUP4 ADD DUP7 PUSH2 0x1F35 JUMP JUMPDEST PUSH2 0x1FE5 PUSH1 0x20 DUP4 ADD DUP6 PUSH2 0x1F35 JUMP JUMPDEST PUSH2 0x1FF2 PUSH1 0x40 DUP4 ADD DUP5 PUSH2 0x1AC3 JUMP JUMPDEST SWAP5 SWAP4 POP POP POP POP JUMP JUMPDEST PUSH0 DUP2 ISZERO ISZERO SWAP1 POP SWAP2 SWAP1 POP JUMP JUMPDEST PUSH2 0x200E DUP2 PUSH2 0x1FFA JUMP JUMPDEST DUP2 EQ PUSH2 0x2018 JUMPI PUSH0 DUP1 REVERT JUMPDEST POP JUMP JUMPDEST PUSH0 DUP2 MLOAD SWAP1 POP PUSH2 0x2029 DUP2 PUSH2 0x2005 JUMP JUMPDEST SWAP3 SWAP2 POP POP JUMP JUMPDEST PUSH0 PUSH1 0x20 DUP3 DUP5 SUB SLT ISZERO PUSH2 0x2044 JUMPI PUSH2 0x2043 PUSH2 0x1A61 JUMP JUMPDEST JUMPDEST PUSH0 PUSH2 0x2051 DUP5 DUP3 DUP6 ADD PUSH2 0x201B JUMP JUMPDEST SWAP2 POP POP SWAP3 SWAP2 POP POP JUMP JUMPDEST PUSH32 0x546F6B656E207472616E73666572206661696C65640000000000000000000000 PUSH0 DUP3 ADD MSTORE POP JUMP JUMPDEST PUSH0 PUSH2 0x208E PUSH1 0x15 DUP4 PUSH2 0x1C0E JUMP JUMPDEST SWAP2 POP PUSH2 0x2099 DUP3 PUSH2 0x205A JUMP JUMPDEST PUSH1 0x20 DUP3 ADD SWAP1 POP SWAP2 SWAP1 POP JUMP JUMPDEST PUSH0 PUSH1 0x20 DUP3 ADD SWAP1 POP DUP2 DUP2 SUB PUSH0 DUP4 ADD MSTORE PUSH2 0x20BB DUP2 PUSH2 0x2082 JUMP JUMPDEST SWAP1 POP SWAP2 SWAP1 POP JUMP JUMPDEST PUSH32 0x4E6F742074686520617070726F76657200000000000000000000000000000000 PUSH0 DUP3 ADD MSTORE POP JUMP JUMPDEST PUSH0 PUSH2 0x20F6 PUSH1 0x10 DUP4 PUSH2 0x1C0E JUMP JUMPDEST SWAP2 POP PUSH2 0x2101 DUP3 PUSH2 0x20C2 JUMP JUMPDEST PUSH1 0x20 DUP3 ADD SWAP1 POP SWAP2 SWAP1 POP JUMP JUMPDEST PUSH0 PUSH1 0x20 DUP3 ADD SWAP1 POP DUP2 DUP2 SUB PUSH0 DUP4 ADD MSTORE PUSH2 0x2123 DUP2 PUSH2 0x20EA JUMP JUMPDEST SWAP1 POP SWAP2 SWAP1 POP JUMP JUMPDEST PUSH32 0x4465616C20657870697265640000000000000000000000000000000000000000 PUSH0 DUP3 ADD MSTORE POP JUMP JUMPDEST PUSH0 PUSH2 0x215E PUSH1 0xC DUP4 PUSH2 0x1C0E JUMP JUMPDEST SWAP2 POP PUSH2 0x2169 DUP3 PUSH2 0x212A JUMP JUMPDEST PUSH1 0x20 DUP3 ADD SWAP1 POP SWAP2 SWAP1 POP JUMP JUMPDEST PUSH0 PUSH1 0x20 DUP3 ADD SWAP1 POP DUP2 DUP2 SUB PUSH0 DUP4 ADD MSTORE PUSH2 0x218B DUP2 PUSH2 0x2152 JUMP JUMPDEST SWAP1 POP SWAP2 SWAP1 POP JUMP JUMPDEST PUSH32 0x5265656E7472616E637947756172643A207265656E7472616E742063616C6C00 PUSH0 DUP3 ADD MSTORE POP JUMP JUMPDEST PUSH0 PUSH2 0x21C6 PUSH1 0x1F DUP4 PUSH2 0x1C0E JUMP JUMPDEST SWAP2 POP PUSH2 0x21D1 DUP3 PUSH2 0x2192 JUMP JUMPDEST PUSH1 0x20 DUP3 ADD SWAP1 POP SWAP2 SWAP1 POP JUMP JUMPDEST PUSH0 PUSH1 0x20 DUP3 ADD SWAP1 POP DUP2 DUP2 SUB PUSH0 DUP4 ADD MSTORE PUSH2 0x21F3 DUP2 PUSH2 0x21BA JUMP JUMPDEST SWAP1 POP SWAP2 SWAP1 POP JUMP JUMPDEST PUSH32 0x4E487B7100000000000000000000000000000000000000000000000000000000 PUSH0 MSTORE PUSH1 0x32 PUSH1 0x4 MSTORE PUSH1 0x24 PUSH0 REVERT JUMPDEST PUSH0 PUSH1 0x40 DUP3 ADD SWAP1 POP PUSH2 0x223A PUSH0 DUP4 ADD DUP6 PUSH2 0x1F35 JUMP JUMPDEST PUSH2 0x2247 PUSH1 0x20 DUP4 ADD DUP5 PUSH2 0x1AC3 JUMP JUMPDEST SWAP4 SWAP3 POP POP POP JUMP INVALID LOG2 PUSH5 0x6970667358 0x22 SLT KECCAK256 0xD0 0x23 ISZERO PUSH28 0x6AFB112791D701DC18F735501A861F3C9D50826984126AB243036313 PUSH5 0x736F6C6343 STOP ADDMOD BYTE STOP CALLER "
				},
				"gasEstimates": {
					"creation": {
						"codeDepositCost": "1767200",
						"executionCost": "23973",
						"totalCost": "1791173"
					},
					"external": {
						"EXPIRY_DURATION()": "348",
						"approve(uint256)": "infinite",
						"cancel(uint256)": "infinite",
						"claimAfterExpiry(uint256)": "infinite",
						"createTransaction(address,address)": "infinite",
						"depositERC20(uint256,address,uint256)": "infinite",
						"depositETH(uint256)": "infinite",
						"reject(uint256)": "infinite",
						"transactionCount()": "2491"
					},
					"internal": {
						"returnFunds(uint256)": "infinite",
						"transferFunds(uint256)": "infinite"
					}
				},
				"methodIdentifiers": {
					"EXPIRY_DURATION()": "3d3eeac9",
					"approve(uint256)": "b759f954",
					"cancel(uint256)": "40e58ee5",
					"claimAfterExpiry(uint256)": "32a5433b",
					"createTransaction(address,address)": "662a2c25",
					"depositERC20(uint256,address,uint256)": "b0facab3",
					"depositETH(uint256)": "5358fbda",
					"reject(uint256)": "b8adaa11",
					"transactionCount()": "b77bf600"
				}
			},
			"storageLayout": {
				"storage": [
					{
						"astId": 10,
						"contract": "contracts/ManageVault.sol:Vault",
						"label": "_status",
						"offset": 0,
						"slot": "0",
						"type": "t_uint256"
					},
					{
						"astId": 175,
						"contract": "contracts/ManageVault.sol:Vault",
						"label": "transactions",
						"offset": 0,
						"slot": "1",
						"type": "t_mapping(t_uint256,t_struct(Transaction)170_storage)"
					},
					{
						"astId": 177,
						"contract": "contracts/ManageVault.sol:Vault",
						"label": "transactionCount",
						"offset": 0,
						"slot": "2",
						"type": "t_uint256"
					}
				],
				"types": {
					"t_address": {
						"encoding": "inplace",
						"label": "address",
						"numberOfBytes": "20"
					},
					"t_array(t_address)dyn_storage": {
						"base": "t_address",
						"encoding": "dynamic_array",
						"label": "address[]",
						"numberOfBytes": "32"
					},
					"t_bool": {
						"encoding": "inplace",
						"label": "bool",
						"numberOfBytes": "1"
					},
					"t_mapping(t_address,t_uint256)": {
						"encoding": "mapping",
						"key": "t_address",
						"label": "mapping(address => uint256)",
						"numberOfBytes": "32",
						"value": "t_uint256"
					},
					"t_mapping(t_uint256,t_struct(Transaction)170_storage)": {
						"encoding": "mapping",
						"key": "t_uint256",
						"label": "mapping(uint256 => struct Vault.Transaction)",
						"numberOfBytes": "32",
						"value": "t_struct(Transaction)170_storage"
					},
					"t_struct(Transaction)170_storage": {
						"encoding": "inplace",
						"label": "struct Vault.Transaction",
						"members": [
							{
								"astId": 150,
								"contract": "contracts/ManageVault.sol:Vault",
								"label": "buyer",
								"offset": 0,
								"slot": "0",
								"type": "t_address"
							},
							{
								"astId": 152,
								"contract": "contracts/ManageVault.sol:Vault",
								"label": "seller",
								"offset": 0,
								"slot": "1",
								"type": "t_address"
							},
							{
								"astId": 154,
								"contract": "contracts/ManageVault.sol:Vault",
								"label": "approver",
								"offset": 0,
								"slot": "2",
								"type": "t_address"
							},
							{
								"astId": 156,
								"contract": "contracts/ManageVault.sol:Vault",
								"label": "ethBalance",
								"offset": 0,
								"slot": "3",
								"type": "t_uint256"
							},
							{
								"astId": 160,
								"contract": "contracts/ManageVault.sol:Vault",
								"label": "erc20Balances",
								"offset": 0,
								"slot": "4",
								"type": "t_mapping(t_address,t_uint256)"
							},
							{
								"astId": 163,
								"contract": "contracts/ManageVault.sol:Vault",
								"label": "depositedTokens",
								"offset": 0,
								"slot": "5",
								"type": "t_array(t_address)dyn_storage"
							},
							{
								"astId": 165,
								"contract": "contracts/ManageVault.sol:Vault",
								"label": "depositTimestamp",
								"offset": 0,
								"slot": "6",
								"type": "t_uint256"
							},
							{
								"astId": 167,
								"contract": "contracts/ManageVault.sol:Vault",
								"label": "isLocked",
								"offset": 0,
								"slot": "7",
								"type": "t_bool"
							},
							{
								"astId": 169,
								"contract": "contracts/ManageVault.sol:Vault",
								"label": "isApproved",
								"offset": 1,
								"slot": "7",
								"type": "t_bool"
							}
						],
						"numberOfBytes": "256"
					},
					"t_uint256": {
						"encoding": "inplace",
						"label": "uint256",
						"numberOfBytes": "32"
					}
				}
			},
			"userdoc": {
				"kind": "user",
				"methods": {},
				"version": 1
			}
		}
	}
}