{
	"contracts/ManageVault.sol": {
		"ManagedVault": {
			"abi": [
				{
					"inputs": [],
					"stateMutability": "nonpayable",
					"type": "constructor"
				},
				{
					"anonymous": false,
					"inputs": [
						{
							"indexed": true,
							"internalType": "address",
							"name": "from",
							"type": "address"
						},
						{
							"indexed": false,
							"internalType": "uint256",
							"name": "amount",
							"type": "uint256"
						},
						{
							"indexed": false,
							"internalType": "address",
							"name": "token",
							"type": "address"
						}
					],
					"name": "Deposit",
					"type": "event"
				},
				{
					"anonymous": false,
					"inputs": [
						{
							"indexed": true,
							"internalType": "address",
							"name": "to",
							"type": "address"
						},
						{
							"indexed": false,
							"internalType": "uint256",
							"name": "amount",
							"type": "uint256"
						},
						{
							"indexed": false,
							"internalType": "address",
							"name": "token",
							"type": "address"
						}
					],
					"name": "Withdrawal",
					"type": "event"
				},
				{
					"inputs": [
						{
							"internalType": "address",
							"name": "tokenAddress",
							"type": "address"
						},
						{
							"internalType": "uint256",
							"name": "amount",
							"type": "uint256"
						}
					],
					"name": "depositERC20",
					"outputs": [],
					"stateMutability": "nonpayable",
					"type": "function"
				},
				{
					"inputs": [],
					"name": "depositNative",
					"outputs": [],
					"stateMutability": "payable",
					"type": "function"
				},
				{
					"inputs": [],
					"name": "getNativeBalance",
					"outputs": [
						{
							"internalType": "uint256",
							"name": "",
							"type": "uint256"
						}
					],
					"stateMutability": "view",
					"type": "function"
				},
				{
					"inputs": [
						{
							"internalType": "address",
							"name": "tokenAddress",
							"type": "address"
						}
					],
					"name": "getTokenBalance",
					"outputs": [
						{
							"internalType": "uint256",
							"name": "",
							"type": "uint256"
						}
					],
					"stateMutability": "view",
					"type": "function"
				},
				{
					"inputs": [
						{
							"internalType": "address",
							"name": "",
							"type": "address"
						}
					],
					"name": "nativeDeposits",
					"outputs": [
						{
							"internalType": "uint256",
							"name": "",
							"type": "uint256"
						}
					],
					"stateMutability": "view",
					"type": "function"
				},
				{
					"inputs": [],
					"name": "owner",
					"outputs": [
						{
							"internalType": "address",
							"name": "",
							"type": "address"
						}
					],
					"stateMutability": "view",
					"type": "function"
				},
				{
					"inputs": [
						{
							"internalType": "address",
							"name": "tokenAddress",
							"type": "address"
						},
						{
							"internalType": "address",
							"name": "to",
							"type": "address"
						},
						{
							"internalType": "uint256",
							"name": "amount",
							"type": "uint256"
						}
					],
					"name": "releaseERC20",
					"outputs": [],
					"stateMutability": "nonpayable",
					"type": "function"
				},
				{
					"inputs": [
						{
							"internalType": "address payable",
							"name": "to",
							"type": "address"
						},
						{
							"internalType": "uint256",
							"name": "amount",
							"type": "uint256"
						}
					],
					"name": "releaseNative",
					"outputs": [],
					"stateMutability": "nonpayable",
					"type": "function"
				},
				{
					"inputs": [
						{
							"internalType": "address",
							"name": "tokenAddress",
							"type": "address"
						}
					],
					"name": "returnERC20",
					"outputs": [],
					"stateMutability": "nonpayable",
					"type": "function"
				},
				{
					"inputs": [],
					"name": "returnNative",
					"outputs": [],
					"stateMutability": "nonpayable",
					"type": "function"
				},
				{
					"inputs": [
						{
							"internalType": "address",
							"name": "",
							"type": "address"
						},
						{
							"internalType": "address",
							"name": "",
							"type": "address"
						}
					],
					"name": "tokenDeposits",
					"outputs": [
						{
							"internalType": "uint256",
							"name": "",
							"type": "uint256"
						}
					],
					"stateMutability": "view",
					"type": "function"
				}
			],
			"devdoc": {
				"kind": "dev",
				"methods": {},
				"version": 1
			},
			"evm": {
				"assembly": "    /* \"contracts/ManageVault.sol\":120:3443  contract ManagedVault {... */\n  mstore(0x40, 0x80)\n    /* \"contracts/ManageVault.sol\":587:673  constructor() {... */\n  callvalue\n  dup1\n  iszero\n  tag_1\n  jumpi\n  0x00\n  dup1\n  revert\ntag_1:\n  pop\n    /* \"contracts/ManageVault.sol\":620:630  msg.sender */\n  caller\n    /* \"contracts/ManageVault.sol\":612:617  owner */\n  0x00\n  dup1\n    /* \"contracts/ManageVault.sol\":612:630  owner = msg.sender */\n  0x0100\n  exp\n  dup2\n  sload\n  dup2\n  0xffffffffffffffffffffffffffffffffffffffff\n  mul\n  not\n  and\n  swap1\n  dup4\n  0xffffffffffffffffffffffffffffffffffffffff\n  and\n  mul\n  or\n  swap1\n  sstore\n  pop\n    /* \"contracts/ManageVault.sol\":120:3443  contract ManagedVault {... */\n  dataSize(sub_0)\n  dup1\n  dataOffset(sub_0)\n  0x00\n  codecopy\n  0x00\n  return\nstop\n\nsub_0: assembly {\n        /* \"contracts/ManageVault.sol\":120:3443  contract ManagedVault {... */\n      mstore(0x40, 0x80)\n      jumpi(tag_1, lt(calldatasize, 0x04))\n      shr(0xe0, calldataload(0x00))\n      dup1\n      0x88a9d554\n      gt\n      tag_13\n      jumpi\n      dup1\n      0x88a9d554\n      eq\n      tag_7\n      jumpi\n      dup1\n      0x8da5cb5b\n      eq\n      tag_8\n      jumpi\n      dup1\n      0x97feb926\n      eq\n      tag_9\n      jumpi\n      dup1\n      0xc7293668\n      eq\n      tag_10\n      jumpi\n      dup1\n      0xdb6b5246\n      eq\n      tag_11\n      jumpi\n      dup1\n      0xf6c6bdee\n      eq\n      tag_12\n      jumpi\n      jump(tag_1)\n    tag_13:\n      dup1\n      0x20dcb8c2\n      eq\n      tag_2\n      jumpi\n      dup1\n      0x3add0454\n      eq\n      tag_3\n      jumpi\n      dup1\n      0x3aecd0e3\n      eq\n      tag_4\n      jumpi\n      dup1\n      0x6cd533d8\n      eq\n      tag_5\n      jumpi\n      dup1\n      0x70471f73\n      eq\n      tag_6\n      jumpi\n    tag_1:\n      0x00\n      dup1\n      revert\n        /* \"contracts/ManageVault.sol\":1581:1822  function releaseNative(address payable to, uint256 amount) external onlyOwner {... */\n    tag_2:\n      callvalue\n      dup1\n      iszero\n      tag_14\n      jumpi\n      0x00\n      dup1\n      revert\n    tag_14:\n      pop\n      tag_15\n      0x04\n      dup1\n      calldatasize\n      sub\n      dup2\n      add\n      swap1\n      tag_16\n      swap2\n      swap1\n      tag_17\n      jump\t// in\n    tag_16:\n      tag_18\n      jump\t// in\n    tag_15:\n      stop\n        /* \"contracts/ManageVault.sol\":309:377  mapping(address => mapping(address => uint256)) public tokenDeposits */\n    tag_3:\n      callvalue\n      dup1\n      iszero\n      tag_19\n      jumpi\n      0x00\n      dup1\n      revert\n    tag_19:\n      pop\n      tag_20\n      0x04\n      dup1\n      calldatasize\n      sub\n      dup2\n      add\n      swap1\n      tag_21\n      swap2\n      swap1\n      tag_22\n      jump\t// in\n    tag_21:\n      tag_23\n      jump\t// in\n    tag_20:\n      mload(0x40)\n      tag_24\n      swap2\n      swap1\n      tag_25\n      jump\t// in\n    tag_24:\n      mload(0x40)\n      dup1\n      swap2\n      sub\n      swap1\n      return\n        /* \"contracts/ManageVault.sol\":3259:3440  function getTokenBalance(address tokenAddress) external view returns (uint256) {... */\n    tag_4:\n      callvalue\n      dup1\n      iszero\n      tag_26\n      jumpi\n      0x00\n      dup1\n      revert\n    tag_26:\n      pop\n      tag_27\n      0x04\n      dup1\n      calldatasize\n      sub\n      dup2\n      add\n      swap1\n      tag_28\n      swap2\n      swap1\n      tag_29\n      jump\t// in\n    tag_28:\n      tag_30\n      jump\t// in\n    tag_27:\n      mload(0x40)\n      tag_31\n      swap2\n      swap1\n      tag_25\n      jump\t// in\n    tag_31:\n      mload(0x40)\n      dup1\n      swap2\n      sub\n      swap1\n      return\n        /* \"contracts/ManageVault.sol\":1895:2247  function releaseERC20(address tokenAddress, address to, uint256 amount) external onlyOwner {... */\n    tag_5:\n      callvalue\n      dup1\n      iszero\n      tag_32\n      jumpi\n      0x00\n      dup1\n      revert\n    tag_32:\n      pop\n      tag_33\n      0x04\n      dup1\n      calldatasize\n      sub\n      dup2\n      add\n      swap1\n      tag_34\n      swap2\n      swap1\n      tag_35\n      jump\t// in\n    tag_34:\n      tag_36\n      jump\t// in\n    tag_33:\n      stop\n        /* \"contracts/ManageVault.sol\":2321:2641  function returnNative() external {... */\n    tag_6:\n      callvalue\n      dup1\n      iszero\n      tag_37\n      jumpi\n      0x00\n      dup1\n      revert\n    tag_37:\n      pop\n      tag_38\n      tag_39\n      jump\t// in\n    tag_38:\n      stop\n        /* \"contracts/ManageVault.sol\":3144:3251  function getNativeBalance() external view returns (uint256) {... */\n    tag_7:\n      callvalue\n      dup1\n      iszero\n      tag_40\n      jumpi\n      0x00\n      dup1\n      revert\n    tag_40:\n      pop\n      tag_41\n      tag_42\n      jump\t// in\n    tag_41:\n      mload(0x40)\n      tag_43\n      swap2\n      swap1\n      tag_25\n      jump\t// in\n    tag_43:\n      mload(0x40)\n      dup1\n      swap2\n      sub\n      swap1\n      return\n        /* \"contracts/ManageVault.sol\":149:169  address public owner */\n    tag_8:\n      callvalue\n      dup1\n      iszero\n      tag_44\n      jumpi\n      0x00\n      dup1\n      revert\n    tag_44:\n      pop\n      tag_45\n      tag_46\n      jump\t// in\n    tag_45:\n      mload(0x40)\n      tag_47\n      swap2\n      swap1\n      tag_48\n      jump\t// in\n    tag_47:\n      mload(0x40)\n      dup1\n      swap2\n      sub\n      swap1\n      return\n        /* \"contracts/ManageVault.sol\":1176:1508  function depositERC20(address tokenAddress, uint256 amount) external {... */\n    tag_9:\n      callvalue\n      dup1\n      iszero\n      tag_49\n      jumpi\n      0x00\n      dup1\n      revert\n    tag_49:\n      pop\n      tag_50\n      0x04\n      dup1\n      calldatasize\n      sub\n      dup2\n      add\n      swap1\n      tag_51\n      swap2\n      swap1\n      tag_52\n      jump\t// in\n    tag_51:\n      tag_53\n      jump\t// in\n    tag_50:\n      stop\n        /* \"contracts/ManageVault.sol\":2715:3101  function returnERC20(address tokenAddress) external {... */\n    tag_10:\n      callvalue\n      dup1\n      iszero\n      tag_54\n      jumpi\n      0x00\n      dup1\n      revert\n    tag_54:\n      pop\n      tag_55\n      0x04\n      dup1\n      calldatasize\n      sub\n      dup2\n      add\n      swap1\n      tag_56\n      swap2\n      swap1\n      tag_29\n      jump\t// in\n    tag_56:\n      tag_57\n      jump\t// in\n    tag_55:\n      stop\n        /* \"contracts/ManageVault.sol\":864:1124  function depositNative() external payable {... */\n    tag_11:\n      tag_58\n      tag_59\n      jump\t// in\n    tag_58:\n      stop\n        /* \"contracts/ManageVault.sol\":253:302  mapping(address => uint256) public nativeDeposits */\n    tag_12:\n      callvalue\n      dup1\n      iszero\n      tag_60\n      jumpi\n      0x00\n      dup1\n      revert\n    tag_60:\n      pop\n      tag_61\n      0x04\n      dup1\n      calldatasize\n      sub\n      dup2\n      add\n      swap1\n      tag_62\n      swap2\n      swap1\n      tag_29\n      jump\t// in\n    tag_62:\n      tag_63\n      jump\t// in\n    tag_61:\n      mload(0x40)\n      tag_64\n      swap2\n      swap1\n      tag_25\n      jump\t// in\n    tag_64:\n      mload(0x40)\n      dup1\n      swap2\n      sub\n      swap1\n      return\n        /* \"contracts/ManageVault.sol\":1581:1822  function releaseNative(address payable to, uint256 amount) external onlyOwner {... */\n    tag_18:\n        /* \"contracts/ManageVault.sol\":735:740  owner */\n      0x00\n      dup1\n      sload\n      swap1\n      0x0100\n      exp\n      swap1\n      div\n      0xffffffffffffffffffffffffffffffffffffffff\n      and\n        /* \"contracts/ManageVault.sol\":721:740  msg.sender == owner */\n      0xffffffffffffffffffffffffffffffffffffffff\n      and\n        /* \"contracts/ManageVault.sol\":721:731  msg.sender */\n      caller\n        /* \"contracts/ManageVault.sol\":721:740  msg.sender == owner */\n      0xffffffffffffffffffffffffffffffffffffffff\n      and\n      eq\n        /* \"contracts/ManageVault.sol\":713:759  require(msg.sender == owner, \"Not authorized\") */\n      tag_66\n      jumpi\n      mload(0x40)\n      0x08c379a000000000000000000000000000000000000000000000000000000000\n      dup2\n      mstore\n      0x04\n      add\n      tag_67\n      swap1\n      tag_68\n      jump\t// in\n    tag_67:\n      mload(0x40)\n      dup1\n      swap2\n      sub\n      swap1\n      revert\n    tag_66:\n        /* \"contracts/ManageVault.sol\":1703:1709  amount */\n      dup1\n        /* \"contracts/ManageVault.sol\":1678:1699  address(this).balance */\n      selfbalance\n        /* \"contracts/ManageVault.sol\":1678:1709  address(this).balance >= amount */\n      lt\n      iszero\n        /* \"contracts/ManageVault.sol\":1670:1734  require(address(this).balance >= amount, \"Insufficient balance\") */\n      tag_70\n      jumpi\n      mload(0x40)\n      0x08c379a000000000000000000000000000000000000000000000000000000000\n      dup2\n      mstore\n      0x04\n      add\n      tag_71\n      swap1\n      tag_72\n      jump\t// in\n    tag_71:\n      mload(0x40)\n      dup1\n      swap2\n      sub\n      swap1\n      revert\n    tag_70:\n        /* \"contracts/ManageVault.sol\":1745:1747  to */\n      dup2\n        /* \"contracts/ManageVault.sol\":1745:1756  to.transfer */\n      0xffffffffffffffffffffffffffffffffffffffff\n      and\n        /* \"contracts/ManageVault.sol\":1745:1764  to.transfer(amount) */\n      0x08fc\n        /* \"contracts/ManageVault.sol\":1757:1763  amount */\n      dup3\n        /* \"contracts/ManageVault.sol\":1745:1764  to.transfer(amount) */\n      swap1\n      dup2\n      iszero\n      mul\n      swap1\n      mload(0x40)\n      0x00\n      mload(0x40)\n      dup1\n      dup4\n      sub\n      dup2\n      dup6\n      dup9\n      dup9\n      call\n      swap4\n      pop\n      pop\n      pop\n      pop\n      iszero\n      dup1\n      iszero\n      tag_74\n      jumpi\n      returndatasize\n      0x00\n      dup1\n      returndatacopy\n      revert(0x00, returndatasize)\n    tag_74:\n      pop\n        /* \"contracts/ManageVault.sol\":1791:1793  to */\n      dup2\n        /* \"contracts/ManageVault.sol\":1780:1814  Withdrawal(to, amount, address(0)) */\n      0xffffffffffffffffffffffffffffffffffffffff\n      and\n      0x1a143d5b175701cb3246058ffac3d63945192075a926ff73a19930f09d587a\n        /* \"contracts/ManageVault.sol\":1795:1801  amount */\n      dup3\n        /* \"contracts/ManageVault.sol\":1811:1812  0 */\n      0x00\n        /* \"contracts/ManageVault.sol\":1780:1814  Withdrawal(to, amount, address(0)) */\n      mload(0x40)\n      tag_75\n      swap3\n      swap2\n      swap1\n      tag_76\n      jump\t// in\n    tag_75:\n      mload(0x40)\n      dup1\n      swap2\n      sub\n      swap1\n      log2\n        /* \"contracts/ManageVault.sol\":1581:1822  function releaseNative(address payable to, uint256 amount) external onlyOwner {... */\n      pop\n      pop\n      jump\t// out\n        /* \"contracts/ManageVault.sol\":309:377  mapping(address => mapping(address => uint256)) public tokenDeposits */\n    tag_23:\n      mstore(0x20, 0x02)\n      dup2\n      0x00\n      mstore\n      mstore(0x20, keccak256(0x00, 0x40))\n      dup1\n      0x00\n      mstore\n      keccak256(0x00, 0x40)\n      0x00\n      swap2\n      pop\n      swap2\n      pop\n      pop\n      sload\n      dup2\n      jump\t// out\n        /* \"contracts/ManageVault.sol\":3259:3440  function getTokenBalance(address tokenAddress) external view returns (uint256) {... */\n    tag_30:\n        /* \"contracts/ManageVault.sol\":3329:3336  uint256 */\n      0x00\n        /* \"contracts/ManageVault.sol\":3349:3361  IERC20 token */\n      dup1\n        /* \"contracts/ManageVault.sol\":3371:3383  tokenAddress */\n      dup3\n        /* \"contracts/ManageVault.sol\":3349:3384  IERC20 token = IERC20(tokenAddress) */\n      swap1\n      pop\n        /* \"contracts/ManageVault.sol\":3402:3407  token */\n      dup1\n        /* \"contracts/ManageVault.sol\":3402:3417  token.balanceOf */\n      0xffffffffffffffffffffffffffffffffffffffff\n      and\n      0x70a08231\n        /* \"contracts/ManageVault.sol\":3426:3430  this */\n      address\n        /* \"contracts/ManageVault.sol\":3402:3432  token.balanceOf(address(this)) */\n      mload(0x40)\n      dup3\n      0xffffffff\n      and\n      0xe0\n      shl\n      dup2\n      mstore\n      0x04\n      add\n      tag_78\n      swap2\n      swap1\n      tag_48\n      jump\t// in\n    tag_78:\n      0x20\n      mload(0x40)\n      dup1\n      dup4\n      sub\n      dup2\n      dup7\n      gas\n      staticcall\n      iszero\n      dup1\n      iszero\n      tag_80\n      jumpi\n      returndatasize\n      0x00\n      dup1\n      returndatacopy\n      revert(0x00, returndatasize)\n    tag_80:\n      pop\n      pop\n      pop\n      pop\n      mload(0x40)\n      returndatasize\n      not(0x1f)\n      0x1f\n      dup3\n      add\n      and\n      dup3\n      add\n      dup1\n      0x40\n      mstore\n      pop\n      dup2\n      add\n      swap1\n      tag_81\n      swap2\n      swap1\n      tag_82\n      jump\t// in\n    tag_81:\n        /* \"contracts/ManageVault.sol\":3395:3432  return token.balanceOf(address(this)) */\n      swap2\n      pop\n      pop\n        /* \"contracts/ManageVault.sol\":3259:3440  function getTokenBalance(address tokenAddress) external view returns (uint256) {... */\n      swap2\n      swap1\n      pop\n      jump\t// out\n        /* \"contracts/ManageVault.sol\":1895:2247  function releaseERC20(address tokenAddress, address to, uint256 amount) external onlyOwner {... */\n    tag_36:\n        /* \"contracts/ManageVault.sol\":735:740  owner */\n      0x00\n      dup1\n      sload\n      swap1\n      0x0100\n      exp\n      swap1\n      div\n      0xffffffffffffffffffffffffffffffffffffffff\n      and\n        /* \"contracts/ManageVault.sol\":721:740  msg.sender == owner */\n      0xffffffffffffffffffffffffffffffffffffffff\n      and\n        /* \"contracts/ManageVault.sol\":721:731  msg.sender */\n      caller\n        /* \"contracts/ManageVault.sol\":721:740  msg.sender == owner */\n      0xffffffffffffffffffffffffffffffffffffffff\n      and\n      eq\n        /* \"contracts/ManageVault.sol\":713:759  require(msg.sender == owner, \"Not authorized\") */\n      tag_84\n      jumpi\n      mload(0x40)\n      0x08c379a000000000000000000000000000000000000000000000000000000000\n      dup2\n      mstore\n      0x04\n      add\n      tag_85\n      swap1\n      tag_68\n      jump\t// in\n    tag_85:\n      mload(0x40)\n      dup1\n      swap2\n      sub\n      swap1\n      revert\n    tag_84:\n        /* \"contracts/ManageVault.sol\":1997:2009  IERC20 token */\n      0x00\n        /* \"contracts/ManageVault.sol\":2019:2031  tokenAddress */\n      dup4\n        /* \"contracts/ManageVault.sol\":1997:2032  IERC20 token = IERC20(tokenAddress) */\n      swap1\n      pop\n        /* \"contracts/ManageVault.sol\":2085:2091  amount */\n      dup2\n        /* \"contracts/ManageVault.sol\":2051:2056  token */\n      dup2\n        /* \"contracts/ManageVault.sol\":2051:2066  token.balanceOf */\n      0xffffffffffffffffffffffffffffffffffffffff\n      and\n      0x70a08231\n        /* \"contracts/ManageVault.sol\":2075:2079  this */\n      address\n        /* \"contracts/ManageVault.sol\":2051:2081  token.balanceOf(address(this)) */\n      mload(0x40)\n      dup3\n      0xffffffff\n      and\n      0xe0\n      shl\n      dup2\n      mstore\n      0x04\n      add\n      tag_87\n      swap2\n      swap1\n      tag_48\n      jump\t// in\n    tag_87:\n      0x20\n      mload(0x40)\n      dup1\n      dup4\n      sub\n      dup2\n      dup7\n      gas\n      staticcall\n      iszero\n      dup1\n      iszero\n      tag_89\n      jumpi\n      returndatasize\n      0x00\n      dup1\n      returndatacopy\n      revert(0x00, returndatasize)\n    tag_89:\n      pop\n      pop\n      pop\n      pop\n      mload(0x40)\n      returndatasize\n      not(0x1f)\n      0x1f\n      dup3\n      add\n      and\n      dup3\n      add\n      dup1\n      0x40\n      mstore\n      pop\n      dup2\n      add\n      swap1\n      tag_90\n      swap2\n      swap1\n      tag_82\n      jump\t// in\n    tag_90:\n        /* \"contracts/ManageVault.sol\":2051:2091  token.balanceOf(address(this)) >= amount */\n      lt\n      iszero\n        /* \"contracts/ManageVault.sol\":2043:2122  require(token.balanceOf(address(this)) >= amount, \"Insufficient token balance\") */\n      tag_91\n      jumpi\n      mload(0x40)\n      0x08c379a000000000000000000000000000000000000000000000000000000000\n      dup2\n      mstore\n      0x04\n      add\n      tag_92\n      swap1\n      tag_93\n      jump\t// in\n    tag_92:\n      mload(0x40)\n      dup1\n      swap2\n      sub\n      swap1\n      revert\n    tag_91:\n        /* \"contracts/ManageVault.sol\":2141:2146  token */\n      dup1\n        /* \"contracts/ManageVault.sol\":2141:2155  token.transfer */\n      0xffffffffffffffffffffffffffffffffffffffff\n      and\n      0xa9059cbb\n        /* \"contracts/ManageVault.sol\":2156:2158  to */\n      dup5\n        /* \"contracts/ManageVault.sol\":2160:2166  amount */\n      dup5\n        /* \"contracts/ManageVault.sol\":2141:2167  token.transfer(to, amount) */\n      mload(0x40)\n      dup4\n      0xffffffff\n      and\n      0xe0\n      shl\n      dup2\n      mstore\n      0x04\n      add\n      tag_94\n      swap3\n      swap2\n      swap1\n      tag_95\n      jump\t// in\n    tag_94:\n      0x20\n      mload(0x40)\n      dup1\n      dup4\n      sub\n      dup2\n      0x00\n      dup8\n      gas\n      call\n      iszero\n      dup1\n      iszero\n      tag_97\n      jumpi\n      returndatasize\n      0x00\n      dup1\n      returndatacopy\n      revert(0x00, returndatasize)\n    tag_97:\n      pop\n      pop\n      pop\n      pop\n      mload(0x40)\n      returndatasize\n      not(0x1f)\n      0x1f\n      dup3\n      add\n      and\n      dup3\n      add\n      dup1\n      0x40\n      mstore\n      pop\n      dup2\n      add\n      swap1\n      tag_98\n      swap2\n      swap1\n      tag_99\n      jump\t// in\n    tag_98:\n        /* \"contracts/ManageVault.sol\":2133:2187  require(token.transfer(to, amount), \"Transfer failed\") */\n      tag_100\n      jumpi\n      mload(0x40)\n      0x08c379a000000000000000000000000000000000000000000000000000000000\n      dup2\n      mstore\n      0x04\n      add\n      tag_101\n      swap1\n      tag_102\n      jump\t// in\n    tag_101:\n      mload(0x40)\n      dup1\n      swap2\n      sub\n      swap1\n      revert\n    tag_100:\n        /* \"contracts/ManageVault.sol\":2214:2216  to */\n      dup3\n        /* \"contracts/ManageVault.sol\":2203:2239  Withdrawal(to, amount, tokenAddress) */\n      0xffffffffffffffffffffffffffffffffffffffff\n      and\n      0x1a143d5b175701cb3246058ffac3d63945192075a926ff73a19930f09d587a\n        /* \"contracts/ManageVault.sol\":2218:2224  amount */\n      dup4\n        /* \"contracts/ManageVault.sol\":2226:2238  tokenAddress */\n      dup7\n        /* \"contracts/ManageVault.sol\":2203:2239  Withdrawal(to, amount, tokenAddress) */\n      mload(0x40)\n      tag_103\n      swap3\n      swap2\n      swap1\n      tag_76\n      jump\t// in\n    tag_103:\n      mload(0x40)\n      dup1\n      swap2\n      sub\n      swap1\n      log2\n        /* \"contracts/ManageVault.sol\":1986:2247  {... */\n      pop\n        /* \"contracts/ManageVault.sol\":1895:2247  function releaseERC20(address tokenAddress, address to, uint256 amount) external onlyOwner {... */\n      pop\n      pop\n      pop\n      jump\t// out\n        /* \"contracts/ManageVault.sol\":2321:2641  function returnNative() external {... */\n    tag_39:\n        /* \"contracts/ManageVault.sol\":2365:2379  uint256 amount */\n      0x00\n        /* \"contracts/ManageVault.sol\":2382:2396  nativeDeposits */\n      0x01\n        /* \"contracts/ManageVault.sol\":2382:2408  nativeDeposits[msg.sender] */\n      0x00\n        /* \"contracts/ManageVault.sol\":2397:2407  msg.sender */\n      caller\n        /* \"contracts/ManageVault.sol\":2382:2408  nativeDeposits[msg.sender] */\n      0xffffffffffffffffffffffffffffffffffffffff\n      and\n      0xffffffffffffffffffffffffffffffffffffffff\n      and\n      dup2\n      mstore\n      0x20\n      add\n      swap1\n      dup2\n      mstore\n      0x20\n      add\n      0x00\n      keccak256\n      sload\n        /* \"contracts/ManageVault.sol\":2365:2408  uint256 amount = nativeDeposits[msg.sender] */\n      swap1\n      pop\n        /* \"contracts/ManageVault.sol\":2436:2437  0 */\n      0x00\n        /* \"contracts/ManageVault.sol\":2427:2433  amount */\n      dup2\n        /* \"contracts/ManageVault.sol\":2427:2437  amount > 0 */\n      gt\n        /* \"contracts/ManageVault.sol\":2419:2462  require(amount > 0, \"No deposit to return\") */\n      tag_105\n      jumpi\n      mload(0x40)\n      0x08c379a000000000000000000000000000000000000000000000000000000000\n      dup2\n      mstore\n      0x04\n      add\n      tag_106\n      swap1\n      tag_107\n      jump\t// in\n    tag_106:\n      mload(0x40)\n      dup1\n      swap2\n      sub\n      swap1\n      revert\n    tag_105:\n        /* \"contracts/ManageVault.sol\":2502:2503  0 */\n      0x00\n        /* \"contracts/ManageVault.sol\":2473:2487  nativeDeposits */\n      0x01\n        /* \"contracts/ManageVault.sol\":2473:2499  nativeDeposits[msg.sender] */\n      0x00\n        /* \"contracts/ManageVault.sol\":2488:2498  msg.sender */\n      caller\n        /* \"contracts/ManageVault.sol\":2473:2499  nativeDeposits[msg.sender] */\n      0xffffffffffffffffffffffffffffffffffffffff\n      and\n      0xffffffffffffffffffffffffffffffffffffffff\n      and\n      dup2\n      mstore\n      0x20\n      add\n      swap1\n      dup2\n      mstore\n      0x20\n      add\n      0x00\n      keccak256\n        /* \"contracts/ManageVault.sol\":2473:2503  nativeDeposits[msg.sender] = 0 */\n      dup2\n      swap1\n      sstore\n      pop\n        /* \"contracts/ManageVault.sol\":2547:2557  msg.sender */\n      caller\n        /* \"contracts/ManageVault.sol\":2539:2567  payable(msg.sender).transfer */\n      0xffffffffffffffffffffffffffffffffffffffff\n      and\n        /* \"contracts/ManageVault.sol\":2539:2575  payable(msg.sender).transfer(amount) */\n      0x08fc\n        /* \"contracts/ManageVault.sol\":2568:2574  amount */\n      dup3\n        /* \"contracts/ManageVault.sol\":2539:2575  payable(msg.sender).transfer(amount) */\n      swap1\n      dup2\n      iszero\n      mul\n      swap1\n      mload(0x40)\n      0x00\n      mload(0x40)\n      dup1\n      dup4\n      sub\n      dup2\n      dup6\n      dup9\n      dup9\n      call\n      swap4\n      pop\n      pop\n      pop\n      pop\n      iszero\n      dup1\n      iszero\n      tag_109\n      jumpi\n      returndatasize\n      0x00\n      dup1\n      returndatacopy\n      revert(0x00, returndatasize)\n    tag_109:\n      pop\n        /* \"contracts/ManageVault.sol\":2602:2612  msg.sender */\n      caller\n        /* \"contracts/ManageVault.sol\":2591:2633  Withdrawal(msg.sender, amount, address(0)) */\n      0xffffffffffffffffffffffffffffffffffffffff\n      and\n      0x1a143d5b175701cb3246058ffac3d63945192075a926ff73a19930f09d587a\n        /* \"contracts/ManageVault.sol\":2614:2620  amount */\n      dup3\n        /* \"contracts/ManageVault.sol\":2630:2631  0 */\n      0x00\n        /* \"contracts/ManageVault.sol\":2591:2633  Withdrawal(msg.sender, amount, address(0)) */\n      mload(0x40)\n      tag_110\n      swap3\n      swap2\n      swap1\n      tag_76\n      jump\t// in\n    tag_110:\n      mload(0x40)\n      dup1\n      swap2\n      sub\n      swap1\n      log2\n        /* \"contracts/ManageVault.sol\":2354:2641  {... */\n      pop\n        /* \"contracts/ManageVault.sol\":2321:2641  function returnNative() external {... */\n      jump\t// out\n        /* \"contracts/ManageVault.sol\":3144:3251  function getNativeBalance() external view returns (uint256) {... */\n    tag_42:\n        /* \"contracts/ManageVault.sol\":3195:3202  uint256 */\n      0x00\n        /* \"contracts/ManageVault.sol\":3222:3243  address(this).balance */\n      selfbalance\n        /* \"contracts/ManageVault.sol\":3215:3243  return address(this).balance */\n      swap1\n      pop\n        /* \"contracts/ManageVault.sol\":3144:3251  function getNativeBalance() external view returns (uint256) {... */\n      swap1\n      jump\t// out\n        /* \"contracts/ManageVault.sol\":149:169  address public owner */\n    tag_46:\n      0x00\n      dup1\n      sload\n      swap1\n      0x0100\n      exp\n      swap1\n      div\n      0xffffffffffffffffffffffffffffffffffffffff\n      and\n      dup2\n      jump\t// out\n        /* \"contracts/ManageVault.sol\":1176:1508  function depositERC20(address tokenAddress, uint256 amount) external {... */\n    tag_53:\n        /* \"contracts/ManageVault.sol\":1256:1268  IERC20 token */\n      0x00\n        /* \"contracts/ManageVault.sol\":1278:1290  tokenAddress */\n      dup3\n        /* \"contracts/ManageVault.sol\":1256:1291  IERC20 token = IERC20(tokenAddress) */\n      swap1\n      pop\n        /* \"contracts/ManageVault.sol\":1310:1315  token */\n      dup1\n        /* \"contracts/ManageVault.sol\":1310:1328  token.transferFrom */\n      0xffffffffffffffffffffffffffffffffffffffff\n      and\n      0x23b872dd\n        /* \"contracts/ManageVault.sol\":1329:1339  msg.sender */\n      caller\n        /* \"contracts/ManageVault.sol\":1349:1353  this */\n      address\n        /* \"contracts/ManageVault.sol\":1356:1362  amount */\n      dup6\n        /* \"contracts/ManageVault.sol\":1310:1363  token.transferFrom(msg.sender, address(this), amount) */\n      mload(0x40)\n      dup5\n      0xffffffff\n      and\n      0xe0\n      shl\n      dup2\n      mstore\n      0x04\n      add\n      tag_113\n      swap4\n      swap3\n      swap2\n      swap1\n      tag_114\n      jump\t// in\n    tag_113:\n      0x20\n      mload(0x40)\n      dup1\n      dup4\n      sub\n      dup2\n      0x00\n      dup8\n      gas\n      call\n      iszero\n      dup1\n      iszero\n      tag_116\n      jumpi\n      returndatasize\n      0x00\n      dup1\n      returndatacopy\n      revert(0x00, returndatasize)\n    tag_116:\n      pop\n      pop\n      pop\n      pop\n      mload(0x40)\n      returndatasize\n      not(0x1f)\n      0x1f\n      dup3\n      add\n      and\n      dup3\n      add\n      dup1\n      0x40\n      mstore\n      pop\n      dup2\n      add\n      swap1\n      tag_117\n      swap2\n      swap1\n      tag_99\n      jump\t// in\n    tag_117:\n        /* \"contracts/ManageVault.sol\":1302:1383  require(token.transferFrom(msg.sender, address(this), amount), \"Transfer failed\") */\n      tag_118\n      jumpi\n      mload(0x40)\n      0x08c379a000000000000000000000000000000000000000000000000000000000\n      dup2\n      mstore\n      0x04\n      add\n      tag_119\n      swap1\n      tag_102\n      jump\t// in\n    tag_119:\n      mload(0x40)\n      dup1\n      swap2\n      sub\n      swap1\n      revert\n    tag_118:\n        /* \"contracts/ManageVault.sol\":1437:1443  amount */\n      dup2\n        /* \"contracts/ManageVault.sol\":1394:1407  tokenDeposits */\n      0x02\n        /* \"contracts/ManageVault.sol\":1394:1419  tokenDeposits[msg.sender] */\n      0x00\n        /* \"contracts/ManageVault.sol\":1408:1418  msg.sender */\n      caller\n        /* \"contracts/ManageVault.sol\":1394:1419  tokenDeposits[msg.sender] */\n      0xffffffffffffffffffffffffffffffffffffffff\n      and\n      0xffffffffffffffffffffffffffffffffffffffff\n      and\n      dup2\n      mstore\n      0x20\n      add\n      swap1\n      dup2\n      mstore\n      0x20\n      add\n      0x00\n      keccak256\n        /* \"contracts/ManageVault.sol\":1394:1433  tokenDeposits[msg.sender][tokenAddress] */\n      0x00\n        /* \"contracts/ManageVault.sol\":1420:1432  tokenAddress */\n      dup6\n        /* \"contracts/ManageVault.sol\":1394:1433  tokenDeposits[msg.sender][tokenAddress] */\n      0xffffffffffffffffffffffffffffffffffffffff\n      and\n      0xffffffffffffffffffffffffffffffffffffffff\n      and\n      dup2\n      mstore\n      0x20\n      add\n      swap1\n      dup2\n      mstore\n      0x20\n      add\n      0x00\n      keccak256\n      0x00\n        /* \"contracts/ManageVault.sol\":1394:1443  tokenDeposits[msg.sender][tokenAddress] += amount */\n      dup3\n      dup3\n      sload\n      tag_120\n      swap2\n      swap1\n      tag_121\n      jump\t// in\n    tag_120:\n      swap3\n      pop\n      pop\n      dup2\n      swap1\n      sstore\n      pop\n        /* \"contracts/ManageVault.sol\":1467:1477  msg.sender */\n      caller\n        /* \"contracts/ManageVault.sol\":1459:1500  Deposit(msg.sender, amount, tokenAddress) */\n      0xffffffffffffffffffffffffffffffffffffffff\n      and\n      0xe31c7b8d08ee7db0afa68782e1028ef92305caeea8626633ad44d413e30f6b2f\n        /* \"contracts/ManageVault.sol\":1479:1485  amount */\n      dup4\n        /* \"contracts/ManageVault.sol\":1487:1499  tokenAddress */\n      dup6\n        /* \"contracts/ManageVault.sol\":1459:1500  Deposit(msg.sender, amount, tokenAddress) */\n      mload(0x40)\n      tag_122\n      swap3\n      swap2\n      swap1\n      tag_76\n      jump\t// in\n    tag_122:\n      mload(0x40)\n      dup1\n      swap2\n      sub\n      swap1\n      log2\n        /* \"contracts/ManageVault.sol\":1245:1508  {... */\n      pop\n        /* \"contracts/ManageVault.sol\":1176:1508  function depositERC20(address tokenAddress, uint256 amount) external {... */\n      pop\n      pop\n      jump\t// out\n        /* \"contracts/ManageVault.sol\":2715:3101  function returnERC20(address tokenAddress) external {... */\n    tag_57:\n        /* \"contracts/ManageVault.sol\":2778:2792  uint256 amount */\n      0x00\n        /* \"contracts/ManageVault.sol\":2795:2808  tokenDeposits */\n      0x02\n        /* \"contracts/ManageVault.sol\":2795:2820  tokenDeposits[msg.sender] */\n      0x00\n        /* \"contracts/ManageVault.sol\":2809:2819  msg.sender */\n      caller\n        /* \"contracts/ManageVault.sol\":2795:2820  tokenDeposits[msg.sender] */\n      0xffffffffffffffffffffffffffffffffffffffff\n      and\n      0xffffffffffffffffffffffffffffffffffffffff\n      and\n      dup2\n      mstore\n      0x20\n      add\n      swap1\n      dup2\n      mstore\n      0x20\n      add\n      0x00\n      keccak256\n        /* \"contracts/ManageVault.sol\":2795:2834  tokenDeposits[msg.sender][tokenAddress] */\n      0x00\n        /* \"contracts/ManageVault.sol\":2821:2833  tokenAddress */\n      dup4\n        /* \"contracts/ManageVault.sol\":2795:2834  tokenDeposits[msg.sender][tokenAddress] */\n      0xffffffffffffffffffffffffffffffffffffffff\n      and\n      0xffffffffffffffffffffffffffffffffffffffff\n      and\n      dup2\n      mstore\n      0x20\n      add\n      swap1\n      dup2\n      mstore\n      0x20\n      add\n      0x00\n      keccak256\n      sload\n        /* \"contracts/ManageVault.sol\":2778:2834  uint256 amount = tokenDeposits[msg.sender][tokenAddress] */\n      swap1\n      pop\n        /* \"contracts/ManageVault.sol\":2862:2863  0 */\n      0x00\n        /* \"contracts/ManageVault.sol\":2853:2859  amount */\n      dup2\n        /* \"contracts/ManageVault.sol\":2853:2863  amount > 0 */\n      gt\n        /* \"contracts/ManageVault.sol\":2845:2894  require(amount > 0, \"No token deposit to return\") */\n      tag_124\n      jumpi\n      mload(0x40)\n      0x08c379a000000000000000000000000000000000000000000000000000000000\n      dup2\n      mstore\n      0x04\n      add\n      tag_125\n      swap1\n      tag_126\n      jump\t// in\n    tag_125:\n      mload(0x40)\n      dup1\n      swap2\n      sub\n      swap1\n      revert\n    tag_124:\n        /* \"contracts/ManageVault.sol\":2947:2948  0 */\n      0x00\n        /* \"contracts/ManageVault.sol\":2905:2918  tokenDeposits */\n      0x02\n        /* \"contracts/ManageVault.sol\":2905:2930  tokenDeposits[msg.sender] */\n      0x00\n        /* \"contracts/ManageVault.sol\":2919:2929  msg.sender */\n      caller\n        /* \"contracts/ManageVault.sol\":2905:2930  tokenDeposits[msg.sender] */\n      0xffffffffffffffffffffffffffffffffffffffff\n      and\n      0xffffffffffffffffffffffffffffffffffffffff\n      and\n      dup2\n      mstore\n      0x20\n      add\n      swap1\n      dup2\n      mstore\n      0x20\n      add\n      0x00\n      keccak256\n        /* \"contracts/ManageVault.sol\":2905:2944  tokenDeposits[msg.sender][tokenAddress] */\n      0x00\n        /* \"contracts/ManageVault.sol\":2931:2943  tokenAddress */\n      dup5\n        /* \"contracts/ManageVault.sol\":2905:2944  tokenDeposits[msg.sender][tokenAddress] */\n      0xffffffffffffffffffffffffffffffffffffffff\n      and\n      0xffffffffffffffffffffffffffffffffffffffff\n      and\n      dup2\n      mstore\n      0x20\n      add\n      swap1\n      dup2\n      mstore\n      0x20\n      add\n      0x00\n      keccak256\n        /* \"contracts/ManageVault.sol\":2905:2948  tokenDeposits[msg.sender][tokenAddress] = 0 */\n      dup2\n      swap1\n      sstore\n      pop\n        /* \"contracts/ManageVault.sol\":2991:3003  tokenAddress */\n      dup2\n        /* \"contracts/ManageVault.sol\":2984:3013  IERC20(tokenAddress).transfer */\n      0xffffffffffffffffffffffffffffffffffffffff\n      and\n      0xa9059cbb\n        /* \"contracts/ManageVault.sol\":3014:3024  msg.sender */\n      caller\n        /* \"contracts/ManageVault.sol\":3026:3032  amount */\n      dup4\n        /* \"contracts/ManageVault.sol\":2984:3033  IERC20(tokenAddress).transfer(msg.sender, amount) */\n      mload(0x40)\n      dup4\n      0xffffffff\n      and\n      0xe0\n      shl\n      dup2\n      mstore\n      0x04\n      add\n      tag_127\n      swap3\n      swap2\n      swap1\n      tag_95\n      jump\t// in\n    tag_127:\n      0x20\n      mload(0x40)\n      dup1\n      dup4\n      sub\n      dup2\n      0x00\n      dup8\n      gas\n      call\n      iszero\n      dup1\n      iszero\n      tag_129\n      jumpi\n      returndatasize\n      0x00\n      dup1\n      returndatacopy\n      revert(0x00, returndatasize)\n    tag_129:\n      pop\n      pop\n      pop\n      pop\n      mload(0x40)\n      returndatasize\n      not(0x1f)\n      0x1f\n      dup3\n      add\n      and\n      dup3\n      add\n      dup1\n      0x40\n      mstore\n      pop\n      dup2\n      add\n      swap1\n      tag_130\n      swap2\n      swap1\n      tag_99\n      jump\t// in\n    tag_130:\n      pop\n        /* \"contracts/ManageVault.sol\":3060:3070  msg.sender */\n      caller\n        /* \"contracts/ManageVault.sol\":3049:3093  Withdrawal(msg.sender, amount, tokenAddress) */\n      0xffffffffffffffffffffffffffffffffffffffff\n      and\n      0x1a143d5b175701cb3246058ffac3d63945192075a926ff73a19930f09d587a\n        /* \"contracts/ManageVault.sol\":3072:3078  amount */\n      dup3\n        /* \"contracts/ManageVault.sol\":3080:3092  tokenAddress */\n      dup5\n        /* \"contracts/ManageVault.sol\":3049:3093  Withdrawal(msg.sender, amount, tokenAddress) */\n      mload(0x40)\n      tag_131\n      swap3\n      swap2\n      swap1\n      tag_76\n      jump\t// in\n    tag_131:\n      mload(0x40)\n      dup1\n      swap2\n      sub\n      swap1\n      log2\n        /* \"contracts/ManageVault.sol\":2767:3101  {... */\n      pop\n        /* \"contracts/ManageVault.sol\":2715:3101  function returnERC20(address tokenAddress) external {... */\n      pop\n      jump\t// out\n        /* \"contracts/ManageVault.sol\":864:1124  function depositNative() external payable {... */\n    tag_59:\n        /* \"contracts/ManageVault.sol\":937:938  0 */\n      0x00\n        /* \"contracts/ManageVault.sol\":925:934  msg.value */\n      callvalue\n        /* \"contracts/ManageVault.sol\":925:938  msg.value > 0 */\n      gt\n        /* \"contracts/ManageVault.sol\":917:970  require(msg.value > 0, \"Must send some native token\") */\n      tag_133\n      jumpi\n      mload(0x40)\n      0x08c379a000000000000000000000000000000000000000000000000000000000\n      dup2\n      mstore\n      0x04\n      add\n      tag_134\n      swap1\n      tag_135\n      jump\t// in\n    tag_134:\n      mload(0x40)\n      dup1\n      swap2\n      sub\n      swap1\n      revert\n    tag_133:\n        /* \"contracts/ManageVault.sol\":1011:1020  msg.value */\n      callvalue\n        /* \"contracts/ManageVault.sol\":981:995  nativeDeposits */\n      0x01\n        /* \"contracts/ManageVault.sol\":981:1007  nativeDeposits[msg.sender] */\n      0x00\n        /* \"contracts/ManageVault.sol\":996:1006  msg.sender */\n      caller\n        /* \"contracts/ManageVault.sol\":981:1007  nativeDeposits[msg.sender] */\n      0xffffffffffffffffffffffffffffffffffffffff\n      and\n      0xffffffffffffffffffffffffffffffffffffffff\n      and\n      dup2\n      mstore\n      0x20\n      add\n      swap1\n      dup2\n      mstore\n      0x20\n      add\n      0x00\n      keccak256\n      0x00\n        /* \"contracts/ManageVault.sol\":981:1020  nativeDeposits[msg.sender] += msg.value */\n      dup3\n      dup3\n      sload\n      tag_136\n      swap2\n      swap1\n      tag_121\n      jump\t// in\n    tag_136:\n      swap3\n      pop\n      pop\n      dup2\n      swap1\n      sstore\n      pop\n        /* \"contracts/ManageVault.sol\":1044:1054  msg.sender */\n      caller\n        /* \"contracts/ManageVault.sol\":1036:1078  Deposit(msg.sender, msg.value, address(0)) */\n      0xffffffffffffffffffffffffffffffffffffffff\n      and\n      0xe31c7b8d08ee7db0afa68782e1028ef92305caeea8626633ad44d413e30f6b2f\n        /* \"contracts/ManageVault.sol\":1056:1065  msg.value */\n      callvalue\n        /* \"contracts/ManageVault.sol\":1075:1076  0 */\n      0x00\n        /* \"contracts/ManageVault.sol\":1036:1078  Deposit(msg.sender, msg.value, address(0)) */\n      mload(0x40)\n      tag_137\n      swap3\n      swap2\n      swap1\n      tag_76\n      jump\t// in\n    tag_137:\n      mload(0x40)\n      dup1\n      swap2\n      sub\n      swap1\n      log2\n        /* \"contracts/ManageVault.sol\":864:1124  function depositNative() external payable {... */\n      jump\t// out\n        /* \"contracts/ManageVault.sol\":253:302  mapping(address => uint256) public nativeDeposits */\n    tag_63:\n      mstore(0x20, 0x01)\n      dup1\n      0x00\n      mstore\n      keccak256(0x00, 0x40)\n      0x00\n      swap2\n      pop\n      swap1\n      pop\n      sload\n      dup2\n      jump\t// out\n        /* \"#utility.yul\":88:205   */\n    tag_139:\n        /* \"#utility.yul\":197:198   */\n      0x00\n        /* \"#utility.yul\":194:195   */\n      dup1\n        /* \"#utility.yul\":187:199   */\n      revert\n        /* \"#utility.yul\":334:460   */\n    tag_141:\n        /* \"#utility.yul\":371:378   */\n      0x00\n        /* \"#utility.yul\":411:453   */\n      0xffffffffffffffffffffffffffffffffffffffff\n        /* \"#utility.yul\":404:409   */\n      dup3\n        /* \"#utility.yul\":400:454   */\n      and\n        /* \"#utility.yul\":389:454   */\n      swap1\n      pop\n        /* \"#utility.yul\":334:460   */\n      swap2\n      swap1\n      pop\n      jump\t// out\n        /* \"#utility.yul\":466:570   */\n    tag_142:\n        /* \"#utility.yul\":511:518   */\n      0x00\n        /* \"#utility.yul\":540:564   */\n      tag_179\n        /* \"#utility.yul\":558:563   */\n      dup3\n        /* \"#utility.yul\":540:564   */\n      tag_141\n      jump\t// in\n    tag_179:\n        /* \"#utility.yul\":529:564   */\n      swap1\n      pop\n        /* \"#utility.yul\":466:570   */\n      swap2\n      swap1\n      pop\n      jump\t// out\n        /* \"#utility.yul\":576:714   */\n    tag_143:\n        /* \"#utility.yul\":657:689   */\n      tag_181\n        /* \"#utility.yul\":683:688   */\n      dup2\n        /* \"#utility.yul\":657:689   */\n      tag_142\n      jump\t// in\n    tag_181:\n        /* \"#utility.yul\":650:655   */\n      dup2\n        /* \"#utility.yul\":647:690   */\n      eq\n        /* \"#utility.yul\":637:708   */\n      tag_182\n      jumpi\n        /* \"#utility.yul\":704:705   */\n      0x00\n        /* \"#utility.yul\":701:702   */\n      dup1\n        /* \"#utility.yul\":694:706   */\n      revert\n        /* \"#utility.yul\":637:708   */\n    tag_182:\n        /* \"#utility.yul\":576:714   */\n      pop\n      jump\t// out\n        /* \"#utility.yul\":720:875   */\n    tag_144:\n        /* \"#utility.yul\":774:779   */\n      0x00\n        /* \"#utility.yul\":812:818   */\n      dup2\n        /* \"#utility.yul\":799:819   */\n      calldataload\n        /* \"#utility.yul\":790:819   */\n      swap1\n      pop\n        /* \"#utility.yul\":828:869   */\n      tag_184\n        /* \"#utility.yul\":863:868   */\n      dup2\n        /* \"#utility.yul\":828:869   */\n      tag_143\n      jump\t// in\n    tag_184:\n        /* \"#utility.yul\":720:875   */\n      swap3\n      swap2\n      pop\n      pop\n      jump\t// out\n        /* \"#utility.yul\":881:958   */\n    tag_145:\n        /* \"#utility.yul\":918:925   */\n      0x00\n        /* \"#utility.yul\":947:952   */\n      dup2\n        /* \"#utility.yul\":936:952   */\n      swap1\n      pop\n        /* \"#utility.yul\":881:958   */\n      swap2\n      swap1\n      pop\n      jump\t// out\n        /* \"#utility.yul\":964:1086   */\n    tag_146:\n        /* \"#utility.yul\":1037:1061   */\n      tag_187\n        /* \"#utility.yul\":1055:1060   */\n      dup2\n        /* \"#utility.yul\":1037:1061   */\n      tag_145\n      jump\t// in\n    tag_187:\n        /* \"#utility.yul\":1030:1035   */\n      dup2\n        /* \"#utility.yul\":1027:1062   */\n      eq\n        /* \"#utility.yul\":1017:1080   */\n      tag_188\n      jumpi\n        /* \"#utility.yul\":1076:1077   */\n      0x00\n        /* \"#utility.yul\":1073:1074   */\n      dup1\n        /* \"#utility.yul\":1066:1078   */\n      revert\n        /* \"#utility.yul\":1017:1080   */\n    tag_188:\n        /* \"#utility.yul\":964:1086   */\n      pop\n      jump\t// out\n        /* \"#utility.yul\":1092:1231   */\n    tag_147:\n        /* \"#utility.yul\":1138:1143   */\n      0x00\n        /* \"#utility.yul\":1176:1182   */\n      dup2\n        /* \"#utility.yul\":1163:1183   */\n      calldataload\n        /* \"#utility.yul\":1154:1183   */\n      swap1\n      pop\n        /* \"#utility.yul\":1192:1225   */\n      tag_190\n        /* \"#utility.yul\":1219:1224   */\n      dup2\n        /* \"#utility.yul\":1192:1225   */\n      tag_146\n      jump\t// in\n    tag_190:\n        /* \"#utility.yul\":1092:1231   */\n      swap3\n      swap2\n      pop\n      pop\n      jump\t// out\n        /* \"#utility.yul\":1237:1727   */\n    tag_17:\n        /* \"#utility.yul\":1313:1319   */\n      0x00\n        /* \"#utility.yul\":1321:1327   */\n      dup1\n        /* \"#utility.yul\":1370:1372   */\n      0x40\n        /* \"#utility.yul\":1358:1367   */\n      dup4\n        /* \"#utility.yul\":1349:1356   */\n      dup6\n        /* \"#utility.yul\":1345:1368   */\n      sub\n        /* \"#utility.yul\":1341:1373   */\n      slt\n        /* \"#utility.yul\":1338:1457   */\n      iszero\n      tag_192\n      jumpi\n        /* \"#utility.yul\":1376:1455   */\n      tag_193\n      tag_139\n      jump\t// in\n    tag_193:\n        /* \"#utility.yul\":1338:1457   */\n    tag_192:\n        /* \"#utility.yul\":1496:1497   */\n      0x00\n        /* \"#utility.yul\":1521:1582   */\n      tag_194\n        /* \"#utility.yul\":1574:1581   */\n      dup6\n        /* \"#utility.yul\":1565:1571   */\n      dup3\n        /* \"#utility.yul\":1554:1563   */\n      dup7\n        /* \"#utility.yul\":1550:1572   */\n      add\n        /* \"#utility.yul\":1521:1582   */\n      tag_144\n      jump\t// in\n    tag_194:\n        /* \"#utility.yul\":1511:1582   */\n      swap3\n      pop\n        /* \"#utility.yul\":1467:1592   */\n      pop\n        /* \"#utility.yul\":1631:1633   */\n      0x20\n        /* \"#utility.yul\":1657:1710   */\n      tag_195\n        /* \"#utility.yul\":1702:1709   */\n      dup6\n        /* \"#utility.yul\":1693:1699   */\n      dup3\n        /* \"#utility.yul\":1682:1691   */\n      dup7\n        /* \"#utility.yul\":1678:1700   */\n      add\n        /* \"#utility.yul\":1657:1710   */\n      tag_147\n      jump\t// in\n    tag_195:\n        /* \"#utility.yul\":1647:1710   */\n      swap2\n      pop\n        /* \"#utility.yul\":1602:1720   */\n      pop\n        /* \"#utility.yul\":1237:1727   */\n      swap3\n      pop\n      swap3\n      swap1\n      pop\n      jump\t// out\n        /* \"#utility.yul\":1733:1829   */\n    tag_148:\n        /* \"#utility.yul\":1770:1777   */\n      0x00\n        /* \"#utility.yul\":1799:1823   */\n      tag_197\n        /* \"#utility.yul\":1817:1822   */\n      dup3\n        /* \"#utility.yul\":1799:1823   */\n      tag_141\n      jump\t// in\n    tag_197:\n        /* \"#utility.yul\":1788:1823   */\n      swap1\n      pop\n        /* \"#utility.yul\":1733:1829   */\n      swap2\n      swap1\n      pop\n      jump\t// out\n        /* \"#utility.yul\":1835:1957   */\n    tag_149:\n        /* \"#utility.yul\":1908:1932   */\n      tag_199\n        /* \"#utility.yul\":1926:1931   */\n      dup2\n        /* \"#utility.yul\":1908:1932   */\n      tag_148\n      jump\t// in\n    tag_199:\n        /* \"#utility.yul\":1901:1906   */\n      dup2\n        /* \"#utility.yul\":1898:1933   */\n      eq\n        /* \"#utility.yul\":1888:1951   */\n      tag_200\n      jumpi\n        /* \"#utility.yul\":1947:1948   */\n      0x00\n        /* \"#utility.yul\":1944:1945   */\n      dup1\n        /* \"#utility.yul\":1937:1949   */\n      revert\n        /* \"#utility.yul\":1888:1951   */\n    tag_200:\n        /* \"#utility.yul\":1835:1957   */\n      pop\n      jump\t// out\n        /* \"#utility.yul\":1963:2102   */\n    tag_150:\n        /* \"#utility.yul\":2009:2014   */\n      0x00\n        /* \"#utility.yul\":2047:2053   */\n      dup2\n        /* \"#utility.yul\":2034:2054   */\n      calldataload\n        /* \"#utility.yul\":2025:2054   */\n      swap1\n      pop\n        /* \"#utility.yul\":2063:2096   */\n      tag_202\n        /* \"#utility.yul\":2090:2095   */\n      dup2\n        /* \"#utility.yul\":2063:2096   */\n      tag_149\n      jump\t// in\n    tag_202:\n        /* \"#utility.yul\":1963:2102   */\n      swap3\n      swap2\n      pop\n      pop\n      jump\t// out\n        /* \"#utility.yul\":2108:2582   */\n    tag_22:\n        /* \"#utility.yul\":2176:2182   */\n      0x00\n        /* \"#utility.yul\":2184:2190   */\n      dup1\n        /* \"#utility.yul\":2233:2235   */\n      0x40\n        /* \"#utility.yul\":2221:2230   */\n      dup4\n        /* \"#utility.yul\":2212:2219   */\n      dup6\n        /* \"#utility.yul\":2208:2231   */\n      sub\n        /* \"#utility.yul\":2204:2236   */\n      slt\n        /* \"#utility.yul\":2201:2320   */\n      iszero\n      tag_204\n      jumpi\n        /* \"#utility.yul\":2239:2318   */\n      tag_205\n      tag_139\n      jump\t// in\n    tag_205:\n        /* \"#utility.yul\":2201:2320   */\n    tag_204:\n        /* \"#utility.yul\":2359:2360   */\n      0x00\n        /* \"#utility.yul\":2384:2437   */\n      tag_206\n        /* \"#utility.yul\":2429:2436   */\n      dup6\n        /* \"#utility.yul\":2420:2426   */\n      dup3\n        /* \"#utility.yul\":2409:2418   */\n      dup7\n        /* \"#utility.yul\":2405:2427   */\n      add\n        /* \"#utility.yul\":2384:2437   */\n      tag_150\n      jump\t// in\n    tag_206:\n        /* \"#utility.yul\":2374:2437   */\n      swap3\n      pop\n        /* \"#utility.yul\":2330:2447   */\n      pop\n        /* \"#utility.yul\":2486:2488   */\n      0x20\n        /* \"#utility.yul\":2512:2565   */\n      tag_207\n        /* \"#utility.yul\":2557:2564   */\n      dup6\n        /* \"#utility.yul\":2548:2554   */\n      dup3\n        /* \"#utility.yul\":2537:2546   */\n      dup7\n        /* \"#utility.yul\":2533:2555   */\n      add\n        /* \"#utility.yul\":2512:2565   */\n      tag_150\n      jump\t// in\n    tag_207:\n        /* \"#utility.yul\":2502:2565   */\n      swap2\n      pop\n        /* \"#utility.yul\":2457:2575   */\n      pop\n        /* \"#utility.yul\":2108:2582   */\n      swap3\n      pop\n      swap3\n      swap1\n      pop\n      jump\t// out\n        /* \"#utility.yul\":2588:2706   */\n    tag_151:\n        /* \"#utility.yul\":2675:2699   */\n      tag_209\n        /* \"#utility.yul\":2693:2698   */\n      dup2\n        /* \"#utility.yul\":2675:2699   */\n      tag_145\n      jump\t// in\n    tag_209:\n        /* \"#utility.yul\":2670:2673   */\n      dup3\n        /* \"#utility.yul\":2663:2700   */\n      mstore\n        /* \"#utility.yul\":2588:2706   */\n      pop\n      pop\n      jump\t// out\n        /* \"#utility.yul\":2712:2934   */\n    tag_25:\n        /* \"#utility.yul\":2805:2809   */\n      0x00\n        /* \"#utility.yul\":2843:2845   */\n      0x20\n        /* \"#utility.yul\":2832:2841   */\n      dup3\n        /* \"#utility.yul\":2828:2846   */\n      add\n        /* \"#utility.yul\":2820:2846   */\n      swap1\n      pop\n        /* \"#utility.yul\":2856:2927   */\n      tag_211\n        /* \"#utility.yul\":2924:2925   */\n      0x00\n        /* \"#utility.yul\":2913:2922   */\n      dup4\n        /* \"#utility.yul\":2909:2926   */\n      add\n        /* \"#utility.yul\":2900:2906   */\n      dup5\n        /* \"#utility.yul\":2856:2927   */\n      tag_151\n      jump\t// in\n    tag_211:\n        /* \"#utility.yul\":2712:2934   */\n      swap3\n      swap2\n      pop\n      pop\n      jump\t// out\n        /* \"#utility.yul\":2940:3269   */\n    tag_29:\n        /* \"#utility.yul\":2999:3005   */\n      0x00\n        /* \"#utility.yul\":3048:3050   */\n      0x20\n        /* \"#utility.yul\":3036:3045   */\n      dup3\n        /* \"#utility.yul\":3027:3034   */\n      dup5\n        /* \"#utility.yul\":3023:3046   */\n      sub\n        /* \"#utility.yul\":3019:3051   */\n      slt\n        /* \"#utility.yul\":3016:3135   */\n      iszero\n      tag_213\n      jumpi\n        /* \"#utility.yul\":3054:3133   */\n      tag_214\n      tag_139\n      jump\t// in\n    tag_214:\n        /* \"#utility.yul\":3016:3135   */\n    tag_213:\n        /* \"#utility.yul\":3174:3175   */\n      0x00\n        /* \"#utility.yul\":3199:3252   */\n      tag_215\n        /* \"#utility.yul\":3244:3251   */\n      dup5\n        /* \"#utility.yul\":3235:3241   */\n      dup3\n        /* \"#utility.yul\":3224:3233   */\n      dup6\n        /* \"#utility.yul\":3220:3242   */\n      add\n        /* \"#utility.yul\":3199:3252   */\n      tag_150\n      jump\t// in\n    tag_215:\n        /* \"#utility.yul\":3189:3252   */\n      swap2\n      pop\n        /* \"#utility.yul\":3145:3262   */\n      pop\n        /* \"#utility.yul\":2940:3269   */\n      swap3\n      swap2\n      pop\n      pop\n      jump\t// out\n        /* \"#utility.yul\":3275:3894   */\n    tag_35:\n        /* \"#utility.yul\":3352:3358   */\n      0x00\n        /* \"#utility.yul\":3360:3366   */\n      dup1\n        /* \"#utility.yul\":3368:3374   */\n      0x00\n        /* \"#utility.yul\":3417:3419   */\n      0x60\n        /* \"#utility.yul\":3405:3414   */\n      dup5\n        /* \"#utility.yul\":3396:3403   */\n      dup7\n        /* \"#utility.yul\":3392:3415   */\n      sub\n        /* \"#utility.yul\":3388:3420   */\n      slt\n        /* \"#utility.yul\":3385:3504   */\n      iszero\n      tag_217\n      jumpi\n        /* \"#utility.yul\":3423:3502   */\n      tag_218\n      tag_139\n      jump\t// in\n    tag_218:\n        /* \"#utility.yul\":3385:3504   */\n    tag_217:\n        /* \"#utility.yul\":3543:3544   */\n      0x00\n        /* \"#utility.yul\":3568:3621   */\n      tag_219\n        /* \"#utility.yul\":3613:3620   */\n      dup7\n        /* \"#utility.yul\":3604:3610   */\n      dup3\n        /* \"#utility.yul\":3593:3602   */\n      dup8\n        /* \"#utility.yul\":3589:3611   */\n      add\n        /* \"#utility.yul\":3568:3621   */\n      tag_150\n      jump\t// in\n    tag_219:\n        /* \"#utility.yul\":3558:3621   */\n      swap4\n      pop\n        /* \"#utility.yul\":3514:3631   */\n      pop\n        /* \"#utility.yul\":3670:3672   */\n      0x20\n        /* \"#utility.yul\":3696:3749   */\n      tag_220\n        /* \"#utility.yul\":3741:3748   */\n      dup7\n        /* \"#utility.yul\":3732:3738   */\n      dup3\n        /* \"#utility.yul\":3721:3730   */\n      dup8\n        /* \"#utility.yul\":3717:3739   */\n      add\n        /* \"#utility.yul\":3696:3749   */\n      tag_150\n      jump\t// in\n    tag_220:\n        /* \"#utility.yul\":3686:3749   */\n      swap3\n      pop\n        /* \"#utility.yul\":3641:3759   */\n      pop\n        /* \"#utility.yul\":3798:3800   */\n      0x40\n        /* \"#utility.yul\":3824:3877   */\n      tag_221\n        /* \"#utility.yul\":3869:3876   */\n      dup7\n        /* \"#utility.yul\":3860:3866   */\n      dup3\n        /* \"#utility.yul\":3849:3858   */\n      dup8\n        /* \"#utility.yul\":3845:3867   */\n      add\n        /* \"#utility.yul\":3824:3877   */\n      tag_147\n      jump\t// in\n    tag_221:\n        /* \"#utility.yul\":3814:3877   */\n      swap2\n      pop\n        /* \"#utility.yul\":3769:3887   */\n      pop\n        /* \"#utility.yul\":3275:3894   */\n      swap3\n      pop\n      swap3\n      pop\n      swap3\n      jump\t// out\n        /* \"#utility.yul\":3900:4018   */\n    tag_152:\n        /* \"#utility.yul\":3987:4011   */\n      tag_223\n        /* \"#utility.yul\":4005:4010   */\n      dup2\n        /* \"#utility.yul\":3987:4011   */\n      tag_148\n      jump\t// in\n    tag_223:\n        /* \"#utility.yul\":3982:3985   */\n      dup3\n        /* \"#utility.yul\":3975:4012   */\n      mstore\n        /* \"#utility.yul\":3900:4018   */\n      pop\n      pop\n      jump\t// out\n        /* \"#utility.yul\":4024:4246   */\n    tag_48:\n        /* \"#utility.yul\":4117:4121   */\n      0x00\n        /* \"#utility.yul\":4155:4157   */\n      0x20\n        /* \"#utility.yul\":4144:4153   */\n      dup3\n        /* \"#utility.yul\":4140:4158   */\n      add\n        /* \"#utility.yul\":4132:4158   */\n      swap1\n      pop\n        /* \"#utility.yul\":4168:4239   */\n      tag_225\n        /* \"#utility.yul\":4236:4237   */\n      0x00\n        /* \"#utility.yul\":4225:4234   */\n      dup4\n        /* \"#utility.yul\":4221:4238   */\n      add\n        /* \"#utility.yul\":4212:4218   */\n      dup5\n        /* \"#utility.yul\":4168:4239   */\n      tag_152\n      jump\t// in\n    tag_225:\n        /* \"#utility.yul\":4024:4246   */\n      swap3\n      swap2\n      pop\n      pop\n      jump\t// out\n        /* \"#utility.yul\":4252:4726   */\n    tag_52:\n        /* \"#utility.yul\":4320:4326   */\n      0x00\n        /* \"#utility.yul\":4328:4334   */\n      dup1\n        /* \"#utility.yul\":4377:4379   */\n      0x40\n        /* \"#utility.yul\":4365:4374   */\n      dup4\n        /* \"#utility.yul\":4356:4363   */\n      dup6\n        /* \"#utility.yul\":4352:4375   */\n      sub\n        /* \"#utility.yul\":4348:4380   */\n      slt\n        /* \"#utility.yul\":4345:4464   */\n      iszero\n      tag_227\n      jumpi\n        /* \"#utility.yul\":4383:4462   */\n      tag_228\n      tag_139\n      jump\t// in\n    tag_228:\n        /* \"#utility.yul\":4345:4464   */\n    tag_227:\n        /* \"#utility.yul\":4503:4504   */\n      0x00\n        /* \"#utility.yul\":4528:4581   */\n      tag_229\n        /* \"#utility.yul\":4573:4580   */\n      dup6\n        /* \"#utility.yul\":4564:4570   */\n      dup3\n        /* \"#utility.yul\":4553:4562   */\n      dup7\n        /* \"#utility.yul\":4549:4571   */\n      add\n        /* \"#utility.yul\":4528:4581   */\n      tag_150\n      jump\t// in\n    tag_229:\n        /* \"#utility.yul\":4518:4581   */\n      swap3\n      pop\n        /* \"#utility.yul\":4474:4591   */\n      pop\n        /* \"#utility.yul\":4630:4632   */\n      0x20\n        /* \"#utility.yul\":4656:4709   */\n      tag_230\n        /* \"#utility.yul\":4701:4708   */\n      dup6\n        /* \"#utility.yul\":4692:4698   */\n      dup3\n        /* \"#utility.yul\":4681:4690   */\n      dup7\n        /* \"#utility.yul\":4677:4699   */\n      add\n        /* \"#utility.yul\":4656:4709   */\n      tag_147\n      jump\t// in\n    tag_230:\n        /* \"#utility.yul\":4646:4709   */\n      swap2\n      pop\n        /* \"#utility.yul\":4601:4719   */\n      pop\n        /* \"#utility.yul\":4252:4726   */\n      swap3\n      pop\n      swap3\n      swap1\n      pop\n      jump\t// out\n        /* \"#utility.yul\":4732:4901   */\n    tag_153:\n        /* \"#utility.yul\":4816:4827   */\n      0x00\n        /* \"#utility.yul\":4850:4856   */\n      dup3\n        /* \"#utility.yul\":4845:4848   */\n      dup3\n        /* \"#utility.yul\":4838:4857   */\n      mstore\n        /* \"#utility.yul\":4890:4894   */\n      0x20\n        /* \"#utility.yul\":4885:4888   */\n      dup3\n        /* \"#utility.yul\":4881:4895   */\n      add\n        /* \"#utility.yul\":4866:4895   */\n      swap1\n      pop\n        /* \"#utility.yul\":4732:4901   */\n      swap3\n      swap2\n      pop\n      pop\n      jump\t// out\n        /* \"#utility.yul\":4907:5071   */\n    tag_154:\n        /* \"#utility.yul\":5047:5063   */\n      0x4e6f7420617574686f72697a6564000000000000000000000000000000000000\n        /* \"#utility.yul\":5043:5044   */\n      0x00\n        /* \"#utility.yul\":5035:5041   */\n      dup3\n        /* \"#utility.yul\":5031:5045   */\n      add\n        /* \"#utility.yul\":5024:5064   */\n      mstore\n        /* \"#utility.yul\":4907:5071   */\n      pop\n      jump\t// out\n        /* \"#utility.yul\":5077:5443   */\n    tag_155:\n        /* \"#utility.yul\":5219:5222   */\n      0x00\n        /* \"#utility.yul\":5240:5307   */\n      tag_234\n        /* \"#utility.yul\":5304:5306   */\n      0x0e\n        /* \"#utility.yul\":5299:5302   */\n      dup4\n        /* \"#utility.yul\":5240:5307   */\n      tag_153\n      jump\t// in\n    tag_234:\n        /* \"#utility.yul\":5233:5307   */\n      swap2\n      pop\n        /* \"#utility.yul\":5316:5409   */\n      tag_235\n        /* \"#utility.yul\":5405:5408   */\n      dup3\n        /* \"#utility.yul\":5316:5409   */\n      tag_154\n      jump\t// in\n    tag_235:\n        /* \"#utility.yul\":5434:5436   */\n      0x20\n        /* \"#utility.yul\":5429:5432   */\n      dup3\n        /* \"#utility.yul\":5425:5437   */\n      add\n        /* \"#utility.yul\":5418:5437   */\n      swap1\n      pop\n        /* \"#utility.yul\":5077:5443   */\n      swap2\n      swap1\n      pop\n      jump\t// out\n        /* \"#utility.yul\":5449:5868   */\n    tag_68:\n        /* \"#utility.yul\":5615:5619   */\n      0x00\n        /* \"#utility.yul\":5653:5655   */\n      0x20\n        /* \"#utility.yul\":5642:5651   */\n      dup3\n        /* \"#utility.yul\":5638:5656   */\n      add\n        /* \"#utility.yul\":5630:5656   */\n      swap1\n      pop\n        /* \"#utility.yul\":5702:5711   */\n      dup2\n        /* \"#utility.yul\":5696:5700   */\n      dup2\n        /* \"#utility.yul\":5692:5712   */\n      sub\n        /* \"#utility.yul\":5688:5689   */\n      0x00\n        /* \"#utility.yul\":5677:5686   */\n      dup4\n        /* \"#utility.yul\":5673:5690   */\n      add\n        /* \"#utility.yul\":5666:5713   */\n      mstore\n        /* \"#utility.yul\":5730:5861   */\n      tag_237\n        /* \"#utility.yul\":5856:5860   */\n      dup2\n        /* \"#utility.yul\":5730:5861   */\n      tag_155\n      jump\t// in\n    tag_237:\n        /* \"#utility.yul\":5722:5861   */\n      swap1\n      pop\n        /* \"#utility.yul\":5449:5868   */\n      swap2\n      swap1\n      pop\n      jump\t// out\n        /* \"#utility.yul\":5874:6044   */\n    tag_156:\n        /* \"#utility.yul\":6014:6036   */\n      0x496e73756666696369656e742062616c616e6365000000000000000000000000\n        /* \"#utility.yul\":6010:6011   */\n      0x00\n        /* \"#utility.yul\":6002:6008   */\n      dup3\n        /* \"#utility.yul\":5998:6012   */\n      add\n        /* \"#utility.yul\":5991:6037   */\n      mstore\n        /* \"#utility.yul\":5874:6044   */\n      pop\n      jump\t// out\n        /* \"#utility.yul\":6050:6416   */\n    tag_157:\n        /* \"#utility.yul\":6192:6195   */\n      0x00\n        /* \"#utility.yul\":6213:6280   */\n      tag_240\n        /* \"#utility.yul\":6277:6279   */\n      0x14\n        /* \"#utility.yul\":6272:6275   */\n      dup4\n        /* \"#utility.yul\":6213:6280   */\n      tag_153\n      jump\t// in\n    tag_240:\n        /* \"#utility.yul\":6206:6280   */\n      swap2\n      pop\n        /* \"#utility.yul\":6289:6382   */\n      tag_241\n        /* \"#utility.yul\":6378:6381   */\n      dup3\n        /* \"#utility.yul\":6289:6382   */\n      tag_156\n      jump\t// in\n    tag_241:\n        /* \"#utility.yul\":6407:6409   */\n      0x20\n        /* \"#utility.yul\":6402:6405   */\n      dup3\n        /* \"#utility.yul\":6398:6410   */\n      add\n        /* \"#utility.yul\":6391:6410   */\n      swap1\n      pop\n        /* \"#utility.yul\":6050:6416   */\n      swap2\n      swap1\n      pop\n      jump\t// out\n        /* \"#utility.yul\":6422:6841   */\n    tag_72:\n        /* \"#utility.yul\":6588:6592   */\n      0x00\n        /* \"#utility.yul\":6626:6628   */\n      0x20\n        /* \"#utility.yul\":6615:6624   */\n      dup3\n        /* \"#utility.yul\":6611:6629   */\n      add\n        /* \"#utility.yul\":6603:6629   */\n      swap1\n      pop\n        /* \"#utility.yul\":6675:6684   */\n      dup2\n        /* \"#utility.yul\":6669:6673   */\n      dup2\n        /* \"#utility.yul\":6665:6685   */\n      sub\n        /* \"#utility.yul\":6661:6662   */\n      0x00\n        /* \"#utility.yul\":6650:6659   */\n      dup4\n        /* \"#utility.yul\":6646:6663   */\n      add\n        /* \"#utility.yul\":6639:6686   */\n      mstore\n        /* \"#utility.yul\":6703:6834   */\n      tag_243\n        /* \"#utility.yul\":6829:6833   */\n      dup2\n        /* \"#utility.yul\":6703:6834   */\n      tag_157\n      jump\t// in\n    tag_243:\n        /* \"#utility.yul\":6695:6834   */\n      swap1\n      pop\n        /* \"#utility.yul\":6422:6841   */\n      swap2\n      swap1\n      pop\n      jump\t// out\n        /* \"#utility.yul\":6847:7179   */\n    tag_76:\n        /* \"#utility.yul\":6968:6972   */\n      0x00\n        /* \"#utility.yul\":7006:7008   */\n      0x40\n        /* \"#utility.yul\":6995:7004   */\n      dup3\n        /* \"#utility.yul\":6991:7009   */\n      add\n        /* \"#utility.yul\":6983:7009   */\n      swap1\n      pop\n        /* \"#utility.yul\":7019:7090   */\n      tag_245\n        /* \"#utility.yul\":7087:7088   */\n      0x00\n        /* \"#utility.yul\":7076:7085   */\n      dup4\n        /* \"#utility.yul\":7072:7089   */\n      add\n        /* \"#utility.yul\":7063:7069   */\n      dup6\n        /* \"#utility.yul\":7019:7090   */\n      tag_151\n      jump\t// in\n    tag_245:\n        /* \"#utility.yul\":7100:7172   */\n      tag_246\n        /* \"#utility.yul\":7168:7170   */\n      0x20\n        /* \"#utility.yul\":7157:7166   */\n      dup4\n        /* \"#utility.yul\":7153:7171   */\n      add\n        /* \"#utility.yul\":7144:7150   */\n      dup5\n        /* \"#utility.yul\":7100:7172   */\n      tag_152\n      jump\t// in\n    tag_246:\n        /* \"#utility.yul\":6847:7179   */\n      swap4\n      swap3\n      pop\n      pop\n      pop\n      jump\t// out\n        /* \"#utility.yul\":7185:7328   */\n    tag_158:\n        /* \"#utility.yul\":7242:7247   */\n      0x00\n        /* \"#utility.yul\":7273:7279   */\n      dup2\n        /* \"#utility.yul\":7267:7280   */\n      mload\n        /* \"#utility.yul\":7258:7280   */\n      swap1\n      pop\n        /* \"#utility.yul\":7289:7322   */\n      tag_248\n        /* \"#utility.yul\":7316:7321   */\n      dup2\n        /* \"#utility.yul\":7289:7322   */\n      tag_146\n      jump\t// in\n    tag_248:\n        /* \"#utility.yul\":7185:7328   */\n      swap3\n      swap2\n      pop\n      pop\n      jump\t// out\n        /* \"#utility.yul\":7334:7685   */\n    tag_82:\n        /* \"#utility.yul\":7404:7410   */\n      0x00\n        /* \"#utility.yul\":7453:7455   */\n      0x20\n        /* \"#utility.yul\":7441:7450   */\n      dup3\n        /* \"#utility.yul\":7432:7439   */\n      dup5\n        /* \"#utility.yul\":7428:7451   */\n      sub\n        /* \"#utility.yul\":7424:7456   */\n      slt\n        /* \"#utility.yul\":7421:7540   */\n      iszero\n      tag_250\n      jumpi\n        /* \"#utility.yul\":7459:7538   */\n      tag_251\n      tag_139\n      jump\t// in\n    tag_251:\n        /* \"#utility.yul\":7421:7540   */\n    tag_250:\n        /* \"#utility.yul\":7579:7580   */\n      0x00\n        /* \"#utility.yul\":7604:7668   */\n      tag_252\n        /* \"#utility.yul\":7660:7667   */\n      dup5\n        /* \"#utility.yul\":7651:7657   */\n      dup3\n        /* \"#utility.yul\":7640:7649   */\n      dup6\n        /* \"#utility.yul\":7636:7658   */\n      add\n        /* \"#utility.yul\":7604:7668   */\n      tag_158\n      jump\t// in\n    tag_252:\n        /* \"#utility.yul\":7594:7668   */\n      swap2\n      pop\n        /* \"#utility.yul\":7550:7678   */\n      pop\n        /* \"#utility.yul\":7334:7685   */\n      swap3\n      swap2\n      pop\n      pop\n      jump\t// out\n        /* \"#utility.yul\":7691:7867   */\n    tag_159:\n        /* \"#utility.yul\":7831:7859   */\n      0x496e73756666696369656e7420746f6b656e2062616c616e6365000000000000\n        /* \"#utility.yul\":7827:7828   */\n      0x00\n        /* \"#utility.yul\":7819:7825   */\n      dup3\n        /* \"#utility.yul\":7815:7829   */\n      add\n        /* \"#utility.yul\":7808:7860   */\n      mstore\n        /* \"#utility.yul\":7691:7867   */\n      pop\n      jump\t// out\n        /* \"#utility.yul\":7873:8239   */\n    tag_160:\n        /* \"#utility.yul\":8015:8018   */\n      0x00\n        /* \"#utility.yul\":8036:8103   */\n      tag_255\n        /* \"#utility.yul\":8100:8102   */\n      0x1a\n        /* \"#utility.yul\":8095:8098   */\n      dup4\n        /* \"#utility.yul\":8036:8103   */\n      tag_153\n      jump\t// in\n    tag_255:\n        /* \"#utility.yul\":8029:8103   */\n      swap2\n      pop\n        /* \"#utility.yul\":8112:8205   */\n      tag_256\n        /* \"#utility.yul\":8201:8204   */\n      dup3\n        /* \"#utility.yul\":8112:8205   */\n      tag_159\n      jump\t// in\n    tag_256:\n        /* \"#utility.yul\":8230:8232   */\n      0x20\n        /* \"#utility.yul\":8225:8228   */\n      dup3\n        /* \"#utility.yul\":8221:8233   */\n      add\n        /* \"#utility.yul\":8214:8233   */\n      swap1\n      pop\n        /* \"#utility.yul\":7873:8239   */\n      swap2\n      swap1\n      pop\n      jump\t// out\n        /* \"#utility.yul\":8245:8664   */\n    tag_93:\n        /* \"#utility.yul\":8411:8415   */\n      0x00\n        /* \"#utility.yul\":8449:8451   */\n      0x20\n        /* \"#utility.yul\":8438:8447   */\n      dup3\n        /* \"#utility.yul\":8434:8452   */\n      add\n        /* \"#utility.yul\":8426:8452   */\n      swap1\n      pop\n        /* \"#utility.yul\":8498:8507   */\n      dup2\n        /* \"#utility.yul\":8492:8496   */\n      dup2\n        /* \"#utility.yul\":8488:8508   */\n      sub\n        /* \"#utility.yul\":8484:8485   */\n      0x00\n        /* \"#utility.yul\":8473:8482   */\n      dup4\n        /* \"#utility.yul\":8469:8486   */\n      add\n        /* \"#utility.yul\":8462:8509   */\n      mstore\n        /* \"#utility.yul\":8526:8657   */\n      tag_258\n        /* \"#utility.yul\":8652:8656   */\n      dup2\n        /* \"#utility.yul\":8526:8657   */\n      tag_160\n      jump\t// in\n    tag_258:\n        /* \"#utility.yul\":8518:8657   */\n      swap1\n      pop\n        /* \"#utility.yul\":8245:8664   */\n      swap2\n      swap1\n      pop\n      jump\t// out\n        /* \"#utility.yul\":8670:9002   */\n    tag_95:\n        /* \"#utility.yul\":8791:8795   */\n      0x00\n        /* \"#utility.yul\":8829:8831   */\n      0x40\n        /* \"#utility.yul\":8818:8827   */\n      dup3\n        /* \"#utility.yul\":8814:8832   */\n      add\n        /* \"#utility.yul\":8806:8832   */\n      swap1\n      pop\n        /* \"#utility.yul\":8842:8913   */\n      tag_260\n        /* \"#utility.yul\":8910:8911   */\n      0x00\n        /* \"#utility.yul\":8899:8908   */\n      dup4\n        /* \"#utility.yul\":8895:8912   */\n      add\n        /* \"#utility.yul\":8886:8892   */\n      dup6\n        /* \"#utility.yul\":8842:8913   */\n      tag_152\n      jump\t// in\n    tag_260:\n        /* \"#utility.yul\":8923:8995   */\n      tag_261\n        /* \"#utility.yul\":8991:8993   */\n      0x20\n        /* \"#utility.yul\":8980:8989   */\n      dup4\n        /* \"#utility.yul\":8976:8994   */\n      add\n        /* \"#utility.yul\":8967:8973   */\n      dup5\n        /* \"#utility.yul\":8923:8995   */\n      tag_151\n      jump\t// in\n    tag_261:\n        /* \"#utility.yul\":8670:9002   */\n      swap4\n      swap3\n      pop\n      pop\n      pop\n      jump\t// out\n        /* \"#utility.yul\":9008:9098   */\n    tag_161:\n        /* \"#utility.yul\":9042:9049   */\n      0x00\n        /* \"#utility.yul\":9085:9090   */\n      dup2\n        /* \"#utility.yul\":9078:9091   */\n      iszero\n        /* \"#utility.yul\":9071:9092   */\n      iszero\n        /* \"#utility.yul\":9060:9092   */\n      swap1\n      pop\n        /* \"#utility.yul\":9008:9098   */\n      swap2\n      swap1\n      pop\n      jump\t// out\n        /* \"#utility.yul\":9104:9220   */\n    tag_162:\n        /* \"#utility.yul\":9174:9195   */\n      tag_264\n        /* \"#utility.yul\":9189:9194   */\n      dup2\n        /* \"#utility.yul\":9174:9195   */\n      tag_161\n      jump\t// in\n    tag_264:\n        /* \"#utility.yul\":9167:9172   */\n      dup2\n        /* \"#utility.yul\":9164:9196   */\n      eq\n        /* \"#utility.yul\":9154:9214   */\n      tag_265\n      jumpi\n        /* \"#utility.yul\":9210:9211   */\n      0x00\n        /* \"#utility.yul\":9207:9208   */\n      dup1\n        /* \"#utility.yul\":9200:9212   */\n      revert\n        /* \"#utility.yul\":9154:9214   */\n    tag_265:\n        /* \"#utility.yul\":9104:9220   */\n      pop\n      jump\t// out\n        /* \"#utility.yul\":9226:9363   */\n    tag_163:\n        /* \"#utility.yul\":9280:9285   */\n      0x00\n        /* \"#utility.yul\":9311:9317   */\n      dup2\n        /* \"#utility.yul\":9305:9318   */\n      mload\n        /* \"#utility.yul\":9296:9318   */\n      swap1\n      pop\n        /* \"#utility.yul\":9327:9357   */\n      tag_267\n        /* \"#utility.yul\":9351:9356   */\n      dup2\n        /* \"#utility.yul\":9327:9357   */\n      tag_162\n      jump\t// in\n    tag_267:\n        /* \"#utility.yul\":9226:9363   */\n      swap3\n      swap2\n      pop\n      pop\n      jump\t// out\n        /* \"#utility.yul\":9369:9714   */\n    tag_99:\n        /* \"#utility.yul\":9436:9442   */\n      0x00\n        /* \"#utility.yul\":9485:9487   */\n      0x20\n        /* \"#utility.yul\":9473:9482   */\n      dup3\n        /* \"#utility.yul\":9464:9471   */\n      dup5\n        /* \"#utility.yul\":9460:9483   */\n      sub\n        /* \"#utility.yul\":9456:9488   */\n      slt\n        /* \"#utility.yul\":9453:9572   */\n      iszero\n      tag_269\n      jumpi\n        /* \"#utility.yul\":9491:9570   */\n      tag_270\n      tag_139\n      jump\t// in\n    tag_270:\n        /* \"#utility.yul\":9453:9572   */\n    tag_269:\n        /* \"#utility.yul\":9611:9612   */\n      0x00\n        /* \"#utility.yul\":9636:9697   */\n      tag_271\n        /* \"#utility.yul\":9689:9696   */\n      dup5\n        /* \"#utility.yul\":9680:9686   */\n      dup3\n        /* \"#utility.yul\":9669:9678   */\n      dup6\n        /* \"#utility.yul\":9665:9687   */\n      add\n        /* \"#utility.yul\":9636:9697   */\n      tag_163\n      jump\t// in\n    tag_271:\n        /* \"#utility.yul\":9626:9697   */\n      swap2\n      pop\n        /* \"#utility.yul\":9582:9707   */\n      pop\n        /* \"#utility.yul\":9369:9714   */\n      swap3\n      swap2\n      pop\n      pop\n      jump\t// out\n        /* \"#utility.yul\":9720:9885   */\n    tag_164:\n        /* \"#utility.yul\":9860:9877   */\n      0x5472616e73666572206661696c65640000000000000000000000000000000000\n        /* \"#utility.yul\":9856:9857   */\n      0x00\n        /* \"#utility.yul\":9848:9854   */\n      dup3\n        /* \"#utility.yul\":9844:9858   */\n      add\n        /* \"#utility.yul\":9837:9878   */\n      mstore\n        /* \"#utility.yul\":9720:9885   */\n      pop\n      jump\t// out\n        /* \"#utility.yul\":9891:10257   */\n    tag_165:\n        /* \"#utility.yul\":10033:10036   */\n      0x00\n        /* \"#utility.yul\":10054:10121   */\n      tag_274\n        /* \"#utility.yul\":10118:10120   */\n      0x0f\n        /* \"#utility.yul\":10113:10116   */\n      dup4\n        /* \"#utility.yul\":10054:10121   */\n      tag_153\n      jump\t// in\n    tag_274:\n        /* \"#utility.yul\":10047:10121   */\n      swap2\n      pop\n        /* \"#utility.yul\":10130:10223   */\n      tag_275\n        /* \"#utility.yul\":10219:10222   */\n      dup3\n        /* \"#utility.yul\":10130:10223   */\n      tag_164\n      jump\t// in\n    tag_275:\n        /* \"#utility.yul\":10248:10250   */\n      0x20\n        /* \"#utility.yul\":10243:10246   */\n      dup3\n        /* \"#utility.yul\":10239:10251   */\n      add\n        /* \"#utility.yul\":10232:10251   */\n      swap1\n      pop\n        /* \"#utility.yul\":9891:10257   */\n      swap2\n      swap1\n      pop\n      jump\t// out\n        /* \"#utility.yul\":10263:10682   */\n    tag_102:\n        /* \"#utility.yul\":10429:10433   */\n      0x00\n        /* \"#utility.yul\":10467:10469   */\n      0x20\n        /* \"#utility.yul\":10456:10465   */\n      dup3\n        /* \"#utility.yul\":10452:10470   */\n      add\n        /* \"#utility.yul\":10444:10470   */\n      swap1\n      pop\n        /* \"#utility.yul\":10516:10525   */\n      dup2\n        /* \"#utility.yul\":10510:10514   */\n      dup2\n        /* \"#utility.yul\":10506:10526   */\n      sub\n        /* \"#utility.yul\":10502:10503   */\n      0x00\n        /* \"#utility.yul\":10491:10500   */\n      dup4\n        /* \"#utility.yul\":10487:10504   */\n      add\n        /* \"#utility.yul\":10480:10527   */\n      mstore\n        /* \"#utility.yul\":10544:10675   */\n      tag_277\n        /* \"#utility.yul\":10670:10674   */\n      dup2\n        /* \"#utility.yul\":10544:10675   */\n      tag_165\n      jump\t// in\n    tag_277:\n        /* \"#utility.yul\":10536:10675   */\n      swap1\n      pop\n        /* \"#utility.yul\":10263:10682   */\n      swap2\n      swap1\n      pop\n      jump\t// out\n        /* \"#utility.yul\":10688:10858   */\n    tag_166:\n        /* \"#utility.yul\":10828:10850   */\n      0x4e6f206465706f73697420746f2072657475726e000000000000000000000000\n        /* \"#utility.yul\":10824:10825   */\n      0x00\n        /* \"#utility.yul\":10816:10822   */\n      dup3\n        /* \"#utility.yul\":10812:10826   */\n      add\n        /* \"#utility.yul\":10805:10851   */\n      mstore\n        /* \"#utility.yul\":10688:10858   */\n      pop\n      jump\t// out\n        /* \"#utility.yul\":10864:11230   */\n    tag_167:\n        /* \"#utility.yul\":11006:11009   */\n      0x00\n        /* \"#utility.yul\":11027:11094   */\n      tag_280\n        /* \"#utility.yul\":11091:11093   */\n      0x14\n        /* \"#utility.yul\":11086:11089   */\n      dup4\n        /* \"#utility.yul\":11027:11094   */\n      tag_153\n      jump\t// in\n    tag_280:\n        /* \"#utility.yul\":11020:11094   */\n      swap2\n      pop\n        /* \"#utility.yul\":11103:11196   */\n      tag_281\n        /* \"#utility.yul\":11192:11195   */\n      dup3\n        /* \"#utility.yul\":11103:11196   */\n      tag_166\n      jump\t// in\n    tag_281:\n        /* \"#utility.yul\":11221:11223   */\n      0x20\n        /* \"#utility.yul\":11216:11219   */\n      dup3\n        /* \"#utility.yul\":11212:11224   */\n      add\n        /* \"#utility.yul\":11205:11224   */\n      swap1\n      pop\n        /* \"#utility.yul\":10864:11230   */\n      swap2\n      swap1\n      pop\n      jump\t// out\n        /* \"#utility.yul\":11236:11655   */\n    tag_107:\n        /* \"#utility.yul\":11402:11406   */\n      0x00\n        /* \"#utility.yul\":11440:11442   */\n      0x20\n        /* \"#utility.yul\":11429:11438   */\n      dup3\n        /* \"#utility.yul\":11425:11443   */\n      add\n        /* \"#utility.yul\":11417:11443   */\n      swap1\n      pop\n        /* \"#utility.yul\":11489:11498   */\n      dup2\n        /* \"#utility.yul\":11483:11487   */\n      dup2\n        /* \"#utility.yul\":11479:11499   */\n      sub\n        /* \"#utility.yul\":11475:11476   */\n      0x00\n        /* \"#utility.yul\":11464:11473   */\n      dup4\n        /* \"#utility.yul\":11460:11477   */\n      add\n        /* \"#utility.yul\":11453:11500   */\n      mstore\n        /* \"#utility.yul\":11517:11648   */\n      tag_283\n        /* \"#utility.yul\":11643:11647   */\n      dup2\n        /* \"#utility.yul\":11517:11648   */\n      tag_167\n      jump\t// in\n    tag_283:\n        /* \"#utility.yul\":11509:11648   */\n      swap1\n      pop\n        /* \"#utility.yul\":11236:11655   */\n      swap2\n      swap1\n      pop\n      jump\t// out\n        /* \"#utility.yul\":11661:12103   */\n    tag_114:\n        /* \"#utility.yul\":11810:11814   */\n      0x00\n        /* \"#utility.yul\":11848:11850   */\n      0x60\n        /* \"#utility.yul\":11837:11846   */\n      dup3\n        /* \"#utility.yul\":11833:11851   */\n      add\n        /* \"#utility.yul\":11825:11851   */\n      swap1\n      pop\n        /* \"#utility.yul\":11861:11932   */\n      tag_285\n        /* \"#utility.yul\":11929:11930   */\n      0x00\n        /* \"#utility.yul\":11918:11927   */\n      dup4\n        /* \"#utility.yul\":11914:11931   */\n      add\n        /* \"#utility.yul\":11905:11911   */\n      dup7\n        /* \"#utility.yul\":11861:11932   */\n      tag_152\n      jump\t// in\n    tag_285:\n        /* \"#utility.yul\":11942:12014   */\n      tag_286\n        /* \"#utility.yul\":12010:12012   */\n      0x20\n        /* \"#utility.yul\":11999:12008   */\n      dup4\n        /* \"#utility.yul\":11995:12013   */\n      add\n        /* \"#utility.yul\":11986:11992   */\n      dup6\n        /* \"#utility.yul\":11942:12014   */\n      tag_152\n      jump\t// in\n    tag_286:\n        /* \"#utility.yul\":12024:12096   */\n      tag_287\n        /* \"#utility.yul\":12092:12094   */\n      0x40\n        /* \"#utility.yul\":12081:12090   */\n      dup4\n        /* \"#utility.yul\":12077:12095   */\n      add\n        /* \"#utility.yul\":12068:12074   */\n      dup5\n        /* \"#utility.yul\":12024:12096   */\n      tag_151\n      jump\t// in\n    tag_287:\n        /* \"#utility.yul\":11661:12103   */\n      swap5\n      swap4\n      pop\n      pop\n      pop\n      pop\n      jump\t// out\n        /* \"#utility.yul\":12109:12289   */\n    tag_168:\n        /* \"#utility.yul\":12157:12234   */\n      0x4e487b7100000000000000000000000000000000000000000000000000000000\n        /* \"#utility.yul\":12154:12155   */\n      0x00\n        /* \"#utility.yul\":12147:12235   */\n      mstore\n        /* \"#utility.yul\":12254:12258   */\n      0x11\n        /* \"#utility.yul\":12251:12252   */\n      0x04\n        /* \"#utility.yul\":12244:12259   */\n      mstore\n        /* \"#utility.yul\":12278:12282   */\n      0x24\n        /* \"#utility.yul\":12275:12276   */\n      0x00\n        /* \"#utility.yul\":12268:12283   */\n      revert\n        /* \"#utility.yul\":12295:12486   */\n    tag_121:\n        /* \"#utility.yul\":12335:12338   */\n      0x00\n        /* \"#utility.yul\":12354:12374   */\n      tag_290\n        /* \"#utility.yul\":12372:12373   */\n      dup3\n        /* \"#utility.yul\":12354:12374   */\n      tag_145\n      jump\t// in\n    tag_290:\n        /* \"#utility.yul\":12349:12374   */\n      swap2\n      pop\n        /* \"#utility.yul\":12388:12408   */\n      tag_291\n        /* \"#utility.yul\":12406:12407   */\n      dup4\n        /* \"#utility.yul\":12388:12408   */\n      tag_145\n      jump\t// in\n    tag_291:\n        /* \"#utility.yul\":12383:12408   */\n      swap3\n      pop\n        /* \"#utility.yul\":12431:12432   */\n      dup3\n        /* \"#utility.yul\":12428:12429   */\n      dup3\n        /* \"#utility.yul\":12424:12433   */\n      add\n        /* \"#utility.yul\":12417:12433   */\n      swap1\n      pop\n        /* \"#utility.yul\":12452:12455   */\n      dup1\n        /* \"#utility.yul\":12449:12450   */\n      dup3\n        /* \"#utility.yul\":12446:12456   */\n      gt\n        /* \"#utility.yul\":12443:12479   */\n      iszero\n      tag_292\n      jumpi\n        /* \"#utility.yul\":12459:12477   */\n      tag_293\n      tag_168\n      jump\t// in\n    tag_293:\n        /* \"#utility.yul\":12443:12479   */\n    tag_292:\n        /* \"#utility.yul\":12295:12486   */\n      swap3\n      swap2\n      pop\n      pop\n      jump\t// out\n        /* \"#utility.yul\":12492:12668   */\n    tag_169:\n        /* \"#utility.yul\":12632:12660   */\n      0x4e6f20746f6b656e206465706f73697420746f2072657475726e000000000000\n        /* \"#utility.yul\":12628:12629   */\n      0x00\n        /* \"#utility.yul\":12620:12626   */\n      dup3\n        /* \"#utility.yul\":12616:12630   */\n      add\n        /* \"#utility.yul\":12609:12661   */\n      mstore\n        /* \"#utility.yul\":12492:12668   */\n      pop\n      jump\t// out\n        /* \"#utility.yul\":12674:13040   */\n    tag_170:\n        /* \"#utility.yul\":12816:12819   */\n      0x00\n        /* \"#utility.yul\":12837:12904   */\n      tag_296\n        /* \"#utility.yul\":12901:12903   */\n      0x1a\n        /* \"#utility.yul\":12896:12899   */\n      dup4\n        /* \"#utility.yul\":12837:12904   */\n      tag_153\n      jump\t// in\n    tag_296:\n        /* \"#utility.yul\":12830:12904   */\n      swap2\n      pop\n        /* \"#utility.yul\":12913:13006   */\n      tag_297\n        /* \"#utility.yul\":13002:13005   */\n      dup3\n        /* \"#utility.yul\":12913:13006   */\n      tag_169\n      jump\t// in\n    tag_297:\n        /* \"#utility.yul\":13031:13033   */\n      0x20\n        /* \"#utility.yul\":13026:13029   */\n      dup3\n        /* \"#utility.yul\":13022:13034   */\n      add\n        /* \"#utility.yul\":13015:13034   */\n      swap1\n      pop\n        /* \"#utility.yul\":12674:13040   */\n      swap2\n      swap1\n      pop\n      jump\t// out\n        /* \"#utility.yul\":13046:13465   */\n    tag_126:\n        /* \"#utility.yul\":13212:13216   */\n      0x00\n        /* \"#utility.yul\":13250:13252   */\n      0x20\n        /* \"#utility.yul\":13239:13248   */\n      dup3\n        /* \"#utility.yul\":13235:13253   */\n      add\n        /* \"#utility.yul\":13227:13253   */\n      swap1\n      pop\n        /* \"#utility.yul\":13299:13308   */\n      dup2\n        /* \"#utility.yul\":13293:13297   */\n      dup2\n        /* \"#utility.yul\":13289:13309   */\n      sub\n        /* \"#utility.yul\":13285:13286   */\n      0x00\n        /* \"#utility.yul\":13274:13283   */\n      dup4\n        /* \"#utility.yul\":13270:13287   */\n      add\n        /* \"#utility.yul\":13263:13310   */\n      mstore\n        /* \"#utility.yul\":13327:13458   */\n      tag_299\n        /* \"#utility.yul\":13453:13457   */\n      dup2\n        /* \"#utility.yul\":13327:13458   */\n      tag_170\n      jump\t// in\n    tag_299:\n        /* \"#utility.yul\":13319:13458   */\n      swap1\n      pop\n        /* \"#utility.yul\":13046:13465   */\n      swap2\n      swap1\n      pop\n      jump\t// out\n        /* \"#utility.yul\":13471:13648   */\n    tag_171:\n        /* \"#utility.yul\":13611:13640   */\n      0x4d7573742073656e6420736f6d65206e617469766520746f6b656e0000000000\n        /* \"#utility.yul\":13607:13608   */\n      0x00\n        /* \"#utility.yul\":13599:13605   */\n      dup3\n        /* \"#utility.yul\":13595:13609   */\n      add\n        /* \"#utility.yul\":13588:13641   */\n      mstore\n        /* \"#utility.yul\":13471:13648   */\n      pop\n      jump\t// out\n        /* \"#utility.yul\":13654:14020   */\n    tag_172:\n        /* \"#utility.yul\":13796:13799   */\n      0x00\n        /* \"#utility.yul\":13817:13884   */\n      tag_302\n        /* \"#utility.yul\":13881:13883   */\n      0x1b\n        /* \"#utility.yul\":13876:13879   */\n      dup4\n        /* \"#utility.yul\":13817:13884   */\n      tag_153\n      jump\t// in\n    tag_302:\n        /* \"#utility.yul\":13810:13884   */\n      swap2\n      pop\n        /* \"#utility.yul\":13893:13986   */\n      tag_303\n        /* \"#utility.yul\":13982:13985   */\n      dup3\n        /* \"#utility.yul\":13893:13986   */\n      tag_171\n      jump\t// in\n    tag_303:\n        /* \"#utility.yul\":14011:14013   */\n      0x20\n        /* \"#utility.yul\":14006:14009   */\n      dup3\n        /* \"#utility.yul\":14002:14014   */\n      add\n        /* \"#utility.yul\":13995:14014   */\n      swap1\n      pop\n        /* \"#utility.yul\":13654:14020   */\n      swap2\n      swap1\n      pop\n      jump\t// out\n        /* \"#utility.yul\":14026:14445   */\n    tag_135:\n        /* \"#utility.yul\":14192:14196   */\n      0x00\n        /* \"#utility.yul\":14230:14232   */\n      0x20\n        /* \"#utility.yul\":14219:14228   */\n      dup3\n        /* \"#utility.yul\":14215:14233   */\n      add\n        /* \"#utility.yul\":14207:14233   */\n      swap1\n      pop\n        /* \"#utility.yul\":14279:14288   */\n      dup2\n        /* \"#utility.yul\":14273:14277   */\n      dup2\n        /* \"#utility.yul\":14269:14289   */\n      sub\n        /* \"#utility.yul\":14265:14266   */\n      0x00\n        /* \"#utility.yul\":14254:14263   */\n      dup4\n        /* \"#utility.yul\":14250:14267   */\n      add\n        /* \"#utility.yul\":14243:14290   */\n      mstore\n        /* \"#utility.yul\":14307:14438   */\n      tag_305\n        /* \"#utility.yul\":14433:14437   */\n      dup2\n        /* \"#utility.yul\":14307:14438   */\n      tag_172\n      jump\t// in\n    tag_305:\n        /* \"#utility.yul\":14299:14438   */\n      swap1\n      pop\n        /* \"#utility.yul\":14026:14445   */\n      swap2\n      swap1\n      pop\n      jump\t// out\n\n    auxdata: 0xa2646970667358221220398795984ce889e1fad207a81907a84901af7d9ad2460ffcde83b20d94fef6f664736f6c634300081a0033\n}\n",
				"bytecode": {
					"linkReferences": {},
					"object": "6080604052348015600e575f80fd5b50335f806101000a81548173ffffffffffffffffffffffffffffffffffffffff021916908373ffffffffffffffffffffffffffffffffffffffff1602179055506113ec8061005b5f395ff3fe60806040526004361061009b575f3560e01c806388a9d5541161006357806388a9d5541461017d5780638da5cb5b146101a757806397feb926146101d1578063c7293668146101f9578063db6b524614610221578063f6c6bdee1461022b5761009b565b806320dcb8c21461009f5780633add0454146100c75780633aecd0e3146101035780636cd533d81461013f57806370471f7314610167575b5f80fd5b3480156100aa575f80fd5b506100c560048036038101906100c09190610d8c565b610267565b005b3480156100d2575f80fd5b506100ed60048036038101906100e89190610e05565b6103ce565b6040516100fa9190610e52565b60405180910390f35b34801561010e575f80fd5b5061012960048036038101906101249190610e6b565b6103ee565b6040516101369190610e52565b60405180910390f35b34801561014a575f80fd5b5061016560048036038101906101609190610e96565b610473565b005b348015610172575f80fd5b5061017b6106cd565b005b348015610188575f80fd5b50610191610828565b60405161019e9190610e52565b60405180910390f35b3480156101b2575f80fd5b506101bb61082f565b6040516101c89190610ef5565b60405180910390f35b3480156101dc575f80fd5b506101f760048036038101906101f29190610f0e565b610852565b005b348015610204575f80fd5b5061021f600480360381019061021a9190610e6b565b6109f5565b005b610229610bff565b005b348015610236575f80fd5b50610251600480360381019061024c9190610e6b565b610ce6565b60405161025e9190610e52565b60405180910390f35b5f8054906101000a900473ffffffffffffffffffffffffffffffffffffffff1673ffffffffffffffffffffffffffffffffffffffff163373ffffffffffffffffffffffffffffffffffffffff16146102f4576040517f08c379a00000000000000000000000000000000000000000000000000000000081526004016102eb90610fa6565b60405180910390fd5b80471015610337576040517f08c379a000000000000000000000000000000000000000000000000000000000815260040161032e9061100e565b60405180910390fd5b8173ffffffffffffffffffffffffffffffffffffffff166108fc8290811502906040515f60405180830381858888f1935050505015801561037a573d5f803e3d5ffd5b508173ffffffffffffffffffffffffffffffffffffffff167e1a143d5b175701cb3246058ffac3d63945192075a926ff73a19930f09d587a825f6040516103c292919061102c565b60405180910390a25050565b6002602052815f5260405f20602052805f5260405f205f91509150505481565b5f808290508073ffffffffffffffffffffffffffffffffffffffff166370a08231306040518263ffffffff1660e01b815260040161042c9190610ef5565b602060405180830381865afa158015610447573d5f803e3d5ffd5b505050506040513d601f19601f8201168201806040525081019061046b9190611067565b915050919050565b5f8054906101000a900473ffffffffffffffffffffffffffffffffffffffff1673ffffffffffffffffffffffffffffffffffffffff163373ffffffffffffffffffffffffffffffffffffffff1614610500576040517f08c379a00000000000000000000000000000000000000000000000000000000081526004016104f790610fa6565b60405180910390fd5b5f839050818173ffffffffffffffffffffffffffffffffffffffff166370a08231306040518263ffffffff1660e01b815260040161053e9190610ef5565b602060405180830381865afa158015610559573d5f803e3d5ffd5b505050506040513d601f19601f8201168201806040525081019061057d9190611067565b10156105be576040517f08c379a00000000000000000000000000000000000000000000000000000000081526004016105b5906110dc565b60405180910390fd5b8073ffffffffffffffffffffffffffffffffffffffff1663a9059cbb84846040518363ffffffff1660e01b81526004016105f99291906110fa565b6020604051808303815f875af1158015610615573d5f803e3d5ffd5b505050506040513d601f19601f820116820180604052508101906106399190611156565b610678576040517f08c379a000000000000000000000000000000000000000000000000000000000815260040161066f906111cb565b60405180910390fd5b8273ffffffffffffffffffffffffffffffffffffffff167e1a143d5b175701cb3246058ffac3d63945192075a926ff73a19930f09d587a83866040516106bf92919061102c565b60405180910390a250505050565b5f60015f3373ffffffffffffffffffffffffffffffffffffffff1673ffffffffffffffffffffffffffffffffffffffff1681526020019081526020015f205490505f8111610750576040517f08c379a000000000000000000000000000000000000000000000000000000000815260040161074790611233565b60405180910390fd5b5f60015f3373ffffffffffffffffffffffffffffffffffffffff1673ffffffffffffffffffffffffffffffffffffffff1681526020019081526020015f20819055503373ffffffffffffffffffffffffffffffffffffffff166108fc8290811502906040515f60405180830381858888f193505050501580156107d5573d5f803e3d5ffd5b503373ffffffffffffffffffffffffffffffffffffffff167e1a143d5b175701cb3246058ffac3d63945192075a926ff73a19930f09d587a825f60405161081d92919061102c565b60405180910390a250565b5f47905090565b5f8054906101000a900473ffffffffffffffffffffffffffffffffffffffff1681565b5f8290508073ffffffffffffffffffffffffffffffffffffffff166323b872dd3330856040518463ffffffff1660e01b815260040161089393929190611251565b6020604051808303815f875af11580156108af573d5f803e3d5ffd5b505050506040513d601f19601f820116820180604052508101906108d39190611156565b610912576040517f08c379a0000000000000000000000000000000000000000000000000000000008152600401610909906111cb565b60405180910390fd5b8160025f3373ffffffffffffffffffffffffffffffffffffffff1673ffffffffffffffffffffffffffffffffffffffff1681526020019081526020015f205f8573ffffffffffffffffffffffffffffffffffffffff1673ffffffffffffffffffffffffffffffffffffffff1681526020019081526020015f205f82825461099991906112b3565b925050819055503373ffffffffffffffffffffffffffffffffffffffff167fe31c7b8d08ee7db0afa68782e1028ef92305caeea8626633ad44d413e30f6b2f83856040516109e892919061102c565b60405180910390a2505050565b5f60025f3373ffffffffffffffffffffffffffffffffffffffff1673ffffffffffffffffffffffffffffffffffffffff1681526020019081526020015f205f8373ffffffffffffffffffffffffffffffffffffffff1673ffffffffffffffffffffffffffffffffffffffff1681526020019081526020015f205490505f8111610ab3576040517f08c379a0000000000000000000000000000000000000000000000000000000008152600401610aaa90611330565b60405180910390fd5b5f60025f3373ffffffffffffffffffffffffffffffffffffffff1673ffffffffffffffffffffffffffffffffffffffff1681526020019081526020015f205f8473ffffffffffffffffffffffffffffffffffffffff1673ffffffffffffffffffffffffffffffffffffffff1681526020019081526020015f20819055508173ffffffffffffffffffffffffffffffffffffffff1663a9059cbb33836040518363ffffffff1660e01b8152600401610b6b9291906110fa565b6020604051808303815f875af1158015610b87573d5f803e3d5ffd5b505050506040513d601f19601f82011682018060405250810190610bab9190611156565b503373ffffffffffffffffffffffffffffffffffffffff167e1a143d5b175701cb3246058ffac3d63945192075a926ff73a19930f09d587a8284604051610bf392919061102c565b60405180910390a25050565b5f3411610c41576040517f08c379a0000000000000000000000000000000000000000000000000000000008152600401610c3890611398565b60405180910390fd5b3460015f3373ffffffffffffffffffffffffffffffffffffffff1673ffffffffffffffffffffffffffffffffffffffff1681526020019081526020015f205f828254610c8d91906112b3565b925050819055503373ffffffffffffffffffffffffffffffffffffffff167fe31c7b8d08ee7db0afa68782e1028ef92305caeea8626633ad44d413e30f6b2f345f604051610cdc92919061102c565b60405180910390a2565b6001602052805f5260405f205f915090505481565b5f80fd5b5f73ffffffffffffffffffffffffffffffffffffffff82169050919050565b5f610d2882610cff565b9050919050565b610d3881610d1e565b8114610d42575f80fd5b50565b5f81359050610d5381610d2f565b92915050565b5f819050919050565b610d6b81610d59565b8114610d75575f80fd5b50565b5f81359050610d8681610d62565b92915050565b5f8060408385031215610da257610da1610cfb565b5b5f610daf85828601610d45565b9250506020610dc085828601610d78565b9150509250929050565b5f610dd482610cff565b9050919050565b610de481610dca565b8114610dee575f80fd5b50565b5f81359050610dff81610ddb565b92915050565b5f8060408385031215610e1b57610e1a610cfb565b5b5f610e2885828601610df1565b9250506020610e3985828601610df1565b9150509250929050565b610e4c81610d59565b82525050565b5f602082019050610e655f830184610e43565b92915050565b5f60208284031215610e8057610e7f610cfb565b5b5f610e8d84828501610df1565b91505092915050565b5f805f60608486031215610ead57610eac610cfb565b5b5f610eba86828701610df1565b9350506020610ecb86828701610df1565b9250506040610edc86828701610d78565b9150509250925092565b610eef81610dca565b82525050565b5f602082019050610f085f830184610ee6565b92915050565b5f8060408385031215610f2457610f23610cfb565b5b5f610f3185828601610df1565b9250506020610f4285828601610d78565b9150509250929050565b5f82825260208201905092915050565b7f4e6f7420617574686f72697a65640000000000000000000000000000000000005f82015250565b5f610f90600e83610f4c565b9150610f9b82610f5c565b602082019050919050565b5f6020820190508181035f830152610fbd81610f84565b9050919050565b7f496e73756666696369656e742062616c616e63650000000000000000000000005f82015250565b5f610ff8601483610f4c565b915061100382610fc4565b602082019050919050565b5f6020820190508181035f83015261102581610fec565b9050919050565b5f60408201905061103f5f830185610e43565b61104c6020830184610ee6565b9392505050565b5f8151905061106181610d62565b92915050565b5f6020828403121561107c5761107b610cfb565b5b5f61108984828501611053565b91505092915050565b7f496e73756666696369656e7420746f6b656e2062616c616e63650000000000005f82015250565b5f6110c6601a83610f4c565b91506110d182611092565b602082019050919050565b5f6020820190508181035f8301526110f3816110ba565b9050919050565b5f60408201905061110d5f830185610ee6565b61111a6020830184610e43565b9392505050565b5f8115159050919050565b61113581611121565b811461113f575f80fd5b50565b5f815190506111508161112c565b92915050565b5f6020828403121561116b5761116a610cfb565b5b5f61117884828501611142565b91505092915050565b7f5472616e73666572206661696c656400000000000000000000000000000000005f82015250565b5f6111b5600f83610f4c565b91506111c082611181565b602082019050919050565b5f6020820190508181035f8301526111e2816111a9565b9050919050565b7f4e6f206465706f73697420746f2072657475726e0000000000000000000000005f82015250565b5f61121d601483610f4c565b9150611228826111e9565b602082019050919050565b5f6020820190508181035f83015261124a81611211565b9050919050565b5f6060820190506112645f830186610ee6565b6112716020830185610ee6565b61127e6040830184610e43565b949350505050565b7f4e487b71000000000000000000000000000000000000000000000000000000005f52601160045260245ffd5b5f6112bd82610d59565b91506112c883610d59565b92508282019050808211156112e0576112df611286565b5b92915050565b7f4e6f20746f6b656e206465706f73697420746f2072657475726e0000000000005f82015250565b5f61131a601a83610f4c565b9150611325826112e6565b602082019050919050565b5f6020820190508181035f8301526113478161130e565b9050919050565b7f4d7573742073656e6420736f6d65206e617469766520746f6b656e00000000005f82015250565b5f611382601b83610f4c565b915061138d8261134e565b602082019050919050565b5f6020820190508181035f8301526113af81611376565b905091905056fea2646970667358221220398795984ce889e1fad207a81907a84901af7d9ad2460ffcde83b20d94fef6f664736f6c634300081a0033",
					"opcodes": "PUSH1 0x80 PUSH1 0x40 MSTORE CALLVALUE DUP1 ISZERO PUSH1 0xE JUMPI PUSH0 DUP1 REVERT JUMPDEST POP CALLER PUSH0 DUP1 PUSH2 0x100 EXP DUP2 SLOAD DUP2 PUSH20 0xFFFFFFFFFFFFFFFFFFFFFFFFFFFFFFFFFFFFFFFF MUL NOT AND SWAP1 DUP4 PUSH20 0xFFFFFFFFFFFFFFFFFFFFFFFFFFFFFFFFFFFFFFFF AND MUL OR SWAP1 SSTORE POP PUSH2 0x13EC DUP1 PUSH2 0x5B PUSH0 CODECOPY PUSH0 RETURN INVALID PUSH1 0x80 PUSH1 0x40 MSTORE PUSH1 0x4 CALLDATASIZE LT PUSH2 0x9B JUMPI PUSH0 CALLDATALOAD PUSH1 0xE0 SHR DUP1 PUSH4 0x88A9D554 GT PUSH2 0x63 JUMPI DUP1 PUSH4 0x88A9D554 EQ PUSH2 0x17D JUMPI DUP1 PUSH4 0x8DA5CB5B EQ PUSH2 0x1A7 JUMPI DUP1 PUSH4 0x97FEB926 EQ PUSH2 0x1D1 JUMPI DUP1 PUSH4 0xC7293668 EQ PUSH2 0x1F9 JUMPI DUP1 PUSH4 0xDB6B5246 EQ PUSH2 0x221 JUMPI DUP1 PUSH4 0xF6C6BDEE EQ PUSH2 0x22B JUMPI PUSH2 0x9B JUMP JUMPDEST DUP1 PUSH4 0x20DCB8C2 EQ PUSH2 0x9F JUMPI DUP1 PUSH4 0x3ADD0454 EQ PUSH2 0xC7 JUMPI DUP1 PUSH4 0x3AECD0E3 EQ PUSH2 0x103 JUMPI DUP1 PUSH4 0x6CD533D8 EQ PUSH2 0x13F JUMPI DUP1 PUSH4 0x70471F73 EQ PUSH2 0x167 JUMPI JUMPDEST PUSH0 DUP1 REVERT JUMPDEST CALLVALUE DUP1 ISZERO PUSH2 0xAA JUMPI PUSH0 DUP1 REVERT JUMPDEST POP PUSH2 0xC5 PUSH1 0x4 DUP1 CALLDATASIZE SUB DUP2 ADD SWAP1 PUSH2 0xC0 SWAP2 SWAP1 PUSH2 0xD8C JUMP JUMPDEST PUSH2 0x267 JUMP JUMPDEST STOP JUMPDEST CALLVALUE DUP1 ISZERO PUSH2 0xD2 JUMPI PUSH0 DUP1 REVERT JUMPDEST POP PUSH2 0xED PUSH1 0x4 DUP1 CALLDATASIZE SUB DUP2 ADD SWAP1 PUSH2 0xE8 SWAP2 SWAP1 PUSH2 0xE05 JUMP JUMPDEST PUSH2 0x3CE JUMP JUMPDEST PUSH1 0x40 MLOAD PUSH2 0xFA SWAP2 SWAP1 PUSH2 0xE52 JUMP JUMPDEST PUSH1 0x40 MLOAD DUP1 SWAP2 SUB SWAP1 RETURN JUMPDEST CALLVALUE DUP1 ISZERO PUSH2 0x10E JUMPI PUSH0 DUP1 REVERT JUMPDEST POP PUSH2 0x129 PUSH1 0x4 DUP1 CALLDATASIZE SUB DUP2 ADD SWAP1 PUSH2 0x124 SWAP2 SWAP1 PUSH2 0xE6B JUMP JUMPDEST PUSH2 0x3EE JUMP JUMPDEST PUSH1 0x40 MLOAD PUSH2 0x136 SWAP2 SWAP1 PUSH2 0xE52 JUMP JUMPDEST PUSH1 0x40 MLOAD DUP1 SWAP2 SUB SWAP1 RETURN JUMPDEST CALLVALUE DUP1 ISZERO PUSH2 0x14A JUMPI PUSH0 DUP1 REVERT JUMPDEST POP PUSH2 0x165 PUSH1 0x4 DUP1 CALLDATASIZE SUB DUP2 ADD SWAP1 PUSH2 0x160 SWAP2 SWAP1 PUSH2 0xE96 JUMP JUMPDEST PUSH2 0x473 JUMP JUMPDEST STOP JUMPDEST CALLVALUE DUP1 ISZERO PUSH2 0x172 JUMPI PUSH0 DUP1 REVERT JUMPDEST POP PUSH2 0x17B PUSH2 0x6CD JUMP JUMPDEST STOP JUMPDEST CALLVALUE DUP1 ISZERO PUSH2 0x188 JUMPI PUSH0 DUP1 REVERT JUMPDEST POP PUSH2 0x191 PUSH2 0x828 JUMP JUMPDEST PUSH1 0x40 MLOAD PUSH2 0x19E SWAP2 SWAP1 PUSH2 0xE52 JUMP JUMPDEST PUSH1 0x40 MLOAD DUP1 SWAP2 SUB SWAP1 RETURN JUMPDEST CALLVALUE DUP1 ISZERO PUSH2 0x1B2 JUMPI PUSH0 DUP1 REVERT JUMPDEST POP PUSH2 0x1BB PUSH2 0x82F JUMP JUMPDEST PUSH1 0x40 MLOAD PUSH2 0x1C8 SWAP2 SWAP1 PUSH2 0xEF5 JUMP JUMPDEST PUSH1 0x40 MLOAD DUP1 SWAP2 SUB SWAP1 RETURN JUMPDEST CALLVALUE DUP1 ISZERO PUSH2 0x1DC JUMPI PUSH0 DUP1 REVERT JUMPDEST POP PUSH2 0x1F7 PUSH1 0x4 DUP1 CALLDATASIZE SUB DUP2 ADD SWAP1 PUSH2 0x1F2 SWAP2 SWAP1 PUSH2 0xF0E JUMP JUMPDEST PUSH2 0x852 JUMP JUMPDEST STOP JUMPDEST CALLVALUE DUP1 ISZERO PUSH2 0x204 JUMPI PUSH0 DUP1 REVERT JUMPDEST POP PUSH2 0x21F PUSH1 0x4 DUP1 CALLDATASIZE SUB DUP2 ADD SWAP1 PUSH2 0x21A SWAP2 SWAP1 PUSH2 0xE6B JUMP JUMPDEST PUSH2 0x9F5 JUMP JUMPDEST STOP JUMPDEST PUSH2 0x229 PUSH2 0xBFF JUMP JUMPDEST STOP JUMPDEST CALLVALUE DUP1 ISZERO PUSH2 0x236 JUMPI PUSH0 DUP1 REVERT JUMPDEST POP PUSH2 0x251 PUSH1 0x4 DUP1 CALLDATASIZE SUB DUP2 ADD SWAP1 PUSH2 0x24C SWAP2 SWAP1 PUSH2 0xE6B JUMP JUMPDEST PUSH2 0xCE6 JUMP JUMPDEST PUSH1 0x40 MLOAD PUSH2 0x25E SWAP2 SWAP1 PUSH2 0xE52 JUMP JUMPDEST PUSH1 0x40 MLOAD DUP1 SWAP2 SUB SWAP1 RETURN JUMPDEST PUSH0 DUP1 SLOAD SWAP1 PUSH2 0x100 EXP SWAP1 DIV PUSH20 0xFFFFFFFFFFFFFFFFFFFFFFFFFFFFFFFFFFFFFFFF AND PUSH20 0xFFFFFFFFFFFFFFFFFFFFFFFFFFFFFFFFFFFFFFFF AND CALLER PUSH20 0xFFFFFFFFFFFFFFFFFFFFFFFFFFFFFFFFFFFFFFFF AND EQ PUSH2 0x2F4 JUMPI PUSH1 0x40 MLOAD PUSH32 0x8C379A000000000000000000000000000000000000000000000000000000000 DUP2 MSTORE PUSH1 0x4 ADD PUSH2 0x2EB SWAP1 PUSH2 0xFA6 JUMP JUMPDEST PUSH1 0x40 MLOAD DUP1 SWAP2 SUB SWAP1 REVERT JUMPDEST DUP1 SELFBALANCE LT ISZERO PUSH2 0x337 JUMPI PUSH1 0x40 MLOAD PUSH32 0x8C379A000000000000000000000000000000000000000000000000000000000 DUP2 MSTORE PUSH1 0x4 ADD PUSH2 0x32E SWAP1 PUSH2 0x100E JUMP JUMPDEST PUSH1 0x40 MLOAD DUP1 SWAP2 SUB SWAP1 REVERT JUMPDEST DUP2 PUSH20 0xFFFFFFFFFFFFFFFFFFFFFFFFFFFFFFFFFFFFFFFF AND PUSH2 0x8FC DUP3 SWAP1 DUP2 ISZERO MUL SWAP1 PUSH1 0x40 MLOAD PUSH0 PUSH1 0x40 MLOAD DUP1 DUP4 SUB DUP2 DUP6 DUP9 DUP9 CALL SWAP4 POP POP POP POP ISZERO DUP1 ISZERO PUSH2 0x37A JUMPI RETURNDATASIZE PUSH0 DUP1 RETURNDATACOPY RETURNDATASIZE PUSH0 REVERT JUMPDEST POP DUP2 PUSH20 0xFFFFFFFFFFFFFFFFFFFFFFFFFFFFFFFFFFFFFFFF AND PUSH31 0x1A143D5B175701CB3246058FFAC3D63945192075A926FF73A19930F09D587A DUP3 PUSH0 PUSH1 0x40 MLOAD PUSH2 0x3C2 SWAP3 SWAP2 SWAP1 PUSH2 0x102C JUMP JUMPDEST PUSH1 0x40 MLOAD DUP1 SWAP2 SUB SWAP1 LOG2 POP POP JUMP JUMPDEST PUSH1 0x2 PUSH1 0x20 MSTORE DUP2 PUSH0 MSTORE PUSH1 0x40 PUSH0 KECCAK256 PUSH1 0x20 MSTORE DUP1 PUSH0 MSTORE PUSH1 0x40 PUSH0 KECCAK256 PUSH0 SWAP2 POP SWAP2 POP POP SLOAD DUP2 JUMP JUMPDEST PUSH0 DUP1 DUP3 SWAP1 POP DUP1 PUSH20 0xFFFFFFFFFFFFFFFFFFFFFFFFFFFFFFFFFFFFFFFF AND PUSH4 0x70A08231 ADDRESS PUSH1 0x40 MLOAD DUP3 PUSH4 0xFFFFFFFF AND PUSH1 0xE0 SHL DUP2 MSTORE PUSH1 0x4 ADD PUSH2 0x42C SWAP2 SWAP1 PUSH2 0xEF5 JUMP JUMPDEST PUSH1 0x20 PUSH1 0x40 MLOAD DUP1 DUP4 SUB DUP2 DUP7 GAS STATICCALL ISZERO DUP1 ISZERO PUSH2 0x447 JUMPI RETURNDATASIZE PUSH0 DUP1 RETURNDATACOPY RETURNDATASIZE PUSH0 REVERT JUMPDEST POP POP POP POP PUSH1 0x40 MLOAD RETURNDATASIZE PUSH1 0x1F NOT PUSH1 0x1F DUP3 ADD AND DUP3 ADD DUP1 PUSH1 0x40 MSTORE POP DUP2 ADD SWAP1 PUSH2 0x46B SWAP2 SWAP1 PUSH2 0x1067 JUMP JUMPDEST SWAP2 POP POP SWAP2 SWAP1 POP JUMP JUMPDEST PUSH0 DUP1 SLOAD SWAP1 PUSH2 0x100 EXP SWAP1 DIV PUSH20 0xFFFFFFFFFFFFFFFFFFFFFFFFFFFFFFFFFFFFFFFF AND PUSH20 0xFFFFFFFFFFFFFFFFFFFFFFFFFFFFFFFFFFFFFFFF AND CALLER PUSH20 0xFFFFFFFFFFFFFFFFFFFFFFFFFFFFFFFFFFFFFFFF AND EQ PUSH2 0x500 JUMPI PUSH1 0x40 MLOAD PUSH32 0x8C379A000000000000000000000000000000000000000000000000000000000 DUP2 MSTORE PUSH1 0x4 ADD PUSH2 0x4F7 SWAP1 PUSH2 0xFA6 JUMP JUMPDEST PUSH1 0x40 MLOAD DUP1 SWAP2 SUB SWAP1 REVERT JUMPDEST PUSH0 DUP4 SWAP1 POP DUP2 DUP2 PUSH20 0xFFFFFFFFFFFFFFFFFFFFFFFFFFFFFFFFFFFFFFFF AND PUSH4 0x70A08231 ADDRESS PUSH1 0x40 MLOAD DUP3 PUSH4 0xFFFFFFFF AND PUSH1 0xE0 SHL DUP2 MSTORE PUSH1 0x4 ADD PUSH2 0x53E SWAP2 SWAP1 PUSH2 0xEF5 JUMP JUMPDEST PUSH1 0x20 PUSH1 0x40 MLOAD DUP1 DUP4 SUB DUP2 DUP7 GAS STATICCALL ISZERO DUP1 ISZERO PUSH2 0x559 JUMPI RETURNDATASIZE PUSH0 DUP1 RETURNDATACOPY RETURNDATASIZE PUSH0 REVERT JUMPDEST POP POP POP POP PUSH1 0x40 MLOAD RETURNDATASIZE PUSH1 0x1F NOT PUSH1 0x1F DUP3 ADD AND DUP3 ADD DUP1 PUSH1 0x40 MSTORE POP DUP2 ADD SWAP1 PUSH2 0x57D SWAP2 SWAP1 PUSH2 0x1067 JUMP JUMPDEST LT ISZERO PUSH2 0x5BE JUMPI PUSH1 0x40 MLOAD PUSH32 0x8C379A000000000000000000000000000000000000000000000000000000000 DUP2 MSTORE PUSH1 0x4 ADD PUSH2 0x5B5 SWAP1 PUSH2 0x10DC JUMP JUMPDEST PUSH1 0x40 MLOAD DUP1 SWAP2 SUB SWAP1 REVERT JUMPDEST DUP1 PUSH20 0xFFFFFFFFFFFFFFFFFFFFFFFFFFFFFFFFFFFFFFFF AND PUSH4 0xA9059CBB DUP5 DUP5 PUSH1 0x40 MLOAD DUP4 PUSH4 0xFFFFFFFF AND PUSH1 0xE0 SHL DUP2 MSTORE PUSH1 0x4 ADD PUSH2 0x5F9 SWAP3 SWAP2 SWAP1 PUSH2 0x10FA JUMP JUMPDEST PUSH1 0x20 PUSH1 0x40 MLOAD DUP1 DUP4 SUB DUP2 PUSH0 DUP8 GAS CALL ISZERO DUP1 ISZERO PUSH2 0x615 JUMPI RETURNDATASIZE PUSH0 DUP1 RETURNDATACOPY RETURNDATASIZE PUSH0 REVERT JUMPDEST POP POP POP POP PUSH1 0x40 MLOAD RETURNDATASIZE PUSH1 0x1F NOT PUSH1 0x1F DUP3 ADD AND DUP3 ADD DUP1 PUSH1 0x40 MSTORE POP DUP2 ADD SWAP1 PUSH2 0x639 SWAP2 SWAP1 PUSH2 0x1156 JUMP JUMPDEST PUSH2 0x678 JUMPI PUSH1 0x40 MLOAD PUSH32 0x8C379A000000000000000000000000000000000000000000000000000000000 DUP2 MSTORE PUSH1 0x4 ADD PUSH2 0x66F SWAP1 PUSH2 0x11CB JUMP JUMPDEST PUSH1 0x40 MLOAD DUP1 SWAP2 SUB SWAP1 REVERT JUMPDEST DUP3 PUSH20 0xFFFFFFFFFFFFFFFFFFFFFFFFFFFFFFFFFFFFFFFF AND PUSH31 0x1A143D5B175701CB3246058FFAC3D63945192075A926FF73A19930F09D587A DUP4 DUP7 PUSH1 0x40 MLOAD PUSH2 0x6BF SWAP3 SWAP2 SWAP1 PUSH2 0x102C JUMP JUMPDEST PUSH1 0x40 MLOAD DUP1 SWAP2 SUB SWAP1 LOG2 POP POP POP POP JUMP JUMPDEST PUSH0 PUSH1 0x1 PUSH0 CALLER PUSH20 0xFFFFFFFFFFFFFFFFFFFFFFFFFFFFFFFFFFFFFFFF AND PUSH20 0xFFFFFFFFFFFFFFFFFFFFFFFFFFFFFFFFFFFFFFFF AND DUP2 MSTORE PUSH1 0x20 ADD SWAP1 DUP2 MSTORE PUSH1 0x20 ADD PUSH0 KECCAK256 SLOAD SWAP1 POP PUSH0 DUP2 GT PUSH2 0x750 JUMPI PUSH1 0x40 MLOAD PUSH32 0x8C379A000000000000000000000000000000000000000000000000000000000 DUP2 MSTORE PUSH1 0x4 ADD PUSH2 0x747 SWAP1 PUSH2 0x1233 JUMP JUMPDEST PUSH1 0x40 MLOAD DUP1 SWAP2 SUB SWAP1 REVERT JUMPDEST PUSH0 PUSH1 0x1 PUSH0 CALLER PUSH20 0xFFFFFFFFFFFFFFFFFFFFFFFFFFFFFFFFFFFFFFFF AND PUSH20 0xFFFFFFFFFFFFFFFFFFFFFFFFFFFFFFFFFFFFFFFF AND DUP2 MSTORE PUSH1 0x20 ADD SWAP1 DUP2 MSTORE PUSH1 0x20 ADD PUSH0 KECCAK256 DUP2 SWAP1 SSTORE POP CALLER PUSH20 0xFFFFFFFFFFFFFFFFFFFFFFFFFFFFFFFFFFFFFFFF AND PUSH2 0x8FC DUP3 SWAP1 DUP2 ISZERO MUL SWAP1 PUSH1 0x40 MLOAD PUSH0 PUSH1 0x40 MLOAD DUP1 DUP4 SUB DUP2 DUP6 DUP9 DUP9 CALL SWAP4 POP POP POP POP ISZERO DUP1 ISZERO PUSH2 0x7D5 JUMPI RETURNDATASIZE PUSH0 DUP1 RETURNDATACOPY RETURNDATASIZE PUSH0 REVERT JUMPDEST POP CALLER PUSH20 0xFFFFFFFFFFFFFFFFFFFFFFFFFFFFFFFFFFFFFFFF AND PUSH31 0x1A143D5B175701CB3246058FFAC3D63945192075A926FF73A19930F09D587A DUP3 PUSH0 PUSH1 0x40 MLOAD PUSH2 0x81D SWAP3 SWAP2 SWAP1 PUSH2 0x102C JUMP JUMPDEST PUSH1 0x40 MLOAD DUP1 SWAP2 SUB SWAP1 LOG2 POP JUMP JUMPDEST PUSH0 SELFBALANCE SWAP1 POP SWAP1 JUMP JUMPDEST PUSH0 DUP1 SLOAD SWAP1 PUSH2 0x100 EXP SWAP1 DIV PUSH20 0xFFFFFFFFFFFFFFFFFFFFFFFFFFFFFFFFFFFFFFFF AND DUP2 JUMP JUMPDEST PUSH0 DUP3 SWAP1 POP DUP1 PUSH20 0xFFFFFFFFFFFFFFFFFFFFFFFFFFFFFFFFFFFFFFFF AND PUSH4 0x23B872DD CALLER ADDRESS DUP6 PUSH1 0x40 MLOAD DUP5 PUSH4 0xFFFFFFFF AND PUSH1 0xE0 SHL DUP2 MSTORE PUSH1 0x4 ADD PUSH2 0x893 SWAP4 SWAP3 SWAP2 SWAP1 PUSH2 0x1251 JUMP JUMPDEST PUSH1 0x20 PUSH1 0x40 MLOAD DUP1 DUP4 SUB DUP2 PUSH0 DUP8 GAS CALL ISZERO DUP1 ISZERO PUSH2 0x8AF JUMPI RETURNDATASIZE PUSH0 DUP1 RETURNDATACOPY RETURNDATASIZE PUSH0 REVERT JUMPDEST POP POP POP POP PUSH1 0x40 MLOAD RETURNDATASIZE PUSH1 0x1F NOT PUSH1 0x1F DUP3 ADD AND DUP3 ADD DUP1 PUSH1 0x40 MSTORE POP DUP2 ADD SWAP1 PUSH2 0x8D3 SWAP2 SWAP1 PUSH2 0x1156 JUMP JUMPDEST PUSH2 0x912 JUMPI PUSH1 0x40 MLOAD PUSH32 0x8C379A000000000000000000000000000000000000000000000000000000000 DUP2 MSTORE PUSH1 0x4 ADD PUSH2 0x909 SWAP1 PUSH2 0x11CB JUMP JUMPDEST PUSH1 0x40 MLOAD DUP1 SWAP2 SUB SWAP1 REVERT JUMPDEST DUP2 PUSH1 0x2 PUSH0 CALLER PUSH20 0xFFFFFFFFFFFFFFFFFFFFFFFFFFFFFFFFFFFFFFFF AND PUSH20 0xFFFFFFFFFFFFFFFFFFFFFFFFFFFFFFFFFFFFFFFF AND DUP2 MSTORE PUSH1 0x20 ADD SWAP1 DUP2 MSTORE PUSH1 0x20 ADD PUSH0 KECCAK256 PUSH0 DUP6 PUSH20 0xFFFFFFFFFFFFFFFFFFFFFFFFFFFFFFFFFFFFFFFF AND PUSH20 0xFFFFFFFFFFFFFFFFFFFFFFFFFFFFFFFFFFFFFFFF AND DUP2 MSTORE PUSH1 0x20 ADD SWAP1 DUP2 MSTORE PUSH1 0x20 ADD PUSH0 KECCAK256 PUSH0 DUP3 DUP3 SLOAD PUSH2 0x999 SWAP2 SWAP1 PUSH2 0x12B3 JUMP JUMPDEST SWAP3 POP POP DUP2 SWAP1 SSTORE POP CALLER PUSH20 0xFFFFFFFFFFFFFFFFFFFFFFFFFFFFFFFFFFFFFFFF AND PUSH32 0xE31C7B8D08EE7DB0AFA68782E1028EF92305CAEEA8626633AD44D413E30F6B2F DUP4 DUP6 PUSH1 0x40 MLOAD PUSH2 0x9E8 SWAP3 SWAP2 SWAP1 PUSH2 0x102C JUMP JUMPDEST PUSH1 0x40 MLOAD DUP1 SWAP2 SUB SWAP1 LOG2 POP POP POP JUMP JUMPDEST PUSH0 PUSH1 0x2 PUSH0 CALLER PUSH20 0xFFFFFFFFFFFFFFFFFFFFFFFFFFFFFFFFFFFFFFFF AND PUSH20 0xFFFFFFFFFFFFFFFFFFFFFFFFFFFFFFFFFFFFFFFF AND DUP2 MSTORE PUSH1 0x20 ADD SWAP1 DUP2 MSTORE PUSH1 0x20 ADD PUSH0 KECCAK256 PUSH0 DUP4 PUSH20 0xFFFFFFFFFFFFFFFFFFFFFFFFFFFFFFFFFFFFFFFF AND PUSH20 0xFFFFFFFFFFFFFFFFFFFFFFFFFFFFFFFFFFFFFFFF AND DUP2 MSTORE PUSH1 0x20 ADD SWAP1 DUP2 MSTORE PUSH1 0x20 ADD PUSH0 KECCAK256 SLOAD SWAP1 POP PUSH0 DUP2 GT PUSH2 0xAB3 JUMPI PUSH1 0x40 MLOAD PUSH32 0x8C379A000000000000000000000000000000000000000000000000000000000 DUP2 MSTORE PUSH1 0x4 ADD PUSH2 0xAAA SWAP1 PUSH2 0x1330 JUMP JUMPDEST PUSH1 0x40 MLOAD DUP1 SWAP2 SUB SWAP1 REVERT JUMPDEST PUSH0 PUSH1 0x2 PUSH0 CALLER PUSH20 0xFFFFFFFFFFFFFFFFFFFFFFFFFFFFFFFFFFFFFFFF AND PUSH20 0xFFFFFFFFFFFFFFFFFFFFFFFFFFFFFFFFFFFFFFFF AND DUP2 MSTORE PUSH1 0x20 ADD SWAP1 DUP2 MSTORE PUSH1 0x20 ADD PUSH0 KECCAK256 PUSH0 DUP5 PUSH20 0xFFFFFFFFFFFFFFFFFFFFFFFFFFFFFFFFFFFFFFFF AND PUSH20 0xFFFFFFFFFFFFFFFFFFFFFFFFFFFFFFFFFFFFFFFF AND DUP2 MSTORE PUSH1 0x20 ADD SWAP1 DUP2 MSTORE PUSH1 0x20 ADD PUSH0 KECCAK256 DUP2 SWAP1 SSTORE POP DUP2 PUSH20 0xFFFFFFFFFFFFFFFFFFFFFFFFFFFFFFFFFFFFFFFF AND PUSH4 0xA9059CBB CALLER DUP4 PUSH1 0x40 MLOAD DUP4 PUSH4 0xFFFFFFFF AND PUSH1 0xE0 SHL DUP2 MSTORE PUSH1 0x4 ADD PUSH2 0xB6B SWAP3 SWAP2 SWAP1 PUSH2 0x10FA JUMP JUMPDEST PUSH1 0x20 PUSH1 0x40 MLOAD DUP1 DUP4 SUB DUP2 PUSH0 DUP8 GAS CALL ISZERO DUP1 ISZERO PUSH2 0xB87 JUMPI RETURNDATASIZE PUSH0 DUP1 RETURNDATACOPY RETURNDATASIZE PUSH0 REVERT JUMPDEST POP POP POP POP PUSH1 0x40 MLOAD RETURNDATASIZE PUSH1 0x1F NOT PUSH1 0x1F DUP3 ADD AND DUP3 ADD DUP1 PUSH1 0x40 MSTORE POP DUP2 ADD SWAP1 PUSH2 0xBAB SWAP2 SWAP1 PUSH2 0x1156 JUMP JUMPDEST POP CALLER PUSH20 0xFFFFFFFFFFFFFFFFFFFFFFFFFFFFFFFFFFFFFFFF AND PUSH31 0x1A143D5B175701CB3246058FFAC3D63945192075A926FF73A19930F09D587A DUP3 DUP5 PUSH1 0x40 MLOAD PUSH2 0xBF3 SWAP3 SWAP2 SWAP1 PUSH2 0x102C JUMP JUMPDEST PUSH1 0x40 MLOAD DUP1 SWAP2 SUB SWAP1 LOG2 POP POP JUMP JUMPDEST PUSH0 CALLVALUE GT PUSH2 0xC41 JUMPI PUSH1 0x40 MLOAD PUSH32 0x8C379A000000000000000000000000000000000000000000000000000000000 DUP2 MSTORE PUSH1 0x4 ADD PUSH2 0xC38 SWAP1 PUSH2 0x1398 JUMP JUMPDEST PUSH1 0x40 MLOAD DUP1 SWAP2 SUB SWAP1 REVERT JUMPDEST CALLVALUE PUSH1 0x1 PUSH0 CALLER PUSH20 0xFFFFFFFFFFFFFFFFFFFFFFFFFFFFFFFFFFFFFFFF AND PUSH20 0xFFFFFFFFFFFFFFFFFFFFFFFFFFFFFFFFFFFFFFFF AND DUP2 MSTORE PUSH1 0x20 ADD SWAP1 DUP2 MSTORE PUSH1 0x20 ADD PUSH0 KECCAK256 PUSH0 DUP3 DUP3 SLOAD PUSH2 0xC8D SWAP2 SWAP1 PUSH2 0x12B3 JUMP JUMPDEST SWAP3 POP POP DUP2 SWAP1 SSTORE POP CALLER PUSH20 0xFFFFFFFFFFFFFFFFFFFFFFFFFFFFFFFFFFFFFFFF AND PUSH32 0xE31C7B8D08EE7DB0AFA68782E1028EF92305CAEEA8626633AD44D413E30F6B2F CALLVALUE PUSH0 PUSH1 0x40 MLOAD PUSH2 0xCDC SWAP3 SWAP2 SWAP1 PUSH2 0x102C JUMP JUMPDEST PUSH1 0x40 MLOAD DUP1 SWAP2 SUB SWAP1 LOG2 JUMP JUMPDEST PUSH1 0x1 PUSH1 0x20 MSTORE DUP1 PUSH0 MSTORE PUSH1 0x40 PUSH0 KECCAK256 PUSH0 SWAP2 POP SWAP1 POP SLOAD DUP2 JUMP JUMPDEST PUSH0 DUP1 REVERT JUMPDEST PUSH0 PUSH20 0xFFFFFFFFFFFFFFFFFFFFFFFFFFFFFFFFFFFFFFFF DUP3 AND SWAP1 POP SWAP2 SWAP1 POP JUMP JUMPDEST PUSH0 PUSH2 0xD28 DUP3 PUSH2 0xCFF JUMP JUMPDEST SWAP1 POP SWAP2 SWAP1 POP JUMP JUMPDEST PUSH2 0xD38 DUP2 PUSH2 0xD1E JUMP JUMPDEST DUP2 EQ PUSH2 0xD42 JUMPI PUSH0 DUP1 REVERT JUMPDEST POP JUMP JUMPDEST PUSH0 DUP2 CALLDATALOAD SWAP1 POP PUSH2 0xD53 DUP2 PUSH2 0xD2F JUMP JUMPDEST SWAP3 SWAP2 POP POP JUMP JUMPDEST PUSH0 DUP2 SWAP1 POP SWAP2 SWAP1 POP JUMP JUMPDEST PUSH2 0xD6B DUP2 PUSH2 0xD59 JUMP JUMPDEST DUP2 EQ PUSH2 0xD75 JUMPI PUSH0 DUP1 REVERT JUMPDEST POP JUMP JUMPDEST PUSH0 DUP2 CALLDATALOAD SWAP1 POP PUSH2 0xD86 DUP2 PUSH2 0xD62 JUMP JUMPDEST SWAP3 SWAP2 POP POP JUMP JUMPDEST PUSH0 DUP1 PUSH1 0x40 DUP4 DUP6 SUB SLT ISZERO PUSH2 0xDA2 JUMPI PUSH2 0xDA1 PUSH2 0xCFB JUMP JUMPDEST JUMPDEST PUSH0 PUSH2 0xDAF DUP6 DUP3 DUP7 ADD PUSH2 0xD45 JUMP JUMPDEST SWAP3 POP POP PUSH1 0x20 PUSH2 0xDC0 DUP6 DUP3 DUP7 ADD PUSH2 0xD78 JUMP JUMPDEST SWAP2 POP POP SWAP3 POP SWAP3 SWAP1 POP JUMP JUMPDEST PUSH0 PUSH2 0xDD4 DUP3 PUSH2 0xCFF JUMP JUMPDEST SWAP1 POP SWAP2 SWAP1 POP JUMP JUMPDEST PUSH2 0xDE4 DUP2 PUSH2 0xDCA JUMP JUMPDEST DUP2 EQ PUSH2 0xDEE JUMPI PUSH0 DUP1 REVERT JUMPDEST POP JUMP JUMPDEST PUSH0 DUP2 CALLDATALOAD SWAP1 POP PUSH2 0xDFF DUP2 PUSH2 0xDDB JUMP JUMPDEST SWAP3 SWAP2 POP POP JUMP JUMPDEST PUSH0 DUP1 PUSH1 0x40 DUP4 DUP6 SUB SLT ISZERO PUSH2 0xE1B JUMPI PUSH2 0xE1A PUSH2 0xCFB JUMP JUMPDEST JUMPDEST PUSH0 PUSH2 0xE28 DUP6 DUP3 DUP7 ADD PUSH2 0xDF1 JUMP JUMPDEST SWAP3 POP POP PUSH1 0x20 PUSH2 0xE39 DUP6 DUP3 DUP7 ADD PUSH2 0xDF1 JUMP JUMPDEST SWAP2 POP POP SWAP3 POP SWAP3 SWAP1 POP JUMP JUMPDEST PUSH2 0xE4C DUP2 PUSH2 0xD59 JUMP JUMPDEST DUP3 MSTORE POP POP JUMP JUMPDEST PUSH0 PUSH1 0x20 DUP3 ADD SWAP1 POP PUSH2 0xE65 PUSH0 DUP4 ADD DUP5 PUSH2 0xE43 JUMP JUMPDEST SWAP3 SWAP2 POP POP JUMP JUMPDEST PUSH0 PUSH1 0x20 DUP3 DUP5 SUB SLT ISZERO PUSH2 0xE80 JUMPI PUSH2 0xE7F PUSH2 0xCFB JUMP JUMPDEST JUMPDEST PUSH0 PUSH2 0xE8D DUP5 DUP3 DUP6 ADD PUSH2 0xDF1 JUMP JUMPDEST SWAP2 POP POP SWAP3 SWAP2 POP POP JUMP JUMPDEST PUSH0 DUP1 PUSH0 PUSH1 0x60 DUP5 DUP7 SUB SLT ISZERO PUSH2 0xEAD JUMPI PUSH2 0xEAC PUSH2 0xCFB JUMP JUMPDEST JUMPDEST PUSH0 PUSH2 0xEBA DUP7 DUP3 DUP8 ADD PUSH2 0xDF1 JUMP JUMPDEST SWAP4 POP POP PUSH1 0x20 PUSH2 0xECB DUP7 DUP3 DUP8 ADD PUSH2 0xDF1 JUMP JUMPDEST SWAP3 POP POP PUSH1 0x40 PUSH2 0xEDC DUP7 DUP3 DUP8 ADD PUSH2 0xD78 JUMP JUMPDEST SWAP2 POP POP SWAP3 POP SWAP3 POP SWAP3 JUMP JUMPDEST PUSH2 0xEEF DUP2 PUSH2 0xDCA JUMP JUMPDEST DUP3 MSTORE POP POP JUMP JUMPDEST PUSH0 PUSH1 0x20 DUP3 ADD SWAP1 POP PUSH2 0xF08 PUSH0 DUP4 ADD DUP5 PUSH2 0xEE6 JUMP JUMPDEST SWAP3 SWAP2 POP POP JUMP JUMPDEST PUSH0 DUP1 PUSH1 0x40 DUP4 DUP6 SUB SLT ISZERO PUSH2 0xF24 JUMPI PUSH2 0xF23 PUSH2 0xCFB JUMP JUMPDEST JUMPDEST PUSH0 PUSH2 0xF31 DUP6 DUP3 DUP7 ADD PUSH2 0xDF1 JUMP JUMPDEST SWAP3 POP POP PUSH1 0x20 PUSH2 0xF42 DUP6 DUP3 DUP7 ADD PUSH2 0xD78 JUMP JUMPDEST SWAP2 POP POP SWAP3 POP SWAP3 SWAP1 POP JUMP JUMPDEST PUSH0 DUP3 DUP3 MSTORE PUSH1 0x20 DUP3 ADD SWAP1 POP SWAP3 SWAP2 POP POP JUMP JUMPDEST PUSH32 0x4E6F7420617574686F72697A6564000000000000000000000000000000000000 PUSH0 DUP3 ADD MSTORE POP JUMP JUMPDEST PUSH0 PUSH2 0xF90 PUSH1 0xE DUP4 PUSH2 0xF4C JUMP JUMPDEST SWAP2 POP PUSH2 0xF9B DUP3 PUSH2 0xF5C JUMP JUMPDEST PUSH1 0x20 DUP3 ADD SWAP1 POP SWAP2 SWAP1 POP JUMP JUMPDEST PUSH0 PUSH1 0x20 DUP3 ADD SWAP1 POP DUP2 DUP2 SUB PUSH0 DUP4 ADD MSTORE PUSH2 0xFBD DUP2 PUSH2 0xF84 JUMP JUMPDEST SWAP1 POP SWAP2 SWAP1 POP JUMP JUMPDEST PUSH32 0x496E73756666696369656E742062616C616E6365000000000000000000000000 PUSH0 DUP3 ADD MSTORE POP JUMP JUMPDEST PUSH0 PUSH2 0xFF8 PUSH1 0x14 DUP4 PUSH2 0xF4C JUMP JUMPDEST SWAP2 POP PUSH2 0x1003 DUP3 PUSH2 0xFC4 JUMP JUMPDEST PUSH1 0x20 DUP3 ADD SWAP1 POP SWAP2 SWAP1 POP JUMP JUMPDEST PUSH0 PUSH1 0x20 DUP3 ADD SWAP1 POP DUP2 DUP2 SUB PUSH0 DUP4 ADD MSTORE PUSH2 0x1025 DUP2 PUSH2 0xFEC JUMP JUMPDEST SWAP1 POP SWAP2 SWAP1 POP JUMP JUMPDEST PUSH0 PUSH1 0x40 DUP3 ADD SWAP1 POP PUSH2 0x103F PUSH0 DUP4 ADD DUP6 PUSH2 0xE43 JUMP JUMPDEST PUSH2 0x104C PUSH1 0x20 DUP4 ADD DUP5 PUSH2 0xEE6 JUMP JUMPDEST SWAP4 SWAP3 POP POP POP JUMP JUMPDEST PUSH0 DUP2 MLOAD SWAP1 POP PUSH2 0x1061 DUP2 PUSH2 0xD62 JUMP JUMPDEST SWAP3 SWAP2 POP POP JUMP JUMPDEST PUSH0 PUSH1 0x20 DUP3 DUP5 SUB SLT ISZERO PUSH2 0x107C JUMPI PUSH2 0x107B PUSH2 0xCFB JUMP JUMPDEST JUMPDEST PUSH0 PUSH2 0x1089 DUP5 DUP3 DUP6 ADD PUSH2 0x1053 JUMP JUMPDEST SWAP2 POP POP SWAP3 SWAP2 POP POP JUMP JUMPDEST PUSH32 0x496E73756666696369656E7420746F6B656E2062616C616E6365000000000000 PUSH0 DUP3 ADD MSTORE POP JUMP JUMPDEST PUSH0 PUSH2 0x10C6 PUSH1 0x1A DUP4 PUSH2 0xF4C JUMP JUMPDEST SWAP2 POP PUSH2 0x10D1 DUP3 PUSH2 0x1092 JUMP JUMPDEST PUSH1 0x20 DUP3 ADD SWAP1 POP SWAP2 SWAP1 POP JUMP JUMPDEST PUSH0 PUSH1 0x20 DUP3 ADD SWAP1 POP DUP2 DUP2 SUB PUSH0 DUP4 ADD MSTORE PUSH2 0x10F3 DUP2 PUSH2 0x10BA JUMP JUMPDEST SWAP1 POP SWAP2 SWAP1 POP JUMP JUMPDEST PUSH0 PUSH1 0x40 DUP3 ADD SWAP1 POP PUSH2 0x110D PUSH0 DUP4 ADD DUP6 PUSH2 0xEE6 JUMP JUMPDEST PUSH2 0x111A PUSH1 0x20 DUP4 ADD DUP5 PUSH2 0xE43 JUMP JUMPDEST SWAP4 SWAP3 POP POP POP JUMP JUMPDEST PUSH0 DUP2 ISZERO ISZERO SWAP1 POP SWAP2 SWAP1 POP JUMP JUMPDEST PUSH2 0x1135 DUP2 PUSH2 0x1121 JUMP JUMPDEST DUP2 EQ PUSH2 0x113F JUMPI PUSH0 DUP1 REVERT JUMPDEST POP JUMP JUMPDEST PUSH0 DUP2 MLOAD SWAP1 POP PUSH2 0x1150 DUP2 PUSH2 0x112C JUMP JUMPDEST SWAP3 SWAP2 POP POP JUMP JUMPDEST PUSH0 PUSH1 0x20 DUP3 DUP5 SUB SLT ISZERO PUSH2 0x116B JUMPI PUSH2 0x116A PUSH2 0xCFB JUMP JUMPDEST JUMPDEST PUSH0 PUSH2 0x1178 DUP5 DUP3 DUP6 ADD PUSH2 0x1142 JUMP JUMPDEST SWAP2 POP POP SWAP3 SWAP2 POP POP JUMP JUMPDEST PUSH32 0x5472616E73666572206661696C65640000000000000000000000000000000000 PUSH0 DUP3 ADD MSTORE POP JUMP JUMPDEST PUSH0 PUSH2 0x11B5 PUSH1 0xF DUP4 PUSH2 0xF4C JUMP JUMPDEST SWAP2 POP PUSH2 0x11C0 DUP3 PUSH2 0x1181 JUMP JUMPDEST PUSH1 0x20 DUP3 ADD SWAP1 POP SWAP2 SWAP1 POP JUMP JUMPDEST PUSH0 PUSH1 0x20 DUP3 ADD SWAP1 POP DUP2 DUP2 SUB PUSH0 DUP4 ADD MSTORE PUSH2 0x11E2 DUP2 PUSH2 0x11A9 JUMP JUMPDEST SWAP1 POP SWAP2 SWAP1 POP JUMP JUMPDEST PUSH32 0x4E6F206465706F73697420746F2072657475726E000000000000000000000000 PUSH0 DUP3 ADD MSTORE POP JUMP JUMPDEST PUSH0 PUSH2 0x121D PUSH1 0x14 DUP4 PUSH2 0xF4C JUMP JUMPDEST SWAP2 POP PUSH2 0x1228 DUP3 PUSH2 0x11E9 JUMP JUMPDEST PUSH1 0x20 DUP3 ADD SWAP1 POP SWAP2 SWAP1 POP JUMP JUMPDEST PUSH0 PUSH1 0x20 DUP3 ADD SWAP1 POP DUP2 DUP2 SUB PUSH0 DUP4 ADD MSTORE PUSH2 0x124A DUP2 PUSH2 0x1211 JUMP JUMPDEST SWAP1 POP SWAP2 SWAP1 POP JUMP JUMPDEST PUSH0 PUSH1 0x60 DUP3 ADD SWAP1 POP PUSH2 0x1264 PUSH0 DUP4 ADD DUP7 PUSH2 0xEE6 JUMP JUMPDEST PUSH2 0x1271 PUSH1 0x20 DUP4 ADD DUP6 PUSH2 0xEE6 JUMP JUMPDEST PUSH2 0x127E PUSH1 0x40 DUP4 ADD DUP5 PUSH2 0xE43 JUMP JUMPDEST SWAP5 SWAP4 POP POP POP POP JUMP JUMPDEST PUSH32 0x4E487B7100000000000000000000000000000000000000000000000000000000 PUSH0 MSTORE PUSH1 0x11 PUSH1 0x4 MSTORE PUSH1 0x24 PUSH0 REVERT JUMPDEST PUSH0 PUSH2 0x12BD DUP3 PUSH2 0xD59 JUMP JUMPDEST SWAP2 POP PUSH2 0x12C8 DUP4 PUSH2 0xD59 JUMP JUMPDEST SWAP3 POP DUP3 DUP3 ADD SWAP1 POP DUP1 DUP3 GT ISZERO PUSH2 0x12E0 JUMPI PUSH2 0x12DF PUSH2 0x1286 JUMP JUMPDEST JUMPDEST SWAP3 SWAP2 POP POP JUMP JUMPDEST PUSH32 0x4E6F20746F6B656E206465706F73697420746F2072657475726E000000000000 PUSH0 DUP3 ADD MSTORE POP JUMP JUMPDEST PUSH0 PUSH2 0x131A PUSH1 0x1A DUP4 PUSH2 0xF4C JUMP JUMPDEST SWAP2 POP PUSH2 0x1325 DUP3 PUSH2 0x12E6 JUMP JUMPDEST PUSH1 0x20 DUP3 ADD SWAP1 POP SWAP2 SWAP1 POP JUMP JUMPDEST PUSH0 PUSH1 0x20 DUP3 ADD SWAP1 POP DUP2 DUP2 SUB PUSH0 DUP4 ADD MSTORE PUSH2 0x1347 DUP2 PUSH2 0x130E JUMP JUMPDEST SWAP1 POP SWAP2 SWAP1 POP JUMP JUMPDEST PUSH32 0x4D7573742073656E6420736F6D65206E617469766520746F6B656E0000000000 PUSH0 DUP3 ADD MSTORE POP JUMP JUMPDEST PUSH0 PUSH2 0x1382 PUSH1 0x1B DUP4 PUSH2 0xF4C JUMP JUMPDEST SWAP2 POP PUSH2 0x138D DUP3 PUSH2 0x134E JUMP JUMPDEST PUSH1 0x20 DUP3 ADD SWAP1 POP SWAP2 SWAP1 POP JUMP JUMPDEST PUSH0 PUSH1 0x20 DUP3 ADD SWAP1 POP DUP2 DUP2 SUB PUSH0 DUP4 ADD MSTORE PUSH2 0x13AF DUP2 PUSH2 0x1376 JUMP JUMPDEST SWAP1 POP SWAP2 SWAP1 POP JUMP INVALID LOG2 PUSH5 0x6970667358 0x22 SLT KECCAK256 CODECOPY DUP8 SWAP6 SWAP9 0x4C 0xE8 DUP10 0xE1 STATICCALL 0xD2 SMOD 0xA8 NOT SMOD 0xA8 BLOBHASH ADD 0xAF PUSH30 0x9AD2460FFCDE83B20D94FEF6F664736F6C634300081A0033000000000000 "
				},
				"gasEstimates": {
					"creation": {
						"codeDepositCost": "1020000",
						"executionCost": "25324",
						"totalCost": "1045324"
					},
					"external": {
						"depositERC20(address,uint256)": "infinite",
						"depositNative()": "infinite",
						"getNativeBalance()": "334",
						"getTokenBalance(address)": "infinite",
						"nativeDeposits(address)": "2912",
						"owner()": "2527",
						"releaseERC20(address,address,uint256)": "infinite",
						"releaseNative(address,uint256)": "infinite",
						"returnERC20(address)": "infinite",
						"returnNative()": "infinite",
						"tokenDeposits(address,address)": "infinite"
					}
				},
				"methodIdentifiers": {
					"depositERC20(address,uint256)": "97feb926",
					"depositNative()": "db6b5246",
					"getNativeBalance()": "88a9d554",
					"getTokenBalance(address)": "3aecd0e3",
					"nativeDeposits(address)": "f6c6bdee",
					"owner()": "8da5cb5b",
					"releaseERC20(address,address,uint256)": "6cd533d8",
					"releaseNative(address,uint256)": "20dcb8c2",
					"returnERC20(address)": "c7293668",
					"returnNative()": "70471f73",
					"tokenDeposits(address,address)": "3add0454"
				}
			},
			"storageLayout": {
				"storage": [
					{
						"astId": 82,
						"contract": "contracts/ManageVault.sol:ManagedVault",
						"label": "owner",
						"offset": 0,
						"slot": "0",
						"type": "t_address"
					},
					{
						"astId": 86,
						"contract": "contracts/ManageVault.sol:ManagedVault",
						"label": "nativeDeposits",
						"offset": 0,
						"slot": "1",
						"type": "t_mapping(t_address,t_uint256)"
					},
					{
						"astId": 92,
						"contract": "contracts/ManageVault.sol:ManagedVault",
						"label": "tokenDeposits",
						"offset": 0,
						"slot": "2",
						"type": "t_mapping(t_address,t_mapping(t_address,t_uint256))"
					}
				],
				"types": {
					"t_address": {
						"encoding": "inplace",
						"label": "address",
						"numberOfBytes": "20"
					},
					"t_mapping(t_address,t_mapping(t_address,t_uint256))": {
						"encoding": "mapping",
						"key": "t_address",
						"label": "mapping(address => mapping(address => uint256))",
						"numberOfBytes": "32",
						"value": "t_mapping(t_address,t_uint256)"
					},
					"t_mapping(t_address,t_uint256)": {
						"encoding": "mapping",
						"key": "t_address",
						"label": "mapping(address => uint256)",
						"numberOfBytes": "32",
						"value": "t_uint256"
					},
					"t_uint256": {
						"encoding": "inplace",
						"label": "uint256",
						"numberOfBytes": "32"
					}
				}
			},
			"userdoc": {
				"kind": "user",
				"methods": {},
				"version": 1
			}
		}
	}
}