{
	"contracts/ManageDeal.sol": {
		"TradeNFT": {
			"abi": [
				{
					"anonymous": false,
					"inputs": [
						{
							"indexed": false,
							"internalType": "uint256",
							"name": "tradeId",
							"type": "uint256"
						},
						{
							"indexed": true,
							"internalType": "address",
							"name": "buyer",
							"type": "address"
						}
					],
					"name": "TradeApproved",
					"type": "event"
				},
				{
					"anonymous": false,
					"inputs": [
						{
							"indexed": false,
							"internalType": "uint256",
							"name": "tradeId",
							"type": "uint256"
						},
						{
							"indexed": true,
							"internalType": "address",
							"name": "seller",
							"type": "address"
						},
						{
							"indexed": true,
							"internalType": "address",
							"name": "nftContract",
							"type": "address"
						}
					],
					"name": "TradeCreated",
					"type": "event"
				},
				{
					"anonymous": false,
					"inputs": [
						{
							"indexed": false,
							"internalType": "uint256",
							"name": "tradeId",
							"type": "uint256"
						}
					],
					"name": "TradeRejected",
					"type": "event"
				},
				{
					"inputs": [
						{
							"internalType": "uint256",
							"name": "tradeId",
							"type": "uint256"
						},
						{
							"internalType": "uint256",
							"name": "tokenId",
							"type": "uint256"
						}
					],
					"name": "approveTrade",
					"outputs": [],
					"stateMutability": "nonpayable",
					"type": "function"
				},
				{
					"inputs": [
						{
							"internalType": "address",
							"name": "nftContract",
							"type": "address"
						},
						{
							"internalType": "address",
							"name": "buyer",
							"type": "address"
						}
					],
					"name": "createTrade",
					"outputs": [],
					"stateMutability": "nonpayable",
					"type": "function"
				},
				{
					"inputs": [
						{
							"internalType": "uint256",
							"name": "tradeId",
							"type": "uint256"
						},
						{
							"internalType": "uint256",
							"name": "tokenId",
							"type": "uint256"
						}
					],
					"name": "rejectTrade",
					"outputs": [],
					"stateMutability": "nonpayable",
					"type": "function"
				},
				{
					"inputs": [],
					"name": "tradeCounter",
					"outputs": [
						{
							"internalType": "uint256",
							"name": "",
							"type": "uint256"
						}
					],
					"stateMutability": "view",
					"type": "function"
				},
				{
					"inputs": [
						{
							"internalType": "uint256",
							"name": "",
							"type": "uint256"
						}
					],
					"name": "trades",
					"outputs": [
						{
							"internalType": "address",
							"name": "seller",
							"type": "address"
						},
						{
							"internalType": "address",
							"name": "buyer",
							"type": "address"
						},
						{
							"internalType": "address",
							"name": "nftContract",
							"type": "address"
						},
						{
							"internalType": "bool",
							"name": "isActive",
							"type": "bool"
						}
					],
					"stateMutability": "view",
					"type": "function"
				}
			],
			"devdoc": {
				"kind": "dev",
				"methods": {},
				"version": 1
			},
			"evm": {
				"assembly": "    /* \"contracts/ManageDeal.sol\":186:1940  contract TradeNFT is ReentrancyGuard {... */\n  mstore(0x40, 0x80)\n  callvalue\n  dup1\n  iszero\n  tag_1\n  jumpi\n  0x00\n  dup1\n  revert\ntag_1:\n  pop\n    /* \"@openzeppelin/contracts/security/ReentrancyGuard.sol\":1716:1717  1 */\n  0x01\n    /* \"@openzeppelin/contracts/security/ReentrancyGuard.sol\":1821:1828  _status */\n  0x00\n    /* \"@openzeppelin/contracts/security/ReentrancyGuard.sol\":1821:1843  _status = _NOT_ENTERED */\n  dup2\n  swap1\n  sstore\n  pop\n    /* \"contracts/ManageDeal.sol\":186:1940  contract TradeNFT is ReentrancyGuard {... */\n  dataSize(sub_0)\n  dup1\n  dataOffset(sub_0)\n  0x00\n  codecopy\n  0x00\n  return\nstop\n\nsub_0: assembly {\n        /* \"contracts/ManageDeal.sol\":186:1940  contract TradeNFT is ReentrancyGuard {... */\n      mstore(0x40, 0x80)\n      callvalue\n      dup1\n      iszero\n      tag_1\n      jumpi\n      0x00\n      dup1\n      revert\n    tag_1:\n      pop\n      jumpi(tag_2, lt(calldatasize, 0x04))\n      shr(0xe0, calldataload(0x00))\n      dup1\n      0x1e6c598e\n      eq\n      tag_3\n      jumpi\n      dup1\n      0x617d6ea8\n      eq\n      tag_4\n      jumpi\n      dup1\n      0x660d15b5\n      eq\n      tag_5\n      jumpi\n      dup1\n      0xc484658d\n      eq\n      tag_6\n      jumpi\n      dup1\n      0xdec361ac\n      eq\n      tag_7\n      jumpi\n    tag_2:\n      0x00\n      dup1\n      revert\n        /* \"contracts/ManageDeal.sol\":362:401  mapping(uint256 => Trade) public trades */\n    tag_3:\n      tag_8\n      0x04\n      dup1\n      calldatasize\n      sub\n      dup2\n      add\n      swap1\n      tag_9\n      swap2\n      swap1\n      tag_10\n      jump\t// in\n    tag_9:\n      tag_11\n      jump\t// in\n    tag_8:\n      mload(0x40)\n      tag_12\n      swap5\n      swap4\n      swap3\n      swap2\n      swap1\n      tag_13\n      jump\t// in\n    tag_12:\n      mload(0x40)\n      dup1\n      swap2\n      sub\n      swap1\n      return\n        /* \"contracts/ManageDeal.sol\":1019:1481  function approveTrade(uint256 tradeId, uint256 tokenId) external nonReentrant {... */\n    tag_4:\n      tag_14\n      0x04\n      dup1\n      calldatasize\n      sub\n      dup2\n      add\n      swap1\n      tag_15\n      swap2\n      swap1\n      tag_16\n      jump\t// in\n    tag_15:\n      tag_17\n      jump\t// in\n    tag_14:\n      stop\n        /* \"contracts/ManageDeal.sol\":408:435  uint256 public tradeCounter */\n    tag_5:\n      tag_18\n      tag_19\n      jump\t// in\n    tag_18:\n      mload(0x40)\n      tag_20\n      swap2\n      swap1\n      tag_21\n      jump\t// in\n    tag_20:\n      mload(0x40)\n      dup1\n      swap2\n      sub\n      swap1\n      return\n        /* \"contracts/ManageDeal.sol\":1489:1937  function rejectTrade(uint256 tradeId, uint256 tokenId) external nonReentrant {... */\n    tag_6:\n      tag_22\n      0x04\n      dup1\n      calldatasize\n      sub\n      dup2\n      add\n      swap1\n      tag_23\n      swap2\n      swap1\n      tag_16\n      jump\t// in\n    tag_23:\n      tag_24\n      jump\t// in\n    tag_22:\n      stop\n        /* \"contracts/ManageDeal.sol\":650:1011  function createTrade(address nftContract, address buyer) external nonReentrant {... */\n    tag_7:\n      tag_25\n      0x04\n      dup1\n      calldatasize\n      sub\n      dup2\n      add\n      swap1\n      tag_26\n      swap2\n      swap1\n      tag_27\n      jump\t// in\n    tag_26:\n      tag_28\n      jump\t// in\n    tag_25:\n      stop\n        /* \"contracts/ManageDeal.sol\":362:401  mapping(uint256 => Trade) public trades */\n    tag_11:\n      mstore(0x20, 0x01)\n      dup1\n      0x00\n      mstore\n      keccak256(0x00, 0x40)\n      0x00\n      swap2\n      pop\n      swap1\n      pop\n      dup1\n      0x00\n      add\n      0x00\n      swap1\n      sload\n      swap1\n      0x0100\n      exp\n      swap1\n      div\n      0xffffffffffffffffffffffffffffffffffffffff\n      and\n      swap1\n      dup1\n      0x01\n      add\n      0x00\n      swap1\n      sload\n      swap1\n      0x0100\n      exp\n      swap1\n      div\n      0xffffffffffffffffffffffffffffffffffffffff\n      and\n      swap1\n      dup1\n      0x02\n      add\n      0x00\n      swap1\n      sload\n      swap1\n      0x0100\n      exp\n      swap1\n      div\n      0xffffffffffffffffffffffffffffffffffffffff\n      and\n      swap1\n      dup1\n      0x02\n      add\n      0x14\n      swap1\n      sload\n      swap1\n      0x0100\n      exp\n      swap1\n      div\n      0xff\n      and\n      swap1\n      pop\n      dup5\n      jump\t// out\n        /* \"contracts/ManageDeal.sol\":1019:1481  function approveTrade(uint256 tradeId, uint256 tokenId) external nonReentrant {... */\n    tag_17:\n        /* \"@openzeppelin/contracts/security/ReentrancyGuard.sol\":2261:2282  _nonReentrantBefore() */\n      tag_30\n        /* \"@openzeppelin/contracts/security/ReentrancyGuard.sol\":2261:2280  _nonReentrantBefore */\n      tag_31\n        /* \"@openzeppelin/contracts/security/ReentrancyGuard.sol\":2261:2282  _nonReentrantBefore() */\n      jump\t// in\n    tag_30:\n        /* \"contracts/ManageDeal.sol\":1108:1126  Trade memory trade */\n      0x00\n        /* \"contracts/ManageDeal.sol\":1129:1135  trades */\n      0x01\n        /* \"contracts/ManageDeal.sol\":1129:1144  trades[tradeId] */\n      0x00\n        /* \"contracts/ManageDeal.sol\":1136:1143  tradeId */\n      dup5\n        /* \"contracts/ManageDeal.sol\":1129:1144  trades[tradeId] */\n      dup2\n      mstore\n      0x20\n      add\n      swap1\n      dup2\n      mstore\n      0x20\n      add\n      0x00\n      keccak256\n        /* \"contracts/ManageDeal.sol\":1108:1144  Trade memory trade = trades[tradeId] */\n      mload(0x40)\n      dup1\n      0x80\n      add\n      0x40\n      mstore\n      swap1\n      dup2\n      0x00\n      dup3\n      add\n      0x00\n      swap1\n      sload\n      swap1\n      0x0100\n      exp\n      swap1\n      div\n      0xffffffffffffffffffffffffffffffffffffffff\n      and\n      0xffffffffffffffffffffffffffffffffffffffff\n      and\n      0xffffffffffffffffffffffffffffffffffffffff\n      and\n      dup2\n      mstore\n      0x20\n      add\n      0x01\n      dup3\n      add\n      0x00\n      swap1\n      sload\n      swap1\n      0x0100\n      exp\n      swap1\n      div\n      0xffffffffffffffffffffffffffffffffffffffff\n      and\n      0xffffffffffffffffffffffffffffffffffffffff\n      and\n      0xffffffffffffffffffffffffffffffffffffffff\n      and\n      dup2\n      mstore\n      0x20\n      add\n      0x02\n      dup3\n      add\n      0x00\n      swap1\n      sload\n      swap1\n      0x0100\n      exp\n      swap1\n      div\n      0xffffffffffffffffffffffffffffffffffffffff\n      and\n      0xffffffffffffffffffffffffffffffffffffffff\n      and\n      0xffffffffffffffffffffffffffffffffffffffff\n      and\n      dup2\n      mstore\n      0x20\n      add\n      0x02\n      dup3\n      add\n      0x14\n      swap1\n      sload\n      swap1\n      0x0100\n      exp\n      swap1\n      div\n      0xff\n      and\n      iszero\n      iszero\n      iszero\n      iszero\n      dup2\n      mstore\n      pop\n      pop\n      swap1\n      pop\n        /* \"contracts/ManageDeal.sol\":1163:1168  trade */\n      dup1\n        /* \"contracts/ManageDeal.sol\":1163:1177  trade.isActive */\n      0x60\n      add\n      mload\n        /* \"contracts/ManageDeal.sol\":1155:1201  require(trade.isActive, \"Trade is not active\") */\n      tag_33\n      jumpi\n      mload(0x40)\n      0x08c379a000000000000000000000000000000000000000000000000000000000\n      dup2\n      mstore\n      0x04\n      add\n      tag_34\n      swap1\n      tag_35\n      jump\t// in\n    tag_34:\n      mload(0x40)\n      dup1\n      swap2\n      sub\n      swap1\n      revert\n    tag_33:\n        /* \"contracts/ManageDeal.sol\":1234:1239  trade */\n      dup1\n        /* \"contracts/ManageDeal.sol\":1234:1246  trade.seller */\n      0x00\n      add\n      mload\n        /* \"contracts/ManageDeal.sol\":1220:1246  msg.sender == trade.seller */\n      0xffffffffffffffffffffffffffffffffffffffff\n      and\n        /* \"contracts/ManageDeal.sol\":1220:1230  msg.sender */\n      caller\n        /* \"contracts/ManageDeal.sol\":1220:1246  msg.sender == trade.seller */\n      0xffffffffffffffffffffffffffffffffffffffff\n      and\n      eq\n        /* \"contracts/ManageDeal.sol\":1212:1288  require(msg.sender == trade.seller, \"Only the seller can approve the trade\") */\n      tag_36\n      jumpi\n      mload(0x40)\n      0x08c379a000000000000000000000000000000000000000000000000000000000\n      dup2\n      mstore\n      0x04\n      add\n      tag_37\n      swap1\n      tag_38\n      jump\t// in\n    tag_37:\n      mload(0x40)\n      dup1\n      swap2\n      sub\n      swap1\n      revert\n    tag_36:\n        /* \"contracts/ManageDeal.sol\":1309:1314  trade */\n      dup1\n        /* \"contracts/ManageDeal.sol\":1309:1326  trade.nftContract */\n      0x40\n      add\n      mload\n        /* \"contracts/ManageDeal.sol\":1301:1340  IERC721(trade.nftContract).transferFrom */\n      0xffffffffffffffffffffffffffffffffffffffff\n      and\n      0x23b872dd\n        /* \"contracts/ManageDeal.sol\":1349:1353  this */\n      address\n        /* \"contracts/ManageDeal.sol\":1356:1361  trade */\n      dup4\n        /* \"contracts/ManageDeal.sol\":1356:1367  trade.buyer */\n      0x20\n      add\n      mload\n        /* \"contracts/ManageDeal.sol\":1369:1376  tokenId */\n      dup6\n        /* \"contracts/ManageDeal.sol\":1301:1377  IERC721(trade.nftContract).transferFrom(address(this), trade.buyer, tokenId) */\n      mload(0x40)\n      dup5\n      0xffffffff\n      and\n      0xe0\n      shl\n      dup2\n      mstore\n      0x04\n      add\n      tag_39\n      swap4\n      swap3\n      swap2\n      swap1\n      tag_40\n      jump\t// in\n    tag_39:\n      0x00\n      mload(0x40)\n      dup1\n      dup4\n      sub\n      dup2\n      0x00\n      dup8\n      dup1\n      extcodesize\n      iszero\n      dup1\n      iszero\n      tag_41\n      jumpi\n      0x00\n      dup1\n      revert\n    tag_41:\n      pop\n      gas\n      call\n      iszero\n      dup1\n      iszero\n      tag_43\n      jumpi\n      returndatasize\n      0x00\n      dup1\n      returndatacopy\n      revert(0x00, returndatasize)\n    tag_43:\n      pop\n      pop\n      pop\n      pop\n        /* \"contracts/ManageDeal.sol\":1415:1420  false */\n      0x00\n        /* \"contracts/ManageDeal.sol\":1388:1394  trades */\n      0x01\n        /* \"contracts/ManageDeal.sol\":1388:1403  trades[tradeId] */\n      0x00\n        /* \"contracts/ManageDeal.sol\":1395:1402  tradeId */\n      dup6\n        /* \"contracts/ManageDeal.sol\":1388:1403  trades[tradeId] */\n      dup2\n      mstore\n      0x20\n      add\n      swap1\n      dup2\n      mstore\n      0x20\n      add\n      0x00\n      keccak256\n        /* \"contracts/ManageDeal.sol\":1388:1412  trades[tradeId].isActive */\n      0x02\n      add\n      0x14\n        /* \"contracts/ManageDeal.sol\":1388:1420  trades[tradeId].isActive = false */\n      0x0100\n      exp\n      dup2\n      sload\n      dup2\n      0xff\n      mul\n      not\n      and\n      swap1\n      dup4\n      iszero\n      iszero\n      mul\n      or\n      swap1\n      sstore\n      pop\n        /* \"contracts/ManageDeal.sol\":1461:1466  trade */\n      dup1\n        /* \"contracts/ManageDeal.sol\":1461:1472  trade.buyer */\n      0x20\n      add\n      mload\n        /* \"contracts/ManageDeal.sol\":1438:1473  TradeApproved(tradeId, trade.buyer) */\n      0xffffffffffffffffffffffffffffffffffffffff\n      and\n      0x642ea0b1d63cc70f38e39719b589ae0a9a111ef74ae825093d1574009bdf4e29\n        /* \"contracts/ManageDeal.sol\":1452:1459  tradeId */\n      dup5\n        /* \"contracts/ManageDeal.sol\":1438:1473  TradeApproved(tradeId, trade.buyer) */\n      mload(0x40)\n      tag_44\n      swap2\n      swap1\n      tag_21\n      jump\t// in\n    tag_44:\n      mload(0x40)\n      dup1\n      swap2\n      sub\n      swap1\n      log2\n        /* \"contracts/ManageDeal.sol\":1097:1481  {... */\n      pop\n        /* \"@openzeppelin/contracts/security/ReentrancyGuard.sol\":2303:2323  _nonReentrantAfter() */\n      tag_45\n        /* \"@openzeppelin/contracts/security/ReentrancyGuard.sol\":2303:2321  _nonReentrantAfter */\n      tag_46\n        /* \"@openzeppelin/contracts/security/ReentrancyGuard.sol\":2303:2323  _nonReentrantAfter() */\n      jump\t// in\n    tag_45:\n        /* \"contracts/ManageDeal.sol\":1019:1481  function approveTrade(uint256 tradeId, uint256 tokenId) external nonReentrant {... */\n      pop\n      pop\n      jump\t// out\n        /* \"contracts/ManageDeal.sol\":408:435  uint256 public tradeCounter */\n    tag_19:\n      sload(0x02)\n      dup2\n      jump\t// out\n        /* \"contracts/ManageDeal.sol\":1489:1937  function rejectTrade(uint256 tradeId, uint256 tokenId) external nonReentrant {... */\n    tag_24:\n        /* \"@openzeppelin/contracts/security/ReentrancyGuard.sol\":2261:2282  _nonReentrantBefore() */\n      tag_48\n        /* \"@openzeppelin/contracts/security/ReentrancyGuard.sol\":2261:2280  _nonReentrantBefore */\n      tag_31\n        /* \"@openzeppelin/contracts/security/ReentrancyGuard.sol\":2261:2282  _nonReentrantBefore() */\n      jump\t// in\n    tag_48:\n        /* \"contracts/ManageDeal.sol\":1577:1595  Trade memory trade */\n      0x00\n        /* \"contracts/ManageDeal.sol\":1598:1604  trades */\n      0x01\n        /* \"contracts/ManageDeal.sol\":1598:1613  trades[tradeId] */\n      0x00\n        /* \"contracts/ManageDeal.sol\":1605:1612  tradeId */\n      dup5\n        /* \"contracts/ManageDeal.sol\":1598:1613  trades[tradeId] */\n      dup2\n      mstore\n      0x20\n      add\n      swap1\n      dup2\n      mstore\n      0x20\n      add\n      0x00\n      keccak256\n        /* \"contracts/ManageDeal.sol\":1577:1613  Trade memory trade = trades[tradeId] */\n      mload(0x40)\n      dup1\n      0x80\n      add\n      0x40\n      mstore\n      swap1\n      dup2\n      0x00\n      dup3\n      add\n      0x00\n      swap1\n      sload\n      swap1\n      0x0100\n      exp\n      swap1\n      div\n      0xffffffffffffffffffffffffffffffffffffffff\n      and\n      0xffffffffffffffffffffffffffffffffffffffff\n      and\n      0xffffffffffffffffffffffffffffffffffffffff\n      and\n      dup2\n      mstore\n      0x20\n      add\n      0x01\n      dup3\n      add\n      0x00\n      swap1\n      sload\n      swap1\n      0x0100\n      exp\n      swap1\n      div\n      0xffffffffffffffffffffffffffffffffffffffff\n      and\n      0xffffffffffffffffffffffffffffffffffffffff\n      and\n      0xffffffffffffffffffffffffffffffffffffffff\n      and\n      dup2\n      mstore\n      0x20\n      add\n      0x02\n      dup3\n      add\n      0x00\n      swap1\n      sload\n      swap1\n      0x0100\n      exp\n      swap1\n      div\n      0xffffffffffffffffffffffffffffffffffffffff\n      and\n      0xffffffffffffffffffffffffffffffffffffffff\n      and\n      0xffffffffffffffffffffffffffffffffffffffff\n      and\n      dup2\n      mstore\n      0x20\n      add\n      0x02\n      dup3\n      add\n      0x14\n      swap1\n      sload\n      swap1\n      0x0100\n      exp\n      swap1\n      div\n      0xff\n      and\n      iszero\n      iszero\n      iszero\n      iszero\n      dup2\n      mstore\n      pop\n      pop\n      swap1\n      pop\n        /* \"contracts/ManageDeal.sol\":1632:1637  trade */\n      dup1\n        /* \"contracts/ManageDeal.sol\":1632:1646  trade.isActive */\n      0x60\n      add\n      mload\n        /* \"contracts/ManageDeal.sol\":1624:1670  require(trade.isActive, \"Trade is not active\") */\n      tag_50\n      jumpi\n      mload(0x40)\n      0x08c379a000000000000000000000000000000000000000000000000000000000\n      dup2\n      mstore\n      0x04\n      add\n      tag_51\n      swap1\n      tag_35\n      jump\t// in\n    tag_51:\n      mload(0x40)\n      dup1\n      swap2\n      sub\n      swap1\n      revert\n    tag_50:\n        /* \"contracts/ManageDeal.sol\":1703:1708  trade */\n      dup1\n        /* \"contracts/ManageDeal.sol\":1703:1715  trade.seller */\n      0x00\n      add\n      mload\n        /* \"contracts/ManageDeal.sol\":1689:1715  msg.sender == trade.seller */\n      0xffffffffffffffffffffffffffffffffffffffff\n      and\n        /* \"contracts/ManageDeal.sol\":1689:1699  msg.sender */\n      caller\n        /* \"contracts/ManageDeal.sol\":1689:1715  msg.sender == trade.seller */\n      0xffffffffffffffffffffffffffffffffffffffff\n      and\n      eq\n        /* \"contracts/ManageDeal.sol\":1681:1756  require(msg.sender == trade.seller, \"Only the seller can reject the trade\") */\n      tag_52\n      jumpi\n      mload(0x40)\n      0x08c379a000000000000000000000000000000000000000000000000000000000\n      dup2\n      mstore\n      0x04\n      add\n      tag_53\n      swap1\n      tag_54\n      jump\t// in\n    tag_53:\n      mload(0x40)\n      dup1\n      swap2\n      sub\n      swap1\n      revert\n    tag_52:\n        /* \"contracts/ManageDeal.sol\":1777:1782  trade */\n      dup1\n        /* \"contracts/ManageDeal.sol\":1777:1794  trade.nftContract */\n      0x40\n      add\n      mload\n        /* \"contracts/ManageDeal.sol\":1769:1808  IERC721(trade.nftContract).transferFrom */\n      0xffffffffffffffffffffffffffffffffffffffff\n      and\n      0x23b872dd\n        /* \"contracts/ManageDeal.sol\":1817:1821  this */\n      address\n        /* \"contracts/ManageDeal.sol\":1824:1829  trade */\n      dup4\n        /* \"contracts/ManageDeal.sol\":1824:1836  trade.seller */\n      0x00\n      add\n      mload\n        /* \"contracts/ManageDeal.sol\":1838:1845  tokenId */\n      dup6\n        /* \"contracts/ManageDeal.sol\":1769:1846  IERC721(trade.nftContract).transferFrom(address(this), trade.seller, tokenId) */\n      mload(0x40)\n      dup5\n      0xffffffff\n      and\n      0xe0\n      shl\n      dup2\n      mstore\n      0x04\n      add\n      tag_55\n      swap4\n      swap3\n      swap2\n      swap1\n      tag_40\n      jump\t// in\n    tag_55:\n      0x00\n      mload(0x40)\n      dup1\n      dup4\n      sub\n      dup2\n      0x00\n      dup8\n      dup1\n      extcodesize\n      iszero\n      dup1\n      iszero\n      tag_56\n      jumpi\n      0x00\n      dup1\n      revert\n    tag_56:\n      pop\n      gas\n      call\n      iszero\n      dup1\n      iszero\n      tag_58\n      jumpi\n      returndatasize\n      0x00\n      dup1\n      returndatacopy\n      revert(0x00, returndatasize)\n    tag_58:\n      pop\n      pop\n      pop\n      pop\n        /* \"contracts/ManageDeal.sol\":1884:1889  false */\n      0x00\n        /* \"contracts/ManageDeal.sol\":1857:1863  trades */\n      0x01\n        /* \"contracts/ManageDeal.sol\":1857:1872  trades[tradeId] */\n      0x00\n        /* \"contracts/ManageDeal.sol\":1864:1871  tradeId */\n      dup6\n        /* \"contracts/ManageDeal.sol\":1857:1872  trades[tradeId] */\n      dup2\n      mstore\n      0x20\n      add\n      swap1\n      dup2\n      mstore\n      0x20\n      add\n      0x00\n      keccak256\n        /* \"contracts/ManageDeal.sol\":1857:1881  trades[tradeId].isActive */\n      0x02\n      add\n      0x14\n        /* \"contracts/ManageDeal.sol\":1857:1889  trades[tradeId].isActive = false */\n      0x0100\n      exp\n      dup2\n      sload\n      dup2\n      0xff\n      mul\n      not\n      and\n      swap1\n      dup4\n      iszero\n      iszero\n      mul\n      or\n      swap1\n      sstore\n      pop\n        /* \"contracts/ManageDeal.sol\":1907:1929  TradeRejected(tradeId) */\n      0x99fd9dfa4bef817fb83b40a9bf8fcd786250dbfcf9e6fe86257f9517e08808eb\n        /* \"contracts/ManageDeal.sol\":1921:1928  tradeId */\n      dup4\n        /* \"contracts/ManageDeal.sol\":1907:1929  TradeRejected(tradeId) */\n      mload(0x40)\n      tag_59\n      swap2\n      swap1\n      tag_21\n      jump\t// in\n    tag_59:\n      mload(0x40)\n      dup1\n      swap2\n      sub\n      swap1\n      log1\n        /* \"contracts/ManageDeal.sol\":1566:1937  {... */\n      pop\n        /* \"@openzeppelin/contracts/security/ReentrancyGuard.sol\":2303:2323  _nonReentrantAfter() */\n      tag_60\n        /* \"@openzeppelin/contracts/security/ReentrancyGuard.sol\":2303:2321  _nonReentrantAfter */\n      tag_46\n        /* \"@openzeppelin/contracts/security/ReentrancyGuard.sol\":2303:2323  _nonReentrantAfter() */\n      jump\t// in\n    tag_60:\n        /* \"contracts/ManageDeal.sol\":1489:1937  function rejectTrade(uint256 tradeId, uint256 tokenId) external nonReentrant {... */\n      pop\n      pop\n      jump\t// out\n        /* \"contracts/ManageDeal.sol\":650:1011  function createTrade(address nftContract, address buyer) external nonReentrant {... */\n    tag_28:\n        /* \"@openzeppelin/contracts/security/ReentrancyGuard.sol\":2261:2282  _nonReentrantBefore() */\n      tag_62\n        /* \"@openzeppelin/contracts/security/ReentrancyGuard.sol\":2261:2280  _nonReentrantBefore */\n      tag_31\n        /* \"@openzeppelin/contracts/security/ReentrancyGuard.sol\":2261:2282  _nonReentrantBefore() */\n      jump\t// in\n    tag_62:\n        /* \"contracts/ManageDeal.sol\":763:909  Trade({... */\n      mload(0x40)\n      dup1\n      0x80\n      add\n      0x40\n      mstore\n      dup1\n        /* \"contracts/ManageDeal.sol\":792:802  msg.sender */\n      caller\n        /* \"contracts/ManageDeal.sol\":763:909  Trade({... */\n      0xffffffffffffffffffffffffffffffffffffffff\n      and\n      dup2\n      mstore\n      0x20\n      add\n        /* \"contracts/ManageDeal.sol\":824:829  buyer */\n      dup3\n        /* \"contracts/ManageDeal.sol\":763:909  Trade({... */\n      0xffffffffffffffffffffffffffffffffffffffff\n      and\n      dup2\n      mstore\n      0x20\n      add\n        /* \"contracts/ManageDeal.sol\":857:868  nftContract */\n      dup4\n        /* \"contracts/ManageDeal.sol\":763:909  Trade({... */\n      0xffffffffffffffffffffffffffffffffffffffff\n      and\n      dup2\n      mstore\n      0x20\n      add\n        /* \"contracts/ManageDeal.sol\":893:897  true */\n      0x01\n        /* \"contracts/ManageDeal.sol\":763:909  Trade({... */\n      iszero\n      iszero\n      dup2\n      mstore\n      pop\n        /* \"contracts/ManageDeal.sol\":740:746  trades */\n      0x01\n        /* \"contracts/ManageDeal.sol\":740:760  trades[tradeCounter] */\n      0x00\n        /* \"contracts/ManageDeal.sol\":747:759  tradeCounter */\n      sload(0x02)\n        /* \"contracts/ManageDeal.sol\":740:760  trades[tradeCounter] */\n      dup2\n      mstore\n      0x20\n      add\n      swap1\n      dup2\n      mstore\n      0x20\n      add\n      0x00\n      keccak256\n        /* \"contracts/ManageDeal.sol\":740:909  trades[tradeCounter] = Trade({... */\n      0x00\n      dup3\n      add\n      mload\n      dup2\n      0x00\n      add\n      exp(0x0100, 0x00)\n      dup2\n      sload\n      dup2\n      0xffffffffffffffffffffffffffffffffffffffff\n      mul\n      not\n      and\n      swap1\n      dup4\n      0xffffffffffffffffffffffffffffffffffffffff\n      and\n      mul\n      or\n      swap1\n      sstore\n      pop\n      0x20\n      dup3\n      add\n      mload\n      dup2\n      0x01\n      add\n      exp(0x0100, 0x00)\n      dup2\n      sload\n      dup2\n      0xffffffffffffffffffffffffffffffffffffffff\n      mul\n      not\n      and\n      swap1\n      dup4\n      0xffffffffffffffffffffffffffffffffffffffff\n      and\n      mul\n      or\n      swap1\n      sstore\n      pop\n      0x40\n      dup3\n      add\n      mload\n      dup2\n      0x02\n      add\n      exp(0x0100, 0x00)\n      dup2\n      sload\n      dup2\n      0xffffffffffffffffffffffffffffffffffffffff\n      mul\n      not\n      and\n      swap1\n      dup4\n      0xffffffffffffffffffffffffffffffffffffffff\n      and\n      mul\n      or\n      swap1\n      sstore\n      pop\n      0x60\n      dup3\n      add\n      mload\n      dup2\n      0x02\n      add\n      exp(0x0100, 0x14)\n      dup2\n      sload\n      dup2\n      0xff\n      mul\n      not\n      and\n      swap1\n      dup4\n      iszero\n      iszero\n      mul\n      or\n      swap1\n      sstore\n      pop\n      swap1\n      pop\n      pop\n        /* \"contracts/ManageDeal.sol\":966:977  nftContract */\n      dup2\n        /* \"contracts/ManageDeal.sol\":927:978  TradeCreated(tradeCounter, msg.sender, nftContract) */\n      0xffffffffffffffffffffffffffffffffffffffff\n      and\n        /* \"contracts/ManageDeal.sol\":954:964  msg.sender */\n      caller\n        /* \"contracts/ManageDeal.sol\":927:978  TradeCreated(tradeCounter, msg.sender, nftContract) */\n      0xffffffffffffffffffffffffffffffffffffffff\n      and\n      0x9cf777ef8d920853772227176d5a18d6b577d1644b2b02949641f93317a21b25\n        /* \"contracts/ManageDeal.sol\":940:952  tradeCounter */\n      sload(0x02)\n        /* \"contracts/ManageDeal.sol\":927:978  TradeCreated(tradeCounter, msg.sender, nftContract) */\n      mload(0x40)\n      tag_64\n      swap2\n      swap1\n      tag_21\n      jump\t// in\n    tag_64:\n      mload(0x40)\n      dup1\n      swap2\n      sub\n      swap1\n      log3\n        /* \"contracts/ManageDeal.sol\":989:1001  tradeCounter */\n      0x02\n      0x00\n        /* \"contracts/ManageDeal.sol\":989:1003  tradeCounter++ */\n      dup2\n      sload\n      dup1\n      swap3\n      swap2\n      swap1\n      tag_65\n      swap1\n      tag_66\n      jump\t// in\n    tag_65:\n      swap2\n      swap1\n      pop\n      sstore\n      pop\n        /* \"@openzeppelin/contracts/security/ReentrancyGuard.sol\":2303:2323  _nonReentrantAfter() */\n      tag_67\n        /* \"@openzeppelin/contracts/security/ReentrancyGuard.sol\":2303:2321  _nonReentrantAfter */\n      tag_46\n        /* \"@openzeppelin/contracts/security/ReentrancyGuard.sol\":2303:2323  _nonReentrantAfter() */\n      jump\t// in\n    tag_67:\n        /* \"contracts/ManageDeal.sol\":650:1011  function createTrade(address nftContract, address buyer) external nonReentrant {... */\n      pop\n      pop\n      jump\t// out\n        /* \"@openzeppelin/contracts/security/ReentrancyGuard.sol\":2336:2623  function _nonReentrantBefore() private {... */\n    tag_31:\n        /* \"@openzeppelin/contracts/security/ReentrancyGuard.sol\":1759:1760  2 */\n      0x02\n        /* \"@openzeppelin/contracts/security/ReentrancyGuard.sol\":2468:2475  _status */\n      sload(0x00)\n        /* \"@openzeppelin/contracts/security/ReentrancyGuard.sol\":2468:2487  _status != _ENTERED */\n      sub\n        /* \"@openzeppelin/contracts/security/ReentrancyGuard.sol\":2460:2523  require(_status != _ENTERED, \"ReentrancyGuard: reentrant call\") */\n      tag_69\n      jumpi\n      mload(0x40)\n      0x08c379a000000000000000000000000000000000000000000000000000000000\n      dup2\n      mstore\n      0x04\n      add\n      tag_70\n      swap1\n      tag_71\n      jump\t// in\n    tag_70:\n      mload(0x40)\n      dup1\n      swap2\n      sub\n      swap1\n      revert\n    tag_69:\n        /* \"@openzeppelin/contracts/security/ReentrancyGuard.sol\":1759:1760  2 */\n      0x02\n        /* \"@openzeppelin/contracts/security/ReentrancyGuard.sol\":2598:2605  _status */\n      0x00\n        /* \"@openzeppelin/contracts/security/ReentrancyGuard.sol\":2598:2616  _status = _ENTERED */\n      dup2\n      swap1\n      sstore\n      pop\n        /* \"@openzeppelin/contracts/security/ReentrancyGuard.sol\":2336:2623  function _nonReentrantBefore() private {... */\n      jump\t// out\n        /* \"@openzeppelin/contracts/security/ReentrancyGuard.sol\":2629:2838  function _nonReentrantAfter() private {... */\n    tag_46:\n        /* \"@openzeppelin/contracts/security/ReentrancyGuard.sol\":1716:1717  1 */\n      0x01\n        /* \"@openzeppelin/contracts/security/ReentrancyGuard.sol\":2809:2816  _status */\n      0x00\n        /* \"@openzeppelin/contracts/security/ReentrancyGuard.sol\":2809:2831  _status = _NOT_ENTERED */\n      dup2\n      swap1\n      sstore\n      pop\n        /* \"@openzeppelin/contracts/security/ReentrancyGuard.sol\":2629:2838  function _nonReentrantAfter() private {... */\n      jump\t// out\n        /* \"#utility.yul\":88:205   */\n    tag_74:\n        /* \"#utility.yul\":197:198   */\n      0x00\n        /* \"#utility.yul\":194:195   */\n      dup1\n        /* \"#utility.yul\":187:199   */\n      revert\n        /* \"#utility.yul\":334:411   */\n    tag_76:\n        /* \"#utility.yul\":371:378   */\n      0x00\n        /* \"#utility.yul\":400:405   */\n      dup2\n        /* \"#utility.yul\":389:405   */\n      swap1\n      pop\n        /* \"#utility.yul\":334:411   */\n      swap2\n      swap1\n      pop\n      jump\t// out\n        /* \"#utility.yul\":417:539   */\n    tag_77:\n        /* \"#utility.yul\":490:514   */\n      tag_103\n        /* \"#utility.yul\":508:513   */\n      dup2\n        /* \"#utility.yul\":490:514   */\n      tag_76\n      jump\t// in\n    tag_103:\n        /* \"#utility.yul\":483:488   */\n      dup2\n        /* \"#utility.yul\":480:515   */\n      eq\n        /* \"#utility.yul\":470:533   */\n      tag_104\n      jumpi\n        /* \"#utility.yul\":529:530   */\n      0x00\n        /* \"#utility.yul\":526:527   */\n      dup1\n        /* \"#utility.yul\":519:531   */\n      revert\n        /* \"#utility.yul\":470:533   */\n    tag_104:\n        /* \"#utility.yul\":417:539   */\n      pop\n      jump\t// out\n        /* \"#utility.yul\":545:684   */\n    tag_78:\n        /* \"#utility.yul\":591:596   */\n      0x00\n        /* \"#utility.yul\":629:635   */\n      dup2\n        /* \"#utility.yul\":616:636   */\n      calldataload\n        /* \"#utility.yul\":607:636   */\n      swap1\n      pop\n        /* \"#utility.yul\":645:678   */\n      tag_106\n        /* \"#utility.yul\":672:677   */\n      dup2\n        /* \"#utility.yul\":645:678   */\n      tag_77\n      jump\t// in\n    tag_106:\n        /* \"#utility.yul\":545:684   */\n      swap3\n      swap2\n      pop\n      pop\n      jump\t// out\n        /* \"#utility.yul\":690:1019   */\n    tag_10:\n        /* \"#utility.yul\":749:755   */\n      0x00\n        /* \"#utility.yul\":798:800   */\n      0x20\n        /* \"#utility.yul\":786:795   */\n      dup3\n        /* \"#utility.yul\":777:784   */\n      dup5\n        /* \"#utility.yul\":773:796   */\n      sub\n        /* \"#utility.yul\":769:801   */\n      slt\n        /* \"#utility.yul\":766:885   */\n      iszero\n      tag_108\n      jumpi\n        /* \"#utility.yul\":804:883   */\n      tag_109\n      tag_74\n      jump\t// in\n    tag_109:\n        /* \"#utility.yul\":766:885   */\n    tag_108:\n        /* \"#utility.yul\":924:925   */\n      0x00\n        /* \"#utility.yul\":949:1002   */\n      tag_110\n        /* \"#utility.yul\":994:1001   */\n      dup5\n        /* \"#utility.yul\":985:991   */\n      dup3\n        /* \"#utility.yul\":974:983   */\n      dup6\n        /* \"#utility.yul\":970:992   */\n      add\n        /* \"#utility.yul\":949:1002   */\n      tag_78\n      jump\t// in\n    tag_110:\n        /* \"#utility.yul\":939:1002   */\n      swap2\n      pop\n        /* \"#utility.yul\":895:1012   */\n      pop\n        /* \"#utility.yul\":690:1019   */\n      swap3\n      swap2\n      pop\n      pop\n      jump\t// out\n        /* \"#utility.yul\":1025:1151   */\n    tag_79:\n        /* \"#utility.yul\":1062:1069   */\n      0x00\n        /* \"#utility.yul\":1102:1144   */\n      0xffffffffffffffffffffffffffffffffffffffff\n        /* \"#utility.yul\":1095:1100   */\n      dup3\n        /* \"#utility.yul\":1091:1145   */\n      and\n        /* \"#utility.yul\":1080:1145   */\n      swap1\n      pop\n        /* \"#utility.yul\":1025:1151   */\n      swap2\n      swap1\n      pop\n      jump\t// out\n        /* \"#utility.yul\":1157:1253   */\n    tag_80:\n        /* \"#utility.yul\":1194:1201   */\n      0x00\n        /* \"#utility.yul\":1223:1247   */\n      tag_113\n        /* \"#utility.yul\":1241:1246   */\n      dup3\n        /* \"#utility.yul\":1223:1247   */\n      tag_79\n      jump\t// in\n    tag_113:\n        /* \"#utility.yul\":1212:1247   */\n      swap1\n      pop\n        /* \"#utility.yul\":1157:1253   */\n      swap2\n      swap1\n      pop\n      jump\t// out\n        /* \"#utility.yul\":1259:1377   */\n    tag_81:\n        /* \"#utility.yul\":1346:1370   */\n      tag_115\n        /* \"#utility.yul\":1364:1369   */\n      dup2\n        /* \"#utility.yul\":1346:1370   */\n      tag_80\n      jump\t// in\n    tag_115:\n        /* \"#utility.yul\":1341:1344   */\n      dup3\n        /* \"#utility.yul\":1334:1371   */\n      mstore\n        /* \"#utility.yul\":1259:1377   */\n      pop\n      pop\n      jump\t// out\n        /* \"#utility.yul\":1383:1473   */\n    tag_82:\n        /* \"#utility.yul\":1417:1424   */\n      0x00\n        /* \"#utility.yul\":1460:1465   */\n      dup2\n        /* \"#utility.yul\":1453:1466   */\n      iszero\n        /* \"#utility.yul\":1446:1467   */\n      iszero\n        /* \"#utility.yul\":1435:1467   */\n      swap1\n      pop\n        /* \"#utility.yul\":1383:1473   */\n      swap2\n      swap1\n      pop\n      jump\t// out\n        /* \"#utility.yul\":1479:1588   */\n    tag_83:\n        /* \"#utility.yul\":1560:1581   */\n      tag_118\n        /* \"#utility.yul\":1575:1580   */\n      dup2\n        /* \"#utility.yul\":1560:1581   */\n      tag_82\n      jump\t// in\n    tag_118:\n        /* \"#utility.yul\":1555:1558   */\n      dup3\n        /* \"#utility.yul\":1548:1582   */\n      mstore\n        /* \"#utility.yul\":1479:1588   */\n      pop\n      pop\n      jump\t// out\n        /* \"#utility.yul\":1594:2135   */\n    tag_13:\n        /* \"#utility.yul\":1765:1769   */\n      0x00\n        /* \"#utility.yul\":1803:1806   */\n      0x80\n        /* \"#utility.yul\":1792:1801   */\n      dup3\n        /* \"#utility.yul\":1788:1807   */\n      add\n        /* \"#utility.yul\":1780:1807   */\n      swap1\n      pop\n        /* \"#utility.yul\":1817:1888   */\n      tag_120\n        /* \"#utility.yul\":1885:1886   */\n      0x00\n        /* \"#utility.yul\":1874:1883   */\n      dup4\n        /* \"#utility.yul\":1870:1887   */\n      add\n        /* \"#utility.yul\":1861:1867   */\n      dup8\n        /* \"#utility.yul\":1817:1888   */\n      tag_81\n      jump\t// in\n    tag_120:\n        /* \"#utility.yul\":1898:1970   */\n      tag_121\n        /* \"#utility.yul\":1966:1968   */\n      0x20\n        /* \"#utility.yul\":1955:1964   */\n      dup4\n        /* \"#utility.yul\":1951:1969   */\n      add\n        /* \"#utility.yul\":1942:1948   */\n      dup7\n        /* \"#utility.yul\":1898:1970   */\n      tag_81\n      jump\t// in\n    tag_121:\n        /* \"#utility.yul\":1980:2052   */\n      tag_122\n        /* \"#utility.yul\":2048:2050   */\n      0x40\n        /* \"#utility.yul\":2037:2046   */\n      dup4\n        /* \"#utility.yul\":2033:2051   */\n      add\n        /* \"#utility.yul\":2024:2030   */\n      dup6\n        /* \"#utility.yul\":1980:2052   */\n      tag_81\n      jump\t// in\n    tag_122:\n        /* \"#utility.yul\":2062:2128   */\n      tag_123\n        /* \"#utility.yul\":2124:2126   */\n      0x60\n        /* \"#utility.yul\":2113:2122   */\n      dup4\n        /* \"#utility.yul\":2109:2127   */\n      add\n        /* \"#utility.yul\":2100:2106   */\n      dup5\n        /* \"#utility.yul\":2062:2128   */\n      tag_83\n      jump\t// in\n    tag_123:\n        /* \"#utility.yul\":1594:2135   */\n      swap6\n      swap5\n      pop\n      pop\n      pop\n      pop\n      pop\n      jump\t// out\n        /* \"#utility.yul\":2141:2615   */\n    tag_16:\n        /* \"#utility.yul\":2209:2215   */\n      0x00\n        /* \"#utility.yul\":2217:2223   */\n      dup1\n        /* \"#utility.yul\":2266:2268   */\n      0x40\n        /* \"#utility.yul\":2254:2263   */\n      dup4\n        /* \"#utility.yul\":2245:2252   */\n      dup6\n        /* \"#utility.yul\":2241:2264   */\n      sub\n        /* \"#utility.yul\":2237:2269   */\n      slt\n        /* \"#utility.yul\":2234:2353   */\n      iszero\n      tag_125\n      jumpi\n        /* \"#utility.yul\":2272:2351   */\n      tag_126\n      tag_74\n      jump\t// in\n    tag_126:\n        /* \"#utility.yul\":2234:2353   */\n    tag_125:\n        /* \"#utility.yul\":2392:2393   */\n      0x00\n        /* \"#utility.yul\":2417:2470   */\n      tag_127\n        /* \"#utility.yul\":2462:2469   */\n      dup6\n        /* \"#utility.yul\":2453:2459   */\n      dup3\n        /* \"#utility.yul\":2442:2451   */\n      dup7\n        /* \"#utility.yul\":2438:2460   */\n      add\n        /* \"#utility.yul\":2417:2470   */\n      tag_78\n      jump\t// in\n    tag_127:\n        /* \"#utility.yul\":2407:2470   */\n      swap3\n      pop\n        /* \"#utility.yul\":2363:2480   */\n      pop\n        /* \"#utility.yul\":2519:2521   */\n      0x20\n        /* \"#utility.yul\":2545:2598   */\n      tag_128\n        /* \"#utility.yul\":2590:2597   */\n      dup6\n        /* \"#utility.yul\":2581:2587   */\n      dup3\n        /* \"#utility.yul\":2570:2579   */\n      dup7\n        /* \"#utility.yul\":2566:2588   */\n      add\n        /* \"#utility.yul\":2545:2598   */\n      tag_78\n      jump\t// in\n    tag_128:\n        /* \"#utility.yul\":2535:2598   */\n      swap2\n      pop\n        /* \"#utility.yul\":2490:2608   */\n      pop\n        /* \"#utility.yul\":2141:2615   */\n      swap3\n      pop\n      swap3\n      swap1\n      pop\n      jump\t// out\n        /* \"#utility.yul\":2621:2739   */\n    tag_84:\n        /* \"#utility.yul\":2708:2732   */\n      tag_130\n        /* \"#utility.yul\":2726:2731   */\n      dup2\n        /* \"#utility.yul\":2708:2732   */\n      tag_76\n      jump\t// in\n    tag_130:\n        /* \"#utility.yul\":2703:2706   */\n      dup3\n        /* \"#utility.yul\":2696:2733   */\n      mstore\n        /* \"#utility.yul\":2621:2739   */\n      pop\n      pop\n      jump\t// out\n        /* \"#utility.yul\":2745:2967   */\n    tag_21:\n        /* \"#utility.yul\":2838:2842   */\n      0x00\n        /* \"#utility.yul\":2876:2878   */\n      0x20\n        /* \"#utility.yul\":2865:2874   */\n      dup3\n        /* \"#utility.yul\":2861:2879   */\n      add\n        /* \"#utility.yul\":2853:2879   */\n      swap1\n      pop\n        /* \"#utility.yul\":2889:2960   */\n      tag_132\n        /* \"#utility.yul\":2957:2958   */\n      0x00\n        /* \"#utility.yul\":2946:2955   */\n      dup4\n        /* \"#utility.yul\":2942:2959   */\n      add\n        /* \"#utility.yul\":2933:2939   */\n      dup5\n        /* \"#utility.yul\":2889:2960   */\n      tag_84\n      jump\t// in\n    tag_132:\n        /* \"#utility.yul\":2745:2967   */\n      swap3\n      swap2\n      pop\n      pop\n      jump\t// out\n        /* \"#utility.yul\":2973:3095   */\n    tag_85:\n        /* \"#utility.yul\":3046:3070   */\n      tag_134\n        /* \"#utility.yul\":3064:3069   */\n      dup2\n        /* \"#utility.yul\":3046:3070   */\n      tag_80\n      jump\t// in\n    tag_134:\n        /* \"#utility.yul\":3039:3044   */\n      dup2\n        /* \"#utility.yul\":3036:3071   */\n      eq\n        /* \"#utility.yul\":3026:3089   */\n      tag_135\n      jumpi\n        /* \"#utility.yul\":3085:3086   */\n      0x00\n        /* \"#utility.yul\":3082:3083   */\n      dup1\n        /* \"#utility.yul\":3075:3087   */\n      revert\n        /* \"#utility.yul\":3026:3089   */\n    tag_135:\n        /* \"#utility.yul\":2973:3095   */\n      pop\n      jump\t// out\n        /* \"#utility.yul\":3101:3240   */\n    tag_86:\n        /* \"#utility.yul\":3147:3152   */\n      0x00\n        /* \"#utility.yul\":3185:3191   */\n      dup2\n        /* \"#utility.yul\":3172:3192   */\n      calldataload\n        /* \"#utility.yul\":3163:3192   */\n      swap1\n      pop\n        /* \"#utility.yul\":3201:3234   */\n      tag_137\n        /* \"#utility.yul\":3228:3233   */\n      dup2\n        /* \"#utility.yul\":3201:3234   */\n      tag_85\n      jump\t// in\n    tag_137:\n        /* \"#utility.yul\":3101:3240   */\n      swap3\n      swap2\n      pop\n      pop\n      jump\t// out\n        /* \"#utility.yul\":3246:3720   */\n    tag_27:\n        /* \"#utility.yul\":3314:3320   */\n      0x00\n        /* \"#utility.yul\":3322:3328   */\n      dup1\n        /* \"#utility.yul\":3371:3373   */\n      0x40\n        /* \"#utility.yul\":3359:3368   */\n      dup4\n        /* \"#utility.yul\":3350:3357   */\n      dup6\n        /* \"#utility.yul\":3346:3369   */\n      sub\n        /* \"#utility.yul\":3342:3374   */\n      slt\n        /* \"#utility.yul\":3339:3458   */\n      iszero\n      tag_139\n      jumpi\n        /* \"#utility.yul\":3377:3456   */\n      tag_140\n      tag_74\n      jump\t// in\n    tag_140:\n        /* \"#utility.yul\":3339:3458   */\n    tag_139:\n        /* \"#utility.yul\":3497:3498   */\n      0x00\n        /* \"#utility.yul\":3522:3575   */\n      tag_141\n        /* \"#utility.yul\":3567:3574   */\n      dup6\n        /* \"#utility.yul\":3558:3564   */\n      dup3\n        /* \"#utility.yul\":3547:3556   */\n      dup7\n        /* \"#utility.yul\":3543:3565   */\n      add\n        /* \"#utility.yul\":3522:3575   */\n      tag_86\n      jump\t// in\n    tag_141:\n        /* \"#utility.yul\":3512:3575   */\n      swap3\n      pop\n        /* \"#utility.yul\":3468:3585   */\n      pop\n        /* \"#utility.yul\":3624:3626   */\n      0x20\n        /* \"#utility.yul\":3650:3703   */\n      tag_142\n        /* \"#utility.yul\":3695:3702   */\n      dup6\n        /* \"#utility.yul\":3686:3692   */\n      dup3\n        /* \"#utility.yul\":3675:3684   */\n      dup7\n        /* \"#utility.yul\":3671:3693   */\n      add\n        /* \"#utility.yul\":3650:3703   */\n      tag_86\n      jump\t// in\n    tag_142:\n        /* \"#utility.yul\":3640:3703   */\n      swap2\n      pop\n        /* \"#utility.yul\":3595:3713   */\n      pop\n        /* \"#utility.yul\":3246:3720   */\n      swap3\n      pop\n      swap3\n      swap1\n      pop\n      jump\t// out\n        /* \"#utility.yul\":3726:3895   */\n    tag_87:\n        /* \"#utility.yul\":3810:3821   */\n      0x00\n        /* \"#utility.yul\":3844:3850   */\n      dup3\n        /* \"#utility.yul\":3839:3842   */\n      dup3\n        /* \"#utility.yul\":3832:3851   */\n      mstore\n        /* \"#utility.yul\":3884:3888   */\n      0x20\n        /* \"#utility.yul\":3879:3882   */\n      dup3\n        /* \"#utility.yul\":3875:3889   */\n      add\n        /* \"#utility.yul\":3860:3889   */\n      swap1\n      pop\n        /* \"#utility.yul\":3726:3895   */\n      swap3\n      swap2\n      pop\n      pop\n      jump\t// out\n        /* \"#utility.yul\":3901:4070   */\n    tag_88:\n        /* \"#utility.yul\":4041:4062   */\n      0x5472616465206973206e6f742061637469766500000000000000000000000000\n        /* \"#utility.yul\":4037:4038   */\n      0x00\n        /* \"#utility.yul\":4029:4035   */\n      dup3\n        /* \"#utility.yul\":4025:4039   */\n      add\n        /* \"#utility.yul\":4018:4063   */\n      mstore\n        /* \"#utility.yul\":3901:4070   */\n      pop\n      jump\t// out\n        /* \"#utility.yul\":4076:4442   */\n    tag_89:\n        /* \"#utility.yul\":4218:4221   */\n      0x00\n        /* \"#utility.yul\":4239:4306   */\n      tag_146\n        /* \"#utility.yul\":4303:4305   */\n      0x13\n        /* \"#utility.yul\":4298:4301   */\n      dup4\n        /* \"#utility.yul\":4239:4306   */\n      tag_87\n      jump\t// in\n    tag_146:\n        /* \"#utility.yul\":4232:4306   */\n      swap2\n      pop\n        /* \"#utility.yul\":4315:4408   */\n      tag_147\n        /* \"#utility.yul\":4404:4407   */\n      dup3\n        /* \"#utility.yul\":4315:4408   */\n      tag_88\n      jump\t// in\n    tag_147:\n        /* \"#utility.yul\":4433:4435   */\n      0x20\n        /* \"#utility.yul\":4428:4431   */\n      dup3\n        /* \"#utility.yul\":4424:4436   */\n      add\n        /* \"#utility.yul\":4417:4436   */\n      swap1\n      pop\n        /* \"#utility.yul\":4076:4442   */\n      swap2\n      swap1\n      pop\n      jump\t// out\n        /* \"#utility.yul\":4448:4867   */\n    tag_35:\n        /* \"#utility.yul\":4614:4618   */\n      0x00\n        /* \"#utility.yul\":4652:4654   */\n      0x20\n        /* \"#utility.yul\":4641:4650   */\n      dup3\n        /* \"#utility.yul\":4637:4655   */\n      add\n        /* \"#utility.yul\":4629:4655   */\n      swap1\n      pop\n        /* \"#utility.yul\":4701:4710   */\n      dup2\n        /* \"#utility.yul\":4695:4699   */\n      dup2\n        /* \"#utility.yul\":4691:4711   */\n      sub\n        /* \"#utility.yul\":4687:4688   */\n      0x00\n        /* \"#utility.yul\":4676:4685   */\n      dup4\n        /* \"#utility.yul\":4672:4689   */\n      add\n        /* \"#utility.yul\":4665:4712   */\n      mstore\n        /* \"#utility.yul\":4729:4860   */\n      tag_149\n        /* \"#utility.yul\":4855:4859   */\n      dup2\n        /* \"#utility.yul\":4729:4860   */\n      tag_89\n      jump\t// in\n    tag_149:\n        /* \"#utility.yul\":4721:4860   */\n      swap1\n      pop\n        /* \"#utility.yul\":4448:4867   */\n      swap2\n      swap1\n      pop\n      jump\t// out\n        /* \"#utility.yul\":4873:5097   */\n    tag_90:\n        /* \"#utility.yul\":5013:5047   */\n      0x4f6e6c79207468652073656c6c65722063616e20617070726f76652074686520\n        /* \"#utility.yul\":5009:5010   */\n      0x00\n        /* \"#utility.yul\":5001:5007   */\n      dup3\n        /* \"#utility.yul\":4997:5011   */\n      add\n        /* \"#utility.yul\":4990:5048   */\n      mstore\n        /* \"#utility.yul\":5082:5089   */\n      0x7472616465000000000000000000000000000000000000000000000000000000\n        /* \"#utility.yul\":5077:5079   */\n      0x20\n        /* \"#utility.yul\":5069:5075   */\n      dup3\n        /* \"#utility.yul\":5065:5080   */\n      add\n        /* \"#utility.yul\":5058:5090   */\n      mstore\n        /* \"#utility.yul\":4873:5097   */\n      pop\n      jump\t// out\n        /* \"#utility.yul\":5103:5469   */\n    tag_91:\n        /* \"#utility.yul\":5245:5248   */\n      0x00\n        /* \"#utility.yul\":5266:5333   */\n      tag_152\n        /* \"#utility.yul\":5330:5332   */\n      0x25\n        /* \"#utility.yul\":5325:5328   */\n      dup4\n        /* \"#utility.yul\":5266:5333   */\n      tag_87\n      jump\t// in\n    tag_152:\n        /* \"#utility.yul\":5259:5333   */\n      swap2\n      pop\n        /* \"#utility.yul\":5342:5435   */\n      tag_153\n        /* \"#utility.yul\":5431:5434   */\n      dup3\n        /* \"#utility.yul\":5342:5435   */\n      tag_90\n      jump\t// in\n    tag_153:\n        /* \"#utility.yul\":5460:5462   */\n      0x40\n        /* \"#utility.yul\":5455:5458   */\n      dup3\n        /* \"#utility.yul\":5451:5463   */\n      add\n        /* \"#utility.yul\":5444:5463   */\n      swap1\n      pop\n        /* \"#utility.yul\":5103:5469   */\n      swap2\n      swap1\n      pop\n      jump\t// out\n        /* \"#utility.yul\":5475:5894   */\n    tag_38:\n        /* \"#utility.yul\":5641:5645   */\n      0x00\n        /* \"#utility.yul\":5679:5681   */\n      0x20\n        /* \"#utility.yul\":5668:5677   */\n      dup3\n        /* \"#utility.yul\":5664:5682   */\n      add\n        /* \"#utility.yul\":5656:5682   */\n      swap1\n      pop\n        /* \"#utility.yul\":5728:5737   */\n      dup2\n        /* \"#utility.yul\":5722:5726   */\n      dup2\n        /* \"#utility.yul\":5718:5738   */\n      sub\n        /* \"#utility.yul\":5714:5715   */\n      0x00\n        /* \"#utility.yul\":5703:5712   */\n      dup4\n        /* \"#utility.yul\":5699:5716   */\n      add\n        /* \"#utility.yul\":5692:5739   */\n      mstore\n        /* \"#utility.yul\":5756:5887   */\n      tag_155\n        /* \"#utility.yul\":5882:5886   */\n      dup2\n        /* \"#utility.yul\":5756:5887   */\n      tag_91\n      jump\t// in\n    tag_155:\n        /* \"#utility.yul\":5748:5887   */\n      swap1\n      pop\n        /* \"#utility.yul\":5475:5894   */\n      swap2\n      swap1\n      pop\n      jump\t// out\n        /* \"#utility.yul\":5900:6342   */\n    tag_40:\n        /* \"#utility.yul\":6049:6053   */\n      0x00\n        /* \"#utility.yul\":6087:6089   */\n      0x60\n        /* \"#utility.yul\":6076:6085   */\n      dup3\n        /* \"#utility.yul\":6072:6090   */\n      add\n        /* \"#utility.yul\":6064:6090   */\n      swap1\n      pop\n        /* \"#utility.yul\":6100:6171   */\n      tag_157\n        /* \"#utility.yul\":6168:6169   */\n      0x00\n        /* \"#utility.yul\":6157:6166   */\n      dup4\n        /* \"#utility.yul\":6153:6170   */\n      add\n        /* \"#utility.yul\":6144:6150   */\n      dup7\n        /* \"#utility.yul\":6100:6171   */\n      tag_81\n      jump\t// in\n    tag_157:\n        /* \"#utility.yul\":6181:6253   */\n      tag_158\n        /* \"#utility.yul\":6249:6251   */\n      0x20\n        /* \"#utility.yul\":6238:6247   */\n      dup4\n        /* \"#utility.yul\":6234:6252   */\n      add\n        /* \"#utility.yul\":6225:6231   */\n      dup6\n        /* \"#utility.yul\":6181:6253   */\n      tag_81\n      jump\t// in\n    tag_158:\n        /* \"#utility.yul\":6263:6335   */\n      tag_159\n        /* \"#utility.yul\":6331:6333   */\n      0x40\n        /* \"#utility.yul\":6320:6329   */\n      dup4\n        /* \"#utility.yul\":6316:6334   */\n      add\n        /* \"#utility.yul\":6307:6313   */\n      dup5\n        /* \"#utility.yul\":6263:6335   */\n      tag_84\n      jump\t// in\n    tag_159:\n        /* \"#utility.yul\":5900:6342   */\n      swap5\n      swap4\n      pop\n      pop\n      pop\n      pop\n      jump\t// out\n        /* \"#utility.yul\":6348:6571   */\n    tag_92:\n        /* \"#utility.yul\":6488:6522   */\n      0x4f6e6c79207468652073656c6c65722063616e2072656a656374207468652074\n        /* \"#utility.yul\":6484:6485   */\n      0x00\n        /* \"#utility.yul\":6476:6482   */\n      dup3\n        /* \"#utility.yul\":6472:6486   */\n      add\n        /* \"#utility.yul\":6465:6523   */\n      mstore\n        /* \"#utility.yul\":6557:6563   */\n      0x7261646500000000000000000000000000000000000000000000000000000000\n        /* \"#utility.yul\":6552:6554   */\n      0x20\n        /* \"#utility.yul\":6544:6550   */\n      dup3\n        /* \"#utility.yul\":6540:6555   */\n      add\n        /* \"#utility.yul\":6533:6564   */\n      mstore\n        /* \"#utility.yul\":6348:6571   */\n      pop\n      jump\t// out\n        /* \"#utility.yul\":6577:6943   */\n    tag_93:\n        /* \"#utility.yul\":6719:6722   */\n      0x00\n        /* \"#utility.yul\":6740:6807   */\n      tag_162\n        /* \"#utility.yul\":6804:6806   */\n      0x24\n        /* \"#utility.yul\":6799:6802   */\n      dup4\n        /* \"#utility.yul\":6740:6807   */\n      tag_87\n      jump\t// in\n    tag_162:\n        /* \"#utility.yul\":6733:6807   */\n      swap2\n      pop\n        /* \"#utility.yul\":6816:6909   */\n      tag_163\n        /* \"#utility.yul\":6905:6908   */\n      dup3\n        /* \"#utility.yul\":6816:6909   */\n      tag_92\n      jump\t// in\n    tag_163:\n        /* \"#utility.yul\":6934:6936   */\n      0x40\n        /* \"#utility.yul\":6929:6932   */\n      dup3\n        /* \"#utility.yul\":6925:6937   */\n      add\n        /* \"#utility.yul\":6918:6937   */\n      swap1\n      pop\n        /* \"#utility.yul\":6577:6943   */\n      swap2\n      swap1\n      pop\n      jump\t// out\n        /* \"#utility.yul\":6949:7368   */\n    tag_54:\n        /* \"#utility.yul\":7115:7119   */\n      0x00\n        /* \"#utility.yul\":7153:7155   */\n      0x20\n        /* \"#utility.yul\":7142:7151   */\n      dup3\n        /* \"#utility.yul\":7138:7156   */\n      add\n        /* \"#utility.yul\":7130:7156   */\n      swap1\n      pop\n        /* \"#utility.yul\":7202:7211   */\n      dup2\n        /* \"#utility.yul\":7196:7200   */\n      dup2\n        /* \"#utility.yul\":7192:7212   */\n      sub\n        /* \"#utility.yul\":7188:7189   */\n      0x00\n        /* \"#utility.yul\":7177:7186   */\n      dup4\n        /* \"#utility.yul\":7173:7190   */\n      add\n        /* \"#utility.yul\":7166:7213   */\n      mstore\n        /* \"#utility.yul\":7230:7361   */\n      tag_165\n        /* \"#utility.yul\":7356:7360   */\n      dup2\n        /* \"#utility.yul\":7230:7361   */\n      tag_93\n      jump\t// in\n    tag_165:\n        /* \"#utility.yul\":7222:7361   */\n      swap1\n      pop\n        /* \"#utility.yul\":6949:7368   */\n      swap2\n      swap1\n      pop\n      jump\t// out\n        /* \"#utility.yul\":7374:7554   */\n    tag_94:\n        /* \"#utility.yul\":7422:7499   */\n      0x4e487b7100000000000000000000000000000000000000000000000000000000\n        /* \"#utility.yul\":7419:7420   */\n      0x00\n        /* \"#utility.yul\":7412:7500   */\n      mstore\n        /* \"#utility.yul\":7519:7523   */\n      0x11\n        /* \"#utility.yul\":7516:7517   */\n      0x04\n        /* \"#utility.yul\":7509:7524   */\n      mstore\n        /* \"#utility.yul\":7543:7547   */\n      0x24\n        /* \"#utility.yul\":7540:7541   */\n      0x00\n        /* \"#utility.yul\":7533:7548   */\n      revert\n        /* \"#utility.yul\":7560:7793   */\n    tag_66:\n        /* \"#utility.yul\":7599:7602   */\n      0x00\n        /* \"#utility.yul\":7622:7646   */\n      tag_168\n        /* \"#utility.yul\":7640:7645   */\n      dup3\n        /* \"#utility.yul\":7622:7646   */\n      tag_76\n      jump\t// in\n    tag_168:\n        /* \"#utility.yul\":7613:7646   */\n      swap2\n      pop\n        /* \"#utility.yul\":7668:7734   */\n      0xffffffffffffffffffffffffffffffffffffffffffffffffffffffffffffffff\n        /* \"#utility.yul\":7661:7666   */\n      dup3\n        /* \"#utility.yul\":7658:7735   */\n      sub\n        /* \"#utility.yul\":7655:7758   */\n      tag_169\n      jumpi\n        /* \"#utility.yul\":7738:7756   */\n      tag_170\n      tag_94\n      jump\t// in\n    tag_170:\n        /* \"#utility.yul\":7655:7758   */\n    tag_169:\n        /* \"#utility.yul\":7785:7786   */\n      0x01\n        /* \"#utility.yul\":7778:7783   */\n      dup3\n        /* \"#utility.yul\":7774:7787   */\n      add\n        /* \"#utility.yul\":7767:7787   */\n      swap1\n      pop\n        /* \"#utility.yul\":7560:7793   */\n      swap2\n      swap1\n      pop\n      jump\t// out\n        /* \"#utility.yul\":7799:7980   */\n    tag_95:\n        /* \"#utility.yul\":7939:7972   */\n      0x5265656e7472616e637947756172643a207265656e7472616e742063616c6c00\n        /* \"#utility.yul\":7935:7936   */\n      0x00\n        /* \"#utility.yul\":7927:7933   */\n      dup3\n        /* \"#utility.yul\":7923:7937   */\n      add\n        /* \"#utility.yul\":7916:7973   */\n      mstore\n        /* \"#utility.yul\":7799:7980   */\n      pop\n      jump\t// out\n        /* \"#utility.yul\":7986:8352   */\n    tag_96:\n        /* \"#utility.yul\":8128:8131   */\n      0x00\n        /* \"#utility.yul\":8149:8216   */\n      tag_173\n        /* \"#utility.yul\":8213:8215   */\n      0x1f\n        /* \"#utility.yul\":8208:8211   */\n      dup4\n        /* \"#utility.yul\":8149:8216   */\n      tag_87\n      jump\t// in\n    tag_173:\n        /* \"#utility.yul\":8142:8216   */\n      swap2\n      pop\n        /* \"#utility.yul\":8225:8318   */\n      tag_174\n        /* \"#utility.yul\":8314:8317   */\n      dup3\n        /* \"#utility.yul\":8225:8318   */\n      tag_95\n      jump\t// in\n    tag_174:\n        /* \"#utility.yul\":8343:8345   */\n      0x20\n        /* \"#utility.yul\":8338:8341   */\n      dup3\n        /* \"#utility.yul\":8334:8346   */\n      add\n        /* \"#utility.yul\":8327:8346   */\n      swap1\n      pop\n        /* \"#utility.yul\":7986:8352   */\n      swap2\n      swap1\n      pop\n      jump\t// out\n        /* \"#utility.yul\":8358:8777   */\n    tag_71:\n        /* \"#utility.yul\":8524:8528   */\n      0x00\n        /* \"#utility.yul\":8562:8564   */\n      0x20\n        /* \"#utility.yul\":8551:8560   */\n      dup3\n        /* \"#utility.yul\":8547:8565   */\n      add\n        /* \"#utility.yul\":8539:8565   */\n      swap1\n      pop\n        /* \"#utility.yul\":8611:8620   */\n      dup2\n        /* \"#utility.yul\":8605:8609   */\n      dup2\n        /* \"#utility.yul\":8601:8621   */\n      sub\n        /* \"#utility.yul\":8597:8598   */\n      0x00\n        /* \"#utility.yul\":8586:8595   */\n      dup4\n        /* \"#utility.yul\":8582:8599   */\n      add\n        /* \"#utility.yul\":8575:8622   */\n      mstore\n        /* \"#utility.yul\":8639:8770   */\n      tag_176\n        /* \"#utility.yul\":8765:8769   */\n      dup2\n        /* \"#utility.yul\":8639:8770   */\n      tag_96\n      jump\t// in\n    tag_176:\n        /* \"#utility.yul\":8631:8770   */\n      swap1\n      pop\n        /* \"#utility.yul\":8358:8777   */\n      swap2\n      swap1\n      pop\n      jump\t// out\n\n    auxdata: 0xa2646970667358221220c641858322af9c03f2d28ef3af4b090be1e52007fd491138d076864ff4c3a21f64736f6c634300081a0033\n}\n",
				"bytecode": {
					"linkReferences": {},
					"object": "6080604052348015600e575f80fd5b5060015f81905550610e5d806100235f395ff3fe608060405234801561000f575f80fd5b5060043610610055575f3560e01c80631e6c598e14610059578063617d6ea81461008c578063660d15b5146100a8578063c484658d146100c6578063dec361ac146100e2575b5f80fd5b610073600480360381019061006e91906109ed565b6100fe565b6040516100839493929190610a71565b60405180910390f35b6100a660048036038101906100a19190610ab4565b610194565b005b6100b0610486565b6040516100bd9190610b01565b60405180910390f35b6100e060048036038101906100db9190610ab4565b61048c565b005b6100fc60048036038101906100f79190610b44565b610762565b005b6001602052805f5260405f205f91509050805f015f9054906101000a900473ffffffffffffffffffffffffffffffffffffffff1690806001015f9054906101000a900473ffffffffffffffffffffffffffffffffffffffff1690806002015f9054906101000a900473ffffffffffffffffffffffffffffffffffffffff16908060020160149054906101000a900460ff16905084565b61019c610960565b5f60015f8481526020019081526020015f206040518060800160405290815f82015f9054906101000a900473ffffffffffffffffffffffffffffffffffffffff1673ffffffffffffffffffffffffffffffffffffffff1673ffffffffffffffffffffffffffffffffffffffff168152602001600182015f9054906101000a900473ffffffffffffffffffffffffffffffffffffffff1673ffffffffffffffffffffffffffffffffffffffff1673ffffffffffffffffffffffffffffffffffffffff168152602001600282015f9054906101000a900473ffffffffffffffffffffffffffffffffffffffff1673ffffffffffffffffffffffffffffffffffffffff1673ffffffffffffffffffffffffffffffffffffffff1681526020016002820160149054906101000a900460ff16151515158152505090508060600151610318576040517f08c379a000000000000000000000000000000000000000000000000000000000815260040161030f90610bdc565b60405180910390fd5b805f015173ffffffffffffffffffffffffffffffffffffffff163373ffffffffffffffffffffffffffffffffffffffff1614610389576040517f08c379a000000000000000000000000000000000000000000000000000000000815260040161038090610c6a565b60405180910390fd5b806040015173ffffffffffffffffffffffffffffffffffffffff166323b872dd308360200151856040518463ffffffff1660e01b81526004016103ce93929190610c88565b5f604051808303815f87803b1580156103e5575f80fd5b505af11580156103f7573d5f803e3d5ffd5b505050505f60015f8581526020019081526020015f2060020160146101000a81548160ff021916908315150217905550806020015173ffffffffffffffffffffffffffffffffffffffff167f642ea0b1d63cc70f38e39719b589ae0a9a111ef74ae825093d1574009bdf4e29846040516104719190610b01565b60405180910390a2506104826109ad565b5050565b60025481565b610494610960565b5f60015f8481526020019081526020015f206040518060800160405290815f82015f9054906101000a900473ffffffffffffffffffffffffffffffffffffffff1673ffffffffffffffffffffffffffffffffffffffff1673ffffffffffffffffffffffffffffffffffffffff168152602001600182015f9054906101000a900473ffffffffffffffffffffffffffffffffffffffff1673ffffffffffffffffffffffffffffffffffffffff1673ffffffffffffffffffffffffffffffffffffffff168152602001600282015f9054906101000a900473ffffffffffffffffffffffffffffffffffffffff1673ffffffffffffffffffffffffffffffffffffffff1673ffffffffffffffffffffffffffffffffffffffff1681526020016002820160149054906101000a900460ff16151515158152505090508060600151610610576040517f08c379a000000000000000000000000000000000000000000000000000000000815260040161060790610bdc565b60405180910390fd5b805f015173ffffffffffffffffffffffffffffffffffffffff163373ffffffffffffffffffffffffffffffffffffffff1614610681576040517f08c379a000000000000000000000000000000000000000000000000000000000815260040161067890610d2d565b60405180910390fd5b806040015173ffffffffffffffffffffffffffffffffffffffff166323b872dd30835f0151856040518463ffffffff1660e01b81526004016106c593929190610c88565b5f604051808303815f87803b1580156106dc575f80fd5b505af11580156106ee573d5f803e3d5ffd5b505050505f60015f8581526020019081526020015f2060020160146101000a81548160ff0219169083151502179055507f99fd9dfa4bef817fb83b40a9bf8fcd786250dbfcf9e6fe86257f9517e08808eb8360405161074d9190610b01565b60405180910390a15061075e6109ad565b5050565b61076a610960565b60405180608001604052803373ffffffffffffffffffffffffffffffffffffffff1681526020018273ffffffffffffffffffffffffffffffffffffffff1681526020018373ffffffffffffffffffffffffffffffffffffffff1681526020016001151581525060015f60025481526020019081526020015f205f820151815f015f6101000a81548173ffffffffffffffffffffffffffffffffffffffff021916908373ffffffffffffffffffffffffffffffffffffffff1602179055506020820151816001015f6101000a81548173ffffffffffffffffffffffffffffffffffffffff021916908373ffffffffffffffffffffffffffffffffffffffff1602179055506040820151816002015f6101000a81548173ffffffffffffffffffffffffffffffffffffffff021916908373ffffffffffffffffffffffffffffffffffffffff16021790555060608201518160020160146101000a81548160ff0219169083151502179055509050508173ffffffffffffffffffffffffffffffffffffffff163373ffffffffffffffffffffffffffffffffffffffff167f9cf777ef8d920853772227176d5a18d6b577d1644b2b02949641f93317a21b256002546040516109359190610b01565b60405180910390a360025f81548092919061094f90610d78565b919050555061095c6109ad565b5050565b60025f54036109a4576040517f08c379a000000000000000000000000000000000000000000000000000000000815260040161099b90610e09565b60405180910390fd5b60025f81905550565b60015f81905550565b5f80fd5b5f819050919050565b6109cc816109ba565b81146109d6575f80fd5b50565b5f813590506109e7816109c3565b92915050565b5f60208284031215610a0257610a016109b6565b5b5f610a0f848285016109d9565b91505092915050565b5f73ffffffffffffffffffffffffffffffffffffffff82169050919050565b5f610a4182610a18565b9050919050565b610a5181610a37565b82525050565b5f8115159050919050565b610a6b81610a57565b82525050565b5f608082019050610a845f830187610a48565b610a916020830186610a48565b610a9e6040830185610a48565b610aab6060830184610a62565b95945050505050565b5f8060408385031215610aca57610ac96109b6565b5b5f610ad7858286016109d9565b9250506020610ae8858286016109d9565b9150509250929050565b610afb816109ba565b82525050565b5f602082019050610b145f830184610af2565b92915050565b610b2381610a37565b8114610b2d575f80fd5b50565b5f81359050610b3e81610b1a565b92915050565b5f8060408385031215610b5a57610b596109b6565b5b5f610b6785828601610b30565b9250506020610b7885828601610b30565b9150509250929050565b5f82825260208201905092915050565b7f5472616465206973206e6f7420616374697665000000000000000000000000005f82015250565b5f610bc6601383610b82565b9150610bd182610b92565b602082019050919050565b5f6020820190508181035f830152610bf381610bba565b9050919050565b7f4f6e6c79207468652073656c6c65722063616e20617070726f766520746865205f8201527f7472616465000000000000000000000000000000000000000000000000000000602082015250565b5f610c54602583610b82565b9150610c5f82610bfa565b604082019050919050565b5f6020820190508181035f830152610c8181610c48565b9050919050565b5f606082019050610c9b5f830186610a48565b610ca86020830185610a48565b610cb56040830184610af2565b949350505050565b7f4f6e6c79207468652073656c6c65722063616e2072656a6563742074686520745f8201527f7261646500000000000000000000000000000000000000000000000000000000602082015250565b5f610d17602483610b82565b9150610d2282610cbd565b604082019050919050565b5f6020820190508181035f830152610d4481610d0b565b9050919050565b7f4e487b71000000000000000000000000000000000000000000000000000000005f52601160045260245ffd5b5f610d82826109ba565b91507fffffffffffffffffffffffffffffffffffffffffffffffffffffffffffffffff8203610db457610db3610d4b565b5b600182019050919050565b7f5265656e7472616e637947756172643a207265656e7472616e742063616c6c005f82015250565b5f610df3601f83610b82565b9150610dfe82610dbf565b602082019050919050565b5f6020820190508181035f830152610e2081610de7565b905091905056fea2646970667358221220c641858322af9c03f2d28ef3af4b090be1e52007fd491138d076864ff4c3a21f64736f6c634300081a0033",
					"opcodes": "PUSH1 0x80 PUSH1 0x40 MSTORE CALLVALUE DUP1 ISZERO PUSH1 0xE JUMPI PUSH0 DUP1 REVERT JUMPDEST POP PUSH1 0x1 PUSH0 DUP2 SWAP1 SSTORE POP PUSH2 0xE5D DUP1 PUSH2 0x23 PUSH0 CODECOPY PUSH0 RETURN INVALID PUSH1 0x80 PUSH1 0x40 MSTORE CALLVALUE DUP1 ISZERO PUSH2 0xF JUMPI PUSH0 DUP1 REVERT JUMPDEST POP PUSH1 0x4 CALLDATASIZE LT PUSH2 0x55 JUMPI PUSH0 CALLDATALOAD PUSH1 0xE0 SHR DUP1 PUSH4 0x1E6C598E EQ PUSH2 0x59 JUMPI DUP1 PUSH4 0x617D6EA8 EQ PUSH2 0x8C JUMPI DUP1 PUSH4 0x660D15B5 EQ PUSH2 0xA8 JUMPI DUP1 PUSH4 0xC484658D EQ PUSH2 0xC6 JUMPI DUP1 PUSH4 0xDEC361AC EQ PUSH2 0xE2 JUMPI JUMPDEST PUSH0 DUP1 REVERT JUMPDEST PUSH2 0x73 PUSH1 0x4 DUP1 CALLDATASIZE SUB DUP2 ADD SWAP1 PUSH2 0x6E SWAP2 SWAP1 PUSH2 0x9ED JUMP JUMPDEST PUSH2 0xFE JUMP JUMPDEST PUSH1 0x40 MLOAD PUSH2 0x83 SWAP5 SWAP4 SWAP3 SWAP2 SWAP1 PUSH2 0xA71 JUMP JUMPDEST PUSH1 0x40 MLOAD DUP1 SWAP2 SUB SWAP1 RETURN JUMPDEST PUSH2 0xA6 PUSH1 0x4 DUP1 CALLDATASIZE SUB DUP2 ADD SWAP1 PUSH2 0xA1 SWAP2 SWAP1 PUSH2 0xAB4 JUMP JUMPDEST PUSH2 0x194 JUMP JUMPDEST STOP JUMPDEST PUSH2 0xB0 PUSH2 0x486 JUMP JUMPDEST PUSH1 0x40 MLOAD PUSH2 0xBD SWAP2 SWAP1 PUSH2 0xB01 JUMP JUMPDEST PUSH1 0x40 MLOAD DUP1 SWAP2 SUB SWAP1 RETURN JUMPDEST PUSH2 0xE0 PUSH1 0x4 DUP1 CALLDATASIZE SUB DUP2 ADD SWAP1 PUSH2 0xDB SWAP2 SWAP1 PUSH2 0xAB4 JUMP JUMPDEST PUSH2 0x48C JUMP JUMPDEST STOP JUMPDEST PUSH2 0xFC PUSH1 0x4 DUP1 CALLDATASIZE SUB DUP2 ADD SWAP1 PUSH2 0xF7 SWAP2 SWAP1 PUSH2 0xB44 JUMP JUMPDEST PUSH2 0x762 JUMP JUMPDEST STOP JUMPDEST PUSH1 0x1 PUSH1 0x20 MSTORE DUP1 PUSH0 MSTORE PUSH1 0x40 PUSH0 KECCAK256 PUSH0 SWAP2 POP SWAP1 POP DUP1 PUSH0 ADD PUSH0 SWAP1 SLOAD SWAP1 PUSH2 0x100 EXP SWAP1 DIV PUSH20 0xFFFFFFFFFFFFFFFFFFFFFFFFFFFFFFFFFFFFFFFF AND SWAP1 DUP1 PUSH1 0x1 ADD PUSH0 SWAP1 SLOAD SWAP1 PUSH2 0x100 EXP SWAP1 DIV PUSH20 0xFFFFFFFFFFFFFFFFFFFFFFFFFFFFFFFFFFFFFFFF AND SWAP1 DUP1 PUSH1 0x2 ADD PUSH0 SWAP1 SLOAD SWAP1 PUSH2 0x100 EXP SWAP1 DIV PUSH20 0xFFFFFFFFFFFFFFFFFFFFFFFFFFFFFFFFFFFFFFFF AND SWAP1 DUP1 PUSH1 0x2 ADD PUSH1 0x14 SWAP1 SLOAD SWAP1 PUSH2 0x100 EXP SWAP1 DIV PUSH1 0xFF AND SWAP1 POP DUP5 JUMP JUMPDEST PUSH2 0x19C PUSH2 0x960 JUMP JUMPDEST PUSH0 PUSH1 0x1 PUSH0 DUP5 DUP2 MSTORE PUSH1 0x20 ADD SWAP1 DUP2 MSTORE PUSH1 0x20 ADD PUSH0 KECCAK256 PUSH1 0x40 MLOAD DUP1 PUSH1 0x80 ADD PUSH1 0x40 MSTORE SWAP1 DUP2 PUSH0 DUP3 ADD PUSH0 SWAP1 SLOAD SWAP1 PUSH2 0x100 EXP SWAP1 DIV PUSH20 0xFFFFFFFFFFFFFFFFFFFFFFFFFFFFFFFFFFFFFFFF AND PUSH20 0xFFFFFFFFFFFFFFFFFFFFFFFFFFFFFFFFFFFFFFFF AND PUSH20 0xFFFFFFFFFFFFFFFFFFFFFFFFFFFFFFFFFFFFFFFF AND DUP2 MSTORE PUSH1 0x20 ADD PUSH1 0x1 DUP3 ADD PUSH0 SWAP1 SLOAD SWAP1 PUSH2 0x100 EXP SWAP1 DIV PUSH20 0xFFFFFFFFFFFFFFFFFFFFFFFFFFFFFFFFFFFFFFFF AND PUSH20 0xFFFFFFFFFFFFFFFFFFFFFFFFFFFFFFFFFFFFFFFF AND PUSH20 0xFFFFFFFFFFFFFFFFFFFFFFFFFFFFFFFFFFFFFFFF AND DUP2 MSTORE PUSH1 0x20 ADD PUSH1 0x2 DUP3 ADD PUSH0 SWAP1 SLOAD SWAP1 PUSH2 0x100 EXP SWAP1 DIV PUSH20 0xFFFFFFFFFFFFFFFFFFFFFFFFFFFFFFFFFFFFFFFF AND PUSH20 0xFFFFFFFFFFFFFFFFFFFFFFFFFFFFFFFFFFFFFFFF AND PUSH20 0xFFFFFFFFFFFFFFFFFFFFFFFFFFFFFFFFFFFFFFFF AND DUP2 MSTORE PUSH1 0x20 ADD PUSH1 0x2 DUP3 ADD PUSH1 0x14 SWAP1 SLOAD SWAP1 PUSH2 0x100 EXP SWAP1 DIV PUSH1 0xFF AND ISZERO ISZERO ISZERO ISZERO DUP2 MSTORE POP POP SWAP1 POP DUP1 PUSH1 0x60 ADD MLOAD PUSH2 0x318 JUMPI PUSH1 0x40 MLOAD PUSH32 0x8C379A000000000000000000000000000000000000000000000000000000000 DUP2 MSTORE PUSH1 0x4 ADD PUSH2 0x30F SWAP1 PUSH2 0xBDC JUMP JUMPDEST PUSH1 0x40 MLOAD DUP1 SWAP2 SUB SWAP1 REVERT JUMPDEST DUP1 PUSH0 ADD MLOAD PUSH20 0xFFFFFFFFFFFFFFFFFFFFFFFFFFFFFFFFFFFFFFFF AND CALLER PUSH20 0xFFFFFFFFFFFFFFFFFFFFFFFFFFFFFFFFFFFFFFFF AND EQ PUSH2 0x389 JUMPI PUSH1 0x40 MLOAD PUSH32 0x8C379A000000000000000000000000000000000000000000000000000000000 DUP2 MSTORE PUSH1 0x4 ADD PUSH2 0x380 SWAP1 PUSH2 0xC6A JUMP JUMPDEST PUSH1 0x40 MLOAD DUP1 SWAP2 SUB SWAP1 REVERT JUMPDEST DUP1 PUSH1 0x40 ADD MLOAD PUSH20 0xFFFFFFFFFFFFFFFFFFFFFFFFFFFFFFFFFFFFFFFF AND PUSH4 0x23B872DD ADDRESS DUP4 PUSH1 0x20 ADD MLOAD DUP6 PUSH1 0x40 MLOAD DUP5 PUSH4 0xFFFFFFFF AND PUSH1 0xE0 SHL DUP2 MSTORE PUSH1 0x4 ADD PUSH2 0x3CE SWAP4 SWAP3 SWAP2 SWAP1 PUSH2 0xC88 JUMP JUMPDEST PUSH0 PUSH1 0x40 MLOAD DUP1 DUP4 SUB DUP2 PUSH0 DUP8 DUP1 EXTCODESIZE ISZERO DUP1 ISZERO PUSH2 0x3E5 JUMPI PUSH0 DUP1 REVERT JUMPDEST POP GAS CALL ISZERO DUP1 ISZERO PUSH2 0x3F7 JUMPI RETURNDATASIZE PUSH0 DUP1 RETURNDATACOPY RETURNDATASIZE PUSH0 REVERT JUMPDEST POP POP POP POP PUSH0 PUSH1 0x1 PUSH0 DUP6 DUP2 MSTORE PUSH1 0x20 ADD SWAP1 DUP2 MSTORE PUSH1 0x20 ADD PUSH0 KECCAK256 PUSH1 0x2 ADD PUSH1 0x14 PUSH2 0x100 EXP DUP2 SLOAD DUP2 PUSH1 0xFF MUL NOT AND SWAP1 DUP4 ISZERO ISZERO MUL OR SWAP1 SSTORE POP DUP1 PUSH1 0x20 ADD MLOAD PUSH20 0xFFFFFFFFFFFFFFFFFFFFFFFFFFFFFFFFFFFFFFFF AND PUSH32 0x642EA0B1D63CC70F38E39719B589AE0A9A111EF74AE825093D1574009BDF4E29 DUP5 PUSH1 0x40 MLOAD PUSH2 0x471 SWAP2 SWAP1 PUSH2 0xB01 JUMP JUMPDEST PUSH1 0x40 MLOAD DUP1 SWAP2 SUB SWAP1 LOG2 POP PUSH2 0x482 PUSH2 0x9AD JUMP JUMPDEST POP POP JUMP JUMPDEST PUSH1 0x2 SLOAD DUP2 JUMP JUMPDEST PUSH2 0x494 PUSH2 0x960 JUMP JUMPDEST PUSH0 PUSH1 0x1 PUSH0 DUP5 DUP2 MSTORE PUSH1 0x20 ADD SWAP1 DUP2 MSTORE PUSH1 0x20 ADD PUSH0 KECCAK256 PUSH1 0x40 MLOAD DUP1 PUSH1 0x80 ADD PUSH1 0x40 MSTORE SWAP1 DUP2 PUSH0 DUP3 ADD PUSH0 SWAP1 SLOAD SWAP1 PUSH2 0x100 EXP SWAP1 DIV PUSH20 0xFFFFFFFFFFFFFFFFFFFFFFFFFFFFFFFFFFFFFFFF AND PUSH20 0xFFFFFFFFFFFFFFFFFFFFFFFFFFFFFFFFFFFFFFFF AND PUSH20 0xFFFFFFFFFFFFFFFFFFFFFFFFFFFFFFFFFFFFFFFF AND DUP2 MSTORE PUSH1 0x20 ADD PUSH1 0x1 DUP3 ADD PUSH0 SWAP1 SLOAD SWAP1 PUSH2 0x100 EXP SWAP1 DIV PUSH20 0xFFFFFFFFFFFFFFFFFFFFFFFFFFFFFFFFFFFFFFFF AND PUSH20 0xFFFFFFFFFFFFFFFFFFFFFFFFFFFFFFFFFFFFFFFF AND PUSH20 0xFFFFFFFFFFFFFFFFFFFFFFFFFFFFFFFFFFFFFFFF AND DUP2 MSTORE PUSH1 0x20 ADD PUSH1 0x2 DUP3 ADD PUSH0 SWAP1 SLOAD SWAP1 PUSH2 0x100 EXP SWAP1 DIV PUSH20 0xFFFFFFFFFFFFFFFFFFFFFFFFFFFFFFFFFFFFFFFF AND PUSH20 0xFFFFFFFFFFFFFFFFFFFFFFFFFFFFFFFFFFFFFFFF AND PUSH20 0xFFFFFFFFFFFFFFFFFFFFFFFFFFFFFFFFFFFFFFFF AND DUP2 MSTORE PUSH1 0x20 ADD PUSH1 0x2 DUP3 ADD PUSH1 0x14 SWAP1 SLOAD SWAP1 PUSH2 0x100 EXP SWAP1 DIV PUSH1 0xFF AND ISZERO ISZERO ISZERO ISZERO DUP2 MSTORE POP POP SWAP1 POP DUP1 PUSH1 0x60 ADD MLOAD PUSH2 0x610 JUMPI PUSH1 0x40 MLOAD PUSH32 0x8C379A000000000000000000000000000000000000000000000000000000000 DUP2 MSTORE PUSH1 0x4 ADD PUSH2 0x607 SWAP1 PUSH2 0xBDC JUMP JUMPDEST PUSH1 0x40 MLOAD DUP1 SWAP2 SUB SWAP1 REVERT JUMPDEST DUP1 PUSH0 ADD MLOAD PUSH20 0xFFFFFFFFFFFFFFFFFFFFFFFFFFFFFFFFFFFFFFFF AND CALLER PUSH20 0xFFFFFFFFFFFFFFFFFFFFFFFFFFFFFFFFFFFFFFFF AND EQ PUSH2 0x681 JUMPI PUSH1 0x40 MLOAD PUSH32 0x8C379A000000000000000000000000000000000000000000000000000000000 DUP2 MSTORE PUSH1 0x4 ADD PUSH2 0x678 SWAP1 PUSH2 0xD2D JUMP JUMPDEST PUSH1 0x40 MLOAD DUP1 SWAP2 SUB SWAP1 REVERT JUMPDEST DUP1 PUSH1 0x40 ADD MLOAD PUSH20 0xFFFFFFFFFFFFFFFFFFFFFFFFFFFFFFFFFFFFFFFF AND PUSH4 0x23B872DD ADDRESS DUP4 PUSH0 ADD MLOAD DUP6 PUSH1 0x40 MLOAD DUP5 PUSH4 0xFFFFFFFF AND PUSH1 0xE0 SHL DUP2 MSTORE PUSH1 0x4 ADD PUSH2 0x6C5 SWAP4 SWAP3 SWAP2 SWAP1 PUSH2 0xC88 JUMP JUMPDEST PUSH0 PUSH1 0x40 MLOAD DUP1 DUP4 SUB DUP2 PUSH0 DUP8 DUP1 EXTCODESIZE ISZERO DUP1 ISZERO PUSH2 0x6DC JUMPI PUSH0 DUP1 REVERT JUMPDEST POP GAS CALL ISZERO DUP1 ISZERO PUSH2 0x6EE JUMPI RETURNDATASIZE PUSH0 DUP1 RETURNDATACOPY RETURNDATASIZE PUSH0 REVERT JUMPDEST POP POP POP POP PUSH0 PUSH1 0x1 PUSH0 DUP6 DUP2 MSTORE PUSH1 0x20 ADD SWAP1 DUP2 MSTORE PUSH1 0x20 ADD PUSH0 KECCAK256 PUSH1 0x2 ADD PUSH1 0x14 PUSH2 0x100 EXP DUP2 SLOAD DUP2 PUSH1 0xFF MUL NOT AND SWAP1 DUP4 ISZERO ISZERO MUL OR SWAP1 SSTORE POP PUSH32 0x99FD9DFA4BEF817FB83B40A9BF8FCD786250DBFCF9E6FE86257F9517E08808EB DUP4 PUSH1 0x40 MLOAD PUSH2 0x74D SWAP2 SWAP1 PUSH2 0xB01 JUMP JUMPDEST PUSH1 0x40 MLOAD DUP1 SWAP2 SUB SWAP1 LOG1 POP PUSH2 0x75E PUSH2 0x9AD JUMP JUMPDEST POP POP JUMP JUMPDEST PUSH2 0x76A PUSH2 0x960 JUMP JUMPDEST PUSH1 0x40 MLOAD DUP1 PUSH1 0x80 ADD PUSH1 0x40 MSTORE DUP1 CALLER PUSH20 0xFFFFFFFFFFFFFFFFFFFFFFFFFFFFFFFFFFFFFFFF AND DUP2 MSTORE PUSH1 0x20 ADD DUP3 PUSH20 0xFFFFFFFFFFFFFFFFFFFFFFFFFFFFFFFFFFFFFFFF AND DUP2 MSTORE PUSH1 0x20 ADD DUP4 PUSH20 0xFFFFFFFFFFFFFFFFFFFFFFFFFFFFFFFFFFFFFFFF AND DUP2 MSTORE PUSH1 0x20 ADD PUSH1 0x1 ISZERO ISZERO DUP2 MSTORE POP PUSH1 0x1 PUSH0 PUSH1 0x2 SLOAD DUP2 MSTORE PUSH1 0x20 ADD SWAP1 DUP2 MSTORE PUSH1 0x20 ADD PUSH0 KECCAK256 PUSH0 DUP3 ADD MLOAD DUP2 PUSH0 ADD PUSH0 PUSH2 0x100 EXP DUP2 SLOAD DUP2 PUSH20 0xFFFFFFFFFFFFFFFFFFFFFFFFFFFFFFFFFFFFFFFF MUL NOT AND SWAP1 DUP4 PUSH20 0xFFFFFFFFFFFFFFFFFFFFFFFFFFFFFFFFFFFFFFFF AND MUL OR SWAP1 SSTORE POP PUSH1 0x20 DUP3 ADD MLOAD DUP2 PUSH1 0x1 ADD PUSH0 PUSH2 0x100 EXP DUP2 SLOAD DUP2 PUSH20 0xFFFFFFFFFFFFFFFFFFFFFFFFFFFFFFFFFFFFFFFF MUL NOT AND SWAP1 DUP4 PUSH20 0xFFFFFFFFFFFFFFFFFFFFFFFFFFFFFFFFFFFFFFFF AND MUL OR SWAP1 SSTORE POP PUSH1 0x40 DUP3 ADD MLOAD DUP2 PUSH1 0x2 ADD PUSH0 PUSH2 0x100 EXP DUP2 SLOAD DUP2 PUSH20 0xFFFFFFFFFFFFFFFFFFFFFFFFFFFFFFFFFFFFFFFF MUL NOT AND SWAP1 DUP4 PUSH20 0xFFFFFFFFFFFFFFFFFFFFFFFFFFFFFFFFFFFFFFFF AND MUL OR SWAP1 SSTORE POP PUSH1 0x60 DUP3 ADD MLOAD DUP2 PUSH1 0x2 ADD PUSH1 0x14 PUSH2 0x100 EXP DUP2 SLOAD DUP2 PUSH1 0xFF MUL NOT AND SWAP1 DUP4 ISZERO ISZERO MUL OR SWAP1 SSTORE POP SWAP1 POP POP DUP2 PUSH20 0xFFFFFFFFFFFFFFFFFFFFFFFFFFFFFFFFFFFFFFFF AND CALLER PUSH20 0xFFFFFFFFFFFFFFFFFFFFFFFFFFFFFFFFFFFFFFFF AND PUSH32 0x9CF777EF8D920853772227176D5A18D6B577D1644B2B02949641F93317A21B25 PUSH1 0x2 SLOAD PUSH1 0x40 MLOAD PUSH2 0x935 SWAP2 SWAP1 PUSH2 0xB01 JUMP JUMPDEST PUSH1 0x40 MLOAD DUP1 SWAP2 SUB SWAP1 LOG3 PUSH1 0x2 PUSH0 DUP2 SLOAD DUP1 SWAP3 SWAP2 SWAP1 PUSH2 0x94F SWAP1 PUSH2 0xD78 JUMP JUMPDEST SWAP2 SWAP1 POP SSTORE POP PUSH2 0x95C PUSH2 0x9AD JUMP JUMPDEST POP POP JUMP JUMPDEST PUSH1 0x2 PUSH0 SLOAD SUB PUSH2 0x9A4 JUMPI PUSH1 0x40 MLOAD PUSH32 0x8C379A000000000000000000000000000000000000000000000000000000000 DUP2 MSTORE PUSH1 0x4 ADD PUSH2 0x99B SWAP1 PUSH2 0xE09 JUMP JUMPDEST PUSH1 0x40 MLOAD DUP1 SWAP2 SUB SWAP1 REVERT JUMPDEST PUSH1 0x2 PUSH0 DUP2 SWAP1 SSTORE POP JUMP JUMPDEST PUSH1 0x1 PUSH0 DUP2 SWAP1 SSTORE POP JUMP JUMPDEST PUSH0 DUP1 REVERT JUMPDEST PUSH0 DUP2 SWAP1 POP SWAP2 SWAP1 POP JUMP JUMPDEST PUSH2 0x9CC DUP2 PUSH2 0x9BA JUMP JUMPDEST DUP2 EQ PUSH2 0x9D6 JUMPI PUSH0 DUP1 REVERT JUMPDEST POP JUMP JUMPDEST PUSH0 DUP2 CALLDATALOAD SWAP1 POP PUSH2 0x9E7 DUP2 PUSH2 0x9C3 JUMP JUMPDEST SWAP3 SWAP2 POP POP JUMP JUMPDEST PUSH0 PUSH1 0x20 DUP3 DUP5 SUB SLT ISZERO PUSH2 0xA02 JUMPI PUSH2 0xA01 PUSH2 0x9B6 JUMP JUMPDEST JUMPDEST PUSH0 PUSH2 0xA0F DUP5 DUP3 DUP6 ADD PUSH2 0x9D9 JUMP JUMPDEST SWAP2 POP POP SWAP3 SWAP2 POP POP JUMP JUMPDEST PUSH0 PUSH20 0xFFFFFFFFFFFFFFFFFFFFFFFFFFFFFFFFFFFFFFFF DUP3 AND SWAP1 POP SWAP2 SWAP1 POP JUMP JUMPDEST PUSH0 PUSH2 0xA41 DUP3 PUSH2 0xA18 JUMP JUMPDEST SWAP1 POP SWAP2 SWAP1 POP JUMP JUMPDEST PUSH2 0xA51 DUP2 PUSH2 0xA37 JUMP JUMPDEST DUP3 MSTORE POP POP JUMP JUMPDEST PUSH0 DUP2 ISZERO ISZERO SWAP1 POP SWAP2 SWAP1 POP JUMP JUMPDEST PUSH2 0xA6B DUP2 PUSH2 0xA57 JUMP JUMPDEST DUP3 MSTORE POP POP JUMP JUMPDEST PUSH0 PUSH1 0x80 DUP3 ADD SWAP1 POP PUSH2 0xA84 PUSH0 DUP4 ADD DUP8 PUSH2 0xA48 JUMP JUMPDEST PUSH2 0xA91 PUSH1 0x20 DUP4 ADD DUP7 PUSH2 0xA48 JUMP JUMPDEST PUSH2 0xA9E PUSH1 0x40 DUP4 ADD DUP6 PUSH2 0xA48 JUMP JUMPDEST PUSH2 0xAAB PUSH1 0x60 DUP4 ADD DUP5 PUSH2 0xA62 JUMP JUMPDEST SWAP6 SWAP5 POP POP POP POP POP JUMP JUMPDEST PUSH0 DUP1 PUSH1 0x40 DUP4 DUP6 SUB SLT ISZERO PUSH2 0xACA JUMPI PUSH2 0xAC9 PUSH2 0x9B6 JUMP JUMPDEST JUMPDEST PUSH0 PUSH2 0xAD7 DUP6 DUP3 DUP7 ADD PUSH2 0x9D9 JUMP JUMPDEST SWAP3 POP POP PUSH1 0x20 PUSH2 0xAE8 DUP6 DUP3 DUP7 ADD PUSH2 0x9D9 JUMP JUMPDEST SWAP2 POP POP SWAP3 POP SWAP3 SWAP1 POP JUMP JUMPDEST PUSH2 0xAFB DUP2 PUSH2 0x9BA JUMP JUMPDEST DUP3 MSTORE POP POP JUMP JUMPDEST PUSH0 PUSH1 0x20 DUP3 ADD SWAP1 POP PUSH2 0xB14 PUSH0 DUP4 ADD DUP5 PUSH2 0xAF2 JUMP JUMPDEST SWAP3 SWAP2 POP POP JUMP JUMPDEST PUSH2 0xB23 DUP2 PUSH2 0xA37 JUMP JUMPDEST DUP2 EQ PUSH2 0xB2D JUMPI PUSH0 DUP1 REVERT JUMPDEST POP JUMP JUMPDEST PUSH0 DUP2 CALLDATALOAD SWAP1 POP PUSH2 0xB3E DUP2 PUSH2 0xB1A JUMP JUMPDEST SWAP3 SWAP2 POP POP JUMP JUMPDEST PUSH0 DUP1 PUSH1 0x40 DUP4 DUP6 SUB SLT ISZERO PUSH2 0xB5A JUMPI PUSH2 0xB59 PUSH2 0x9B6 JUMP JUMPDEST JUMPDEST PUSH0 PUSH2 0xB67 DUP6 DUP3 DUP7 ADD PUSH2 0xB30 JUMP JUMPDEST SWAP3 POP POP PUSH1 0x20 PUSH2 0xB78 DUP6 DUP3 DUP7 ADD PUSH2 0xB30 JUMP JUMPDEST SWAP2 POP POP SWAP3 POP SWAP3 SWAP1 POP JUMP JUMPDEST PUSH0 DUP3 DUP3 MSTORE PUSH1 0x20 DUP3 ADD SWAP1 POP SWAP3 SWAP2 POP POP JUMP JUMPDEST PUSH32 0x5472616465206973206E6F742061637469766500000000000000000000000000 PUSH0 DUP3 ADD MSTORE POP JUMP JUMPDEST PUSH0 PUSH2 0xBC6 PUSH1 0x13 DUP4 PUSH2 0xB82 JUMP JUMPDEST SWAP2 POP PUSH2 0xBD1 DUP3 PUSH2 0xB92 JUMP JUMPDEST PUSH1 0x20 DUP3 ADD SWAP1 POP SWAP2 SWAP1 POP JUMP JUMPDEST PUSH0 PUSH1 0x20 DUP3 ADD SWAP1 POP DUP2 DUP2 SUB PUSH0 DUP4 ADD MSTORE PUSH2 0xBF3 DUP2 PUSH2 0xBBA JUMP JUMPDEST SWAP1 POP SWAP2 SWAP1 POP JUMP JUMPDEST PUSH32 0x4F6E6C79207468652073656C6C65722063616E20617070726F76652074686520 PUSH0 DUP3 ADD MSTORE PUSH32 0x7472616465000000000000000000000000000000000000000000000000000000 PUSH1 0x20 DUP3 ADD MSTORE POP JUMP JUMPDEST PUSH0 PUSH2 0xC54 PUSH1 0x25 DUP4 PUSH2 0xB82 JUMP JUMPDEST SWAP2 POP PUSH2 0xC5F DUP3 PUSH2 0xBFA JUMP JUMPDEST PUSH1 0x40 DUP3 ADD SWAP1 POP SWAP2 SWAP1 POP JUMP JUMPDEST PUSH0 PUSH1 0x20 DUP3 ADD SWAP1 POP DUP2 DUP2 SUB PUSH0 DUP4 ADD MSTORE PUSH2 0xC81 DUP2 PUSH2 0xC48 JUMP JUMPDEST SWAP1 POP SWAP2 SWAP1 POP JUMP JUMPDEST PUSH0 PUSH1 0x60 DUP3 ADD SWAP1 POP PUSH2 0xC9B PUSH0 DUP4 ADD DUP7 PUSH2 0xA48 JUMP JUMPDEST PUSH2 0xCA8 PUSH1 0x20 DUP4 ADD DUP6 PUSH2 0xA48 JUMP JUMPDEST PUSH2 0xCB5 PUSH1 0x40 DUP4 ADD DUP5 PUSH2 0xAF2 JUMP JUMPDEST SWAP5 SWAP4 POP POP POP POP JUMP JUMPDEST PUSH32 0x4F6E6C79207468652073656C6C65722063616E2072656A656374207468652074 PUSH0 DUP3 ADD MSTORE PUSH32 0x7261646500000000000000000000000000000000000000000000000000000000 PUSH1 0x20 DUP3 ADD MSTORE POP JUMP JUMPDEST PUSH0 PUSH2 0xD17 PUSH1 0x24 DUP4 PUSH2 0xB82 JUMP JUMPDEST SWAP2 POP PUSH2 0xD22 DUP3 PUSH2 0xCBD JUMP JUMPDEST PUSH1 0x40 DUP3 ADD SWAP1 POP SWAP2 SWAP1 POP JUMP JUMPDEST PUSH0 PUSH1 0x20 DUP3 ADD SWAP1 POP DUP2 DUP2 SUB PUSH0 DUP4 ADD MSTORE PUSH2 0xD44 DUP2 PUSH2 0xD0B JUMP JUMPDEST SWAP1 POP SWAP2 SWAP1 POP JUMP JUMPDEST PUSH32 0x4E487B7100000000000000000000000000000000000000000000000000000000 PUSH0 MSTORE PUSH1 0x11 PUSH1 0x4 MSTORE PUSH1 0x24 PUSH0 REVERT JUMPDEST PUSH0 PUSH2 0xD82 DUP3 PUSH2 0x9BA JUMP JUMPDEST SWAP2 POP PUSH32 0xFFFFFFFFFFFFFFFFFFFFFFFFFFFFFFFFFFFFFFFFFFFFFFFFFFFFFFFFFFFFFFFF DUP3 SUB PUSH2 0xDB4 JUMPI PUSH2 0xDB3 PUSH2 0xD4B JUMP JUMPDEST JUMPDEST PUSH1 0x1 DUP3 ADD SWAP1 POP SWAP2 SWAP1 POP JUMP JUMPDEST PUSH32 0x5265656E7472616E637947756172643A207265656E7472616E742063616C6C00 PUSH0 DUP3 ADD MSTORE POP JUMP JUMPDEST PUSH0 PUSH2 0xDF3 PUSH1 0x1F DUP4 PUSH2 0xB82 JUMP JUMPDEST SWAP2 POP PUSH2 0xDFE DUP3 PUSH2 0xDBF JUMP JUMPDEST PUSH1 0x20 DUP3 ADD SWAP1 POP SWAP2 SWAP1 POP JUMP JUMPDEST PUSH0 PUSH1 0x20 DUP3 ADD SWAP1 POP DUP2 DUP2 SUB PUSH0 DUP4 ADD MSTORE PUSH2 0xE20 DUP2 PUSH2 0xDE7 JUMP JUMPDEST SWAP1 POP SWAP2 SWAP1 POP JUMP INVALID LOG2 PUSH5 0x6970667358 0x22 SLT KECCAK256 0xC6 COINBASE DUP6 DUP4 0x22 0xAF SWAP13 SUB CALLCODE 0xD2 DUP15 RETURN 0xAF 0x4B MULMOD SIGNEXTEND 0xE1 0xE5 KECCAK256 SMOD REVERT BLOBHASH GT CODESIZE 0xD0 PUSH23 0x864FF4C3A21F64736F6C634300081A0033000000000000 "
				},
				"gasEstimates": {
					"creation": {
						"codeDepositCost": "735400",
						"executionCost": "22877",
						"totalCost": "758277"
					},
					"external": {
						"approveTrade(uint256,uint256)": "infinite",
						"createTrade(address,address)": "infinite",
						"rejectTrade(uint256,uint256)": "infinite",
						"tradeCounter()": "2447",
						"trades(uint256)": "infinite"
					}
				},
				"methodIdentifiers": {
					"approveTrade(uint256,uint256)": "617d6ea8",
					"createTrade(address,address)": "dec361ac",
					"rejectTrade(uint256,uint256)": "c484658d",
					"tradeCounter()": "660d15b5",
					"trades(uint256)": "1e6c598e"
				}
			},
			"storageLayout": {
				"storage": [
					{
						"astId": 10,
						"contract": "contracts/ManageDeal.sol:TradeNFT",
						"label": "_status",
						"offset": 0,
						"slot": "0",
						"type": "t_uint256"
					},
					{
						"astId": 213,
						"contract": "contracts/ManageDeal.sol:TradeNFT",
						"label": "trades",
						"offset": 0,
						"slot": "1",
						"type": "t_mapping(t_uint256,t_struct(Trade)208_storage)"
					},
					{
						"astId": 215,
						"contract": "contracts/ManageDeal.sol:TradeNFT",
						"label": "tradeCounter",
						"offset": 0,
						"slot": "2",
						"type": "t_uint256"
					}
				],
				"types": {
					"t_address": {
						"encoding": "inplace",
						"label": "address",
						"numberOfBytes": "20"
					},
					"t_bool": {
						"encoding": "inplace",
						"label": "bool",
						"numberOfBytes": "1"
					},
					"t_mapping(t_uint256,t_struct(Trade)208_storage)": {
						"encoding": "mapping",
						"key": "t_uint256",
						"label": "mapping(uint256 => struct TradeNFT.Trade)",
						"numberOfBytes": "32",
						"value": "t_struct(Trade)208_storage"
					},
					"t_struct(Trade)208_storage": {
						"encoding": "inplace",
						"label": "struct TradeNFT.Trade",
						"members": [
							{
								"astId": 201,
								"contract": "contracts/ManageDeal.sol:TradeNFT",
								"label": "seller",
								"offset": 0,
								"slot": "0",
								"type": "t_address"
							},
							{
								"astId": 203,
								"contract": "contracts/ManageDeal.sol:TradeNFT",
								"label": "buyer",
								"offset": 0,
								"slot": "1",
								"type": "t_address"
							},
							{
								"astId": 205,
								"contract": "contracts/ManageDeal.sol:TradeNFT",
								"label": "nftContract",
								"offset": 0,
								"slot": "2",
								"type": "t_address"
							},
							{
								"astId": 207,
								"contract": "contracts/ManageDeal.sol:TradeNFT",
								"label": "isActive",
								"offset": 20,
								"slot": "2",
								"type": "t_bool"
							}
						],
						"numberOfBytes": "96"
					},
					"t_uint256": {
						"encoding": "inplace",
						"label": "uint256",
						"numberOfBytes": "32"
					}
				}
			},
			"userdoc": {
				"kind": "user",
				"methods": {},
				"version": 1
			}
		}
	}
}